:100000000C9481080C94B2080C94B2080C94B208B9
:100010000C94B2080C94B2080C94B2080C94B20878
:100020000C94B2080C94B2080C94B2080C94B20868
:100030000C94B2080C94B2080C94B2080C94B20858
:100040000C94B2080C94B2080C94B2080C94B20848
:100050000C94B2080C94B2080C94B2080C94BB2413
:100060000C94B2080C94B2080C94B2080C94B20828
:100070000C94B2080C94B2080C94B2080C94B20818
:100080000C94B2080C94B2080C94B2080C94B20808
:100090000C94B2080C94B2080C94B2080C94B208F8
:1000A0000C94B2080C94B2080C94B2080C94B208E8
:1000B0000C94B2080C94B2080C94B2080C94B208D8
:1000C0000C94B2080C94B2080C94B2080C94B208C8
:1000D0000C94B2080C94B2080C94B2080C94B208B8
:1000E0000C94B20807634236B79BD8A71A396856F2
:1000F00018AEBAAB558C1D3CB7CC5763BD6DEDFD4A
:10010000753EF6177231BF000000803F0800000006
:10011000BE922449123EABAAAA2ABECDCCCC4C3EFC
:1001200000000080BEABAAAAAA3E00000000BF00EB
:100130000000803F0000000000084178D3BB4387E7
:10014000D1133D190E3CC3BD4282AD2B3E68EC82FB
:1001500076BED98FE1A93E4C80EFFFBE01C4FF7F80
:100160003F00000000000C94FE1F0C94771C0C94C0
:10017000C0180C94201F0C94B61F0C9445110C94BD
:1001800046160C94780E0C9454200C94161D0C9466
:100190008F0E0C949F1C0C944B110C94B40F0C9468
:1001A000420F0C942A1A0C94A1210C941A1F0C943F
:1001B0004A0F0C94B41C0C943E110C9404240C941F
:1001C000C80F0C9442110C94B60E0C9485230C9419
:1001D000CE0E0C949E0E0C94A21C0C94ED310C943B
:1001E0006E150C94CA0E0C94630F0C94870F0C942C
:1001F000930E0C94AE0E0C9477210C94890D0C94F4
:10020000BE0F0C942C1E0C947D0F0C94261F0C9486
:10021000B20E0C949E1C0C94910F0C94D20F0C9463
:10022000C40E0C946C0D0C94DC0F0C94C0100C9448
:100230009C0D0C944F110C94C10B0C9418220C942F
:10024000EF0A0C9462100C9416110C943A110C9451
:100250006C110C9448110C94A40E0C94BC0E0C94CC
:10026000970E0C948A1C0C94AA0F0C948C210C945D
:10027000200C0C94950D0C94C00E0C94141F0C942F
:100280009B0E0C9458210C94A80E0C946D0D0C949C
:10029000961D0C946D0F0C94B6220C944F0F0C9479
:1002A0007D0D0C949B0F0C947D0E0C94A2200C944D
:1002B000750F0C94C21D0C94590F00407A10F35A1C
:1002C00000A0724E18090010A5D4E80000E8764896
:1002D000170000E40B54020000CA9A3B000000E142
:1002E000F505000080969800000040420F000000D5
:1002F000A08601000000102700000000E8030000B5
:1003000000006400000000000A000000000001007E
:10031000000000002C76D888DC674F0823DFC1DF9F
:10032000AE59E1B1B796E5E3E453C63AE6519976A2
:1003300096E8E6C28426EB898C9B62ED407C6FFCDC
:10034000EFBC9C9F40F2BAA56FA5F490055A2AF71E
:100350005C936B6CF9676DC11BFCE0E40D47FEF527
:1003600020E6B500D0ED902E03009435770500808F
:10037000841E080000204E0A000000C80C333333EE
:10038000330F986E12831141EF8D2114893BE6558E
:1003900016CFFEE6DB18D1844B381BF77C1D901D71
:1003A000A4BBE424203284725E228100C9F124ECD3
:1003B000A1E53D2711007F96290001007F962800C6
:1003C0003A0155C0021010C10141C504002280400D
:1003D000360168B00100B102B011B40102B60302E7
:1003E000023BB701C63A0155F704A9512C82B70167
:1003F000C6E808408A00002919A533C0020D0DC1C6
:10040000024300C20100C50400480048B40100B620
:100410000302023BE00F0F211C0B0E08499838091C
:100420001103141000E10F0F2F2B0C0E0647763727
:10043000071104231E00B00100B30402000000B441
:100440000100D003074218D103000710D2020102B5
:10045000D3020102D4020102C005123B000211C105
:1004600003101088C50103C60102C80C00323645CE
:100470000616377577540C00CC0100F60301010015
:10048000CF03008130ED0464031281E80385107806
:10049000CB05392C003402F70120EA020000B0013C
:1004A00000B102001BB40100C00121C10111C5024D
:1004B0003F3CC701B5360148F20100260101E00FBB
:1004C0000F26240B0E0954A8460C17090F0700E14C
:1004D0000F00191B0410072A473903060630380F8E
:1004E000360100B80101C0010EB00100C1041010B6
:1004F0000202C006003500000102C50104D202015B
:1005000004CA0100EA0180B903FF83577F967F96F2
:10051000B60125C0065050013C1E08B40702400039
:100520002A2A0D787F01F20B161603080808081016
:10053000041616FD03110235B2050C0C003333B757
:100540000135BB012BC00104C20201FFC30111C46C
:100550000120C6010FD002A4A1E00ED000050E15A7
:100560000D3743470915121619E10ED000050D0C81
:10057000062D44400E1C1816193A01557F0A060034
:100580000700B1020012B40102B60400202700CA1D
:100590000101CB0103C001137F14C501CCC60100CA
:1005A000C70104C80103CC0106CD011CF9021515D1
:1005B000F3030A020AF603011000FA00FB00E2034B
:1005C0001E0254E001017F0AE001037F0A01007F5F
:1005D00064E60303FFFFB0072400031F01DF00B43C
:1005E0000803A0002E30000F00B607020D00101007
:1005F0000008BA010FB8020701F001007F012800CE
:1006000011007F642900BE0606F001F00000D00151
:100610000DB00103E2013FC00122E20100B0010080
:10062000C0010AB00100000000000000000000004E
:10063000000000000000FFFF0F000004006208003F
:1006400008080003000C01030B5A02030609030308
:1006500017100403002305030017060309630703AB
:10066000090C08030C1009033222100016001100B7
:10067000010112000000130001000001300301011C
:1006800037020301000D800200610201B0C1FFFFCB
:1006900032000100000102000001030030100900D7
:1006A00001000C000000900000800F00000010020C
:1006B00000001102EF001202000013028F0100057A
:1006C00000000105000002055F00010401000404B0
:1006D0000000FFFF320007000001FFFF32000002B0
:1006E0000000010200000000000000000000000007
:1006F000000000000100A4000100FFFF0A006000EC
:1007000000270800080830001402310015373200B5
:1007100004063300160E3400112235000015360091
:1007200007853700071438000314390020009000B3
:1007300015001000100411003702290046002A009D
:100740004600070000001200890113000011FFFF9E
:1007500096001200B901010000010200000203002E
:100760003010090001000A0000000D0000000E001A
:100770003000610001006A0000008000000081007C
:10078000000082005F009200000193000107FFFF5C
:10079000500007000001E500F078010000010200B0
:1007A00000020300301004000000050000000800F3
:1007B0000702090000000A0000000C0000000D0004
:1007C00000000F00000010000000110007001200E0
:1007D00000001300000007000100FFFFC800100028
:1007E000901611002702FFFF320012000D00FFFFDC
:1007F00032001300001229000A002B000D00FFFF39
:100800003200200000002100000030000000310014
:1008100004043200030035000504360008083700E0
:10082000070438000303390007073C0004053D00B6
:10083000080860000027610001006A0000008000D5
:10084000000081000000820000008300000084009E
:1008500000008500000090001000920000000700DA
:100860003301E500008000000100010000010200EA
:100870000007030030100400000008000202090015
:1008800000000A0000000C0000000D0000000F0036
:10089000000010000000110007001200000013000B
:1008A0000000FFFF32001000B01711000700FFFF2B
:1008B0000A0012003A01FFFF0A001300001A290083
:1008C0000C00FFFF0A003000000031000505320077
:1008D0000400350006003600070737000501380020
:1008E0000200390007073C0004073D0007086000CC
:1008F00000A7610001006A00000021000000200044
:1009000000008000000081000000820000008300E1
:10091000000084000000850000009000100092009C
:10092000000093000300950010019700000098005C
:10093000000007007301FFFF320001000001020008
:1009400000070300301008000203090000000A003D
:100950000800100000001100050012000000130044
:100960000000FFFF64001000B012FFFF3200110012
:100970000700FFFF320012008C001300001729004F
:100980002000FFFF3200300000003100060132007D
:10099000010135000601360003023700000038006F
:1009A0000707390004023C0006013D000301600016
:1009B00000A7610001009000300007003301FFFF35
:1009C0003200150030009A001000110020001000C5
:1009D00028341200020013003810FFFF2800120014
:1009E0001200FFFF28001000203413004530FFFFE5
:1009F00046003000000031000204320007033300DB
:100A000004033400040035000104360007073700F2
:100A1000050338001006390010060100000102002D
:100A2000000303003010080008080A0008006000F6
:100A300000276100010090003E0192000001930038
:100A40000001A0000030A300100007000100070013
:100A500021000700230007003300070033011100C5
:100A60001A001200213113006C00140049421000DA
:100A70000008FFFF0A0011001A01FFFF0A00110021
:100A80001A03FFFF0A0011001A07FFFF0A001100F6
:100A90001A0FFFFF0A0011003A0FFFFF1E000100AE
:100AA00028010200000103003010070012100800A6
:100AB00003030B0000110C0000000F0001181500CB
:100AC00020005000010151000306520008045300A9
:100AD00000005400050655000604560003035700A5
:100AE0000303580010005900001007001200FFFF18
:100AF0002800070013000700170000002100240051
:100B000027002A002D0030003300010100000401FD
:100B100007010A0100002200250028002B002E00FA
:100B20003100340002010000050108010B01050538
:100B30000505070508080808020202020A0A080853
:100B40000404040401010101010101010303030381
:100B500003030303040707070C0C0C0C0C0C0C0C10
:100B60000202020206060606060606060B0B0B0B21
:100B70000B0B0B0B01021020200808102040102046
:100B80004080020102010804020101020408102051
:100B9000408080402010080402018004020180404F
:100BA00020100804020108040201010204081020B8
:100BB0004080010204081020408000000A0B020956
:100BC0000C0D0E08070304010000000000000000E7
:100BD0000000000000000000000000000000000015
:100BE00000000000000012111000000000000000D2
:100BF00000000000000000000000000000000000F5
:100C000000000000003E5B4F5B3E3E6B4F6B3E1CA6
:100C10003E7C3E1C183C7E3C181C577D571C1C5EBD
:100C20007F5E1C00183C1800FFE7C3E7FF00182494
:100C30001800FFE7DBE7FF30483A060E262979293E
:100C400026407F050507407F05253F5A3CE73C5A73
:100C50007F3E1C1C08081C1C3E7F14227F22145F50
:100C60005F005F5F06097F017F006689956A6060AB
:100C700060606094A2FFA29408047E040810207EA5
:100C8000201008082A1C08081C2A08081E1010102A
:100C9000100C1E0C1E0C30383E3830060E3E0E0670
:100CA000000000000000005F0000000700070014C3
:100CB0007F147F14242A7F2A122313086462364982
:100CC0005620500008070300001C2241000041226A
:100CD0001C002A1C7F1C2A08083E0808008070306F
:100CE00000080808080800006060002010080402DE
:100CF0003E5149453E00427F4000724949494621E4
:100D000041494D331814127F1027454545393C4A57
:100D1000494931412111090736494949364649496E
:100D2000291E0000140000004034000000081422B6
:100D30004114141414140041221408020159090624
:100D40003E415D594E7C1211127C7F494949363E25
:100D5000414141227F4141413E7F494949417F090B
:100D60000909013E414151737F0808087F00417F16
:100D700041002040413F017F081422417F40404014
:100D8000407F021C027F7F0408107F3E4141413EAC
:100D90007F090909063E4151215E7F09192946262E
:100DA0004949493203017F01033F4040403F1F2032
:100DB00040201F3F4038403F631408146303047809
:100DC00004036159494D43007F4141410204081029
:100DD00020004141417F0402010204404040404064
:100DE000000307080020545478407F2844443838D2
:100DF00044444428384444287F3854545418000844
:100E00007E090218A4A49C787F0804047800447D1D
:100E100040002040403D007F1028440000417F40BA
:100E2000007C047804787C0804047838444444380E
:100E3000FC1824241818242418FC7C0804040848EE
:100E40005454542404043F44243C4040207C1C203F
:100E500040201C3C4030403C44281028444C90909A
:100E6000907C4464544C44000836410000007700F4
:100E700000004136080002010204023C2623263C01
:100E80001EA1A161123A4040207A3854545559218C
:100E90005555794122545478422155547840205474
:100EA0005579400C1E5272123955555559395454C2
:100EB000545939555454580000457C410002457D31
:100EC000420001457C407D1211127DF0282528F05A
:100ED0007C545545002054547C547C0A097F493287
:100EE000494949323A4444443A324A4848303A41FE
:100EF00041217A3A42402078009DA0A07D3D4242A7
:100F0000423D3D4040403D3C24FF2424487E49432F
:100F1000662B2FFC2F2BFF0929F620C0887E0903A2
:100F200020545479410000447D413048484A3238C9
:100F30004040227A007A0A0A727D0D19317D2629F5
:100F4000292F28262929292630484D4020380808ED
:100F5000080808080808382F10C8ACBA2F10283421
:100F6000FA00007B000008142A142222142A140814
:100F70005500550055AA55AA55AAFF55FF55FF0023
:100F80000000FF00101010FF00141414FF001010D8
:100F9000FF00FF1010F010F0141414FC001414F7EC
:100FA00000FF0000FF00FF1414F404FC14141710D9
:100FB0001F10101F101F1414141F00101010F00029
:100FC0000000001F101010101F10101010F0100063
:100FD0000000FF101010101010101010FF10000073
:100FE00000FF140000FF00FF00001F10170000FCAE
:100FF00004F414141710171414F404F40000FF0080
:10100000F714141414141414F700F7141414171408
:1010100010101F101F141414F4141010F010F0000E
:10102000001F101F0000001F14000000FC1400002F
:10103000F010F01010FF10FF141414FF1410101013
:101040001F00000000F010FFFFFFFFFFF0F0F0F0C6
:10105000F0FFFFFF0000000000FFFF0F0F0F0F0F5A
:101060003844443844FC4A4A4A347E0202060602A6
:101070007E027E0263554941633844443C04407E0D
:10108000201E2006027E020299A5E7A5991C2A4986
:101090002A1C4C7201724C304A4D4D303048784811
:1010A00030BC625A463D3E494949007E0101017EFD
:1010B0002A2A2A2A2A44445F444440514A44404050
:1010C000444A51400000FF0103E080FF000008088F
:1010D0006B6B083612362436060F090F060000180F
:1010E000180000001010003040FF0101001F010136
:1010F0001E00191D1712003C3C3C3C000000000083
:10110000ED3111241FBECFEFD1E2DEBFCDBF00E035
:101110000CBF13E0A0E0B2E0E2EBFBE700E00BBFA6
:1011200002C007900D92A83DB107D9F729E0A8EDBC
:10113000B3E001C01D92A934B207E1F718E0C1E89D
:10114000D8E000E006C021970109802FFE010E942F
:101150001637C038D10780E00807A9F70E94632638
:101160000C94D73D0C9400000895FC016370668BCD
:101170008481958126813781613039F0633029F08F
:1011800091878087338722870895318720879387C7
:10119000828708952F923F924F925F926F927F9233
:1011A0008F929F92AF92BF92CF92DF92EF92FF9277
:1011B0000F931F93CF93DF93CDB7DEB76A970FB628
:1011C000F894DEBF0FBECDBF9A8F898F7A83698373
:1011D0004A01D22E18870F833701BC2CDC015996A7
:1011E0002D913C915A972115310509F015C118969A
:1011F0008D919C911997681779070CF0D7C11A96B1
:101200008D919C91481759070CF0D0C14C2C512C52
:10121000B6E0CB9E600D711D11247C876B8716167E
:1012200017060CF0C3C1EA2DF0E0FA87E98793E0D6
:10123000EE0FFF1F9A95E1F7F88BEF87CF01840F30
:10124000951F181619060CF0B1C1A98DBA8D5896C4
:101250008C91811104C0BFEABD1508F4D394A98D07
:10126000BA8DED91FC9111970284F385E02DCD01AB
:101270001995B5E0DB9EC0011124E981FA81FC8358
:10128000EB83312C212C9C012050344F388F2F8B35
:101290004A2D50E05E8B4D8BEF89F88DE20DF31DEA
:1012A00044919E828D82D12CC12C69817A81620DFC
:1012B000731D7A8B698B842F90E09C8B8B8BE98DCF
:1012C000FA8DA081B18140FF82C0F1E0BF126FC0F2
:1012D000AF126DC01C96ED91FC912F813885A40151
:1012E0004C0D5D1D69897A89898D9A8D1995EB89D7
:1012F000FC89F595E7954E2F5FEFC51AD50A6D81EC
:101300007E818D899E89680F791F7E836D8398E029
:10131000C916D10481F6AFEF2A1A3A0AEB81FC8193
:10132000E40DF51DFC83EB83F5E02F16310409F085
:10133000B3CF2F81388526153705B9F0A98DBA8D21
:10134000ED91FC91B1E0BB1257C0AB1255C0698161
:101350007A816B5F7F4F0088F189E02D830128E05F
:1013600030E0A401898D9A8D1995A98DBA8DED91E2
:10137000FC9111970688F789E02DCD016A960FB68A
:10138000F894DEBF0FBECDBFDF91CF911F910F91BB
:10139000FF90EF90DF90CF90BF90AF909F908F9095
:1013A0007F906F905F904F903F902F9019941E9672
:1013B000ED91FC91EF80F88409851A8592014D81A9
:1013C0005E816B817C81898D9A8D199590CF2F815B
:1013D00038852615370509F48ACF31E0B31207C0E6
:1013E000A31205C01C96ED91FC91930178CF1E9637
:1013F000ED91FC917301E0CF6B857C8564197509D3
:101400000684F785E02D73010F8518899201A401E8
:10141000898D9A8D1995A9CFF901349694913297B7
:1014200045915491D91AB7E0DB9E400D511D11240E
:10143000F901259134913C8B2B8BFA012590349046
:10144000FA013296749031963491398B32966490C9
:101450003196449041E04C1518F04A1508F07FC0D1
:10146000662D062C000C770B7C836B83842D042C5B
:10147000000C990B9E838D83A98DBA8DED91FC9103
:1014800011970284F385E02DCD011995512CD12CB3
:10149000C12CEA2DF0E0FA87E9872B2D30E03C875C
:1014A0002B87A401440D511D47FC5A95588F4F8B33
:1014B00069817A81660D711D67FC7A957E876D87DB
:1014C0007989C71608F051CF2C2D30E04D815E810F
:1014D000420F531FA985BA854A9FC0014B9F900DAB
:1014E0005A9F900D1124FC01E80DF91DF88BEF8730
:1014F000852D612C4F89588D420F531F5E8B4D8B6C
:10150000671408F050C044244394480E877041F497
:10151000C1010196EB89FC89E20DF31DD4901C01F9
:10152000D7FE19C0A98DBA8DED91FC91662D70E0A2
:10153000B1E0BB1219C0AB1217C02D853E85620FFA
:10154000731F0484F585E02D2F8138854D895E89D0
:10155000898D9A8D1995DD0C6394842DD1CF1E82CF
:101560001D821C821B8288CF4B815C81640F751F9A
:10157000AB85BC856A9FC0016B9F900D7A9F900DD3
:10158000112469817A81680F791F0684F785E02D1F
:10159000EF80F88409851A859D014F855889898DCA
:1015A0009A8D1995D8CF570CC3948ACF6A960FB6E7
:1015B000F894DEBF0FBECDBFDF91CF911F910F9189
:1015C000FF90EF90DF90CF90BF90AF909F908F9063
:1015D0007F906F905F904F903F902F9008958F92E3
:1015E0009F92AF92CF92EF92FF920F931F93CF9360
:1015F000DF93EC01262F898D9A8D009709F051C059
:101600006A30D1F41D861C868D8948E0849F900144
:1016100011248E859F85820F931F9F878E8781E07F
:1016200090E0DF91CF911F910F91FF90EF90CF90BD
:10163000AF909F908F9008956D3089F3CC88AD88DE
:101640008F898823C1F08C859D8536E0C39E800DEF
:10165000911D1124488559854817590764F44E8512
:101660005F851D861C8638E0A39EC0011124840F6F
:10167000951F9F878E87EA88FB88088919894E8580
:101680005F856C857D85CE010E94CA082C898C857A
:101690009D8546E0249F800D911D11249D878C8798
:1016A000BECF6A3069F41D861C86FC013896E49131
:1016B0002D898E859F85E29F800D911D1124ADCFD0
:1016C0006D3009F4ACCFFC0134963491631708F403
:1016D000A6CF3296E491E61708F4A1CFFC0132962A
:1016E00085909490462F431B342F47E0349F800C05
:1016F000911C1124F401329634913196E4913323F4
:10170000A9F1EE2399F1CC88F4013596E491AD88E6
:101710004F89442301F10E2E000CFF0BE30FF11D46
:10172000CE9EA001CF9E500D11246C857D85460F65
:10173000571F68857985641775076CF44E855F853A
:101740001D861C86FC013896E491AE9E400D511D0D
:1017500011245F874E87EA88FB88088919894E859E
:101760005F856C857D85CE010E94CA08F4013496A0
:10177000E4912C898C859D85E29F800D911D11241B
:101780008DCF6F927F928F929F92AF92BF92CF92A6
:10179000DF92EF92FF920F931F93CF93DF93EC01B1
:1017A0006B015A0139014801E881F9810284F3850E
:1017B000E02D1995E881F9810288F389E02D8701F0
:1017C0009301A501B601CE011995A501480D591D3A
:1017D00041505109E881F9810288F389E02D930194
:1017E000B601CE011995E881F9810088F189E02DD3
:1017F0009401A501B601CE011995C60CD71CB601FE
:1018000061507109E881F9810088F189E02D940126
:10181000A501CE011995E881F9810688F789E02DA7
:10182000CE01DF91CF911F910F91FF90EF90DF904C
:10183000CF90BF90AF909F908F907F906F901994B2
:101840006F927F928F929F92AF92BF92CF92DF92D0
:10185000EF92FF920F931F93CF93DF935C01EB0105
:101860006A01490138018701DC01ED91FC916217A1
:10187000730719F5641675062CF0962D872D3A011D
:10188000C92ED82E9601261937092F5F3F4F048C99
:10189000F58DE02DA301BE01C5011995DF91CF9112
:1018A0001F910F91FF90EF90DF90CF90BF90AF907E
:1018B0009F908F907F906F9008954615570591F4F3
:1018C0002617370724F0892D4B01C22FD82F9E01F0
:1018D000281939092F5F3F4F068CF78DE02DA6019F
:1018E000B401DACF0284F385E02D1995D501ED918D
:1018F000FC910488F589E02D83019401A601BE01C5
:10190000C5011995D501ED91FC910688F789E02D67
:10191000C501DF91CF911F910F91FF90EF90DF9064
:10192000CF90BF90AF909F908F907F906F901994C1
:10193000EF92FF920F931F93DC011A960D911C9169
:101940001B9718962D913C911997ED91FC9100A051
:10195000F1A1E02D7B0150E040E070E060E01995DE
:101960001F910F91FF90EF9008954F925F926F92A9
:101970007F928F929F92AF92BF92CF92DF92EF921F
:10198000FF920F931F93CF93DF936C012B015A01AA
:1019900039014801DC01ED91FC910284F385E02DD1
:1019A0001995E201640C751CD601ED91FC91C615E8
:1019B000D7055CF40088F189E02D87019401A50129
:1019C000BE01C60119952196EFCF0688F789E02D53
:1019D000C601DF91CF911F910F91FF90EF90DF90A3
:1019E000CF90BF90AF909F908F907F906F905F90BF
:1019F0004F9019948F929F92AF92BF92CF92DF92A5
:101A0000EF92FF920F931F93CF93DF93EC015B0153
:101A10004A016901E881F9810284F385E02D199575
:101A200095012C0D3D1D21503109E881F981048873
:101A3000F589E02D78018401A401B501CE01199545
:101A4000E881F9810688F789E02DCE01DF91CF91F9
:101A50001F910F91FF90EF90DF90CF90BF90AF90CC
:101A60009F908F9019948F929F92AF92BF92CF9236
:101A7000DF92EF92FF920F931F93CF93DF93EC01CE
:101A80005B014A0169017801E881F9810284F385EB
:101A9000E02D1995C80CD91C860101501109E88167
:101AA000F9810488F589E02D9501A401B501CE01E5
:101AB0001995E881F9810688F789E02DCE01DF913B
:101AC000CF911F910F91FF90EF90DF90CF90BF903B
:101AD000AF909F908F9019940895EF92FF920F937B
:101AE0001F93DC01ED91FC9100A0F1A1E02D19956F
:101AF0001F910F91FF90EF9008950F931F93DC01BA
:101B0000ED91FC91068CF78DE02D19951F910F91A9
:101B100008950F931F93DC01ED91FC91048CF58DDA
:101B2000E02D19951F910F910895DC01ED91FC9125
:101B30000084F185E02D19942F923F924F925F928D
:101B40006F927F928F929F92AF92BF92CF92DF92CD
:101B5000EF92FF920F931F93CF93DF9300D000D0AB
:101B6000CDB7DEB73C016A013E832D83FC82EB8258
:101B70005801A41AB50AB7FE03C0B194A194B108E4
:101B80008D809E80861A970A97FE03C09194819457
:101B900091088A149B045CF0902F812F0D811E8187
:101BA0009D838E839C2D8D2D6B01692F782F0C15B5
:101BB0001D055CF09D818E817E836D83692F782F5A
:101BC000902F812F8601C92ED82E1601201A310A96
:101BD0002B012D813E81421A530A57FE03C05194B6
:101BE00041945108710137FE03C03FEFE31AF30A35
:101BF000F594E7948D819E81861797075CF5A1E0A7
:101C0000B0E0BA83A983C016D1064CF1D301ED919F
:101C1000FC910484F585E02D2B813C81A8016D8128
:101C20007E818A149B041CF04D815E81B801C30142
:101C30001995E418F508F7FE0AC02D813E818981C7
:101C40009A81280F391F3E832D83E20CF31C0F5F0E
:101C50001F4FD9CF2FEF3FEF3A832983D4CF26965A
:101C60000FB6F894DEBF0FBECDBFDF91CF911F91AD
:101C70000F91FF90EF90DF90CF90BF90AF909F902B
:101C80008F907F906F905F904F903F902F9008952E
:101C9000282F30E0F901E654F44F9491F901EC5803
:101CA000F44F4491225D344FF9012491222309F429
:101CB00035C0992311F191509231F8F4E92FF0E0F9
:101CC0008827EA59F14F8F4F0C941637970E9B0EC9
:101CD000780E8F0E930E7D0E9E0EA40EA80EAE0EE5
:101CE000B20EB60EBC0EC00E7D0EC40ECA0ECE0EC7
:101CF000809180008F7780938000E22FF0E0EE0FDC
:101D0000FF1FEC5EF44FA591B4918FB7F894EC915E
:101D1000611148C040954E234C938FBF0895809128
:101D200080008F7DE8CF80918000877FE4CF84B5ED
:101D30008F7784BDE2CF84B58F7DFBCF8091B000DB
:101D40008F778093B000D9CF8091B0008F7DF9CF8D
:101D5000809190008F7780939000CFCF80919000FA
:101D60008F7DF9CF80919000877FF5CF8091A00083
:101D70008F778093A000C1CF8091A0008F7DF9CF95
:101D80008091A000877FF5CF809120018F7780938D
:101D90002001B3CF809120018F7DF9CF8091200168
:101DA000877FF5CF4E2BB8CF60E0809148090C9427
:101DB000480ECF93DF9390E0FC01EC58F44F249150
:101DC000825D944FFC0184918823D1F090E0880FCC
:101DD000991FFC01E650F54FA591B491FC01EC5E12
:101DE000F44FC591D49161110EC09FB7F8948C91B6
:101DF000E22FE0958E238C932881E223E8839FBF16
:101E0000DF91CF9108958FB7F894EC91E22BEC938A
:101E10008FBFF6CF1F93CF93DF93182FEB0161E0B5
:101E20000E94D90E209739F460E0812FDF91CF9185
:101E30001F910C94480ECF3FD10511F461E0F5CF0E
:101E4000E12FF0E0E654F44FE491E150E23108F084
:101E5000B3C0F0E08827E05DF04F8F4F0C94163749
:101E6000420F4A0F4F0F590F630FDC0F6D0F750FA5
:101E70007D0F870F910F9B0FAA0FB40FDC0FBE0FC2
:101E8000C80FD20F84B5806884BDC7BDDF91CF91E4
:101E90001F91089584B5806284BDC8BDF7CF80913D
:101EA0008000806880938000D0938900C093880070
:101EB000EDCF80918000806280938000D0938B0072
:101EC000C0938A00E3CF8091800088608093800077
:101ED000D0938D00C0938C00D9CF8091B0008068E2
:101EE0008093B000C093B300D1CF8091B0008062E6
:101EF0008093B000C093B400C9CF809190008068F7
:101F000080939000D0939900C0939800BFCF8091A8
:101F10009000806280939000D0939B00C0939A00C1
:101F2000B5CF80919000886080939000D0939D0001
:101F3000C0939C00ABCF8091A00080688093A000EC
:101F40008091A0008F7B8093A000D093A900C093C4
:101F5000A8009CCF8091A00080628093A000D093C5
:101F6000AB00C093AA0092CF8091A00088608093BC
:101F7000A000D093AD00C093AC0088CF8091200129
:101F8000806880932001D0932901C09328017ECFDF
:101F900080912001806280932001D0932B01C09317
:101FA0002A0174CF80912001886080932001D09312
:101FB0002D01C0932C016ACFC038D1050CF03ECF63
:101FC00033CF863308F0865320917B00982F98708A
:101FD000277F922B90937B008770806480937C0096
:101FE00080917A00806480937A0080917A0086FDE7
:101FF000FCCF809178009091790008953FB7F894D4
:102000008091B8089091B908A091BA08B091BB0826
:1020100026B5A89B05C02F3F19F00196A11DB11D43
:102020003FBFBA2FA92F982F8827BC01CD01620F7F
:10203000711D811D911D42E0660F771F881F991F3A
:102040004A95D1F708958F929F92AF92BF92CF9207
:10205000DF92EF92FF926B017C010E94FE0F4B0119
:102060005C01C114D104E104F104B9F00E94FE0F37
:10207000681979098A099B09683E734081059105B1
:1020800080F321E0C21AD108E108F10888EE880E39
:1020900083E0981EA11CB11CE4CFFF90EF90DF906D
:1020A000CF90BF90AF909F908F9008952FB7F894E6
:1020B0006091B4087091B5088091B6089091B70806
:1020C0002FBF0895AF92BF92CF92DF92EF92FF920F
:1020D0000F931F93CF93DF936C017B018B01040F50
:1020E000151FEB015E01AE18BF08C017D10759F0EC
:1020F0006991D601ED91FC910190F081E02DC6012E
:102100001995892B79F7C501DF91CF911F910F9117
:10211000FF90EF90DF90CF90BF90AF900895EF9237
:10212000FF921F93CF93DF937C0110E0D701989625
:102130008C911817F8F4C12FD0E0CC0FDD1FCE0D15
:10214000DF1D88819981DC01ED91FC910484F58586
:10215000E02D1995882361F088819981F70161A5A7
:1021600072A5DC01ED91FC910480F581E02D1995BB
:102170001F5FDCCFDF91CF911F91FF90EF9008950B
:10218000CF92DF92EF92FF920F931F93CF93DF9343
:10219000EC016B0109A110E00A5F1F4F2E813F8106
:1021A0002A5F3F4F4C815D81435051096A817B8199
:1021B00063507109D601ED91FC9106A0F7A1E02DC5
:1021C000F12CE12CC601199509A110E02E813F8167
:1021D0004C815D816A817B81D601ED91FC9100A0EB
:1021E000F1A1E02DC60119952E813F81225E3F4F5E
:1021F0008C819D810B9649A1480F592F511D6A81F1
:102200007B816A507109D601ED91FC9100A0F1A18A
:10221000E02D00E110E0C6011995DF91CF911F91EB
:102220000F91FF90EF90DF90CF900895FC01828195
:10223000938186179707D8F426813781820F931FE1
:1022400003966817790798F4848195818417950718
:1022500070F420853185820F931F4817590738F491
:1022600081E0808B73876287558744870895108A41
:1022700080E00895FC01868197810895FC018085A6
:1022800091850895FC0186850895FC018785089550
:10229000FC011786089521E0FC0127870895EF923D
:1022A000FF920F931F93FC01CB01008511852681BE
:1022B00037814481558162817381DC01ED91FC910C
:1022C00000A0F1A1E02DF12CE12C19951F910F91A7
:1022D000FF90EF9008950895FC0182819381861705
:1022E0009707D0F426813781820F931F68177907EB
:1022F00098F4848195818417950770F42085318541
:10230000820F931F4817590738F481E0808B738739
:102310006287558744870895108A80E008950F9357
:102320001F93CF93DF93EC018B01FE0184913196D3
:10233000649122968F3799F470E090E080E00E94DB
:10234000231060E070E06E5F7F4F061B170B1016C6
:1023500011065CF3DF91CF911F910F9108958B9837
:102360008A9890910201977890930201A5989EB166
:10237000977C9EB94091020190E09C0155E0220FAC
:10238000331F5A95E1F72076242B209302014EB19A
:102390009C01220F331F220F331F2073242B2EB9D1
:1023A00044B39C01220F331F2072242B24BB4EB157
:1023B0009C0135952795359527952870242B2EB9A6
:1023C00020910201A3E095958795AA95E1F7887180
:1023D000822B809302018998899A50E040E0461749
:1023E00008F045C0FE01E40FF51FE4918A9A809140
:1023F0000201877880930201A5988EB1877C8EB9FF
:10240000709102018E2F90E09C01E5E0220F331FB6
:10241000EA95E1F72076272B209302017EB19C01FB
:10242000220F331F220F331F2073272B2EB974B3B3
:102430009C01220F331F2072272B24BB7EB19C01ED
:1024400035952795359527952870272B2EB9E0913E
:10245000020123E0959587952A95E1F788718E2BE7
:10246000809302018998899A4F5F5F4FB8CFC60F5A
:10247000D11D8B9A67CF8B988A982091020127787B
:1024800020930201A5982EB1277C2EB970910201EC
:10249000292F30E0F901A5E0EE0FFF1FAA95E1F723
:1024A000E076E72BE09302017EB1F901EE0FFF1F0A
:1024B000EE0FFF1FE073E72BEEB974B3F901EE0FD7
:1024C000FF1FE072E72BE4BB7EB1F901F595E795BC
:1024D000F595E795E870E72BEEB970910201E3E01E
:1024E00035952795EA95E1F72871272B209302016E
:1024F0008998899A20910201277820930201A59852
:102500002EB1277C2EB9709102019C01F5E0880F55
:10251000991FFA95E1F78076872B809302017EB1AF
:10252000C901880F991F880F991F8073872B8EB957
:1025300074B3C901880F991F8072872B84BB7EB149
:10254000C90195958795959587958870872B8EB944
:1025500080910201F3E035952795FA95E1F728710E
:10256000282B209302018998899A8A9AFA0161504E
:1025700008F43EC0819190910201977890930201F6
:10258000A5989EB1977C9EB94091020190E09C0174
:1025900055E0220F331F5A95E1F72076242B209324
:1025A00002014EB19C01220F331F220F331F2073F3
:1025B000242B2EB944B39C01220F331F2072242BED
:1025C00024BB4EB19C0135952795359527952870EC
:1025D000242B2EB92091020133E0959587953A95E9
:1025E000E1F78871822B809302018998899ABFCF85
:1025F0008B9A08958B988A98E2E0F1E02081277801
:102600002083A5982EB1277C2EB9A081292F30E0F8
:10261000A901B5E0440F551FBA95E1F740764A2B62
:102620004083AEB1A901440F551F440F551F40739D
:102630004A2B4EB9A4B3A901440F551F40724A2B2F
:1026400044BBAEB1A901559547955595479548703E
:102650004A2B4EB9408153E0359527955A95E1F7BD
:102660002871242B20838998899A208127782083B8
:10267000A5982EB1277C2EB940819C01A5E0880F3A
:10268000991FAA95E1F78076842B80834EB1C9010A
:10269000880F991F880F991F8073842B8EB944B3BC
:1026A000C901880F991F8072842B84BB4EB1C90168
:1026B00095958795959587958870842B8EB980819F
:1026C000B3E035952795BA95E1F72871282B20833B
:1026D0008998899A8A9A808187788083A5988EB113
:1026E000877C8EB94081872F90E09C0155E0220FB6
:1026F000331F5A95E1F72076242B20834EB19C019D
:10270000220F331F220F331F2073242B2EB944B303
:102710009C01220F331F2072242B24BB4EB19C013D
:1027200035952795359527952870242B2EB920812E
:10273000A3E095958795AA95E1F78871822B808310
:102740008998899A808187788083A5988EB1877CC3
:102750008EB94081CB019B01B5E0220F331FBA95A2
:10276000E1F72076242B20834EB19B01220F331FEB
:10277000220F331F2073242B2EB944B39B01220F49
:10278000331F2072242B24BB4EB19C013595279515
:10279000359527952870242B2EB92081A3E0959597
:1027A0008795AA95E1F78871822B80838998899A09
:1027B0008B9A089581E08093F108E1E0F1E0808157
:1027C000886780839D9A8DB188638DB9809A819A3C
:1027D000829A839A849A8B9A889A899A8C9A62E3CD
:1027E00070E080E090E00E9423108C9864E670E036
:1027F00080E090E00E9423108C9A64E670E080E014
:1028000090E00E94231070E060E080EB90E00C9478
:10281000FA12EF92FF920F931F93CF93DF93EC0185
:10282000E62E8091F108811102C00E94DA138B9884
:102830008A9880910201877880930201A5988EB1D1
:10284000877C8EB980910201809302018EB18EB98E
:1028500084B384BB8EB18EB9809102018093020152
:102860008998899A80910201877880930201A598BE
:102870008EB1877C8EB920910201CE0115E0880FC0
:10288000991F1A95E1F78076822B809302012EB171
:10289000CE01880F991F880F991F8073822B8EB9E4
:1028A00024B3CE01880F991F8072822B84BB2EB176
:1028B000CE0195958795959587958870822B8EB9D1
:1028C0008091020153E0D595C7955A95E1F7C871FB
:1028D000C82BC09302018998899A8A9A8091010134
:1028E0008778809301019D988DB1877C8DB961E0D7
:1028F00070E080E090E00E94231061E070E080E0F2
:1029000090E00E942310889A889888988898D0919F
:1029100000011CB102B3CCB1F0900001889A61E0D3
:1029200070E080E090E00E942310889A8898889850
:102930008898409100015CB1E2B39CB1F091000134
:10294000889AEA946FEFE612D8CF889A8B9A809192
:1029500001018867809301019D9A8DB188638DB9CB
:1029600084E0C89F900111242072332788E0F89EEC
:10297000B0011124607C7727262B602F70E07595BD
:10298000679560717727262B612F70E075956795A5
:10299000759567956C707727262B6D2F70E0B5E0E5
:1029A00075956795BA95E1F763707727262B64E0F4
:1029B000969FC0011124807298E0F99FB001112404
:1029C000607C862BE695E0718E2B569556955C7053
:1029D000852B50E0C5E055954795CA95E1F74370C2
:1029E000842B922FDF91CF911F910F91FF90EF9049
:1029F00008950F931F93CF93DF938C0160E00E94A3
:102A00000914EC0161E0C8010E9409148C01BE01A7
:102A100090E080E0CB017727662730E020E0602B54
:102A2000712B822B932BDF91CF911F910F910895E2
:102A3000FF920F931F93CF93DF938C0160E00E946E
:102A40000914EC0161E0C8010E940914F82E62E04B
:102A5000C8010E940914AE0170E060E0742F66277F
:102A60005527442700E030E020E0402B5F29622B0F
:102A7000732B292F30E0C901B0E0A0E08A019B014F
:102A8000082B192B2A2B3B2BC901B801DF91CF91C1
:102A90001F910F91FF9008950F931F93CF93DF9392
:102AA000EC018B01FE0185919491FE0132962496F2
:102AB000659174918F3F980771F490E080E00E94D7
:102AC0002310045011091016110664F3DF91CF9101
:102AD0001F910F9108950E94FA12F3CFFC01262F47
:102AE000358D868D82958170982F9627692F70E09D
:102AF00072A361A330FF0CC0821307C080E290E094
:102B000050E040E060E00C943B1281E290E0F8CFAE
:102B1000878D90A1833927E7920741F058F48435D7
:102B200021E0920791F080329445C1F4626081E027
:102B300094E012C0863223E99207C1F3893025EB75
:102B40009207A1F38532924949F4660F771F660F09
:102B5000771F636187E090E00C94FA1281E690E0C1
:102B6000FBCF8F929F92AF92BF92CF92DF92EF9264
:102B7000FF920F931F93CF93DF9300D01F92CDB797
:102B8000DEB77C014B015A016901FC01878D90A1E0
:102B90008632954151F4F701868980FF06C0C8014D
:102BA000841B950B81F50F5F1F4FF701858D80FF0B
:102BB00031C085A599828A82DB82CC82AE014F5FCB
:102BC0005F4F64E090E00E943B12F70181A9B98257
:102BD000AA821B830C83AE014F5F5F4F64E090E0DD
:102BE0000E943B120F900F900F900F90DF91CF91AA
:102BF0001F910F91FF90EF90DF90CF90BF90AF901B
:102C00009F908F9008952617370779F6C80ED91E22
:102C10008A01CBCFB40187A190A50E94FA12B50119
:102C2000F70181A592A50E94FA12C814D90419F4DB
:102C30000A151B05B9F2F701858D85FF08C0868945
:102C400080FF1EC0102F0027A02AB12A8501B401E1
:102C5000F70185A596A50E94FA12B501F70181A991
:102C600092A90E94FA12B601F70187A590A90E94C5
:102C7000FA12B801F70183A994A90E94FA12B2CFFF
:102C8000DC2CCC248C289D286401E1CF2F923F922C
:102C90004F925F926F927F928F929F92AF92BF926C
:102CA000CF92DF92EF92FF920F931F93CF93DF9318
:102CB00000D01F921F92CDB7DEB79D838C83809189
:102CC000DB03882349F0C701880F991F8E7399276A
:102CD000E1ECEE22E82AF92A37FF05C0620F731FE4
:102CE000319521953109260F371F77FF02C070E01B
:102CF00060E0EC81FD8180859185281739070CF40F
:102D0000C9016C01C61AD70A17FF05C0400F511F31
:102D1000119501951109040F151F57FF02C050E0CE
:102D200040E0EC81FD8122853385021713070CF406
:102D300098015901A41AB50A8901015011099C0191
:102D4000215031098C819D810E94B1158B988A9800
:102D5000EC81FD8153A544A5809102018778809381
:102D60000201A5988EB1877C8EB960910201842FF3
:102D700090E09C01A5E0220F331FAA95E1F7207691
:102D8000262B209302016EB19C01220F331F220FCC
:102D9000331F2073262B2EB964B39C01220F331FDF
:102DA0002072262B24BB6EB19C0135952795359555
:102DB00027952870262B2EB92091020133E0959596
:102DC00087953A95E1F78871822B80930201899863
:102DD000899A80910201877880930201A5988EB12B
:102DE000877C8EB960910201852F942F9C0145E06C
:102DF000220F331F4A95E1F72076262B20930201FC
:102E00004EB19C01220F331F220F331F2073242B3E
:102E10002EB944B39C01220F331F2072242B24BBF4
:102E20004EB19C0135952795359527952870242B13
:102E30002EB920910201E3E095958795EA95E1F797
:102E40008871822B809302018998899A8A9ACA1480
:102E5000DB042CF09A2D8B2D5601C92ED82E2F2D48
:102E600030E0890185E0000F111F8A95E1F70076B7
:102E7000C901880F991F880F991F182F1073C90156
:102E8000880F991FB82FB072C901959587959595B0
:102E90008795982F987073E0359527957A95E1F787
:102EA000822F8871A701E5E0440F551FEA95E1F7ED
:102EB00040769701220F331F220F331F522F50737A
:102EC000B701660F771F6072970135952795359585
:102ED0002795722F78709701E3E035952795EA954D
:102EE000E1F7A22FA8712F2D287F30E04901880C2F
:102EF000991C880C991CF82DF073F9834901880CF2
:102F0000991CE82DE072EA83490195948794959481
:102F10008794F82DF870FB83E3E035952795EA95C3
:102F2000E1F7E22FE8712E2E9701F3E03695279511
:102F3000FA95E1F72C7F30E04901880C991C880C48
:102F4000991CF82DF0733F2E2901440C551CE42DDB
:102F5000E0724E2E49019594879495948794F82DAC
:102F6000F8705F2EF3E035952795FA95E1F7E22F9B
:102F7000E8716E2EEE0CEE0CEE0CF12C9701220F88
:102F8000331F220F331FF22FF0737F2E9701220F72
:102F9000331F2072F701F595E795F595E795E870F1
:102FA000F3E0F594E794FA95E1F73E2D3871E32EBE
:102FB0001C141D040CF0ABC03091DC03450133231D
:102FC00009F463C030910201377830930201A5986B
:102FD0003EB1377C3EB930910201309302013EB1DF
:102FE000F9813F2B3EB934B3FA813F2B34BB3EB15C
:102FF000FB813F2B3EB9309102013229309302010F
:103000008998899A30910201377830930201A59806
:103010003EB1377C3EB930910201309302013EB19E
:1030200033293EB934B3342934BB3EB135293EB9D6
:10303000309102013629309302018998899A3091A2
:103040000201377830930201A5983EB1377C3EB932
:1030500030910201309302013EB137293EB934B3B9
:10306000322B34BB3EB13E2B3EB9309102013E299A
:10307000309302018998899A31E0831A910809F006
:10308000A1CFF1E0CF1AD10893CF30910201377868
:1030900030930201A5983EB1377C3EB930910201D0
:1030A000302B309302013EB1312B3EB934B33B2B70
:1030B00034BB3EB1392B3EB930910201382B3093ED
:1030C00002018998899A3091020137783093020180
:1030D000A5983EB1377C3EB930910201342B309334
:1030E00002013EB1352B3EB934B3362B34BB3EB171
:1030F000372B3EB9309102013A2B30930201899867
:10310000899AF1E08F1A910809F0BFCFBACF8B9A54
:10311000EC81FD81858D80FF0AC0878D90A186326C
:103120009541B1F4EC81FD81868980FF11C0EC816D
:10313000FD810285138501501109208531852150BB
:10314000310950E040E070E060E0CF010E94B1152D
:103150000F900F900F900F900F90DF91CF911F91D4
:103160000F91FF90EF90DF90CF90BF90AF909F9026
:103170008F907F906F905F904F903F902F90089529
:10318000EF92FF920F931F93CF93DF937C01E9019E
:1031900077FD4DC157FD4BC1FC01808591856817B6
:1031A00079070CF044C182859385481759070CF0C4
:1031B0003EC18091DB03882341F0C901880F991F2C
:1031C0008E739927C17CC82BD92B8A019B01C7011B
:1031D0000E94B1158091DC03882309F42FC18B98DC
:1031E0008A98F70143A554A58091020187788093BE
:1031F0000201A5988EB1877C8EB960910201852F5E
:1032000090E09C0175E0220F331F7A95E1F720765C
:10321000262B209302016EB19C01220F331F220F37
:10322000331F2073262B2EB964B39C01220F331F4A
:103230002072262B24BB6EB19C01359527953595C0
:1032400027952870262B2EB920910201B3E0959581
:103250008795BA95E1F78871822B8093020189984E
:10326000899A80910201877880930201A5988EB196
:10327000877C8EB960910201CA019C0115E0220F82
:10328000331F1A95E1F72076262B209302014EB1C9
:103290009C01220F331F220F331F2073242B2EB9C2
:1032A00044B39C01220F331F2072242B24BB4EB148
:1032B0009C0135952795359527952870242B2EB997
:1032C0002091020173E0959587957A95E1F78871D1
:1032D000822B809302018998899A8A9A80910201AF
:1032E000877880930201A5988EB1877C8EB9209152
:1032F00002018D2F887F90E0209302014EB19C0146
:10330000220F331F220F331F2073242B2EB944B3F7
:103310009C01220F331F2072242B24BB4EB19C0131
:1033200035952795359527952870242B2EB9209112
:103330000201B3E095958795BA95E1F78871822BE4
:10334000809302018998899A8091020187788093FD
:103350000201A5988EB1877C8EB920910201CE0121
:10336000D3E096958795DA95E1F78C7F90E02093EE
:1033700002014EB19C01220F331F220F331F207315
:10338000242B2EB944B39C01220F331F2072242B0F
:1033900024BB4EB19C01359527953595279528700E
:1033A000242B2EB92091020163E0959587956A95AB
:1033B000E1F78871822B809302018998899A809124
:1033C0000201877880930201A5988EB1877C8EB91F
:1033D00080910201CC0FCC0FCC0FD0E08093020182
:1033E0002EB1CE01880F991F880F991F8073822BF1
:1033F0008EB924B3CE01880F991F8072822B84BBB3
:103400002EB1CE0195958795959587958870822BDD
:103410008EB980910201A3E0D595C795AA95E1F7F1
:10342000C871C82BC09302018998899A8B9ADF9141
:10343000CF911F910F91FF90EF900895BE01F7017A
:1034400083A594A5DF91CF911F910F91FF90EF90ED
:103450000C94FA12EF92FF920F931F93CF93DF9386
:1034600000D000D000D01F92CDB7DEB77C01862FF0
:103470008370F701868B962F917060FFE3C02681E1
:103480003781F70131872087992309F4DEC0248131
:103490003581F70133872287823009F4DBC083301E
:1034A00009F4DAC0813009F4D3C088E48A87F701CF
:1034B000858D968D90FF03C02A8520582A8791FF1D
:1034C00004C02A8530E423272A8793FF04C02A8575
:1034D00038E023272A87F701278D30A180FF00C11C
:1034E0002431F8E63F0709F0B9C09A85892F887220
:1034F0008A871F82892F85958074282F2260892FC3
:1035000090E09595879580729927822B88878BE329
:103510008987AE01495F5F4F63E086EB90E00E94D0
:103520003B122AE230E0F70130A727A38BE290E0BC
:1035300092A781A74CE250E054A743A736A725A73E
:1035400030AB27A792AB81AB94AB83ABAE01465FA8
:103550005F4F61E086E390E00E943B128A8590E035
:10356000F70194A383A3F701868980FF1CC0858D92
:10357000968D92FD18C087A190A521A532A530A7F0
:1035800027A392A781A785A596A521A932A936A729
:1035900025A792AB81AB87A590A923A934A930AB0D
:1035A00027A794AB83ABF70102851385015011095E
:1035B000208531852150310950E040E070E060E025
:1035C000C7010E94B115F70166817781878D90A1AF
:1035D00020E08732F3E99F0709F420E2F701358DF7
:1035E00030FF39C119821A827B836C831D822E833E
:1035F000AE014F5F5F4F66E083E390E00E943B12B5
:1036000019821A82AE014F5F5F4F62E087E390E05C
:103610000E943B12F701858D80FF07C050E040E01B
:1036200060E083E190E00E943B122A960FB6F89486
:10363000DEBF0FBECDBFDF91CF911F910F91FF90E5
:10364000EF900895248135811CCF2681378121CFC9
:1036500088E22CCF88E92ACF88EF28CF273243E9A8
:10366000340789F41F8281E388878A85859585954B
:103670008595859588708987AE01495F5F4F63E0C6
:1036800080EC90E04CCF233689E1380749F02138AF
:10369000E4E93E0729F02131F5E13F0709F041CF88
:1036A0008A8587FF02C081608A878A8586FF02C07B
:1036B00082608A878A858F73233649E1340731F027
:1036C000213884E9380721F48A858F728A8729CFC7
:1036D0002131354109F025CF8A858F7E806CF6CF68
:1036E0006A85862F062E000C990B2339F7E73F07D2
:1036F00051F0A8F52435E1E03E0709F45CC0203222
:10370000F4E53F07A1F540E052E0F70150A747A3D9
:1037100041E052E052A741A742E052E054A743A73C
:1037200040E152E056A745A741E152E050AB47A720
:1037300042E152E052AB41AB43E152E054AB43AB08
:10374000882790782632F3E93F0721F0203234456C
:1037500009F071C067FD846060E071E36EC02632DD
:1037600043E9340781F22930E5EB3E0761F220E2BC
:1037700030E0F70130A727A321E230E032A721A7EC
:1037800022E230E034A723A720E530E036A725A7C2
:1037900021E530E030AB27A722E530E032AB21ABAA
:1037A00023E530E034AB23ABBC0166277078776249
:1037B00080E690E046C027E330E0F70136A725A772
:1037C00026E330E030AB27A729E330E032AB21AB72
:1037D00028E330E034AB23AB20E230E030A727A36E
:1037E00021E230E032A721A722E230E034A723A76C
:1037F000F4E06F9FB00111246627717088279270E2
:103800008862682B792B81E090E00E94FA128A8509
:10381000682F70E07595679575956795687077273F
:1038200083FD70616063F70174A363A383E090E09C
:103830000E94FA1298CE60E072E6682B792B80E045
:1038400094E00E94FA126A85F4E06F9FB00111249F
:1038500066277170D8CF8339F7E79F07D9F1F0F465
:10386000803244E59407B1F18338E7E79E0731F1F0
:1038700084359140F1F46150710981E390E00E9438
:10388000FA1270E060E082E390E00E94FA1270E0C9
:1038900060E083E390E00E94FA12C7CE863223E90B
:1038A0009207C1F0893045EB9407A1F08532924927
:1038B00011F3F70161A172A1626003C0F70161A178
:1038C00072A181E690E00E94FA1270E060E08AE660
:1038D00090E0E1CFF70161A172A1626081E094E024
:1038E0000E94FA1270E060E084E094E0D4CFEF929E
:1038F000FF920F931F93DC01ED91FC9100A0F1A1C9
:10390000E02D780101E010E019951F910F91FF90D3
:10391000EF900895EF92FF920F931F93DC01ED91CA
:10392000FC9100A0F1A1E02D7801890121E030E0B7
:1039300019951F910F91FF90EF900895089590E0D1
:1039400080E0089580919208909193088C59954059
:1039500049F08CE995E0909397088093960881E070
:10396000809398080C94D40E0F931F93CF930091DB
:103970004705109148050115110509F453C0209120
:103980007B0530917C05AFEFB0E00E94F33624E672
:1039900030E040E050E00E949F36C22F2093D803D1
:1039A00091E090938D068CE3809F9001819F300D74
:1039B0001124309396062093950610926E068091FE
:1039C000DF0481508093DA031092D903209192088A
:1039D00030919308205C364041F020EC36E0309383
:1039E0009708209396089093980820914209309167
:1039F0004309409144095091450960913E097091F5
:103A00003F0980914009909141090E948B3787FFBF
:103A100009C06C2F70E080914809CF911F910F91E0
:103A20000C940A0FCF911F910F910895EF92FF927E
:103A30000F931F93DC011A960D911C911B971896FA
:103A40002D913C911997ED91FC9100A0F1A1E02DF1
:103A50007B0150E040E070E060E019951F910F910C
:103A6000FF90EF900895FB0101900020E9F7319756
:103A7000AF01461B570BDC01ED91FC910280F381F5
:103A8000E02D19948F929F92AF92BF92EF92FF9286
:103A90000F931F93CF93DF93CDB7DEB7A1970FB6E8
:103AA000F894DEBF0FBECDBF7C01FA01CB0119A295
:103AB000223008F42AE08E010F5D1F4F822E912CD8
:103AC000B12CA12CBF01A50194010E94D136F901AE
:103AD000CA016A300CF5605DD8016E938D01232B0D
:103AE000242B252B79F790E080E0109721F0BD0181
:103AF000C7010E94331DA1960FB6F894DEBF0FBE1A
:103B0000CDBFDF91CF911F910F91FF90EF90BF90AC
:103B1000AF909F908F900895695CDECF611571051D
:103B200011F00C94331D90E080E00895CF93DF9363
:103B3000EB01FC0124813581428153815D874C87F3
:103B40003F872E87EB5BFF4F2081211101C021E0D1
:103B50002C8B2D8BFC01ED5BFF4F208131813B8B4A
:103B60002A8B398B288BBC016F5E7F4FCE010E9460
:103B70008E1D8FEF9FEF9B8B8A8B998B888BDF91AC
:103B8000CF910895CF92DF92EF92FF920F931F9300
:103B9000CF93DF93EC016B01088519852E813F815E
:103BA0004C815D816A817B81D601ED91FC9106A0FB
:103BB000F7A1E02DEE24EA94FE2CC60119950885A4
:103BC0001985025011092E813F81225031094C8103
:103BD0005D814F5F5F4F6A817B816F5F7F4FD60151
:103BE000ED91FC9106A0F7A1E02DC601199508857D
:103BF0001985045011092E813F81245031094C81CF
:103C00005D814E5F5F4F6A817B816E5F7F4FD60122
:103C1000ED91FC9106A0F7A1E02DC60119958C81CC
:103C20009D8105962A813B812B5F3F4FF6013587A9
:103C300024879787868783E0848B858BBE016F5EA0
:103C40007F4FC601DF91CF911F910F91FF90EF90B1
:103C5000DF90CF900C948E1DCF92DF92EF92FF9267
:103C60000F931F93CF93DF93EC016B010E945610CB
:103C70000F8D18A129A13AA1AB01BC01401B510B2A
:103C8000620B730B8D8D9E8DB0E0A0E084179507BD
:103C9000A607B70708F089C00E9456106F8F78A357
:103CA00089A39AA3EB8DFC8D1995088519852E8122
:103CB0003F814C815D816A817B81D601ED91FC91D0
:103CC00000A0F1A1E02DF12CE12CC6011995888905
:103CD000088519852E813F814C815D816A817B81B8
:103CE000D601ED91FC9106A0F7A1E02D882309F4FF
:103CF00065C0E12C98EFF92EC60119950885198544
:103D0000025011092E813F81225031094C815D8181
:103D10004F5F5F4F6A817B816F5F7F4FD601ED916F
:103D2000FC9106A0F7A1E02DC6011995088519851B
:103D3000045011092E813F81245031094C815D814D
:103D40004E5F5F4F6A817B816E5F7F4FD601ED9141
:103D5000FC9106A0F7A1E02DC601199580E098EF2F
:103D6000F601938B828B918B808B8C819D81059644
:103D70002A813B812B5F3F4FF60135872487978748
:103D8000868783E0848B858BBE016F5E7F4FC60183
:103D90000E948E1D8FEF9FEFD60153969C938E93BA
:103DA000529751969C938E935097DF91CF911F918C
:103DB0000F91FF90EF90DF90CF900895EE24EA945A
:103DC000FE2CC601199508851985025011092E810E
:103DD0003F81225031094C815D814F5F5F4F6A8185
:103DE0007B816F5F7F4FD601ED91FC9106A0F7A11B
:103DF000E02DC601199508851985045011092E81F9
:103E00003F81245031094C815D814E5F5F4F6A8153
:103E10007B816E5F7F4FD601ED91FC9106A0F7A1EB
:103E2000E02DC6011995A1CF65E972E08CE298E01A
:103E30000C94FA3A6EEA72E080EE97E00C94FA3A4B
:103E400062EC72E084E997E00C94FA3A68ED72E073
:103E500088E497E00C94FA3A0E94E13AEF92FF92DC
:103E60000F931F93CF93DF93462FE72FDC015796D5
:103E70000D911C918CE3E82EF12CC801B7010E9432
:103E80000237382FC92FCB01B7010E940237282FE4
:103E9000F92FC80160E17EE00E9402372A30B0F5B8
:103EA0003A30E8F4CF933F93FF932F937F936F9330
:103EB00086EF92E09F938F93EF934F930E94013B85
:103EC0008DB79EB70A960FB6F8949EBF0FBE8DBFF2
:103ED000DF91CF911F910F91FF90EF900895CF93B5
:103EE0003F93FF932F937F936F9382E093E09F9391
:103EF0008F93EF934F930E94013BADB7BEB71A96D5
:103F00000FB6F894BEBF0FBEADBFE2CF3A30B8F4E3
:103F1000CF933F93FF932F937F936F938DE093E025
:103F20009F938F93EF934F930E94013B8DB79EB762
:103F30000A960FB6F8949EBF0FBE8DBFC9CFCF9320
:103F40003F93FF932F937F936F9388E193E09F9329
:103F50008F93EF934F930E94013BADB7BEB71A9674
:103F60000FB6F894BEBF0FBEADBFB2CFEF92FF92B7
:103F70000F931F93CF93DF9300D000D000D01F92F8
:103F8000CDB7DEB77C018B01FC0184819581228154
:103F90003381FB01358724879787868784E0848B6C
:103FA000858B80E098EF938B828B918B808BBE0109
:103FB0006F5F7F4FC7010E942E1FBE016F5F7F4F53
:103FC000C8010E948E1D8FEF9FEFF801938B828BAB
:103FD000918B808B0E945610F701618F728F838FB7
:103FE000948F2A960FB6F894DEBF0FBECDBFDF9137
:103FF000CF911F910F91FF90EF9008958091D90379
:104000009091DA038917E8F58F5F8093D9031092B6
:104010006E066CEB78E08FE596E00E944F112091E0
:104020004705309148054CE3429FC001439F900DE6
:10403000112421E020938D06909396068093950697
:104040006CEB78E08EE796E00E94B61F2091420963
:1040500030914309409144095091450960913E09CE
:1040600070913F0980914009909141090E948B37DE
:1040700087FF19C06091D80370E0809148090C94C3
:104080000A0F80919208909193088C59954049F0BD
:104090008CE995E0909397088093960881E080934F
:1040A00098080C94D40E089510928D066CEB78E06D
:1040B0008EE796E00E944F118091130590911405B0
:1040C000009779F021E020936E0690937706809315
:1040D00076066CEB78E08FE596E00E94B61F0C94B4
:1040E000D40E8091D9039091DA038917D0F48F5FB1
:1040F0008093D90320914705309148054CE3429FB6
:10410000C001439F900D112421E020938D069093D0
:104110009606809395066CEB78E08EE796E00C941B
:10412000B61F80919208909193088C599540B9F2EE
:104130008CE995E0909397088093960881E08093AE
:104140009808CDCFAF92BF92CF92DF92EF92FF92BD
:104150000F931F93CF93DF9300D000D000D01F9216
:10416000CDB7DEB76C015B010E945610D60159969F
:104170000D911D912D913C915C97601B710B820BF1
:10418000930B693E734081059105C8F00E9456105B
:10419000F601618F728F838F948F8789908D00973E
:1041A00019F00197908F878BD60157968D919C912E
:1041B0005897892BA9F45D96ED91FC9119952A9653
:1041C0000FB6F894DEBF0FBECDBFDF91CF911F9128
:1041D0000F91FF90EF90DF90CF90BF90AF90089538
:1041E000F6010085118525893689448155816281D2
:1041F0007381D501ED91FC9100A0F1A1E02DF12C8E
:10420000E12CC5011995F6010085118525893689AE
:104210004481558161897289D501ED91FC9100A09D
:10422000F1A1E02DC5011995F601008511852589BB
:1042300036894481558163897489D501ED91FC915A
:1042400000A0F1A1E02DC5011995F60184819581A9
:1042500022813381D5011D963C932E931C971F9686
:104260009C938E931E9784E054968C935497559606
:104270008C93559780E098EF53969C938E9352972A
:1042800051969C938E935097BE016F5F7F4FC601EE
:104290000E942E1FBE016F5F7F4FC5010E948E1DC1
:1042A0008FEF9FEFF501938B828B918B808B87CF64
:1042B0008091DA0390E001969F938F938091D903C8
:1042C00090E001969F938F9382E293E09F938F9368
:1042D00084E296E09F938F930E94013B8DB79EB737
:1042E00008960FB6F8949EBF0FBE8DBF089582EF5B
:1042F00098E09F938F9381E393E09F938F9388ED52
:1043000095E09F938F930E94013B0F900F900F9029
:104310000F900F900F90089582EF98E09F938F93E6
:1043200081E393E09F938F938CEF96E09F938F931D
:104330000E94013B0F900F900F900F900F900F90E5
:104340000895AF92BF92CF92DF92EF92FF920F93B8
:104350001F93CF93DF93EC016B010E9456107E01F7
:1043600028E4E20EF11CF7010081118122813381E2
:10437000601B710B820B930B693E734081059105A5
:1043800008F44BC0FE01EA5BFF4F0190F081E02D85
:10439000309709F019958E010F5E1F4F5E012AE2DA
:1043A000A20EB11CB801C5010E94F13A892B71F12E
:1043B000B801C5010E94FA3AFE01EB5BFF4F208174
:1043C000F80101900020E9F73197E01BF10B86E03E
:1043D000289FA00111244E9FC0014F9F900D5E9F0A
:1043E000900D1124821B91099F838E83E881F981AE
:1043F0000680F781E02DB601CE011995E881F9819B
:104400000480F581E02DB601CE0119950E94561069
:10441000F7016083718382839383DF91CF911F9132
:104420000F91FF90EF90DF90CF90BF90AF900895E5
:10443000CF92DF92EF92FF920F931F93CF93DF9370
:10444000EC016B0109A110E00A5F1F4F2E813F8133
:104450002A5F3F4F4C815D81435051096A817B81C6
:1044600063507109D601ED91FC9106A0F7A1E02DF2
:10447000EE24EA94FE2CC601199509A110E02989C1
:104480003A894C815D816A817B81D601ED91FC91F5
:1044900000A0F1A1E02DC601199582E0F601848B00
:1044A000858B2F89388D4D8D8A819B81841B910945
:1044B0009587848737872687498D5A8D70E060E01D
:1044C0002AE0C6010E94421D2F89388D8F8D4A81B6
:1044D0005B81840F952F911DD6011D969C938E9321
:1044E0001C971F963C932E931E97BE016E5D7F4FC7
:1044F000C6010E948E1D8F89988D2D893E89F601F7
:1045000035872487978786874B895C8970E060E0D0
:104510002AE0C6010E94421DBE01615D7F4FC601B7
:104520000E948E1D2F89388D8A819B814E815F81EB
:10453000840F951F4E8D841B9109D6011D969C9367
:104540008E931C971F963C932E931E974B8D5C8DDC
:1045500070E060E02AE0C601DF91CF911F910F91DA
:10456000FF90EF90DF90CF900C94421D8F929F921E
:10457000AF92BF92CF92DF92EF92FF920F931F9371
:10458000CF93DF93EC016B014A855B858A819B8128
:104590009C0123503109EE81FF812417350708F073
:1045A00098C08417950708F497C01A8A198A898CCD
:1045B0009A8CB12CA12C2B8D3C8D50E040E0281919
:1045C00039094A095B09A989BA890E94BE369F0147
:1045D00050E040E00E949F3689019A01080D191DA4
:1045E0002A1D3B1D68A170E0C8010E940237081B0C
:1045F000190B1C8B0B8B82E0D60154968C9354972D
:1046000055968C93559709A110E029893A894C81D8
:104610005D816A817B81ED91FC9100A0F1A1E02D8B
:10462000EE24EA94FE2CC601199569897A8909A1BC
:1046300010E02E813F81261B370B4C815D818A81E2
:104640009B81680F791FD601ED91FC9100A0F1A12B
:10465000E02DF12CE12CC60119956D897E892A8106
:104660003B818E819F81280F391F261B370B8E8D32
:10467000281B31094F89588DD601ED91FC9100A07E
:10468000F1A1E02D00E110E0C60119958F89988D08
:104690002D893E89F60135872487978786874B8940
:1046A0005C8970E060E02AE0C6010E94421DBE0104
:1046B000615D7F4FC601DF91CF911F910F91FF90F8
:1046C000EF90DF90CF90BF90AF909F908F900C9421
:1046D0008E1D4817590758F09C012E0F3F1F2417B5
:1046E000350728F0481B590B5A8B498B60CF8E0F2A
:1046F0009F1F4817590708F45ACF039648175907C0
:1047000008F055CFFA8BE98B52CFCF92DF92EF9220
:10471000FF920F931F93CF93DF9300D000D01F928F
:10472000CDB7DEB76091AB047091AC0490E080E04F
:104730000E94383828E23EE74CEF5FE30E94903752
:1047400024E735EB45E050E40E945C3920E030E09E
:1047500040E85FE30E941F379B01AC0166E676E309
:104760008DEE94E40E94903720EE3EEB4EE05EE347
:104770000E941F372AED39EC47E752E40E94903738
:1047800023E333E343E952E40E94EF386B017C01F9
:1047900060917B0570917C0590E080E00E94383844
:1047A0009B01AC01C701B6010E94EF3820E030E068
:1047B00048EC52E40E9490378E010F5F1F4F22E0B9
:1047C00046E00E9430349F938F9380E493E09F9360
:1047D0008F938DE594E09F938F930E94013B0F9000
:1047E0000F900F900F900F900F9027960FB6F894A0
:1047F000DEBF0FBECDBFDF91CF911F910F91FF9014
:10480000EF90DF90CF9008958F929F92AF92BF92DA
:10481000CF92DF92EF92FF920F931F93CF93DF938C
:1048200000D000D000D0CDB7DEB76091AB0470915E
:10483000AC0490E080E00E94383828E23EE74CEF7C
:104840005FE30E94903724E735EB45E050E40E9497
:104850005C3920E030E040E85FE30E941F379B01B5
:10486000AC0166E676E38DEE94E40E94903720EE8C
:104870003EEB4EE05EE30E941F372AED39EC47E73E
:1048800052E40E94903723E333E343E952E40E9469
:10489000EF386B017C0160917B0570917C0590E0A5
:1048A00080E00E9438389B01AC01C701B6010E942C
:1048B000EF384B015C01609147057091480590E02D
:1048C00080E00E9438386B017C0120E030E048EC49
:1048D00052E4C501B4010E9490379B01AC01C701AD
:1048E000B6010E94EF386B017C016091DF0470918A
:1048F000E00490E080E00E9438389B01AC01C701E1
:10490000B6010E94EF3820E030E040E752E40E9418
:10491000EF3820E030E04AE754E40E9490378E01FF
:104920000F5F1F4F22E048E00E9430349F938F9327
:1049300084E593E09F938F9381E194E09F938F931D
:104940000E94013B0F900F900F900F900F900F90CF
:1049500029960FB6F894DEBF0FBECDBFDF91CF9181
:104960001F910F91FF90EF90DF90CF90BF90AF908D
:104970009F908F9008951F920F920FB60F9211245F
:104980002F933F938F939F93AF93BF938091B408DE
:104990009091B508A091B608B091B7083091B308CE
:1049A00023E0230F2D3758F50196A11DB11D20934B
:1049B000B3088093B4089093B508A093B608B09359
:1049C000B7088091B8089091B908A091BA08B09141
:1049D000BB080196A11DB11D8093B8089093B9083A
:1049E000A093BA08B093BB08BF91AF919F918F91EC
:1049F0003F912F910F900FBE0F901F90189526E8B2
:104A0000230F0296A11DB11DD2CFEF92FF920F93FB
:104A10001F93CF93DF93EC017B836A835D834C8389
:104A20001F821E82198618861B861A861D861C8682
:104A300081E08F87188A8E878BE792E0998388833D
:104A4000F90101900020E9F73197E21BF30B7E0199
:104A500081E1E80EF11CB9013C9710F06FE872E0BB
:104A6000C7010E94FA3AF70101900020E9F7319757
:104A7000EE19FF0922E12E9FC0012F9F900D1124F6
:104A800007969F838E8382E290E0998788871C8FA8
:104A90000B8F8AEF90E09E8F8D8F81E08E87DF9164
:104AA000CF911F910F91FF90EF900895CF92DF92D9
:104AB000EF92FF920F931F93CF93DF93EC01C80106
:104AC0007B836A835D834C831F821E8219861886CE
:104AD0001B861A861D861C8641E04F87188A43E68E
:104AE00052E0598348837E0145E4E40EF11C12E054
:104AF000D7011C93FE01ED5BFF4F318320836E01D4
:104B0000B6E4CB0ED11CF601918380831E860E94F1
:104B10005610FE01E85BFF4F6083718382839383AD
:104B2000D601ED91FC911995CE014196FC010190C1
:104B30000020E9F79F0121503109281B390BD701CB
:104B40004C914230C9F0433011F1413059F5B6E093
:104B50002B9F90011124215031093F832E8388E03F
:104B600090E099878887DF91CF911F910F91FF90F7
:104B7000EF90DF90CF900895ECE02E9F90011124EC
:104B8000225031093F832E8380E190E0EACFF2E1A9
:104B90002F9F90011124235031093F832E8388E1F8
:104BA00090E0DFCF6FE872E00E94FA3AD6011D92E2
:104BB0001C92F70110838AE390E09F838E838EE03E
:104BC00090E0CFCFAF92BF92CF92DF92EF92FF9261
:104BD0000F931F93CF93DF93EC01590188E290E08C
:104BE0009B838A837D836C831B861A861D861C8625
:104BF00021E02F87188A8BE492E09983888380EFE5
:104C000090E09F838E8384E189A381E390E099877C
:104C100088875A8F498FBC8EAB8E08A38EEB90E0AD
:104C20009E8B8D8B615E7F4F788F6F8B5C8B4B8BF8
:104C30001A8A198A2E87F70101900020E9F7319727
:104C4000EE19FF098E010E5D1F4FB7013C9710F062
:104C50006FE872E0C8010E94FA3AF6010190002064
:104C6000E9F73197EC19FD09CE018F96B60134971B
:104C700010F060EF72E00E94FA3A64EF72E0C8014F
:104C80000E94E63AF80101900020E9F73197E01B15
:104C9000F10B86EFE89FE02D1124EA58EF8F88E0B2
:104CA0008D8F94E6A916B10460F48E8FDF91CF91B9
:104CB0001F910F91FF90EF90DF90CF90BF90AF903A
:104CC00008958EE0F2CFCF93DF9300D000D000D0D4
:104CD0001F92CDB7DEB7789484B5826084BD84B569
:104CE000816084BD85B5826085BD85B5816085BDE7
:104CF00080916E00816080936E001092810080919F
:104D00008100826080938100809181008160809326
:104D10008100809180008160809380008091B1004B
:104D200084608093B1008091B00081608093B00076
:104D300080919100826080939100809191008160C8
:104D40008093910080919000816080939000809189
:104D5000A10082608093A1008091A1008160809376
:104D6000A1008091A00081608093A000809121012A
:104D700082608093210180912101816080932101D3
:104D80008091200181608093200180917A0084606D
:104D900080937A0080917A00826080937A0080917B
:104DA0007A00816080937A0080917A008068809395
:104DB0007A001092C10060E08091F8080E94D90E3C
:104DC000BEEFCB2EB8E0DB2EF12CE12C8091FD085C
:104DD0008E151F0409F104F18091F8080E94E10F7B
:104DE000BC01990F880B990B0E943A389B01AC01CA
:104DF00060913A0970913B0980913C0990913D097D
:104E00000E94EF38D6016D937D938D939D936D0134
:104E1000BFEFEB1AFB0ADACF0E9456106093F90835
:104E20007093FA088093FB089093FC0861E08091EE
:104E300048090E94D90E0E94DA1360E090E080E0F9
:104E40000E9409147C018830E4E59E0789F18032D4
:104E5000F4E59F0769F18938994809F439C160E0A0
:104E600087E690E00E94091437E4E32E33E8F32E3E
:104E700087349744E9F08FEE90E00E9418157B018B
:104E800087E2E81683E9F80699F081EA90E00E944B
:104E9000F91423E6E22E29E1F22E613091E679073A
:104EA00039F06F3F7607B9F5A6E2EA2EA5E1FA2EB2
:104EB0000E94DA131092D8081092D708F092DC08FA
:104EC000E092DB0881E3E81680E8F80609F4C2C73F
:104ED00008F0DAC1A3E5EA16A0E2FA0611F40C9490
:104EE0008F2F08F060C1E1E1EE16E5E1FE0609F45E
:104EF000BFC208F010C129E9E216F10409F4BAC7EB
:104F000008F0FAC0EA94EF2809F4CDC71092C1085E
:104F10001092C008AAC26115BFEF7B0729F4F0E226
:104F2000EF2EF5E1FF2EC4CF91EAE92E95E0F92EA0
:104F30006115704F09F4BCCF8FEB90E00E941815FB
:104F40007B016735F3E87F0709F4B2CF613824E9C4
:104F5000720709F4ADCF6131754109F4A9CF80E240
:104F6000E81685E1F806D9F296E2E91695E1F90628
:104F700009F49ACFA1E8EA16A5E1FA0609F498CF58
:104F8000E114B4E1FB0609F4A8C084ED90E00E94AE
:104F9000F9147B016031734509F48ACF87ED90E005
:104FA0000E94F9147B016133704809F481CF8EEFC0
:104FB00090E00E94F914672F782F892F99277B01A1
:104FC0006335704209F474CF84E090E00E94F914D4
:104FD0007B01833E31F4672B59F5E12CB3EEFB2EB8
:104FE00067CF811125C06115704811F580910002CD
:104FF00090910102A091020289839A83AB83AE0152
:105000004F5F5F4F63E089EB90E00E943B1260E0EE
:1050100080ED90E00E94091479E9E72EF12C89399E
:1050200009F446CF8039E1F460E9E62EFE2C40CF4A
:1050300086E2E81685E1F80609F436CF90EFE91626
:1050400099E8F90609F44EC0A2E5EA16A5E8FA06C1
:1050500009F44DC0B1E1EB16BCEAFB0609F428CF18
:1050600083ED90E00E94F914672F782F892F9927FC
:105070007B016336714909F41BCF83ED90E00E94F8
:10508000F914872FE62EF72EF9E2EF16F2E3FF066A
:1050900009F40ECF8359823008F40ACF783909F425
:1050A00007CF773709F404CF763109F401CF23ED28
:1050B000E216F10409F4FCCE33EDE316F30609F42D
:1050C000F7CE60E090E080E00E9409147C01F0CE11
:1050D00049E8E42E42E1F42EEBCE84E1E82E88E6A6
:1050E000F82EE6CEA5E3EA2EA7E7FA2EE1CEF9E800
:1050F000EF2EF7E7FF2EDCCE94E5E91691E0F906F6
:1051000009F4A7C1A5E0EA16A5E1FA0609F0FECE6A
:1051100084E090E1CAC6B1E8EB16B5E1FB0609F4FC
:1051200007C7C8F4F0E2EF16F5E1FF0609F43BC645
:1051300026E2E21625E1F20609F0E8CE83E194E0EA
:105140009093DA088093D9080CE010E061E1E62E34
:1051500066E0F62EA5C132E0E31636E1F30609F467
:10516000D1C683E6E81689E1F80609F0CFCE81E0E2
:105170008093DC0383E59AE09093DA088093D90862
:1051800080EE91E09093C3088093C20880E293E0A0
:105190009093C1088093C00803E510E05EEBE52E14
:1051A00055E0F52E7DC199E0E91698E6F90609F477
:1051B00085C638F5B5E3EB16B5E4FB0609F400C681
:1051C00098F4F9E2EF16F2E3FF0609F09FCE83E0D0
:1051D00096E09093DA088093D90800E410E04EE757
:1051E000E42E45E0F42E5CC120E1E21623E5F20650
:1051F00009F4F1C538E0E31634E5F30609F488CF85
:1052000085CE89E8E81687E7F80609F416C6B8F4EB
:10521000A4E1EA16A8E6FA0609F4F6C5B3E8EB1627
:10522000B7E7FB0609F072CE82E091E19093DA08CD
:105230008093D90868E870E08AE399E014C1E3E953
:10524000EE16E7E7FE0609F4A8C6F6E9EF16F7E75B
:10525000FF0609F05BCE83E094E09093DA08809338
:10526000D90880EE91E09093C3088093C20880E44F
:1052700091E09093C1088093C0080DE010E03EEEED
:10528000E32E33E0F32E0CC128E3E21623E9F20605
:1052900009F448C608F05FC085E2E81683E9F8061D
:1052A00009F448C0A0F5A0E9EA16FA0609F4DFC53A
:1052B000F8F483E094E1E7E5EE16E3E8FE0609F092
:1052C00025CE9093DA088093D90880EE91E09093F0
:1052D000C3088093C20880E491E09093C108809352
:1052E000C00802E010E0B4E2EB2EB5E0FB2ED8C01F
:1052F00083E094E0F2E0EF16F3E9FF0609F49EC0C4
:1053000020E2E21623E9F20609F402CFFFCD39E2EA
:10531000E31633E9F30609F408C678F497E2E916D0
:1053200093E9F90609F4D5C5A8E2EA16A3E9FA0655
:1053300009F0ECCD80E091E1C3C5B1E3EB16B3E930
:10534000FB0631F0E5E3EE16E3E9FE0609F0DECDFB
:1053500080E090E1B5C5F9E8EF16F4E9FF0608F042
:1053600042C027E8E21624E9F20608F0FDC531E85C
:10537000E31634E9F30609F4F4C5B0F490E4E91A4D
:1053800093E9F90AA2E0EA16F10408F0BFCD83E13F
:1053900094E09093DA088093D90805E610E06BE773
:1053A000E62E64E0F62E7CC0B6E8EB16B4E9FB0608
:1053B00009F0ACCD83E094E09093DA088093D908AB
:1053C00080EE91E09093C3088093C20880E491E05E
:1053D0009093C1088093C0080BE310E04BEFE42EDC
:1053E00043E0F42E5DC0E9E0EE16E5EBFE0609F4BD
:1053F000D4C5C0F483E194E121E1E2162CEAF2067F
:10540000E9F035E0E31635EBF30609F07FCD88E0EF
:1054100090E19093DA088093D90860EB70E086EE13
:1054200096E021C085E0E81685ECF80681F3E114EA
:1054300093EEF90609F06ACD83E19EE09093DA08D5
:105440008093D90803E010E070EEE72E74E0F72EA9
:1054500027C082E090E19093DA088093D9086CE944
:1054600070E08EE59AE00E944C15F12CE12C18C0FA
:1054700083E090E09093DA088093D90880EE91E081
:105480009093C3088093C20880E491E09093C10890
:105490008093C00803E010E0E3E2EE2EE6E0FE2E8B
:1054A0002091DA08822F82958F7090E08170992781
:1054B0009093DE088093DD08E114F10481F069E047
:1054C00070E08AEB93E00E948F11B801C7010E943F
:1054D0008F1166E070E084EB93E00E948F1160E032
:1054E0008CEB98E00E942A1A60E08CEB98E00E9416
:1054F0006E158091DB089091DC088838944909F09A
:10550000DAC11092DB0320EE3FEF50E040E070E0A4
:1055100060E08CEB98E00E94C018E090E708F09003
:10552000E8088091D90880FF03C09EE2E92EF12CA3
:105530008091DB089091DC088230964119F48EE26C
:10554000E82EF12C10E000E030E020E050E040E0F8
:1055500070E060E08CEB98E00E94B1158091D90872
:1055600080FD10C070E060E08091E3089091E40855
:105570000E94FA1270E060E08091E5089091E608E0
:105580000E94FA128B988A98809102018778809302
:105590000201A5988EB1877C8EB9409102018F2DB2
:1055A00090E09C0105E0220F331F0A95E1F7207679
:1055B000242B209302014EB19C01220F331F220F96
:1055C000331F2073242B2EB944B39C01220F331FA9
:1055D0002072242B24BB4EB19C013595279535951F
:1055E00027952870242B2EB920910201E3E0959590
:1055F0008795EA95E1F78871822B8093020189985B
:10560000899A80910201877880930201A5988EB1D2
:10561000877C8EB940910201C7019701F5E0220F06
:10562000331FFA95E1F72076242B209302014EB127
:105630009701220F331F220F331F2073242B2EB903
:1056400044B39701220F331F2072242B24BB4EB189
:10565000970135952795359527952870242B2EB9D8
:105660002091020103E0959587950A95E1F78871ED
:10567000822B809302018998899A8A9A80910101EC
:105680008778809301019D988DB1877C8DB9409179
:10569000D9085091DA088091DB089091DC0846FD2A
:1056A00013C0889A889888988898209100012CB116
:1056B00022B32CB120910001889A40FD05C08938A1
:1056C000E2E19E0709F07CC48131954161F4889A3A
:1056D000889888988898809100018CB182B38CB1A9
:1056E00080910001889ABA0164707727889A889817
:1056F0008898889844FF86C4209100018CB1F2B349
:10570000ECB19091000130E055E0359527955A9520
:10571000E1F72370869586958C70822B2F2F269526
:105720002071822BA4E0EA9F900111242072822B29
:10573000B8E09B9F90011124207C822B889A889A44
:10574000889888988898209100019CB1A2B3FCB1F8
:10575000E091000130E0B5E035952795BA95E1F785
:105760002370969596959C70922B2A2F26952071E2
:10577000922BA4E0FA9F900111242072922BB8E0A2
:10578000EB9F90011124207C922B889A889A88980C
:105790008898889820910001ECB0A2B3FCB1E09108
:1057A000000130E015E0359527951A95E1F7237053
:1057B000E694E6943E2D3C70E32EE22A2A2F2695AD
:1057C0002071E22AA4E0FA9F900111242072E22ABB
:1057D000B8E0EB9F90011124207C2E29889AE92FB4
:1057E000F0E0672B09F4F9C3E22EF12CFE2CEE2435
:1057F000EE2428EFF22203E0EE0FFF1F0A95E1F7F7
:10580000E07EF770EE2AFF2A869586958695E82A2F
:105810008091DB03882399F0C70155E09695879521
:105820005A95E1F7807299279701369527952F7140
:105830003327822B932BF0ECEF22E82AF92A889A5F
:105840008B9A809101018867809301019D9A8DB1A7
:1058500088638DB940FD14C00091C6081091C70837
:10586000015011092091C4083091C5082150310917
:1058700050E040E070E060E08CEB98E00E94B115F1
:105880002FE1E2162FEFF206B1F486E08983AE0134
:105890004F5F5F4F61E08AE390E00E943B1280918E
:1058A000D9089091DA088F7E9093DA088093D9080E
:1058B00081E08093DB0362E08CEB98E00E942A1A7F
:1058C00070E060E08CEB98E00E94161D68EE73E0DB
:1058D00080E090E00E94231083E390E09093C90859
:1058E0008093C80881ED91E09093CB088093CA081B
:1058F00065E673E08CEB98E00E948E1D8091C405F4
:10590000E82FF0E0EE0FFF1FE456FA4F28E635E0EF
:1059100031832083E1E0E80FF0E0EE0FFF1FE45653
:10592000FA4F24E335E031832083E2E0E80FF0E032
:10593000EE0FFF1FE456FA4F20E035E0318320835D
:10594000E3E0E80FF0E0EE0FFF1FE456FA4F2CEC17
:1059500034E031832083E4E0E80FF0E0EE0FFF1F36
:10596000E456FA4F28E934E031832083E5E0E80F7C
:10597000F0E0EE0FFF1FE456FA4F2CE434E03183E1
:105980002083E6E0E80FF0E0EE0FFF1FE456FA4F49
:1059900020E034E031832083E7E0E80FF0E0EE0F11
:1059A000FF1FE456FA4F2DED33E031832083885FEB
:1059B0008093C4058091E806E82FF0E0EE0FFF1F0A
:1059C000E054F94F2DE936E031832083E1E0E80F20
:1059D000F0E0EE0FFF1FE054F94F2EE736E0318381
:1059E0002083E2E0E80FF0E0EE0FFF1FE054F94FF4
:1059F0002FE536E031832083E3E0E80FF0E0EE0F9F
:105A0000FF1FE054F94F23E136E031832083E4E0C7
:105A1000E80FF0E0EE0FFF1FE054F94F27EC35E000
:105A2000318320838B5F8093E80680918F08E82F75
:105A3000F0E0EE0FFF1FE959F74F2BE138E031831B
:105A40002083E1E0E80FF0E0EE0FFF1FE959F74F88
:105A50002FEC37E031832083E2E0E80FF0E0EE0F37
:105A6000FF1FE959F74F23E837E031832083E3E054
:105A7000E80FF0E0EE0FFF1FE959F74F27E337E09B
:105A800031832083E4E0E80FF0E0EE0FFF1FE959D7
:105A9000F74F2BEE36E0318320838B5F80938F08A6
:105AA00080919408909195080E948F1060E08091F9
:105AB0009B080E94D90E60E080919C080E94D90E3C
:105AC00061E080919E080E94D90E61E080919D085E
:105AD0000E94D90E8091A908E091A108F091A20836
