:100000000C942C070C945D070C945D070C945D0711
:100010000C945D070C945D070C945D070C945D07D0
:100020000C945D070C945D070C945D070C945D07C0
:100030000C945D070C945D070C945D070C945D07B0
:100040000C945D070C945D070C945D070C945D07A0
:100050000C945D070C945D070C945D070C942027AD
:100060000C945D070C9494270C946A270C945D07FC
:100070000C945D070C945D070C945D070C945D0770
:100080000C945D070C945D070C945D070C945D0760
:100090000C945D070C945D070C945D070C945D0750
:1000A0000C945D070C945D070C945D070C945D0740
:1000B0000C945D070C945D070C945D070C945D0730
:1000C0000C945D070C945D070C945D070C945D0720
:1000D0000C945D070C945D070C945D070C945D0710
:1000E0000C945D070C941B0E0C9459170C94A608E5
:1000F0000C94881A0C9404190C94CD1A0C9487163D
:100100000C943D080C94FF110C94CA270C941519FB
:100110000C9421190C9460080C9495100C94E0191F
:100120000C9405190C9434190C942D190C94430D4E
:100130000C94CC1A0C9410080C94B8170C946E08FC
:100140000C94B81A0C944C080C94A51A0C94F3084F
:1001500011007F96290001007F9628003A0155C0C2
:10016000021010C10141C50400228040360168B070
:100170000100B102B011B40102B60302023BB701A3
:10018000C63A0155F704A9512C82B701C6E80840C8
:100190008A00002919A533C0020D0DC1024300C217
:1001A0000100C50400480048B40100B60302023B48
:1001B000E00F0F211C0B0E08499838091103141089
:1001C00000E10F0F2F2B0C0E064776370711042383
:1001D0001E00B00100B30402000000B40100D0030F
:1001E000074218D103000710D2020102D302010214
:1001F000D4020102C005123B000211C10310108895
:10020000C50103C60102C80C003236450616377513
:1002100077540C00CC0100F603010100CF030081EC
:1002200030ED0464031281E803851078CB05392C86
:10023000003402F70120EA020000B00100B1020020
:100240001BB40100C00121C10111C5023F3CC7011F
:10025000B5360148F20100260101E00F0F26240BFC
:100260000E0954A8460C17090F0700E10F00191BCF
:100270000410072A473903060630380F360100B844
:100280000101C0010EB00100C10410100202C0063D
:10029000003500000102C50104D2020104CA0100B8
:1002A000EA0180B903FF83577F967F96B60125C088
:1002B000065050013C1E08B4070240002A2A0D785F
:1002C0007F01F20B1616030808080810041616FD25
:1002D00003110235B2050C0C003333B70135BB01F5
:1002E0002BC00104C20201FFC30111C40120C601D9
:1002F0000FD002A4A1E00ED000050E150D37434724
:100300000915121619E10ED000050D0C062D4440FA
:100310000E1C1816193A01557F0A06000700B10293
:100320000012B40102B60400202700CA0101CB016B
:1003300003C001137F14C501CCC60100C70104C866
:100340000103CC0106CD011CF9021515F3030A02C5
:100350000AF603011000FA00FB00E2031E0254E05B
:1003600001017F0AE001037F0A01007F64E60303C5
:10037000FFFFB0072400031F01DF00B40803A00043
:100380002E30000F00B607020D0010100008BA0151
:100390000FB8020701F001007F01280011007F64FF
:1003A0002900BE0606F001F00000D0010DB00103E7
:1003B000E2013FC00122E20100B00100C0010AB029
:1003C000010000000000000000000000000000002C
:1003D0000000FFFF0F00000400620800080800038F
:1003E000000C01030B5A0203060903031710040350
:1003F000002305030017060309630703090C08031C
:100400000C10090332221000160011000101120025
:100410000000130001000001300301013702030155
:10042000000D800200610201B0C1FFFF3200010037
:1004300000010200000103003010090001000C005F
:100440000000900000800F00000010020000110268
:10045000EF001202000013028F01000500000105E9
:10046000000002055F000104010004040000FFFF1A
:10047000320007000001FFFF32000002000001020D
:10048000000000000000000000000000000000006C
:100490000100A4000100FFFF0A006000002708001F
:1004A000080830001402310015373200040633000A
:1004B000160E34001122350000153600078537006E
:1004C00007143800031439002000900015001000B4
:1004D000100411003702290046002A0046000700D8
:1004E00000001200890113000011FFFF96001200A6
:1004F000B9010100000102000002030030100900F0
:1005000001000A0000000D0000000E003000610034
:1005100001006A00000080000000810000008200ED
:100520005F009200000193000107FFFF50000700E9
:100530000001E500F0780100000102000002030064
:100540003010040000000500000008000702090048
:1005500000000A0000000C0000000D0000000F0069
:10056000000010000000110007001200000013003E
:10057000000007000100FFFFC800100090161100E6
:100580002702FFFF320012000D00FFFF32001300B0
:10059000001229000A002B000D00FFFF320020008E
:1005A000000021000000300000003100040432008F
:1005B000030035000504360008083700070438003A
:1005C0000303390007073C0004053D0008086000EC
:1005D0000027610001006A00000080000000810027
:1005E00000008200000083000000840000008500FD
:1005F0000000900010009200000007003301E500A9
:10060000008000000100010000010200000703005B
:1006100030100400000008000202090000000A0077
:1006200000000C0000000D0000000F000000100092
:100630000000110007001200000013000000FFFF7F
:1006400032001000B01711000700FFFF0A0012006F
:100650003A01FFFF0A001300001A29000C00FFFFF7
:100660000A003000000031000505320004003500AA
:100670000600360007073700050138000200390080
:1006800007073C0004073D000708600000A7610061
:1006900001006A000000210000002000000080002E
:1006A0000000810000008200000083000000840040
:1006B00000008500000090001000920000009300F0
:1006C000030095001001970000009800000007004B
:1006D0007301FFFF32000100000102000007030068
:1006E000301008000203090000000A000800100092
:1006F0000000110005001200000013000000FFFFC1
:1007000064001000B012FFFF320011000700FFFF6D
:10071000320012008C001300001729002000FFFF98
:1007200032003000000031000601320001013500C6
:1007300006013600030237000000380007073900C1
:1007400004023C0006013D000301600000A76100B7
:1007500001009000300007003301FFFF3200150058
:1007600030009A0010001100200010002834120000
:10077000020013003810FFFF280012001200FFFFD4
:1007800028001000203413004530FFFF46003000E1
:100790000000310002043200070333000403340078
:1007A0000400350001043600070737000503380050
:1007B00010063900100601000001020000030300CA
:1007C0003010080008080A000800600000276100D7
:1007D000010090003E019200000193000001A00082
:1007E0000030A300100007000100070021000700EF
:1007F0002300070033000700330111001A00120024
:10080000213113006C001400494210000008FFFF62
:100810000A0011001A01FFFF0A0011001A03FFFF6E
:100820000A0011001A07FFFF0A0011001A0FFFFF4C
:100830000A0011003A0FFFFF1E000100280102000C
:1008400000010300301007001210080003030B0022
:1008500000110C0000000F000118150020005000CE
:100860000101510003065200080453000000540027
:1008700005065500060456000303570003035800FD
:1008800010005900001007001200FFFF28000700A9
:1008900013000700170000000000003E5B4F5B3EA6
:1008A0003E6B4F6B3E1C3E7C3E1C183C7E3C181C35
:1008B000577D571C1C5E7F5E1C00183C1800FFE72C
:1008C000C3E7FF0018241800FFE7DBE7FF30483AD2
:1008D000060E2629792926407F050507407F052534
:1008E0003F5A3CE73C5A7F3E1C1C08081C1C3E7FBC
:1008F00014227F22145F5F005F5F06097F017F0083
:100900006689956A606060606094A2FFA2940804A2
:100910007E040810207E201008082A1C08081C2AC3
:1009200008081E101010100C1E0C1E0C30383E381B
:1009300030060E3E0E06000000000000005F0000C2
:100940000007000700147F147F14242A7F2A122333
:100950001308646236495620500008070300001C43
:100960002241000041221C002A1C7F1C2A08083E4C
:10097000080800807030000808080808000060605F
:100980000020100804023E5149453E00427F4000CD
:1009900072494949462141494D331814127F1027A5
:1009A000454545393C4A49493141211109073649F4
:1009B000494936464949291E0000140000004034C8
:1009C00000000008142241141414141400412214CD
:1009D0000802015909063E415D594E7C1211127CF4
:1009E0007F494949363E414141227F4141413E7F55
:1009F000494949417F090909013E414151737F0835
:100A000008087F00417F41002040413F017F0814DA
:100A100022417F404040407F021C027F7F0408103B
:100A20007F3E4141413E7F090909063E4151215E19
:100A30007F09192946264949493203017F01033FAD
:100A40004040403F1F2040201F3F4038403F63143C
:100A500008146303047804036159494D43007F413E
:100A600041410204081020004141417F040201027B
:100A700004404040404000030708002054547840A0
:100A80007F284444383844444428384444287F3834
:100A90005454541800087E090218A4A49C787F08B6
:100AA00004047800447D40002040403D007F102831
:100AB000440000417F40007C047804787C080404F2
:100AC000783844444438FC1824241818242418FC8A
:100AD0007C08040408485454542404043F44243C2F
:100AE0004040207C1C2040201C3C4030403C44289E
:100AF0001028444C9090907C4464544C4400083638
:100B000041000000770000004136080002010204A5
:100B1000023C2623263C1EA1A161123A4040207AC5
:100B2000385454555921555579412254547842210D
:100B30005554784020545579400C1E527212395544
:100B40005555593954545459395554545800004541
:100B50007C410002457D420001457C407D1211121E
:100B60007DF0282528F07C545545002054547C54B1
:100B70007C0A097F4932494949323A4444443A326D
:100B80004A4848303A4141217A3A42402078009D13
:100B9000A0A07D3D4242423D3D4040403D3C24FFBF
:100BA0002424487E4943662B2FFC2F2BFF0929F66E
:100BB00020C0887E090320545479410000447D41BF
:100BC0003048484A32384040227A007A0A0A727D18
:100BD0000D19317D2629292F282629292926304833
:100BE0004D4020380808080808080808382F10C8A1
:100BF000ACBA2F102834FA00007B000008142A1425
:100C00002222142A14085500550055AA55AA55AA9F
:100C1000FF55FF55FF000000FF00101010FF0014EB
:100C20001414FF001010FF00FF1010F010F0141447
:100C300014FC001414F700FF0000FF00FF1414F46C
:100C400004FC141417101F10101F101F1414141F6D
:100C500000101010F0000000001F101010101F10E6
:100C6000101010F010000000FF10101010101010E5
:100C70001010FF10000000FF140000FF00FF000034
:100C80001F10170000FC04F414141710171414F4A8
:100C900004F40000FF00F714141414141414F700E3
:100CA000F7141414171410101F101F141414F41434
:100CB0001010F010F000001F101F0000001F1400A3
:100CC0000000FC140000F010F01010FF10FF1414CE
:100CD00014FF141010101F00000000F010FFFFFFA1
:100CE000FFFFF0F0F0F0F0FFFFFF0000000000FF5A
:100CF000FF0F0F0F0F0F3844443844FC4A4A4A3460
:100D00007E02020606027E027E0263554941633876
:100D100044443C04407E201E2006027E020299A527
:100D2000E7A5991C2A492A1C4C7201724C304A4D85
:100D30004D303048784830BC625A463D3E494949BA
:100D4000007E0101017E2A2A2A2A2A44445F444463
:100D500040514A444040444A51400000FF0103E0F2
:100D600080FF000008086B6B083612362436060F29
:100D7000090F06000018180000001010003040FF96
:100D80000101001F01011E00191D1712003C3C3C0F
:100D90003C000000000000002100240027002A0081
:100DA0002D003000330001010000040107010A0199
:100DB000010210202008081020401020408002016D
:100DC0000201080402010102040810204080804052
:100DD0002010080402018004020180402010080451
:100DE00002010804020101020408102040800102EF
:100DF00004081020408000002200250028002B005D
:100E00002E003100340002010000050108010B0131
:100E100005050505070508080808020202020A0A76
:100E20000808040404040101010101010101030394
:100E3000030303030303040707070C0C0C0C0C0C3F
:100E40000C0C0202020206060606060606060B0B3C
:100E50000B0B0B0B0B0BCA2711241FBECFEFD1E2DC
:100E6000DEBFCDBF00E00CBF12E0A0E0B2E0EEE6D6
:100E7000F0E600E00BBF02C007900D92A039B10769
:100E8000D9F724E0A0E9B2E001C01D92A734B2076F
:100E9000E1F717E0CCE2D7E000E006C021970109B6
:100EA000802FFE010E94302BCB32D10780E0080753
:100EB000A9F70E9429290C9435300C940000CF9397
:100EC000DF9390E0FC01E055F24F2491805F914F59
:100ED000FC0184918823D1F090E0880F991FFC01D8
:100EE000EA56F24FA591B491FC01EA50F24FC59138
:100EF000D49161110EC09FB7F8948C91E22FE095C8
:100F00008E238C932881E223E8839FBFDF91CF91CA
:100F100008958FB7F894EC91E22BEC938FBFF6CF46
:100F2000863308F0865320917B00982F9870277F96
:100F3000922B90937B008770806480937C008091DB
:100F40007A00806480937A0080917A0086FDFCCFDD
:100F5000809178009091790008953FB7F89480913E
:100F6000980290919902A0919A02B0919B0226B5A5
:100F7000A89B05C02F3F19F00196A11DB11D3FBFD1
:100F8000BA2FA92F982F8827BC01CD01620F711DA0
:100F9000811D911D42E0660F771F881F991F4A959A
:100FA000D1F708958F929F92AF92BF92CF92DF9226
:100FB000EF92FF926B017C010E94AD074B015C0137
:100FC000C114D104E104F104B9F00E94AD0768191D
:100FD00079098A099B09683E73408105910580F370
:100FE00021E0C21AD108E108F10888EE880E83E0FA
:100FF000981EA11CB11CE4CFFF90EF90DF90CF9022
:10100000BF90AF909F908F900895E0915203F09120
:101010005303199566E970E080E090E00C94D207E4
:10102000AF92BF92CF92DF92EF92FF920F931F93F6
:10103000CF93DF936C017B018B01040F151FEB0134
:101040005E01AE18BF08C017D10759F06991D601EB
:10105000ED91FC910190F081E02DC6011995892B4D
:1010600079F7C501DF91CF911F910F91FF90EF901C
:10107000DF90CF90BF90AF900895FC01538D448DC9
:10108000252F30E0842F90E0821B930B541710F033
:10109000CF96089501970895FC01918D828D981740
:1010A00061F0A28DAE0FBF2FB11D5D968C91928D18
:1010B0009F5F9F73928F90E008958FEF9FEF089549
:1010C000FC01918D828D981731F0828DE80FF11D12
:1010D000858D90E008958FEF9FEF0895FC01918D2D
:1010E000228D892F90E0805C9F4F821B91098F7326
:1010F000992708958DE992E00E946E0821E0892BDE
:1011000009F420E0822F0895FC01A48DA80FB92FC7
:10111000B11DA35ABF4F2C91848D90E001968F731F
:101120009927848FA689B7892C93A089B1898C913E
:10113000837080648C93938D848D981306C002888D
:10114000F389E02D80818F7D80830895EF92FF9257
:101150000F931F93CF93DF93EC0181E0888F9B8DDA
:101160008C8D98131AC0E889F989808185FF15C094
:101170009FB7F894EE89FF896083E889F9898081B7
:101180008370806480839FBF81E090E0DF91CF9186
:101190001F910F91FF90EF900895F62E0B8D10E0A8
:1011A0000F5F1F4F0F731127E02E8C8D8E110CC017
:1011B0000FB607FCFACFE889F989808185FFF5CF62
:1011C000CE010E948408F1CFEB8DEC0FFD2FF11DB5
:1011D000E35AFF4FF0829FB7F8940B8FEA89FB899F
:1011E00080818062CFCFCF93DF93EC01888D8823FD
:1011F000B9F0AA89BB89E889F9898C9185FD03C07A
:10120000808186FD0DC00FB607FCF7CF8C9185FF5E
:10121000F2CF808185FFEDCFCE010E948408E9CF17
:10122000DF91CF91089580E090E0892B29F00E9412
:101230007A0881110E94000080E090E0892B49F03B
:1012400080E090E0892B29F00E94000081110E942B
:10125000000080E090E0892B49F080E090E0892B4D
:1012600029F00E94000081110E94000080E090E0BF
:10127000892B49F080E090E0892B29F00E94000042
:1012800081110C9400000895FC0120813181C90175
:10129000059786179707B0F486819781280F391F25
:1012A0002B5F3F4F6217730768F422813381241745
:1012B000350740F480859185280F391F81E042175A
:1012C000530708F080E008950F931F93CF93DF93A7
:1012D000EC018B01FE0184913196649122968F3747
:1012E00099F470E090E080E00E94D20760E070E046
:1012F0006E5F7F4F061B170B101611065CF3DF9114
:10130000CF911F910F9108958B988A989091020127
:10131000977890930201A5989EB1977C9EB94091D1
:10132000020190E09C0155E0220F331F5A95E1F72E
:101330002076242B209302014EB19C01220F331FF3
:10134000220F331F2073242B2EB944B39C01220F8C
:10135000331F2072242B24BB4EB19C013595279559
:10136000359527952870242B2EB920910201A3E0F2
:1013700095958795AA95E1F78871822B8093020154
:101380008998899A50E040E0461708F045C0FE0170
:10139000E40FF51FE4918A9A809102018778809387
:1013A0000201A5988EB1877C8EB9709102018E2FB3
:1013B00090E09C01E5E0220F331FEA95E1F72076EB
:1013C000272B209302017EB19C01220F331F220F95
:1013D000331F2073272B2EB974B39C01220F331FA8
:1013E0002072272B24BB7EB19C013595279535951E
:1013F00027952870272B2EB9E091020123E09595BF
:1014000087952A95E1F788718E2B80930201899840
:10141000899A4F5F5F4FB8CFC60FD11D8B9A67CFA8
:101420008B988A9820910201277820930201A59831
:101430002EB1277C2EB970910201292F30E0F901DD
:10144000A5E0EE0FFF1FAA95E1F7E076E72BE0930A
:1014500002017EB1F901EE0FFF1FEE0FFF1FE073D7
:10146000E72BEEB974B3F901EE0FFF1FE072E72B23
:10147000E4BB7EB1F901F595E795F595E795E87040
:10148000E72BEEB970910201E3E035952795EA95D7
:10149000E1F72871272B209302018998899A2091DE
:1014A0000201277820930201A5982EB1277C2EB93E
:1014B000709102019C01F5E0880F991FFA95E1F700
:1014C0008076872B809302017EB1C901880F991F16
:1014D000880F991F8073872B8EB974B3C901880F49
:1014E000991F8072872B84BB7EB1C9019595879522
:1014F000959587958870872B8EB980910201F3E0CE
:1015000035952795FA95E1F72871282B209302014C
:101510008998899A8A9AFA01615008F43EC08191AB
:1015200090910201977890930201A5989EB1977CC3
:101530009EB94091020190E09C0155E0220F331FBB
:101540005A95E1F72076242B209302014EB19C019D
:10155000220F331F220F331F2073242B2EB944B3C5
:101560009C01220F331F2072242B24BB4EB19C01FF
:1015700035952795359527952870242B2EB92091E0
:10158000020133E0959587953A95E1F78871822BB2
:10159000809302018998899ABFCF8B9A08958B987E
:1015A0008A98E2E0F1E0208127782083A5982EB187
:1015B000277C2EB9A081292F30E0A901B5E0440F86
:1015C000551FBA95E1F740764A2B4083AEB1A90189
:1015D000440F551F440F551F40734A2B4EB9A4B3F7
:1015E000A901440F551F40724A2B44BBAEB1A9015B
:1015F000559547955595479548704A2B4EB940816A
:1016000053E0359527955A95E1F72871242B2083CF
:101610008998899A208127782083A5982EB1277CE4
:101620002EB940819C01A5E0880F991FAA95E1F78A
:101630008076842B80834EB1C901880F991F880F53
:10164000991F8073842B8EB944B3C901880F991FE9
:101650008072842B84BB4EB1C90195958795959571
:1016600087958870842B8EB98081B3E03595279556
:10167000BA95E1F72871282B20838998899A8A9A4C
:10168000808187788083A5988EB1877C8EB94081D0
:10169000872F90E09C0155E0220F331F5A95E1F708
:1016A0002076242B20834EB19C01220F331F220F62
:1016B000331F2073242B2EB944B39C01220F331FF8
:1016C0002072242B24BB4EB19C013595279535956E
:1016D00027952870242B2EB92081A3E09595879516
:1016E000AA95E1F78871822B80838998899A8081F5
:1016F00087788083A5988EB1877C8EB94081CB0195
:101700009B01B5E0220F331FBA95E1F72076242B19
:1017100020834EB19B01220F331F220F331F2073F2
:10172000242B2EB944B39B01220F331F2072242B8C
:1017300024BB4EB19C01359527953595279528708A
:10174000242B2EB92081A3E095958795AA95E1F7E2
:101750008871822B80838998899A8B9A089581E079
:1017600080939C02E1E0F1E08081886780839D9A0C
:101770008DB188638DB9809A819A829A839A849A6E
:101780008B9A889A899A8C9A62E370E080E090E064
:101790000E94D2078C9864E670E080E090E00E949E
:1017A000D2078C9A64E670E080E090E00E94D20755
:1017B00070E060E080EB90E00C94CF0AEF92FF9233
:1017C0000F931F93CF93DF93EC01E62E80919C0241
:1017D000811102C00E94AF0B8B988A988091020100
:1017E000877880930201A5988EB1877C8EB980910D
:1017F0000201809302018EB18EB984B384BB8EB195
:101800008EB980910201809302018998899A809112
:101810000201877880930201A5988EB1877C8EB9EA
:1018200020910201CE0115E0880F991F1A95E1F76A
:101830008076822B809302012EB1CE01880F991FF2
:10184000880F991F8073822B8EB924B3CE01880F25
:10185000991F8072822B84BB2EB1CE0195958795FE
:10186000959587958870822B8EB98091020153E0FF
:10187000D595C7955A95E1F7C871C82BC093020159
:101880008998899A8A9A80910101877880930101C9
:101890009D988DB1877C8DB961E070E080E090E02B
:1018A0000E94D20761E070E080E090E00E94D207E1
:1018B000889A889888988898D09100011CB102B3C2
:1018C000CCB1F0900001889A61E070E080E090E097
:1018D0000E94D207889A8898889888984091000139
:1018E0005CB1E2B39CB1F0910001889AEA946FEF89
:1018F000E612D8CF889A8B9A8091010188678093ED
:1019000001019D9A8DB188638DB984E0C89F9001D3
:1019100011242072332788E0F89EB0011124607CE6
:101920007727262B602F70E0759567956071772774
:10193000262B612F70E075956795759567956C708E
:101940007727262B6D2F70E0B5E075956795BA95D2
:10195000E1F763707727262B64E0969FC00111247E
:10196000807298E0F99FB0011124607C862BE69587
:10197000E0718E2B569556955C70852B50E0C5E036
:1019800055954795CA95E1F74370842B922FDF91C7
:10199000CF911F910F91FF90EF9008950F931F9398
:1019A000CF93DF938C0160E00E94DE0BEC0161E0DD
:1019B000C8010E94DE0B8C01BE0190E080E0CB01EB
:1019C0007727662730E020E0602B712B822B932B4A
:1019D000DF91CF911F910F910895FF920F931F9365
:1019E000CF93DF938C0160E00E94DE0BEC0161E09D
:1019F000C8010E94DE0BF82E62E0C8010E94DE0BD7
:101A0000AE0170E060E0742F66275527442700E0A0
:101A100030E020E0402B5F29622B732B292F30E030
:101A2000C901B0E0A0E08A019B01082B192B2A2BE9
:101A30003B2BC901B801DF91CF911F910F91FF900E
:101A400008950F931F93CF93DF93EC018B01FE0159
:101A500085919491FE0132962496659174918F3F01
:101A6000980771F490E080E00E94D20704501109B9
:101A70001016110664F3DF91CF911F910F91089515
:101A80000E94CF0AF3CFFC01262F358D868D8295DB
:101A90008170982F9627692F70E072A361A330FFA1
:101AA0000CC0821307C080E290E050E040E060E0AC
:101AB0000C94100A81E290E0F8CF878D90A18339D1
:101AC00027E7920741F058F4843521E0920791F01E
:101AD00080329445C1F4626081E094E012C08632A5
:101AE00023E99207C1F3893025EB9207A1F38532F0
:101AF000924949F4660F771F660F771F636187E08D
:101B000090E00C94CF0A81E690E0FBCF8F929F92F9
:101B1000AF92BF92CF92DF92EF92FF920F931F93FB
:101B2000CF93DF9300D01F92CDB7DEB77C014B017E
:101B30005A016901FC01878D90A18632954151F4CB
:101B4000F701868980FF06C0C801841B950B81F5CB
:101B50000F5F1F4FF701858D80FF31C085A59982EA
:101B60008A82DB82CC82AE014F5F5F4F64E090E0FF
:101B70000E94100AF70181A9B982AA821B830C83F3
:101B8000AE014F5F5F4F64E090E00E94100A0F903B
:101B90000F900F900F90DF91CF911F910F91FF90B9
:101BA000EF90DF90CF90BF90AF909F908F9008956F
:101BB0002617370779F6C80ED91E8A01CBCFB40194
:101BC00087A190A50E94CF0AB501F70181A592A532
:101BD0000E94CF0AC814D90419F40A151B05B9F2DA
:101BE000F701858D85FF08C0868980FF1EC0102FF4
:101BF0000027A02AB12A8501B401F70185A596A581
:101C00000E94CF0AB501F70181A992A90E94CF0ACB
:101C1000B601F70187A590A90E94CF0AB801F70184
:101C200083A994A90E94CF0AB2CFDC2CCC248C28A3
:101C30009D286401E1CF2F923F924F925F926F9265
:101C40007F928F929F92AF92BF92CF92DF92EF924C
:101C5000FF920F931F93CF93DF9300D01F921F9299
:101C6000CDB7DEB79D838C8380919202882349F0A3
:101C7000C701880F991F8E739927E1ECEE22E82A9D
:101C8000F92A37FF05C0620F731F3195219531097D
:101C9000260F371F77FF02C070E060E0EC81FD8106
:101CA00080859185281739070CF4C9016C01C61A83
:101CB000D70A17FF05C0400F511F11950195110953
:101CC000040F151F57FF02C050E040E0EC81FD817A
:101CD00022853385021713070CF498015901A41AC1
:101CE000B50A8901015011099C01215031098C81EB
:101CF0009D810E94860D8B988A98EC81FD8153A569
:101D000044A580910201877880930201A5988EB145
:101D1000877C8EB960910201842F90E09C01A5E040
:101D2000220F331FAA95E1F72076262B209302017C
:101D30006EB19C01220F331F220F331F2073262BFD
:101D40002EB964B39C01220F331F2072262B24BBB3
:101D50006EB19C0135952795359527952870262BD2
:101D60002EB92091020133E0959587953A95E1F7D8
:101D70008871822B809302018998899A809102014F
:101D8000877880930201A5988EB1877C8EB9609187
:101D90000201852F942F9C0145E0220F331F4A95A5
:101DA000E1F72076262B209302014EB19C01220FF1
:101DB000331F220F331F2073242B2EB944B39C01F1
:101DC000220F331F2072242B24BB4EB19C0135956A
:101DD0002795359527952870242B2EB9209102013F
:101DE000E3E095958795EA95E1F78871822B8093DA
:101DF00002018998899A8A9ACA14DB042CF09A2DD8
:101E00008B2D5601C92ED82E2F2D30E0890185E06B
:101E1000000F111F8A95E1F70076C901880F991FFD
:101E2000880F991F182F1073C901880F991FB82F99
:101E3000B072C9019595879595958795982F98705B
:101E400073E0359527957A95E1F7822F8871A70180
:101E5000E5E0440F551FEA95E1F740769701220F20
:101E6000331F220F331F522F5073B701660F771F96
:101E7000607297013595279535952795722F787063
:101E80009701E3E035952795EA95E1F7A22FA87130
:101E90002F2D287F30E04901880C991C880C991C53
:101EA000F82DF073F9834901880C991CE82DE07234
:101EB000EA8349019594879495948794F82DF87056
:101EC000FB83E3E035952795EA95E1F7E22FE8718A
:101ED0002E2E9701F3E036952795FA95E1F72C7FA2
:101EE00030E04901880C991C880C991CF82DF0737E
:101EF0003F2E2901440C551CE42DE0724E2E490161
:101F00009594879495948794F82DF8705F2EF3E05C
:101F100035952795FA95E1F7E22FE8716E2EEE0CD4
:101F2000EE0CEE0CF12C9701220F331F220F331F02
:101F3000F22FF0737F2E9701220F331F2072F701CB
:101F4000F595E795F595E795E870F3E0F594E79456
:101F5000FA95E1F73E2D3871E32E1C141D040CF0A8
:101F6000ABC0309191024501332309F463C0309135
:101F70000201377830930201A5983EB1377C3EB913
:101F800030910201309302013EB1F9813F2B3EB9FD
:101F900034B3FA813F2B34BB3EB1FB813F2B3EB9BA
:101FA000309102013229309302018998899A309147
:101FB0000201377830930201A5983EB1377C3EB9D3
:101FC00030910201309302013EB133293EB934B35E
:101FD000342934BB3EB135293EB93091020136294E
:101FE000309302018998899A3091020137783093B1
:101FF0000201A5983EB1377C3EB930910201309381
:1020000002013EB137293EB934B3322B34BB3EB165
:102010003E2B3EB9309102013E293093020189984E
:10202000899A31E0831A910809F0A1CFF1E0CF1A23
:10203000D10893CF30910201377830930201A598EF
:102040003EB1377C3EB930910201302B3093020112
:102050003EB1312B3EB934B33B2B34BB3EB1392BAF
:102060003EB930910201382B309302018998899A48
:1020700030910201377830930201A5983EB1377C48
:102080003EB930910201342B309302013EB1352B21
:102090003EB934B3362B34BB3EB1372B3EB9309109
:1020A00002013A2B309302018998899AF1E08F1A44
:1020B000910809F0BFCFBACF8B9AEC81FD81858D55
:1020C00080FF0AC0878D90A186329541B1F4EC81E2
:1020D000FD81868980FF11C0EC81FD810285138519
:1020E00001501109208531852150310950E040E02F
:1020F00070E060E0CF010E94860D0F900F900F906E
:102100000F900F90DF91CF911F910F91FF90EF9063
:10211000DF90CF90BF90AF909F908F907F906F9007
:102120005F904F903F902F900895EF92FF920F9302
:102130001F93CF93DF937C01E90177FD4DC157FDDC
:102140004BC1FC0180859185681779070CF044C16B
:1021500082859385481759070CF03EC18091920201
:10216000882341F0C901880F991F8E739927C17C7C
:10217000C82BD92B8A019B01C7010E94860D809133
:102180009102882309F42FC18B988A98F70143A5FF
:1021900054A580910201877880930201A5988EB1A1
:1021A000877C8EB960910201852F90E09C0175E0DB
:1021B000220F331F7A95E1F72076262B2093020118
:1021C0006EB19C01220F331F220F331F2073262B69
:1021D0002EB964B39C01220F331F2072262B24BB1F
:1021E0006EB19C0135952795359527952870262B3E
:1021F0002EB920910201B3E095958795BA95E1F744
:102200008871822B809302018998899A80910201BA
:10221000877880930201A5988EB1877C8EB96091F2
:102220000201CA019C0115E0220F331F1A95E1F744
:102230002076262B209302014EB19C01220F331FE2
:10224000220F331F2073242B2EB944B39C01220F7D
:10225000331F2072242B24BB4EB19C01359527954A
:10226000359527952870242B2EB92091020173E013
:10227000959587957A95E1F78871822B8093020175
:102280008998899A8A9A80910201877880930201BD
:10229000A5988EB1877C8EB9209102018D2F887F01
:1022A00090E0209302014EB19C01220F331F220FB8
:1022B000331F2073242B2EB944B39C01220F331FEC
:1022C0002072242B24BB4EB19C0135952795359562
:1022D00027952870242B2EB920910201B3E0959503
:1022E0008795BA95E1F78871822B809302018998CE
:1022F000899A80910201877880930201A5988EB116
:10230000877C8EB920910201CE01D3E09695879506
:10231000DA95E1F78C7F90E0209302014EB19C01A9
:10232000220F331F220F331F2073242B2EB944B3E7
:102330009C01220F331F2072242B24BB4EB19C0121
:1023400035952795359527952870242B2EB9209102
:10235000020163E0959587956A95E1F78871822B74
:10236000809302018998899A8091020187788093ED
:102370000201A5988EB1877C8EB980910201CC0FA5
:10238000CC0FCC0FD0E0809302012EB1CE01880F8C
:10239000991F880F991F8073822B8EB924B3CE01A9
:1023A000880F991F8072822B84BB2EB1CE01959528
:1023B0008795959587958870822B8EB980910201BB
:1023C000A3E0D595C795AA95E1F7C871C82BC0932E
:1023D00002018998899A8B9ADF91CF911F910F9171
:1023E000FF90EF900895BE01F70183A594A5DF91BA
:1023F000CF911F910F91FF90EF900C94CF0AEF9225
:10240000FF920F931F93CF93DF9300D000D000D0A3
:102410001F92CDB7DEB77C01862F8370F701868BC4
:10242000962F917060FFE3C026813781F7013187D5
:102430002087992309F4DEC024813581F701338791
:102440002287823009F4DBC0833009F4DAC081309E
:1024500009F4D3C088E48A87F701858D968D90FFB3
:1024600003C02A8520582A8791FF04C02A8530E4BA
:1024700023272A8793FF04C02A8538E023272A8749
:10248000F701278D30A180FF00C12431F8E63F0716
:1024900009F0B9C09A85892F88728A871F82892F8F
:1024A00085958074282F2260892F90E095958795D7
:1024B00080729927822B88878BE38987AE01495FD9
:1024C0005F4F63E086EB90E00E94100A2AE230E062
:1024D000F70130A727A38BE290E092A781A74CE2F7
:1024E00050E054A743A736A725A730AB27A792AB48
:1024F00081AB94AB83ABAE01465F5F4F61E086E397
:1025000090E00E94100A8A8590E0F70194A383A3CB
:10251000F701868980FF1CC0858D968D92FD18C0BD
:1025200087A190A521A532A530A727A392A781A7AF
:1025300085A596A521A932A936A725A792AB81AB7F
:1025400087A590A923A934A930AB27A794AB83AB67
:10255000F70102851385015011092085318521502D
:10256000310950E040E070E060E0C7010E94860D54
:10257000F70166817781878D90A120E08732F3E9AA
:102580009F0709F420E2F701358D30FF39C1198228
:102590001A827B836C831D822E83AE014F5F5F4F57
:1025A00066E083E390E00E94100A19821A82AE016D
:1025B0004F5F5F4F62E087E390E00E94100AF701EF
:1025C000858D80FF07C050E040E060E083E190E04F
:1025D0000E94100A2A960FB6F894DEBF0FBECDBF38
:1025E000DF91CF911F910F91FF90EF90089524817B
:1025F00035811CCF2681378121CF88E22CCF88E915
:102600002ACF88EF28CF273243E9340789F41F8285
:1026100081E388878A8585958595859585958870D8
:102620008987AE01495F5F4F63E080EC90E04CCF5B
:10263000233689E1380749F02138E4E93E0729F0DB
:102640002131F5E13F0709F041CF8A8587FF02C0BC
:1026500081608A878A8586FF02C082608A878A8530
:102660008F73233649E1340731F0213884E9380784
:1026700021F48A858F728A8729CF2131354109F06B
:1026800025CF8A858F7E806CF6CF6A85862F062EB1
:10269000000C990B2339F7E73F0751F0A8F52435D3
:1026A000E1E03E0709F45CC02032F4E53F07A1F504
:1026B00040E052E0F70150A747A341E052E052A7A3
:1026C00041A742E052E054A743A740E152E056A799
:1026D00045A741E152E050AB47A742E152E052AB7F
:1026E00041AB43E152E054AB43AB882790782632AC
:1026F000F3E93F0721F02032344509F071C067FD4E
:10270000846060E071E36EC0263243E9340781F2F1
:102710002930E5EB3E0761F220E230E0F70130A717
:1027200027A321E230E032A721A722E230E034A73C
:1027300023A720E530E036A725A721E530E030AB20
:1027400027A722E530E032AB21AB23E530E034AB04
:1027500023ABBC0166277078776280E690E046C0C4
:1027600027E330E0F70136A725A726E330E030ABBA
:1027700027A729E330E032AB21AB28E330E034ABCC
:1027800023AB20E230E030A727A321E230E032A7DC
:1027900021A722E230E034A723A7F4E06F9FB00125
:1027A000112466277170882792708862682B792BB4
:1027B00081E090E00E94CF0A8A85682F70E07595CD
:1027C0006795759567956870772783FD706160637D
:1027D000F70174A363A383E090E00E94CF0A98CE30
:1027E00060E072E6682B792B80E094E00E94CF0ACB
:1027F0006A85F4E06F9FB001112466277170D8CF0D
:102800008339F7E79F07D9F1F0F4803244E5940764
:10281000B1F18338E7E79E0731F184359140F1F457
:102820006150710981E390E00E94CF0A70E060E09E
:1028300082E390E00E94CF0A70E060E083E390E0E2
:102840000E94CF0AC7CE863223E99207C1F08930B1
:1028500045EB9407A1F08532924911F3F70161A18C
:1028600072A1626003C0F70161A172A181E690E0EC
:102870000E94CF0A70E060E08AE690E0E1CFF701C5
:1028800061A172A1626081E094E00E94CF0A70E0D1
:1028900060E084E094E0D4CF0895FC016370668B1F
:1028A0008481958126813781613039F0633029F048
:1028B0009187808733872287089531872087938780
:1028C000828708952F923F924F925F926F927F92EC
:1028D0008F929F92AF92BF92CF92DF92EF92FF9230
:1028E0000F931F93CF93DF93CDB7DEB76A970FB6E1
:1028F000F894DEBF0FBECDBF9A8F898F7A8369832C
:102900004A01D22E18870F833701BC2CDC0159965F
:102910002D913C915A972115310509F015C1189652
:102920008D919C911997681779070CF0D7C11A9669
:102930008D919C91481759070CF0D0C14C2C512C0B
:10294000B6E0CB9E600D711D11247C876B87161637
:1029500017060CF0C3C1EA2DF0E0FA87E98793E08F
:10296000EE0FFF1F9A95E1F7F88BEF87CF01840FE9
:10297000951F181619060CF0B1C1A98DBA8D58967D
:102980008C91811104C0BFEABD1508F4D394A98DC0
:10299000BA8DED91FC9111970284F385E02DCD0164
:1029A0001995B5E0DB9EC0011124E981FA81FC8311
:1029B000EB83312C212C9C012A56374F388F2F8BDB
:1029C0004A2D50E05E8B4D8BEF89F88DE20DF31DA3
:1029D00044919E828D82D12CC12C69817A81620DB5
:1029E000731D7A8B698B842F90E09C8B8B8BE98D88
:1029F000FA8DA081B18140FF82C0F1E0BF126FC0AB
:102A0000AF126DC01C96ED91FC912F813885A40109
:102A10004C0D5D1D69897A89898D9A8D1995EB898F
:102A2000FC89F595E7954E2F5FEFC51AD50A6D81A4
:102A30007E818D899E89680F791F7E836D8398E0E2
:102A4000C916D10481F6AFEF2A1A3A0AEB81FC814C
:102A5000E40DF51DFC83EB83F5E02F16310409F03E
:102A6000B3CF2F81388526153705B9F0A98DBA8DDA
:102A7000ED91FC91B1E0BB1257C0AB1255C069811A
:102A80007A816B5F7F4F0088F189E02D830128E018
:102A900030E0A401898D9A8D1995A98DBA8DED919B
:102AA000FC9111970688F789E02DCD016A960FB643
:102AB000F894DEBF0FBECDBFDF91CF911F910F9174
:102AC000FF90EF90DF90CF90BF90AF909F908F904E
:102AD0007F906F905F904F903F902F9019941E962B
:102AE000ED91FC91EF80F88409851A8592014D8162
:102AF0005E816B817C81898D9A8D199590CF2F8114
:102B000038852615370509F48ACF31E0B31207C09E
:102B1000A31205C01C96ED91FC91930178CF1E96EF
:102B2000ED91FC917301E0CF6B857C85641975098B
:102B30000684F785E02D73010F8518899201A401A1
:102B4000898D9A8D1995A9CFF90134969491329770
:102B500045915491D91AB7E0DB9E400D511D1124C7
:102B6000F901259134913C8B2B8BFA0125903490FF
:102B7000FA013296749031963491398B3296649082
:102B80003196449041E04C1518F04A1508F07FC08A
:102B9000662D062C000C770B7C836B83842D042C14
:102BA000000C990B9E838D83A98DBA8DED91FC91BC
:102BB00011970284F385E02DCD011995512CD12C6C
:102BC000C12CEA2DF0E0FA87E9872B2D30E03C8715
:102BD0002B87A401440D511D47FC5A95588F4F8BEC
:102BE00069817A81660D711D67FC7A957E876D8794
:102BF0007989C71608F051CF2C2D30E04D815E81C8
:102C0000420F531FA985BA854A9FC0014B9F900D63
:102C10005A9F900D1124FC01E80DF91DF88BEF87E8
:102C2000852D612C4F89588D420F531F5E8B4D8B24
:102C3000671408F050C044244394480E877041F450
:102C4000C1010196EB89FC89E20DF31DD4901C01B2
:102C5000D7FE19C0A98DBA8DED91FC91662D70E05B
:102C6000B1E0BB1219C0AB1217C02D853E85620FB3
:102C7000731F0484F585E02D2F8138854D895E8989
:102C8000898D9A8D1995DD0C6394842DD1CF1E8288
:102C90001D821C821B8288CF4B815C81640F751F53
:102CA000AB85BC856A9FC0016B9F900D7A9F900D8C
:102CB000112469817A81680F791F0684F785E02DD8
:102CC000EF80F88409851A859D014F855889898D83
:102CD0009A8D1995D8CF570CC3948ACF6A960FB6A0
:102CE000F894DEBF0FBECDBFDF91CF911F910F9142
:102CF000FF90EF90DF90CF90BF90AF909F908F901C
:102D00007F906F905F904F903F902F9008958F929B
:102D10009F92AF92CF92EF92FF920F931F93CF9318
:102D2000DF93EC01262F898D9A8D009709F051C011
:102D30006A30D1F41D861C868D8948E0849F9001FD
:102D400011248E859F85820F931F9F878E8781E038
:102D500090E0DF91CF911F910F91FF90EF90CF9076
:102D6000AF909F908F9008956D3089F3CC88AD8897
:102D70008F898823C1F08C859D8536E0C39E800DA8
:102D8000911D1124488559854817590764F44E85CB
:102D90005F851D861C8638E0A39EC0011124840F28
:102DA000951F9F878E87EA88FB88088919894E8539
:102DB0005F856C857D85CE010E9462142C898C858F
:102DC0009D8546E0249F800D911D11249D878C8751
:102DD000BECF6A3069F41D861C86FC013896E491EA
:102DE0002D898E859F85E29F800D911D1124ADCF89
:102DF0006D3009F4ACCFFC0134963491631708F4BC
:102E0000A6CF3296E491E61708F4A1CFFC013296E2
:102E100085909490462F431B342F47E0349F800CBD
:102E2000911C1124F401329634913196E4913323AC
:102E3000A9F1EE2399F1CC88F4013596E491AD889F
:102E40004F89442301F10E2E000CFF0BE30FF11DFF
:102E5000CE9EA001CF9E500D11246C857D85460F1E
:102E6000571F68857985641775076CF44E855F85F3
:102E70001D861C86FC013896E491AE9E400D511DC6
:102E800011245F874E87EA88FB88088919894E8557
:102E90005F856C857D85CE010E946214F4013496B5
:102EA000E4912C898C859D85E29F800D911D1124D4
:102EB0008DCF6F927F928F929F92AF92BF92CF925F
:102EC000DF92EF92FF920F931F93CF93DF93EC016A
:102ED0006B015A0139014801E881F9810284F385C7
:102EE000E02D1995E881F9810288F389E02D8701A9
:102EF0009301A501B601CE011995A501480D591DF3
:102F000041505109E881F9810288F389E02D93014C
:102F1000B601CE011995E881F9810088F189E02D8B
:102F20009401A501B601CE011995C60CD71CB601B6
:102F300061507109E881F9810088F189E02D9401DF
:102F4000A501CE011995E881F9810688F789E02D60
:102F5000CE01DF91CF911F910F91FF90EF90DF9005
:102F6000CF90BF90AF909F908F907F906F9019946B
:102F70006F927F928F929F92AF92BF92CF92DF9289
:102F8000EF92FF920F931F93CF93DF935C01EB01BE
:102F90006A01490138018701DC01ED91FC9162175A
:102FA000730719F5641675062CF0962D872D3A01D6
:102FB000C92ED82E9601261937092F5F3F4F048C52
:102FC000F58DE02DA301BE01C5011995DF91CF91CB
:102FD0001F910F91FF90EF90DF90CF90BF90AF9037
:102FE0009F908F907F906F9008954615570591F4AC
:102FF0002617370724F0892D4B01C22FD82F9E01A9
:10300000281939092F5F3F4F068CF78DE02DA60157
:10301000B401DACF0284F385E02D1995D501ED9145
:10302000FC910488F589E02D83019401A601BE017D
:10303000C5011995D501ED91FC910688F789E02D20
:10304000C501DF91CF911F910F91FF90EF90DF901D
:10305000CF90BF90AF909F908F907F906F9019947A
:10306000EF92FF920F931F93DC011A960D911C9122
:103070001B9718962D913C911997ED91FC9100A00A
:10308000F1A1E02D7B0150E040E070E060E0199597
:103090001F910F91FF90EF9008954F925F926F9262
:1030A0007F928F929F92AF92BF92CF92DF92EF92D8
:1030B000FF920F931F93CF93DF936C012B015A0163
:1030C00039014801DC01ED91FC910284F385E02D8A
:1030D0001995E201640C751CD601ED91FC91C615A1
:1030E000D7055CF40088F189E02D87019401A501E2
:1030F000BE01C60119952196EFCF0688F789E02D0C
:10310000C601DF91CF911F910F91FF90EF90DF905B
:10311000CF90BF90AF909F908F907F906F905F9077
:103120004F9019948F929F92AF92BF92CF92DF925D
:10313000EF92FF920F931F93CF93DF93EC015B010C
:103140004A016901E881F9810284F385E02D19952E
:1031500095012C0D3D1D21503109E881F98104882C
:10316000F589E02D78018401A401B501CE011995FE
:10317000E881F9810688F789E02DCE01DF91CF91B2
:103180001F910F91FF90EF90DF90CF90BF90AF9085
:103190009F908F9019948F929F92AF92BF92CF92EF
:1031A000DF92EF92FF920F931F93CF93DF93EC0187
:1031B0005B014A0169017801E881F9810284F385A4
:1031C000E02D1995C80CD91C860101501109E88120
:1031D000F9810488F589E02D9501A401B501CE019E
:1031E0001995E881F9810688F789E02DCE01DF91F4
:1031F000CF911F910F91FF90EF90DF90CF90BF90F4
:10320000AF909F908F9019940895EF92FF920F9333
:103210001F93DC01ED91FC9100A0F1A1E02D199527
:103220001F910F91FF90EF9008950F931F93DC0172
:10323000ED91FC91068CF78DE02D19951F910F9162
:1032400008950F931F93DC01ED91FC91048CF58D93
:10325000E02D19951F910F910895DC01ED91FC91DE
:103260000084F185E02D19942F923F924F925F9246
:103270006F927F928F929F92AF92BF92CF92DF9286
:10328000EF92FF920F931F93CF93DF9300D000D064
:10329000CDB7DEB73C016A013E832D83FC82EB8211
:1032A0005801A41AB50AB7FE03C0B194A194B1089D
:1032B0008D809E80861A970A97FE03C09194819410
:1032C00091088A149B045CF0902F812F0D811E8140
:1032D0009D838E839C2D8D2D6B01692F782F0C156E
:1032E0001D055CF09D818E817E836D83692F782F13
:1032F000902F812F8601C92ED82E1601201A310A4F
:103300002B012D813E81421A530A57FE03C051946E
:1033100041945108710137FE03C03FEFE31AF30AED
:10332000F594E7948D819E81861797075CF5A1E05F
:10333000B0E0BA83A983C016D1064CF1D301ED9158
:10334000FC910484F585E02D2B813C81A8016D81E1
:103350007E818A149B041CF04D815E81B801C301FB
:103360001995E418F508F7FE0AC02D813E81898180
:103370009A81280F391F3E832D83E20CF31C0F5FC7
:103380001F4FD9CF2FEF3FEF3A832983D4CF269613
:103390000FB6F894DEBF0FBECDBFDF91CF911F9166
:1033A0000F91FF90EF90DF90CF90BF90AF909F90E4
:1033B0008F907F906F905F904F903F902F900895E7
:1033C00081E0809390020895FC01DB0112968D91BB
:1033D0009C9113979383828314968D919C9115975A
:1033E0009583848316968D919C91179797838683F6
:1033F00018968D919C911997918780871A968D9137
:103400009C911B97938782871C968D919C911D9709
:10341000958784871E968D919C911F9797878687A5
:1034200050968D919C915197918B808B52968D9156
:103430009C915397938B828B54968C915497848B49
:1034400055968C915597858B56968C915697868B71
:1034500057968C915797878B58968C915897808F59
:1034600059968D919C915A97928F818F89E192E024
:10347000918380835B968D919C915C97948F838FD1
:103480005D968D919C915E97968F858F5F968D91BD
:103490009C91909790A3878F91968D919C919297F4
:1034A00092A381A393968D919C91949794A383A3C7
:1034B00095968D919C91969796A385A397968D91BD
:1034C0009C91989790A787A399968D919C919A9794
:1034D00092A781A79B968D919C919C9794A783A777
:1034E0009D968D919C919E9796A785A79F968D916D
:1034F0009C91D09790AB87A7D1968D919C91D297B4
:1035000092AB81ABD3968D919C9194AB83AB089594
:10351000EF92FF920F931F93DC011A960D911C916D
:103520001B9718962D913C911997ED91FC9100A055
:10353000F1A1E02D7B0150E040E070E060E01995E2
:103540001F910F91FF90EF900895EF92FF920F93CC
:103550001F93DC01ED91FC9100A0F1A1E02D780119
:1035600001E010E019951F910F91FF90EF900895E1
:10357000EF92FF920F931F93DC01ED91FC9100A05D
:10358000F1A1E02D7801890121E030E019951F912A
:103590000F91FF90EF900895089590E080E00895D6
:1035A0000E94482D8F929F92AF92BF92EF92FF920E
:1035B0000F931F93CF93DF93CDB7DEB7A1970FB6CD
:1035C000F894DEBF0FBECDBF7C01FA01CB0119A27A
:1035D000223008F42AE08E010F5D1F4F822E912CBD
:1035E000B12CA12CBF01A50194010E94EB2AF90185
:1035F000CA016A304CF5605DD8016E938D01232BB2
:10360000242B252B79F790E080E0109761F0FD01E5
:1036100001900020E9F73197AF014A1B5B0BBD0118
:10362000C7010E941008A1960FB6F894DEBF0FBE26
:10363000CDBFDF91CF911F910F91FF90EF90BF9081
:10364000AF909F908F900895695CD6CF61157105FA
:1036500051F0FB0101900020E9F73197AF01461BC3
:10366000570B0C94100890E080E00895EF92FF92C1
:103670000F931F93CF93DF9300D000D000D01F9201
:10368000CDB7DEB78C01EAE3F3E08281938120813C
:103690003181D8011D963C932E931C971F969C93C5
:1036A0008E931E9783E054968C93549755968C93E3
:1036B000559780E098EF53969C938E93529751962E
:1036C0009C938E93509724813581ECE3F0E0C901FF
:1036D000BF010E941C2B9F938F93CB01BF010E94BF
:1036E0001C2B9F938F93C90160E17EE00E941C2BED
:1036F0007F936F9381E492E09F938F93CE01019625
:103700007C019F938F930E945F2DB701C8010E9497
:10371000261B0FB6F894DEBF0FBECDBF2A960FB69C
:10372000F894DEBF0FBECDBFDF91CF911F910F91F7
:10373000FF90EF900895CF92DF92EF92FF920F9358
:103740001F93CF93DF936C01C0E4D3E00E811F8100
:103750000E5F1F4F2C813D812E5F3F4F4A815B8161
:10376000415051096881798161507109EE24EA94D0
:10377000FE2CC6010E9459170E811F812C813D81AC
:103780004A815B8168817981C6010E9459170E8147
:103790001F81025011092C813D81225031094A813B
:1037A0005B814F5F5F4F688179816F5F7F4FC6019B
:1037B0000E9459178A819B810596288139812B5F48
:1037C0003F4FF601358724879787868783E0848B70
:1037D000858B68E473E0C601DF91CF911F910F9153
:1037E000FF90EF90DF90CF900C94261BEF92FF920A
:1037F0000F931F93CF93DF93EC017A01FB010190AC
:103800000020E9F73197E61BF70B8C01095E1F4F8B
:103810003C97C8F5C8010E94582DF701019000207F
:10382000E9F73197EE19FF09CE018496B701349775
:1038300010F060E572E00E94582D64E572E0C80166
:103840000E944D2DF80101900020E9F73197E01B0F
:10385000F10B86EFE89FE02D1124EA58EE8B888962
:1038600099890A9798F488E08C8B8A899B898A3099
:10387000910570F482E08D8BDF91CF911F910F91B4
:10388000FF90EF9008956AE472E0C4CF82E0ECCF3D
:103890008436910510F488E0EECF8EE0ECCFCF9225
:1038A000DF92EF92FF920F931F93CF93DF93EC0180
:1038B0006B0182E0FB01848B858B088519850A5F8B
:1038C0001F4F2E813F812A5F3F4F4A815B814350CA
:1038D00051096881798163507109EE24EA94FE2CC4
:1038E000C6010E9459172E853F854C898881998190
:1038F000841B9109F6019587848737872687488935
:10390000598970E060E02AE0C6010E94D21A2E8533
:103910003F858E8948815981840F952F911DF6012D
:103920009587848737872687BE01695E7F4FC601EA
:103930000E94261B8E859F852C853D85F601358747
:103940002487978786874A855B8570E060E02AE058
:10395000C6010E94D21ABE016C5D7F4FC6010E9453
:10396000261B2E853F85888199814E815F81840F3A
:10397000951F4D89841B9109F601958784873787A8
:1039800026874A895B8970E060E02AE0C601DF9102
:10399000CF911F910F91FF90EF90DF90CF900C94FB
:1039A000D21ADF92EF92FF920F931F93CF93DF9380
:1039B000CDB7DEB7E5970FB6F894DEBF0FBECDBF2B
:1039C0000E94AF0B60E090E080E00E94DE0B7C0183
:1039D000883024E5920779F18032944561F189E8D5
:1039E000E816F80609F43CC160E087E690E00E9422
:1039F000DE0B37E4E32E33E8F32E87349744D9F017
:103A00008FEE90E00E94ED0C7B016732734999F0D4
:103A100081EA90E00E94CE0C23E6E22E29E1F22E0C
:103A20006130F1E67F0739F06F3F7607B1F5A6E226
:103A3000EA2EA5E1FA2E0E94AF0B10922E041092EE
:103A40002D04F0923204E092310431E3E31630E8C1
:103A5000F30609F430C608F0DFC193E5E91690E2F9
:103A6000F90609F48DC608F066C1E1E1EE16E5E15C
:103A7000FE0609F4C3C208F016C129E9E216F104F2
:103A800009F429C608F000C1EA94EF2809F43CC6FD
:103A90001092170410921604AEC261153FEF73071F
:103AA00029F4F0E2EF2EF5E1FF2EC5CF91EAE92EE1
:103AB00095E0F92E6115704F09F4BDCF8FEB90E0C2
:103AC0000E94ED0C7B0197E5E91693E8F90609F4ED
:103AD000B2CFA1E8EA16A4E9FA0609F4ACCFE1E115
:103AE000EE16E5E1FE0609F4A6CFF0E2EF16F5E1E9
:103AF000FF06B9F226E2E21625E1F20609F497CFB5
:103B000031E8E31635E1F30609F495CFE11484E1D9
:103B1000F80609F4AAC084ED90E00E94CE0C7B0167
:103B200090E1E91693E5F90609F485CF87ED90E079
:103B30000E94CE0C7B016133704809F47CCF8EEF7C
:103B400090E00E94CE0C672F782F892F99277B0158
:103B50006335704209F46FCF84E090E00E94CE0C90
:103B60007B01833E31F4672B59F5E12CB3EEFB2E3C
:103B700062CF811125C06115704811F58091000256
:103B800090910102A091020289839A83AB83AE01D6
:103B90004F5F5F4F63E089EB90E00E94100A60E0A6
:103BA00080ED90E00E94DE0B79E9E72EF12C893957
:103BB00009F441CF8039E1F460E9E62EFE2C3BCFD9
:103BC00026E2E21625E1F20609F431CF30EFE316E2
:103BD00039E8F30609F44EC082E5E81685E8F806F0
:103BE00009F44DC091E1E9169CEAF90609F423CFE6
:103BF00083ED90E00E94CE0C672F782F892F9927B4
:103C00007B016336714909F416CF83ED90E00E9481
:103C1000CE0C872FE62EF72EE9E2EE16E2E3FE0643
:103C200009F409CF8359823008F405CF783909F4B3
:103C300002CF773709F4FFCE763109F4FCCEF3EDED
:103C4000EF16F10409F4F7CE23EDE216F20609F4BB
:103C5000F2CE60E090E080E00E94DE0B7C01EBCED3
:103C600049E8E42E42E1F42EE6CE84E1E82E88E62F
:103C7000F82EE1CEA5E3EA2EA7E7FA2EDCCEF9E88E
:103C8000EF2EF7E7FF2ED7CE94E5E91691E0F9067F
:103C900009F4A5C1A5E0EA16A5E1FA0609F0F8CEF7
:103CA00084E090E133C5E1E8EE16E5E1FE0609F4B3
:103CB00073C5C8F420E2E21625E1F20609F4A4C4B3
:103CC00036E2E31635E1F30609F0E2CE83E194E053
:103CD0009093300480932F040CE010E06DEAE62E00
:103CE00063E0F62EA3C182E0E81686E1F80609F447
:103CF0003AC593E6E91699E1F90609F0C9CE81E0E3
:103D00008093910283E59AE09093300480932F048E
:103D100080EE91E0909319048093180480E293E080
:103D2000909317048093160403E510E05AE5E52EFE
:103D300053E0F52E7BC1A9E0EA16A8E6FA0609F4DD
:103D4000EEC438F5F5E3EF16F5E4FF0609F469C4AF
:103D500098F439E2E31632E3F30609F099CE83E0F2
:103D600096E09093300480932F0400E410E04AE141
:103D7000E42E43E0F42E5AC180E1E81683E5F8060C
:103D800009F45AC498E0E91694E5F90609F488CFD5
:103D90007FCEA9E8EA16A7E7FA0609F47FC4B8F4CB
:103DA000F4E1EF16F8E6FF0609F45FC423E8E21633
:103DB00027E7F20609F06CCE82E091E1909330049F
:103DC00080932F0468E870E086ED96E012C133E935
:103DD000E31637E7F30609F414C586E9E81687E722
:103DE000F80609F055CE83E094E090933004809378
:103DF0002F0480EE91E0909319048093180480E4DE
:103E000091E090931704809316040DE010E03AE8D7
:103E1000E32E31E0F32E0AC198E3E91693E9F9069F
:103E200009F4B4C408F05DC0E5E2EE16E3E9FE066D
:103E300009F446C090F520E9E216F20609F448C4F8
:103E4000F8F487E5E81683E8F80609F021CE83E068
:103E500094E19093300480932F0480EE91E090934E
:103E600019048093180480E491E0909317048093E0
:103E7000160402E010E0B0ECEB2EB2E0FB2ED6C050
:103E800092E0E91693E9F90609F47DC4A0E2EA1686
:103E9000A3E9FA0609F404CFFBCDE9E2EE16E3E963
:103EA000FE0609F476C478F427E2E21623E9F20666
:103EB00009F440C438E2E31633E9F30609F0E8CD2B
:103EC00080E091E12EC481E3E81683E9F80631F041
:103ED00095E3E91693E9F90609F0DACD80E090E17F
:103EE00020C4A9E8EA16A4E9FA0608F042C0E7E807
:103EF000EE16E4E9FE0608F06BC4F1E8EF16F4E90B
:103F0000FF0609F462C4B0F430E4E31A33E9F30ABB
:103F100082E0E816F10408F0BBCD83E194E09093D1
:103F2000300480932F0405E610E067E1E62E62E09E
:103F3000F62E7CC096E8E91694E9F90609F0A8CDBA
:103F400083E094E09093300480932F0480EE91E01E
:103F5000909319048093180480E491E090931704DF
:103F6000809316040BE310E047E9E42E41E0F42EC1
:103F70005DC0A9E0EA16A5EBFA0609F442C4C0F454
:103F800083E194E1F1E1EF16FCEAFF06E9F025E0B8
:103F9000E21625EBF20609F07BCD88E090E19093E4
:103FA000300480932F0460EB70E082E894E021C03D
:103FB00035E0E31635ECF30681F3E11483EEF80601
:103FC00009F066CD83E19EE09093300480932F0446
:103FD00003E010E07CE7E72E72E0F72E27C082E0D6
:103FE00090E19093300480932F046CE970E08AEFA5
:103FF00097E00E94210DF12CE12C18C083E090E0A5
:104000009093300480932F0480EE91E090931904F4
:104010008093180480E491E0909317048093160431
:1040200003E010E0EFEBEE2EE3E0FE2E20913004F3
:10403000822F82958F7090E081709927909334043D
:1040400080933304E114F10481F069E070E086E5C7
:1040500091E00E946409B801C7010E94640966E00A
:1040600070E080E591E00E94640960E082E194E004
:104070000E94FF1160E082E194E00E94430D809174
:104080003104909132048838944909F0DAC11092D1
:10409000920220EE3FEF50E040E070E060E082E10D
:1040A00094E00E949510E0903D04F0903E048091D1
:1040B0002F0480FF03C09EE2E92EF12C8091310491
:1040C000909132048230964119F48EE2E82EF12C60
:1040D00010E000E030E020E050E040E070E060E020
:1040E00082E194E00E94860D80912F0480FD10C033
:1040F00070E060E08091390490913A040E94CF0A08
:1041000070E060E080913B0490913C040E94CF0AF3
:104110008B988A9880910201877880930201A598F4
:104120008EB1877C8EB9409102018F2D90E09C0169
:1041300005E0220F331F0A95E1F72076242B209308
:1041400002014EB19C01220F331F220F331F207337
:10415000242B2EB944B39C01220F331F2072242B31
:1041600024BB4EB19C013595279535952795287030
:10417000242B2EB920910201E3E095958795EA95CD
:10418000E1F78871822B809302018998899A809146
:104190000201877880930201A5988EB1877C8EB941
:1041A00040910201C7019701F5E0220F331FFA95F4
:1041B000E1F72076242B209302014EB19701220FC4
:1041C000331F220F331F2073242B2EB944B39701C2
:1041D000220F331F2072242B24BB4EB1970135953B
:1041E0002795359527952870242B2EB9209102010B
:1041F00003E0959587950A95E1F78871822B809366
:1042000002018998899A8A9A80910101877880931E
:1042100001019D988DB1877C8DB940912F045091FB
:104220003004809131049091320446FD13C0889A85
:10423000889888988898209100012CB122B32CB1DD
:1042400020910001889A40FD05C08938F2E19F075E
:1042500009F0EAC28131954161F4889A889888987A
:104260008898809100018CB182B38CB1809100015B
:10427000889ABA0164707727889A8898889888986D
:1042800044FFF4C2209100018CB1F2B3ECB19091E3
:10429000000130E055E0359527955A95E1F72370F8
:1042A000869586958C70822B2F2F26952071822BD8
:1042B000A4E0EA9F900111242072822BE8E09E9FE7
:1042C00090011124207C822B889A889A889888985B
:1042D0008898209100019CB1A2B3FCB1E09100014B
:1042E00030E0B5E035952795BA95E1F723709695BE
:1042F00096959C70922B2A2F26952071922BA4E0E4
:10430000FA9F900111242072922BF8E0EF9F900108
:104310001124207C922B889A889A8898889888986B
:1043200020910001ECB0A2B3FCB1E091000130E0BB
:1043300015E0359527951A95E1F72370E694E694F4
:104340003E2D3C70E32EE22A2A2F26952071E22A88
:10435000A4E0FA9F900111242072E22AF8E0EF9F76
:1043600090011124207C2E29889AE92FF0E0672BF8
:1043700009F467C2E22EF12CFE2CEE24EE2428EF85
:10438000F22203E0EE0FFF1F0A95E1F7E07EF770DF
:10439000EE2AFF2A869586958695E82A80919202D4
:1043A000882399F0C70125E0969587952A95E1F72E
:1043B000807299279701369527952F713327822B85
:1043C000932BF0ECEF22E82AF92A889A8B9A8091B5
:1043D00001018867809301019D9A8DB188638DB931
:1043E00040FD14C000911C0410911D0401501109DE
:1043F00020911A0430911B042150310950E040E013
:1044000070E060E082E194E00E94860D2FE1E21608
:104410002FEFF206B1F486E08983AE014F5F5F4F64
:1044200061E08AE390E00E94100A80912F0490914D
:1044300030048F7E9093300480932F0481E080932A
:104440009202E091AD02F091AE0282E08083E091B1
:10445000A902F091AA021082E091AB02F091AC02A5
:1044600080E180831092B502E091B102F091B20236
:1044700086E08083E091AF02F091B002808180619C
:104480008083E091AF02F091B002808188608083E8
:10449000E091AF02F091B002808180688083E0916A
:1044A000AF02F091B00280818F7D80836AE070E07E
:1044B00080E090E00E94D20760E082E194E00E94F8
:1044C000FF1170E060E082E194E00E94881A68EEDB
:1044D00073E080E090E00E94D20746E552E068E594
:1044E00072E08FEC93E00E94F61B41E652E065E635
:1044F00072E086EA93E00E94F61B4DE652E060E728
:1045000072E08DE793E00E94F61B4AE752E06EE707
:1045100072E084E593E00E94F61B67E872E088E4AD
:1045200093E00E94582D88E493E0FC010190002064
:10453000E9F7CF018954934043E1489F9001499F97
:10454000300D11242B5F3F4F3093450320934403DC
:104550008FE190E0909347038093460380EE99E1CA
:10456000909353038093520310923F0310923E03A3
:1045700062E174E0CE0101960E94E419BE016F5F12
:104580007F4F8FEC93E00E944F1C62E174E0CE01FC
:1045900001960E94E419BE016F5F7F4F86EA93E0A7
:1045A0000E944F1C62E174E0CE0101960E94E41962
:1045B000BE016F5F7F4F8DE793E00E944F1C62E169
:1045C00074E0CE0101960E94E419BE016F5F7F4F37
:1045D00084E593E00E944F1C62E174E0CE010196F5
:1045E0000E94E419CE0101960E949B1BE5960FB62E
:1045F000F894DEBF0FBECDBFDF91CF911F910F9119
:10460000FF90EF90DF90089583E194E09093300461
:1046100080932F0406E010E079EBE72E73E0F72E8D
:1046200005CD80E090E19093300480932F046CE9F5
:1046300070E08EE597E0DDCC83E19EE0909330045E
:1046400080932F0480EE91E09093190480931804D6
:1046500080E491E0909317048093160402E010E048
:1046600038E1E32E33E0F32EE1CC83E094E0909345
:10467000300480932F0480EE91E09093190480938E
:10468000180480E491E0909317048093160403E0EB
:1046900010E025E1E22E23E0F22EC8CC83E194E085
:1046A0009093300480932F0401E410E094EDE92E00
:1046B00092E0F92EBBCC83E194E190933004809397
:1046C0002F0402E110E082ECE82E82E0F82EAECC5E
:1046D00083E194E1BECB83E194E190933004809335
:1046E0002F0480EE91E0909319048093180480E4E5
:1046F00091E090931704809316040DE110E0A3EA73
:10470000EA2EA2E0FA2E92CC80E091E19093300460
:1047100080932F0468ED70E08EEF95E06ACC82E024
:1047200091E19093300480932F046CEC70E082E36D
:1047300095E05FCC83E094E09093300480932F0465
:1047400080E991E0909319048093180480EF90E041
:1047500090931704809316040EE110E0F5E8EF2E15
:10476000F2E0FF2E63CC83E094E0909330048093DA
:104770002F0406E010E0EFE7EE2EE2E0FE2E56CC2E
:1047800087E194E121CC83E094E01ECC83E194E0C6
:104790001BCC83E096E118CC83E194E09093300445
:1047A00080932F0480EE91E0909319048093180475
:1047B00080E491E0909317048093160405E410E0E0
:1047C00052EDE52E51E0F52E31CC87E094E0E6CFB6
:1047D00083E194E09093300480932F0480EE91E085
:1047E000909319048093180480E491E09093170447
:1047F000809316040BE210E02FE5E22E21E0F22E6A
:1048000015CC80E090E19093300480932F0460EC0D
:1048100070E082EC93E00E94210D80E991E090939A
:10482000190480931804E7CB889A88988898889808
:10483000209100012CB122B32CB120910001889A63
:1048400009CDE82EF12CFE2CEE24EE2438EFF322D5
:10485000B3E0EE0FFF1FBA95E1F7E07EF770EE2AA6
:10486000FF2A269526952695E22A98CD909100015B
:104870000CB112B3BCB1A0910001889A889A8898B3
:104880008898889820910001ECB1E2B2DCB0809168
:10489000000130E0F5E035952795FA95E1F72370B2
:1048A0003327F0E0F595E795F595E795EC70FF2750
:1048B0002E2B3F2BF12CF594E794E0E1EE22FF2420
:1048C000E22AF32AF4E0DF9E9001112420723327BC
:1048D000E22AF32A28E0829FF0011124E07CFF27DE
:1048E000EE2AFF2A889A892F90E0F5E09595879522
:1048F000FA95E1F78370069506950C70802B169556
:104900001071812B94E0B99F900111242072822BA9
:10491000E8E0AE9FD0011124A07C8A2BF82A43FF47
:1049200003C0FE24EF24FE24672B09F437CDC70112
:10493000807E97709701232F3327269526952695FD
:10494000822B932BFE2CEE24FF0CFF0CFF0CE82A8D
:10495000F92A24CDCF92DF92EF92FF920F931F930B
:10496000CF93DF93EC016B0182E0FB01848B858B9D
:10497000088519852C813D814A815B816881798117
:10498000EE24EA94FE2CC6010E941B0E6C817D81F0
:10499000088519852E813F81261B370B4A815B8153
:1049A00088819981680F791FF12CE12CC6010E9442
:1049B0001B0E6C857D85288139818E819F81280F12
:1049C000391F261B370B8D89281B31094E855F85C2
:1049D00000E110E0C6010E941B0E8E859F852C858C
:1049E0003D85F60135872487978786874A855B85CD
:1049F00070E060E02AE0C6010E94D21ABE016C5D40
:104A00007F4FC601DF91CF911F910F91FF90EF90E3
:104A1000DF90CF900C94261BCF92DF92EF92FF9203
:104A20000F931F93CF93DF93CDB7DEB7E5970FB604
:104A3000F894DEBF0FBECDBF8B014091540350915F
:104A400055039A0125503109E0915A03F0915B0317
:104A50002817390708F04DC08417950708F04CC097
:104A60001092590310925803C0906403D0906503CC
:104A7000F12CE12C209166033091670350E040E077
:104A80002C193D094E095F09A0915803B0915903B3
:104A90000E94D82A9F0150E040E00E94B92AC20E2D
:104AA000D31EE41EF51EC6016AE070E00E941C2BB6
:104AB000C81AD90AD0925F03C0925E03B801CE0132
:104AC00001960E94E419BE016F5F7F4F84E593E079
:104AD0000E94AA24E5960FB6F894DEBF0FBECDBFA4
:104AE000DF91CF911F910F91FF90EF90DF90CF90CA
:104AF00008958417950768F09A012E0F3F1F281715
:104B0000390738F0841B950B909359038093580311
:104B1000ABCF4E0F5F1F4817590708F0A5CF4B5F6B
:104B20005F4F8417950708F09FCFF0935903E093E8
:104B300058039ACF8F929F92AF92BF92EF92FF92BB
:104B40000F931F93CF93DF93CDB7DEB7E5970FB6E3
:104B5000F894DEBF0FBECDBF8C017A01DC018D91D0
:104B60009C9111979C01255031091696ED91FC916D
:104B700017972617370708F047C06817790708F016
:104B800046C015961C921E921497D80150968D908F
:104B90009C905197B12CA12C52962D913C915397FA
:104BA00050E040E0281939094A095B0914968D91B3
:104BB0009C91DC010E94D82A9F0150E040E00E94B5
:104BC000B92A820E931EA41EB51EF8019386828612
:104BD000B701CE0101960E94E419BE016F5F7F4FBD
:104BE000C8010E94AA24E5960FB6F894DEBF0FBE56
:104BF000CDBFDF91CF911F910F91FF90EF90BF90AC
:104C0000AF909F908F9008956817790770F09C017E
:104C10002E0F3F1F2617370740F0681B790BD8016E
:104C200015967C936E931497B0CF8E0F9F1F8617A7
:104C3000970708F0AACF05966817790708F0A5CF5F
:104C4000D8011596FC93EE9314979FCF4F925F92E5
:104C50006F927F92AF92BF92CF92DF92EF92FF92CC
:104C60000F931F93CF93DF93CDB7DEB7E5970FB6C2
:104C7000F894DEBF0FBECDBF809190028111D5C0E8
:104C80002091F8033091F903032E000C440B550BCF
:104C9000265A334041095109A0911A04B0911B04CE
:104CA0000E94E32A26EF3CEF4FEF5FEF0E94B92A04
:104CB000690159012091FA033091FB03032E000C86
:104CC000440B550B245D334041095109A0911C044C
:104CD000B0911D040E94E32A22EA3CEF4FEF5FEF00
:104CE0000E94B92A29018901A901B6018FEC93E03C
:104CF0000E944409882371F062E174E0CE010196BC
:104D00000E94E419AE014F5F5F4FB6018FEC93E054
:104D10000E949A25A201B60186EA93E00E94440906
:104D2000882371F062E174E0CE0101960E94E419DB
:104D3000AE014F5F5F4FB60186EA93E00E949A256D
:104D4000A201B6018DE793E00E944409882371F027
:104D500062E174E0CE0101960E94E419AE014F5F5A
:104D60005F4FB6018DE793E00E949A25A201B6013C
:104D700084E593E00E944409882361F062E174E0D5
:104D8000CE0101960E94E419BE016F5F7F4FC601FC
:104D90000E940C2580914003909141038A159B0548
:104DA00078F52091440330914503820F931FA81694
:104DB000B90630F580914203909143038017910723
:104DC000F8F42091460330914703820F931F081790
:104DD0001907B0F462E174E0CE0101960E94E41973
:104DE0000E9405082091B0033091B1034CE3429F2B
:104DF000C001439F900D112490933F0380933E0385
:104E0000E5960FB6F894DEBF0FBECDBFDF91CF9110
:104E10001F910F91FF90EF90DF90CF90BF90AF90D8
:104E20007F906F905F904F90089562E174E0CE01A3
:104E300001960E94E419CE0101960E94361BE0CF34
:104E40001F920F920FB60F9211242F933F938F93BF
:104E50009F93AF93BF938091940290919502A091FC
:104E60009602B09197023091930223E0230F2D37E1
:104E700058F50196A11DB11D2093930280939402D1
:104E800090939502A0939602B09397028091980216
:104E900090919902A0919A02B0919B020196A11D56
:104EA000B11D8093980290939902A0939A02B093B7
:104EB0009B02BF91AF919F918F913F912F910F9046
:104EC0000FBE0F901F90189526E8230F0296A11D84
:104ED000B11DD2CF1F920F920FB60F9211240BB6B5
:104EE0000F922F933F934F935F936F937F938F9383
:104EF0009F93AF93BF93EF93FF938DE992E00E944E
:104F00008408FF91EF91BF91AF919F918F917F9115
:104F10006F915F914F913F912F910F900BBE0F902A
:104F20000FBE0F901F9018951F920F920FB60F9201
:104F300011240BB60F922F938F939F93EF93FF93B0
:104F4000E091AD02F091AE028081E091B302F09168
:104F5000B40282FD1DC090818091B6028F5F8F7375
:104F60002091B702821741F0E091B602F0E0E356DB
:104F7000FD4F958F8093B602FF91EF919F918F9196
:104F80002F910F900BBE0F900FBE0F901F90189592
:104F90008081F2CFEF92FF920F931F93CF93DF9315
:104FA000EDE9F2E01382128288EE93E0A0E0B0E037
:104FB00084839583A683B78387E092E0918380837F
:104FC00085EC90E09587848784EC90E097878687CE
:104FD00080EC90E0918B808B81EC90E0938B828BC6
:104FE00082EC90E0958B848B86EC90E0978B868B9F
:104FF000118E128E138E148EE2E1F4E0138212826F
:1050000080EF90E09583848320E431E0378326832A
:105010009187808733872287168A1586148617869C
:10502000168641E0458B448B6FEF7FEF738B628B6D
:10503000718B608B478B108E128E118E49E152E07E
:1050400051834083AEEFB3E047E312964C9312973F
:1050500048E314964C93149747E013964C93139798
:1050600046E015964C9315974CE251E017965C93E9
:105070004E931697E6E1FEE0E491F0E0EE0FFF1F9D
:10508000EA50F24F6591749119967C936E9318973C
:10509000E7E4FEE0E491F0E0EE0FFF1FEA50F24F8C
:1050A000659174911B967C936E931A97E8E4FEE0E9
:1050B000E491F0E0EE0FFF1FEA50F24F659174911A
:1050C0001D967C936E931C97E7E1FEE0E491F0E07F
:1050D000EE0FFF1FEA50F24F659174911F967C937B
:1050E0006E931E97E6EBFDE0E4915096EC9350979B
:1050F000E7EEFDE0E4915296EC935297E8EEFDE086
:10510000E4915196EC935197E7EBFDE0E4915396CF
:10511000EC9353976AE070E06D937C93E8EFF3E0D3
:10512000158214821382128211821082EFECF3E056
:1051300097838683C9E1D0E0D187C087A8E2B0E039
:10514000B183A0836CE370E073836283118A108A59
:1051500064E670E0738B628B6EEB70E0758764873A
:1051600000E610E0178706871386128615821482E0
:10517000E6EAF3E097838683D187C087B183A08373
:1051800008E710E013830283118A108A0EE110E011
:10519000138B028B758764870CE910E017870687ED
:1051A0001386128615821482EDE7F3E097838683D7
:1051B000D187C087B183A08304EB10E013830283FF
:1051C00005E010E0118B008B0F2EFFE0EF2EF12C8D
:1051D000F02DF38AE28A758764870F2EF8EDEF2EA3
:1051E000F12CF02DF786E68613870287158214824C
:1051F000E4E5F3E097838683D187C087B183A083FA
:1052000093838283118A108A538B428B75876487BC
:1052100084E191E09787868713861286158214822F
:10522000E0E4F3E08AE590E0918380833383228396
:10523000EAE3F3E08EE690E0918380838CE791E0EF
:1052400093838283DF91CF911F910F91FF90EF9015
:105250000895789484B5826084BD84B5816084BDEE
:1052600085B5826085BD85B5816085BD80916E0004
:10527000816080936E001092810080918100826035
:105280008093810080918100816080938100809172
:1052900080008160809380008091B1008460809361
:1052A000B1008091B00081608093B0008091910046
:1052B0008260809391008091910081608093910041
:1052C000809190008160809390008091A100826025
:1052D0008093A1008091A10081608093A1008091C2
:1052E000A00081608093A000809121018260809362
:1052F0002101809121018160809321018091200111
:1053000081608093200180917A00846080937A008C
:1053100080917A00826080937A0080917A00816027
:1053200080937A0080917A00806880937A0010924E
:10533000C1000E94D11CEE24EA9443E0F42E60E008
:10534000809100040E945F0760E0809101040E9448
:105350005F0761E0809103040E945F0761E0809134
:1053600002040E945F0780910E04E0910604F09110
:1053700007049081892B808380910F04E0910A04B7
:10538000F0910B04908180958923808380910004A3
:105390000E949007EC01809100040E9490079E01FA
:1053A000281B390B2C5F3F4F912C2930310530F4ED
:1053B0008C0F9D1F95958795992493946701C81A22
:1053C000D90A60E0809103040E945F0760E0809149
:1053D00002040E945F0761E0809100040E945F0761
:1053E00061E0809101040E945F0780911104E091C7
:1053F0000C04F0910D049081809589238083809125
:105400001004E0910804F09109049081892B8083B5
:10541000809102040E949007EC01809102040E9496
:1054200090079E01281B390B2C5F3F4F2930310517
:1054300008F096C08C0F9D1F959587955701A81A67
:10544000B90A61E0809103040E945F0760E08091E7
:1054500000040E945F0780910E04E0910604F09121
:105460000704908180958923808380911104E091C5
:105470000C04F0910D049081892B808380910204AB
:105480000E949007EC01809100040E949007BC01EB
:1054900000910404109105040115110509F462C07E
:1054A000072E000C880B990B0E944F2C2B013C01FE
:1054B000BE01DD0F880B990B0E944F2C9B01AC01A4
:1054C000C301B2010E94A52B20E030E040E85FE379
:1054D0000E94382B2B013C01B6010D2C000C880BCF
:1054E000990B0E944F2CA30192010E94DB2C2B01EF
:1054F0003C01B80190E080E00E944D2CA301920194
:105500000E94DB2C20E030E040E85AE30E94DB2CD4
:105510000E94172C911002C070E060E0D092F90355
:10552000C092F803B092FB03A092FA037093FD03BC
:105530006093FC0361E088E30E945F0761E087E31A
:105540000E945F078091FC039091FD03895C9109A3
:105550008F31934010F40E9426260E941309EFCE4B
:10556000912C6CCF6C1B7D0BC701861B970BBC016C
:10557000D1CF052E97FB1EF400940E94D02A57FD30
:1055800007D00E94EB2A07FC03D04EF40C94D02ADB
:1055900050954095309521953F4F4F4F5F4F08955F
:1055A00090958095709561957F4F8F4F9F4F08958F
:1055B0000E940D2BA59F900DB49F900DA49F800D70
:1055C000911D11240895B7FF0C94D82A0E94D82A5F
:1055D000821B930B0895A1E21A2EAA1BBB1BFD018F
:1055E0000DC0AA1FBB1FEE1FFF1FA217B307E407C2
:1055F000F50720F0A21BB30BE40BF50B661F771F1A
:10560000881F991F1A9469F76095709580959095F9
:105610009B01AC01BD01CF010895A29FB001B39FD2
:10562000C001A39F700D811D1124911DB29F700DAB
:10563000811D1124911D0895AA1BBB1B51E107C0B8
:10564000AA1FBB1FA617B70710F0A61BB70B881F12
:10565000991F5A95A9F780959095BC01CD010895A1
:10566000EE0FFF1F881F8BBF0790F691E02D199456
:105670005058BB27AA270E94502B0C94A12C0E94A3
:10568000932C38F00E949A2C20F039F49F3F19F4A3
:1056900026F40C94902C0EF4E095E7FB0C948A2CE5
:1056A000E92F0E94B22C58F3BA17620773078407D8
:1056B000950720F079F4A6F50C94D42C0EF4E0951F
:1056C0000B2EBA2FA02D0B01B90190010C01CA01BC
:1056D000A0011124FF27591B99F0593F50F4503E67
:1056E00068F11A16F040A22F232F342F4427585F59
:1056F000F3CF469537952795A795F0405395C9F771
:105700007EF41F16BA0B620B730B840BBAF0915028
:10571000A1F0FF0FBB1F661F771F881FC2F70EC0C7
:10572000BA0F621F731F841F48F48795779567959A
:10573000B795F7959E3F08F0B0CF9395880F08F086
:105740009927EE0F9795879508950E94B92B0C9491
:10575000A12C0E949A2C58F00E94932C40F029F41E
:105760005F3F29F00C948A2C51110C94D52C0C9489
:10577000902C0E94B22C68F39923B1F3552391F336
:10578000951B550BBB27AA2762177307840738F0B0
:105790009F5F5F4F220F331F441FAA1FA9F335D00D
:1057A0000E2E3AF0E0E832D091505040E695001CC1
:1057B000CAF72BD0FE2F29D0660F771F881FBB1F7B
:1057C000261737074807AB07B0E809F0BB0B802D59
:1057D000BF01FF2793585F4F3AF09E3F510578F085
:1057E0000C948A2C0C94D52C5F3FE4F3983ED4F3B0
:1057F000869577956795B795F7959F5FC9F7880F59
:10580000911D9695879597F90895E1E0660F771FAA
:10581000881FBB1F621773078407BA0720F0621B3B
:10582000730B840BBA0BEE1F88F7E09508950E9466
:105830001E2C6894B1110C94D52C08950E94BA2C9A
:1058400088F09F5798F0B92F9927B751B0F0E1F041
:10585000660F771F881F991F1AF0BA95C9F714C0F1
:10586000B13091F00E94D42CB1E008950C94D42C66
:10587000672F782F8827B85F39F0B93FCCF386952A
:1058800077956795B395D9F73EF490958095709587
:1058900061957F4F8F4F9F4F0895E89409C097FB04
:1058A0003EF490958095709561957F4F8F4F9F4FF7
:1058B0009923A9F0F92F96E9BB279395F69587953B
:1058C00077956795B795F111F8CFFAF4BB0F11F4FE
:1058D00060FF1BC06F5F7F4F8F4F9F4F16C08823A5
:1058E00011F096E911C0772321F09EE8872F762FDB
:1058F00005C0662371F096E8862F70E060E02AF01C
:105900009A95660F771F881FDAF7880F9695879507
:1059100097F9089597F99F6780E870E060E008952F
:105920009FEF80EC089500240A94161617061806B7
:105930000906089500240A94121613061406050693
:105940000895092E0394000C11F4882352F0BB0F24
:1059500040F4BF2B11F460FF04C06F5F7F4F8F4F87
:105960009F4F089557FD9058440F551F59F05F3FC2
:1059700071F04795880F97FB991F61F09F3F79F071
:1059800087950895121613061406551FF2CF4695F3
:10599000F1DF08C0161617061806991FF1CF869575
:1059A0007105610508940895E894BB276627772759
:1059B000CB0197F908950E94EE2C0C94A12C0E9423
:1059C000932C38F00E949A2C20F0952311F00C941F
:1059D0008A2C0C94902C11240C94D52C0E94B22C5F
:1059E00070F3959FC1F3950F50E0551F629FF00132
:1059F000729FBB27F00DB11D639FAA27F00DB11D4B
:105A0000AA1F649F6627B00DA11D661F829F2227D3
:105A1000B00DA11D621F739FB00DA11D621F839F5A
:105A2000A00D611D221F749F3327A00D611D231F30
:105A3000849F600D211D822F762F6A2F11249F577E
:105A400050409AF0F1F088234AF0EE0FFF1FBB1F81
:105A5000661F771F881F91505040A9F79E3F510540
:105A600080F00C948A2C0C94D52C5F3FE4F3983E84
:105A7000D4F3869577956795B795F795E7959F5FEA
:105A8000C1F7FE2B880F911D9695879597F908957C
:105A900081E090E0F8940C943530FB01DC010D902E
:105AA0000020E9F7119701900D920020E1F7089589
:105AB000FB01DC0101900D920020E1F708950F93A6
:105AC0001F93CF93DF93CDB7DEB72E970FB6F89421
:105AD000DEBF0FBECDBF0E891F8986E08C831A837F
