:100000000C94F5010C9426020C9426020C94260202
:100010000C9426020C9426020C9426020C942602C0
:100020000C9426020C9426020C9426020C942602B0
:100030000C9426020C9426020C9426020C942602A0
:100040000C9426020C9426020C9426020C94260290
:100050000C9426020C9426020C9426020C94EB15A8
:100060000C9426020C945F160C9435160C94260200
:100070000C9426020C9426020C9426020C94260260
:100080000C9426020C9426020C9426020C94260250
:100090000C9426020C9426020C9426020C94260240
:1000A0000C9426020C9426020C9426020C94260230
:1000B0000C9426020C9426020C9426020C94260220
:1000C0000C9426020C9426020C9426020C94260210
:1000D0000C9426020C9426020C9426020C94260200
:1000E0000C9426020C94301B0C940D140C94C71124
:1000F0000C945D1B0C94121B0C949E080C94600DC8
:100100000C94BC080C94190F0C94E00C0C949308FC
:100110000C94021B0C94C00F0C94CA160C94DD0EA8
:100120000C94B6080C94CE080C94CA080C94CE0B10
:100130000C94C60D0C94671B0C948F080C94711BC7
:100140000C949B080C943B0F0C94AF0C0C94F81A75
:100150000C94730F0C9435100C9448100C94C00838
:100160000C9433100C94A8080C9411100C940412E5
:100170000C94C4080C94DF1A0C9406040C940A0F17
:100180000C940A1B0C9454100C94E41A0C946210F6
:100190000C94A4080C9430100C9470090C94261B39
:1001A0000C9497080C9478080C9441100C947D08DA
:1001B0000C943F1B0C94EE1A0C94531B0C94E715F3
:1001C0000C942D0F0C94C21A0C94AE080C942B09AD
:1001D0000C940A140C94DE090C945B100C94B20875
:1001E0000C941C1B0C94491B00407A10F35A00A07D
:1001F000724E18090010A5D4E80000E876481700F0
:1002000000E40B54020000CA9A3B000000E1F5052F
:10021000000080969800000040420F000000A08679
:1002200001000000102700000000E80300000000AB
:100230006400000000000A0000000000010000004F
:1002400000002C76D888DC674F0823DFC1DFAE5969
:10025000E1B1B796E5E3E453C63AE651997696E8FC
:10026000E6C28426EB898C9B62ED407C6FFCEFBC80
:100270009C9F40F2BAA56FA5F490055A2AF75C93AB
:100280006B6CF9676DC11BFCE0E40D47FEF520E6E1
:10029000B500D0ED902E0300943577050080841EC4
:1002A000080000204E0A000000C80C333333330F1F
:1002B000986E12831141EF8D2114893BE65516CFBC
:1002C000FEE6DB18D1844B381BF77C1D901DA4BBC8
:1002D000E424203284725E228100C9F124ECA1E57D
:1002E0003D2700002100240027002A002D003000B7
:1002F000330001010000040107010A01000022008F
:10030000250028002B002E003100340002010000DF
:10031000050108010B010505050507050808080882
:10032000020202020A0A080804040404010101018D
:100330000101010103030303030303030407070788
:100340000C0C0C0C0C0C0C0C02020202060606062D
:10035000060606060B0B0B0B0B0B0B0B01021020FA
:1003600020080810204010204080020102010804EB
:10037000020101020408102040808040201008047F
:1003800002018004020180402010080402010804D8
:10039000020101020408102040800102040810201C
:1003A000408000000A0B02090C0D0E08070304012F
:1003B000000000000000000000000000000000003D
:1003C000000000000000000000000000000012110A
:1003D000100000000000000000000000000000000D
:1003E0000000000000000000CA1611241FBECFEF5D
:1003F000D1E2DEBFCDBF00E00CBF12E0A0E0B2E072
:10040000EEE6FDE400E00BBF02C007900D92A839B4
:10041000B107D9F727E0A8E9B2E001C01D92A333E4
:10042000B207E1F711E0C5EFD1E000E006C0219787
:100430000109802FFE010E944521C43FD10780E0C1
:100440000807A9F70E942C180C94B5260C940000FC
:100450008F929F92AF92BF92EF92FF921F93CF9392
:10046000DF93DC012C9111E020FF17C0EC018981A2
:100470009A817D01BBE0EB0EF11C4F8158856985A7
:100480007A85DC01ED91FC910088F189E02D9701DE
:100490001995182F81110CC010E0812FDF91CF9199
:1004A0001F91FF90EF90BF90AF909F908F90089515
:1004B000888181FD04C088818E7F8883EECF898109
:1004C0009A814F81588569857A858B809C80AD8023
:1004D000BE80480D591D6A1D7B1DDC01ED91FC910C
:1004E0000088F189E02D970119958111E4CFD4CFCF
:1004F000CF92DF92EF92FF921F93CF93DF93DC01B5
:100500001196ED91FC91EF2B51F490E080E0DF919A
:10051000CF911F91FF90EF90DF90CF900895122F11
:100520006A017B01EC018F819885A985BA858C15BC
:100530009D05AE05BF0561F0CE010E94280288230B
:1005400021F312FF0CC01882CF82D886E986FA8682
:1005500013702881122B1883CE010B96D8CF898176
:100560009A81DC01ED91FC910084F185E02D9E01E2
:10057000255F3F4FB701A60119958111E4CFC5CF83
:100580004F925F926F927F928F929F92AF92BF92A3
:10059000CF92DF92EF92FF921F93CF93DF939093CE
:1005A00053038093520310925703C12CD12C760130
:1005B000C394C0925B03D0925C03E0925D03F0921F
:1005C0005E039093750380937403109273038FEF0F
:1005D0009FEFDC0180937A0390937B03A0937C03CD
:1005E000B0937D03662309F453C020E040E050E05F
:1005F000BA0183E793E00E947802009789F480E0D3
:10060000DF91CF911F91FF90EF90DF90CF90BF903F
:10061000AF909F908F907F906F905F904F900895D4
:10062000FC01E254FE4F2481222349F320812F77DD
:1006300031F78A539E4FFC01C080D180E280F38065
:1006400020E0B701A60183E793E00E947802FC0155
:10065000892BA9F220898FEF820F823080F6838563
:1006600094858115924059F620935803958590936F
:1006700054038FEF890F8093550310E081E09817A2
:1006800069F01F5F193041F488E080935603B7CFBB
:10069000C12CD12C7601D4CF880FF1CF1093560303
:1006A00086899789B0E0A0E080935F039093600310
:1006B000A0936103B0936203892B8A2B8B2B61F487
:1006C00084A195A1A6A1B7A180935F039093600335
:1006D000A0936103B0936203868597852601370155
:1006E000480E591E611C711C4092670350926803AA
:1006F0006092690370926A03C189D289D0935A03C8
:10070000C093590380905F0390906003A0906103B1
:10071000B0906203A22FB0E0A50194010E944D2188
:10072000460E571E681E791E40926F03509270034A
:10073000609271037092720385E0CC0FDD1F8A9581
:10074000E1F7C150DE4FCD2FDD27C6954C0E5D1E63
:10075000611C711C409263035092640360926503B4
:100760007092660383899489B0E0A0E00097A105A8
:10077000B10521F480A191A1A2A1B3A1C418D5080B
:10078000E608F7088C0D9D1DAE1DBF1D6C017D0197
:1007900004C0F694E794D794C7941A95D2F7D7017A
:1007A000C6010196A11DB11D80936B0390936C034C
:1007B000A0936D03B0936E0385EFC8168FE0D80643
:1007C000E104F10468F48CE080935703809276038F
:1007D00090927703A0927803B092790381E010CFD2
:1007E00080E135EFC3163FEFD306E104F10460F377
:1007F00084A595A5A6A5B7A580936F0390937003D4
:10080000A0937103B093720380E2DECF0F931F9326
:10081000DC01ED91FC910284F385E02D01E010E014
:1008200019951F910F9108958EBD00000DB407FE1C
:10083000FDCF8EB508958FEF0C941404FC01368122
:10084000323009F4226081960C9478024F925F92C4
:100850006F927F928F929F92AF92BF92CF92DF92D0
:10086000EF92FF920F931F93CF93DF9300D000D0AE
:10087000CDB7DEB79E838D836A017B0148015901A4
:10088000DC0115968C911597803209F03FC0559682
:100890008D919D910D90BC91A02DE7E07695679587
:1008A00057954795EA95D1F7480F591F6A1F7B1F47
:1008B00021E08D819E810E941E040097C1F480E09A
:1008C00026960FB6F894DEBF0FBECDBFDF91CF9155
:1008D0001F910F91FF90EF90DF90CF90BF90AF905E
:1008E0009F908F907F906F905F904F900895CC0C69
:1008F000DD1CCC0CDD1CB1E0DB228C0D9D1DFC0150
:1009000080829182A282B38281E0DACF8031E1F4E9
:10091000AD81BE8155964D915D916D917C915897B9
:100920004D0D511D611D711D21E0CD010E941E0460
:10093000009729F2CC0CDD1CB1E0DB228C0D9D1D53
:10094000FC0111830083E0CF8C3009F0B8CF8A011D
:1009500016950795040F151FC801892F99278695AD
:10096000AD81BE8155964D905D906D907C9058976D
:10097000480E591E611C711C21E0B301A201CD017A
:100980000E941E04009709F49ACF1170282DFC01D3
:10099000E00FF11FB701A6014170552766277727A1
:1009A00049835A836B837C83C0FE07C020812F70EC
:1009B00060E1869EA0011124242B20830F5F1F4F2E
:1009C000011572E0170781F4B301A2014F5F5F4F79
:1009D0006F4F7F4F21E08D819E810E941E04009702
:1009E00009F46DCF10E000E024E0B694A79497944A
:1009F00087942A95D1F7282DFC01E00FF11F8981FA
:100A00009A81AB81BC81892B8A2B8B2B31F420817D
:100A1000207F82948FE088222829208375CF6F92CF
:100A20007F928F929F92AF92BF92CF92DF92EF927E
:100A3000FF920F931F93CF93DF93423051056105CF
:100A4000710580F48FEFDF91CF911F910F91FF908F
:100A5000EF90DF90CF90BF90AF909F908F907F905E
:100A60006F900895FC01C18CD28CE38CF48CC41679
:100A7000D506E606F70630F339016A018C01858157
:100A80008032A1F585899689A789B08DE7E07695B2
:100A9000679557954795EA95D1F7480F591F6A1FF3
:100AA0007B1F20E0C8010E941E04009759F2CC0C65
:100AB000DD1CCC0CDD1CF1E0DF228C0D9D1DFC014A
:100AC00080819181A281B381F801418D528D638D26
:100AD000748D481759076A077B0708F46DC0F30146
:100AE00080839183A283B38381E0ADCF8031D9F439
:100AF000458956896789708D4D0D511D611D711D88
:100B000020E0CF010E941E04009709F49BCFCC0C7B
:100B1000DD1CF1E0DF228C0D9D1DFC0180819181A7
:100B2000B0E0A0E0D1CF8C3009F08CCFEA01D695AF
:100B3000C795C40FD51FCE01892F99278695858823
:100B40009688A788B08C880E991EA11CB11C20E045
:100B5000B501A401CF010E941E04009709F472CFD1
:100B60009E013170FC01E20FF31FC081D0E02F5FC6
:100B70003F4F2115F2E03F0779F4B501A4014F5F23
:100B80005F4F6F4F7F4F20E0C8010E941E04009707
:100B900009F458CF30E020E0820F931FFC018081E0
:100BA000D82BC0FE07C084E0D695C7958A95E1F79B
:100BB000CE01B6CFDF70FCCF80E045CF9F92AF92E1
:100BC000BF92CF92DF92EF92FF920F931F93CF933A
:100BD000DF9300D01F92CDB7DEB75C016A017B01C5
:100BE0009E012F5F3F4FB701A601C5010E940F056F
:100BF000982E87FD44C082E0C816D104E104F104B8
:100C0000F0F1F501818D928DA38DB48D8C159D052C
:100C1000AE05BF05A0F100E010E09801B701A60104
:100C2000C5010E942604882351F1F50141855285B2
:100C300063857485C416D506E606F70650F4F1E020
:100C4000CF1AD108E108F108F501C186D286E38602
:100C5000F486C980DA80EB80FC809110C1CF0F90C0
:100C60000F900F900F90DF91CF911F910F91FF90F8
:100C7000EF90DF90CF90BF90AF909F90089580E06D
:100C8000EECF0F931F93CF93DF93DC012C912111B3
:100C900006C081E0DF91CF911F910F910895EC0183
:100CA0008A8187FF3AC04C895D896E897F898E81F0
:100CB0009F8121E081960E947802009729F4898122
:100CC0008160898380E0E6CFEC81FD81EF70FF27B2
:100CD00025E0EE0FFF1F2A95E1F7E80FF91F309787
:100CE00071F38081853E59F388818773838788817A
:100CF00083FF08C0888D998DAA8DBB8D848F958FB9
:100D0000A68FB78F8C8D9D8DAE8DBF8D938F828F6B
:100D1000B58BA48B8A818F778A830E811F81C8014E
:100D200081960E942802882351F2F80180819181E6
:100D3000DC01ED91FC910684F785E02D199588235F
:100D400009F4BDCFA6CF4F925F926F927F928F92A0
:100D50009F92AF92BF92CF92DF92EF92FF920F934A
:100D60001F93CF93DF93EC014A015B014C845D84B8
:100D70006E847F842881222309F45CC048895989C4
:100D80006A897B89481559056A057B0581F08114BC
:100D90009104A104B10469F41C861D861E861F8679
:100DA000888A998AAA8ABB8A8A818F7D8A8381E010
:100DB00046C023FF2CC0888D998DAA8DBB8D8815C8
:100DC0009905AA05BB05B0F1EE81FF813481375F3B
:100DD0007501640181E0C81AD108E108F108032E09
:100DE00004C0F694E794D794C7940A94D2F78A8102
:100DF00086FF36C08C8D9D8DAE8DBF8D8C0D9D1D5B
:100E0000AE1DBF1D8C879D87AE87BF87C9CF26FFCC
:100E1000DBCFEE81FF818781908525E0880F991FC8
:100E20002A95E1F7B0E0A0E088159905AA05BB0571
:100E300008F0B6CF4C865D866E867F8680E0DF91B7
:100E4000CF911F910F91FF90EF90DF90CF90BF90C7
:100E5000AF909F908F907F906F905F904F9008958C
:100E6000DB01CA010197A109B10904C0B695A79594
:100E7000979587953A95D2F7C816D906EA06FB06E4
:100E800020F0452B462B472B49F527FF22C0858DA7
:100E9000968DA78DB0A18C879D87AE87BF878E0169
:100EA000045F1F4FC114D104E104F10409F478CFA9
:100EB0004C855D856E857F8598018E819F810E941E
:100EC0000F0591E0C91AD108E108F108181654F38A
:100ED000B1CF8C8D9D8DAE8DBF8DDDCFC81AD90A57
:100EE000EA0AFB0ADCCF3F924F925F926F927F92A9
:100EF0008F929F92AF92BF92CF92DF92EF92FF922A
:100F00000F931F93CF93DF9300D01F92CDB7DEB71F
:100F10004C01FC014484558466847784A680B780A4
:100F2000F501C184D284E384F484C414D504E604B6
:100F3000F704C0F47301620110E0FFEFCF1ADF0A7B
:100F4000EF0AFF0AF501818D928DA38DB48D8C156A
:100F50009D05AE05BF0540F411112CC0C184D2849B
:100F6000E384F48411E0E9CF4C145D046E047F0443
:100F700009F19E012F5F3F4FB701A601C5010E94F5
:100F80000F0587FD17C08823C1F289819A81AB8143
:100F9000BC81892B8A2B8B2B81F6112329F0F5013B
:100FA000C186D286E386F486F2E0CF16D104E1044E
:100FB000F104C0F4312C832D0F900F900F900F90FF
:100FC000DF91CF911F910F91FF90EF90DF90CF9025
:100FD000BF90AF909F908F907F906F905F904F9059
:100FE0003F900895F501818D928DA38DB48D8C1560
:100FF0009D05AE05BF05F0F20FEF1FEF2FEF3FE0AD
:10100000B701A601C5010E942604382E882391F25B
:101010004114510461047104B9F4F401C486D58605
:10102000E686F7868281411451046104710441F11E
:10103000FFEF4F1A5F0A6F0A7F0A4C145D046E04BB
:101040007F0409F18F7B1DC0F2E04F16510461044B
:10105000710408F4AFCFF501818D928DA38DB48D0D
:1010600084159505A605B70508F4A4CF9701860158
:10107000B301A201C5010E9426048111CECF9ACFEF
:101080008064F4018283F40182818068828393CF3B
:10109000282F30E0F901EE55FC4F9491F901E45A04
:1010A000FC4F44912A5E3C4FF9012491222309F41C
:1010B00035C0992311F191509231F8F4E92FF0E005
:1010C0008827EA59F74F8F4F0C94452197089B08C2
:1010D00078088F0893087D089E08A408A808AE0821
:1010E000B208B608BC08C0087D08C408CA08CE0803
:1010F000809180008F7780938000E22FF0E0EE0FE8
:10110000FF1FE450FD4FA591B4918FB7F894EC9177
:10111000611148C040954E234C938FBF0895809134
:1011200080008F7DE8CF80918000877FE4CF84B5F9
:101130008F7784BDE2CF84B58F7DFBCF8091B000E7
:101140008F778093B000D9CF8091B0008F7DF9CF99
:10115000809190008F7780939000CFCF8091900006
:101160008F7DF9CF80919000877FF5CF8091A0008F
:101170008F778093A000C1CF8091A0008F7DF9CFA1
:101180008091A000877FF5CF809120018F77809399
:101190002001B3CF809120018F7DF9CF8091200174
:1011A000877FF5CF4E2BB8CFCF93DF93FC012185FE
:1011B0002223B9F0EC0161E087810E9448088FEF9B
:1011C0000E9414048091B402882351F09FB7F894D0
:1011D0002091B4028091B302213031F48DBB9FBFC6
:1011E0001986DF91CF9108958FBFFACF0F931F9388
:1011F000CF93DF938C01862FEA010E941404FE0135
:1012000081918EBDDE5FEC17FD0741F081910000FA
:1012100000000DB407FEFDCF8EBDF5CF0DB407FE67
:10122000FDCF8FEF0E9414048FEF0E9414040E94E0
:101230001B04F80183878F71853059F081E2808724
:10124000C8010E94D40880E0DF91CF911F910F91D7
:10125000089581E0F9CFCF93DF93FC01268122230B
:10126000B9F0EC010E94D4089FB7F8948091B202C3
:10127000882319F081508093B2028091B2028111CB
:1012800005C08CB58F7B8CBD1092B4029FBF1E82AF
:10129000DF91CF910895FC018185811120C02481C7
:1012A00095818091B402882361F08FB7F8943091D2
:1012B000B402313089F43DB33093B3023DB33DBB4A
:1012C0008FBF2CBD9DBD81E0818760E087810E943A
:1012D00048088FEF0C9414048093B302F2CF089562
:1012E0000F931F93CF93DF93FC01228510E02130F1
:1012F00089F0EC010185011102C00E944B090E9496
:101300001B0411E08F3F09F410E0011103C0CE016E
:101310000E94D408812FDF91CF911F910F910895E2
:10132000CF93DF9390E0FC01E45AFC4F24918A5E56
:101330009C4FFC0184918823D1F090E0880F991F85
:10134000FC01EE51FD4FA591B491FC01E450FD4F1D
:10135000C591D49161110EC09FB7F8948C91E22F82
:10136000E0958E238C932881E223E8839FBFDF9151
:10137000CF9108958FB7F894EC91E22BEC938FBF47
:10138000F6CF863308F0865320917B00982F987013
:10139000277F922B90937B008770806480937C00E2
:1013A00080917A00806480937A0080917A0086FD33
:1013B000FCCF809178009091790008952F923F9210
:1013C0004F925F926F927F928F929F92AF92BF9255
:1013D000CF92DF92EF92FF920F931F93CF93DF9301
:1013E000CDB7DEB7C154D1090FB6F894DEBF0FBE3A
:1013F000CDBF8C01DC0112968C910E94C109BC0109
:10140000990F880B990B0E946E21F8012481358178
:10141000468157810E94D221D8011396BC91229611
:10142000BFAF22972B2E312C7101E1E0EE1AF108AB
:10143000F101EE0FFF1FEE0FFF1FE00FF11F9701ED
:101440001216130664F42150310980809180A28025
:10145000B38084829582A682B7823497F1CFD80177
:1014600018966D937D938D939C931B971896FE0110
:10147000319690E080E0821593050CF445C0AA24D3
:10148000A394B12CA214B3040CF04FC0FE0131960A
:101490006F01912C812C8E149F040CF03FC0D6015B
:1014A0008D919D910D90BC91A02D21968CAF9DAFFB
:1014B000AEAFBFAF2197BFEF8B1A9B0AF6014480F6
:1014C000558066807780A301920121966CAD7DAD39
:1014D0008EAD9FAD21970E94CD2118168CF4D601B8
:1014E0004D925D926D927C92139721968CAD9DAD3D
:1014F000AEADBFAD2197F60184839583A683B783F4
:10150000F4E0CF0ED11CC7CF4D915D916D917D91CF
:1015100041935193619371930196ADCFFFEFAF1A51
:10152000BF0A21E0E21AF108ADCF2296EFAD229773
:10153000E69584E0E89FF0011124EC0FFD1F818106
:101540009281A381B481F801EC5BFF4F808391838A
:10155000A283B383CF5BDF4F0FB6F894DEBF0FBE1D
:10156000CDBFDF91CF911F910F91FF90EF90DF9052
:10157000CF90BF90AF909F908F907F906F905F9033
:101580004F903F902F900895EF92FF920F931F93EB
:10159000CF93DF93EC0160E08A810E9490097E0185
:1015A00088E0E80EF11C10E000E08B818017110646
:1015B000D9F0D4F08A810E94C109BC01990F880B2F
:1015C000990B0E946E219B01AC016C817D818E8103
:1015D0009F810E94D221F70161937193819391932E
:1015E0007F010F5F1F4FE1CFDF91CF911F910F91CF
:1015F000FF90EF9008952FB7F8946091AE0270912C
:10160000AF028091B0029091B1022FBF0895CF93A5
:10161000DF93EC010E94FB0AC60FD71F0E941B0438
:101620008F3F59F00E94FB0ACE01861B970B97FF54
:10163000F5CF80E0DF91CF91089581E0FBCF1F933C
:10164000CF93DF93EC0188E592E00E94070B182FFF
:10165000882361F08DEF0E941404CE010E94D4080B
:101660001A86812FDF91CF911F9108958FE188878E
:10167000CE010E94D408F5CF0F931F93CF93DF9331
:10168000EC018B0188E592E00E94070B811107C0F5
:1016900085E28887CE010E94D40880E007C0A801B7
:1016A0006CEFCE010E94F6088823A1F3DF91CF9161
:1016B0001F910F910895DF92EF92FF920F931F9366
:1016C000CF93DF93EC01162F022FF32EE42ED52EAD
:1016D000E881F9810684F785E02D19958823D1F1F9
:1016E0008985811103C0CE010E944B0911112AC0C6
:1016F000812F80640E9414048D2D0E9414048E2D6D
:101700000E9414048F2D0E941404802F0E94140440
:1017100087E8111101C085E90E9414040E941B048E
:101720000AE010E00E941B048B8787FF03C0015072
:101730001109C1F7DF91CF911F910F91FF90EF90A9
:10174000DF9008951C30A1F28CE291E00E94070B1B
:101750008111CECF8FEFEECFCF93DF93EC018C854D
:10176000833039F089E0440F551F661F771F8A9533
:10177000D1F79A01AB0169E1CE010E945B0B88238E
:1017800049F08EE08887CE010E94D40880E0DF9186
:10179000CF91089582E08A8781E0F9CF8F929F925E
:1017A000AF92BF92CF92DF92EF92FF920F931F936F
:1017B000CF93DF93EC014A015B0169018A85823096
:1017C00049F48D859E85AF85B88988159905AA0548
:1017D000BB05C9F0B501A401CE010E94AC0B81117B
:1017E0000EC080E0DF91CF911F910F91FF90EF909D
:1017F000DF90CF90BF90AF909F908F9008958D868F
:101800009E86AF86B88AF12CE12CE016F10661F0D5
:10181000B601CE010E943C0B882319F38FEFE81A22
:10182000F80A8EEFD81AF1CF8D859E85AF85B889DD
:101830008E0D9F1DA11DB11D8D879E87AF87B88B13
:1018400089898111CFCFCE01DF91CF911F910F9167
:10185000FF90EF90DF90CF90BF90AF909F908F90D0
:101860000C941F0BCF92DF92EF92FF920F931F9376
:10187000CF93DF93EC0179010E94AC0B8823E1F058
:10188000D12CC12CC016D10661F0B701CE010E9447
:101890003C0B882389F08FEFC81AD80A8EEFF81A0C
:1018A000F1CFCE01DF91CF911F910F91FF90EF907B
:1018B000DF90CF900C941F0BCE010E94D40880E0E3
:1018C000DF91CF911F910F91FF90EF90DF90CF901C
:1018D00008950F931F93CF93DF93EC0189018C85BB
:1018E000833039F089E0440F551F661F771F8A95B2
:1018F000D1F79A01AB0168E1CE010E945B0B88230E
:1019000039F08DE08887CE010E94D40810E021C014
:10191000A8016EEFCE010E94F6088823A1F388E5A6
:1019200092E00E94070B182F84E2112359F320E064
:1019300030E0A9016DE0CE010E945B0B882311F01D
:101940008AE0E0CF0E941B048111FACFCE010E94F1
:10195000D408812FDF91CF911F910F9108950F939C
:101960001F93DC015196EC915197EE2359F0ED91C4
:10197000FC910288F389E02D01E010E019951F9198
:101980000F9108951F910F910C94690CCF93DF93E1
:10199000EC011A8620E030E0A9016CE00E945B0BAC
:1019A000882349F089E08887CE010E94D40880E02E
:1019B000DF91CF910895CE010E94D40881E0F8CF45
:1019C000FC012285223011F40C941F0B213011F4FC
:1019D0000C94C60C81E00895CF93DF93EC018C85C5
:1019E000833039F089E0440F551F661F771F8A95B1
:1019F000D1F79A01AB0162E1CE010E945B0B882313
:101A000049F08CE08887CE010E94D40880E0DF9105
:101A1000CF91089581E08A87FACFCF92DF92EF923B
:101A2000FF920F931F93CF93DF93EC018B017A0109
:101A30000E94FB0A6B0124EDC21A2EEFD20A0E940B
:101A40001B048B878F3FB1F40E94FB0AC601861BE3
:101A5000970B97FFF4CF8EE18887CE010E94D408C0
:101A600080E0DF91CF911F910F91FF90EF90DF9079
:101A7000CF9008958E3F11F089E1EECF8FEF8EBDAC
:101A8000F801C7013FEF019749F0000000000DB4D5
:101A900007FEFDCF2EB53EBD2193F5CF81E0E81ABC
:101AA000F1080E0D1F1D0DB407FEFDCF8EB5F80118
:101AB00080831B860E941B040E941B0481E0D1CFFF
:101AC0008F929F92AF92BF92CF92DF92EF92FF924E
:101AD0000F931F93CF93DF93EC014A015B016901E0
:101AE0008A85813049F48D859E85AF85B8898815B2
:101AF0009905AA05BB05C9F0B501A401CE010E9454
:101B0000EC0C81110EC080E0DF91CF911F910F91FD
:101B1000FF90EF90DF90CF90BF90AF909F908F900D
:101B200008958D869E86AF86B88AF12CE12CE0164A
:101B3000F10671F040E052E0B601CE010E940D0DB9
:101B4000882309F38FEFE81AF80A8EEFD81AEFCF3F
:101B50008D859E85AF85B8898E0D9F1DA11DB11DF8
:101B60008D879E87AF87B88B89898111CDCFCE01B4
:101B7000DF91CF911F910F91FF90EF90DF90CF9069
:101B8000BF90AF909F908F900C94C60C0F931F93B3
:101B9000CF93DF93CDB7DEB760970FB6F894DEBF73
:101BA0000FBECDBF8C0120E030E0A90169E00E94AA
:101BB0005B0B882351F08CE1F8018087C8010E94FB
:101BC000D40860E070E0CB015EC040E150E0BE01AF
:101BD0006F5F7F4FC8010E940D0D882379F3C80104
:101BE0000E94D4088981829586958695837009F034
:101BF00055C06F8170E090E080E03AE0660F771F9B
:101C0000881F991F3A95D1F766277C7088279927F6
:101C1000098510E046E0159507954A95E1F7012EF4
:101C2000000C220B330B062B172B282B392B888506
:101C300090E0B0E0A0E0BC01CD0152E0660F771F5C
:101C4000881F991F5A95D1F7602B712B822B932BEC
:101C50006F5F7F4F8F4F9F4F2A85220F322F367035
:101C60002B85221F2227221F232B3E813F70230F0B
:101C70003327331F2750310904C0660F771F881F91
:101C8000991F2A95D2F760960FB6F894DEBF0FBE63
:101C9000CDBFDF91CF911F910F910895813009F051
:101CA00090CF6885062F10E030E020E098011127E2
:101CB0000027002711272F73332789859A859827B6
:101CC00089279827B0E0A0E0BC01CD01602B712BE3
:101CD000822B932B6F5F7F4F8F4F9F4F2AE0660FB2
:101CE000771F881F991F2A95D1F7CDCFCF92DF920A
:101CF000EF92FF920F931F93CF93DF93EC01790143
:101D00000E94EC0C8823F1F0D12CC12C0C151D0580
:101D100071F040E052E0B701CE010E940D0D882322
:101D200089F08FEFC81AD80A8EEFF81AEFCFCE01DC
:101D3000DF91CF911F910F91FF90EF90DF90CF90A7
:101D40000C94C60C80E0DF91CF911F910F91FF9012
:101D5000EF90DF90CF9008950F931F93CF93DF9371
:101D6000EC0189018C85833039F089E0440F551FDF
:101D7000661F771F8A95D1F79A01AB0161E1CE0109
:101D80000E945B0B882339F08BE08887CE010E948C
:101D9000D40810E00CC040E052E0B801CE010E942F
:101DA0000D0D182F882391F3CE010E94D408812FA6
:101DB000DF91CF911F910F910895AF92BF92CF9273
:101DC000DF92EF92FF920F931F93CF93DF936C01FB
:101DD0007B018B01040F151FEB015E01AE18BF08DC
:101DE000C017D10759F06991D601ED91FC9101908E
:101DF000F081E02DC6011995892B79F7C501DF9196
:101E0000CF911F910F91FF90EF90DF90CF90BF90F7
:101E1000AF900895FC01538D448D252F30E0842F21
:101E200090E0821B930B541710F0CF960895019702
:101E30000895FC01918D828D981761F0A28DAE0FEF
:101E4000BF2FB11D5D968C91928D9F5F9F73928F76
:101E500090E008958FEF9FEF0895FC01918D828DA2
:101E6000981731F0828DE80FF11D858D90E008956F
:101E70008FEF9FEF0895FC01918D228D892F90E0C7
:101E8000805C9F4F821B91098F739927089585EB82
:101E900092E00E943B0F21E0892B09F420E0822F81
:101EA0000895FC01A48DA80FB92FB11DA35ABF4FEF
:101EB0002C91848D90E001968F739927848FA68949
:101EC000B7892C93A089B1898C91837080648C939D
:101ED000938D848D981306C00288F389E02D80814C
:101EE0008F7D80830895EF92FF920F931F93CF937E
:101EF000DF93EC0181E0888F9B8D8C8D98131AC045
:101F0000E889F989808185FF15C09FB7F894EE892B
:101F1000FF896083E889F989808183708064808388
:101F20009FBF81E090E0DF91CF911F910F91FF90D3
:101F3000EF900895F62E0B8D10E00F5F1F4F0F737B
:101F40001127E02E8C8D8E110CC00FB607FCFACF36
:101F5000E889F989808185FFF5CFCE010E94510F74
:101F6000F1CFEB8DEC0FFD2FF11DE35AFF4FF08207
:101F70009FB7F8940B8FEA89FB8980818062CFCF6D
:101F8000CF93DF93EC01888D8823B9F0AA89BB89B0
:101F9000E889F9898C9185FD03C0808186FD0DC09B
:101FA0000FB607FCF7CF8C9185FFF2CF808185FFBC
:101FB000EDCFCE010E94510FE9CFDF91CF9108956F
:101FC00080E090E0892B29F00E94470F81110E9448
:101FD000000080E090E0892B49F080E090E0892BC0
:101FE00029F00E94000081110E94000080E090E032
:101FF000892B49F080E090E0892B29F00E940000B5
:1020000081110E94000080E090E0892B49F080E07F
:1020100090E0892B29F00E94000081110C940000AF
:102020000895FC01848583FF17C084A195A1A6A112
:10203000B7A1448D558D668D778D841B950BA60BAE
:10204000B70B811520E89207A105B10520F08FEFAD
:102050009FE7A0E0B0E0089580E090E0DC01F1CFE0
:102060000C960C944106089508950F931F93DC017C
:10207000ED91FC910288F389E02D19951F910F9144
:102080000895DC01ED91FC910088F189E02D19940F
:102090000F931F93DC01ED91FC910284F385E02DF9
:1020A00019951F910F910895DC01ED91FC91008429
:1020B000F185E02D1994DC01ED91FC910684F78502
:1020C000E02D199490E080E00895FC01019000203B
:1020D000E9F73197AF01481B590BBC0185EB92E042
:1020E0000C94DD0E8F929F92AF92BF92CF92DF92AF
:1020F000EF92FF920F931F93CF93DF93EC017B013D
:102100003A8130FFCAC0288188889988AA88BB880C
:10211000422F4870C42E23FF22C0888D998DAA8D2E
:10212000BB8D88199909AA09BB0982309105A105BF
:10213000B10520F5009711F530E020E0A901481B1A
:10214000590BCA01DF91CF911F910F91FF90EF9032
:10215000DF90CF90BF90AF909F908F90089526FF13
:102160000DC0EE81FF818781908545E0880F991F22
:102170004A95E1F78815990509F495C0EE81FF812C
:1021800084011170B501A40189E076956795579592
:1021900047958A95D1F726FF27C0858D968DA78D07
:1021A000B0A1480F591F6A1F7B1F8E819F8120E0BD
:1021B00081960E947802009709F46FC0800F911FEA
:1021C000FC018081F701808388899989AA89BB896C
:1021D0000196A11DB11D888B998BAA8BBB8B21E029
:1021E00030E090E080E0AACFD380D4220115110521
:1021F00081F4D1100EC089288A288B2881F527FF09
:1022000029C0858D968DA78DB0A18C879D87AE87BF
:10221000BF87EE81FF814C855D856E857F8542504D
:10222000510961097109848104C0440F551F661F5B
:10223000771F8A95D2F781899289A389B489840FFF
:10224000951FA61FB71FAC01BD014D0D511D611D8E
:10225000711DABCF8C8D9D8DAE8DBF8DD6CF4C8536
:102260005D856E857F85CC2059F036FF09C04F5FB4
:102270005F4F6F4F7F4F4C875D876E877F87C9CFDA
:102280009E01245F3F4FCF010E940F0587FD05C0CF
:102290008111BFCF8881807D49F4898182608983E3
:1022A0008FEF9FEF4FCF30E020E09BCF21E030E079
:1022B00081E090E043CFEF92FF920F931F93CF9373
:1022C000DF931F92CDB7DEB77C01962FF7014089CF
:1022D0005189628973898A019B0185E0369527952A
:1022E000179507958A95D1F70F7011F0911129C0B4
:1022F000BE016F5F7F4FC7010E947210813051F0A5
:1023000090E080E00F90DF91CF911F910F91FF90AF
:10231000EF900895F70180899189A289B3894F963A
:10232000A11DB11D808B918BA28BB38BF701868190
:1023300097818C96F0E20F9F90011124820F931FDA
:10234000E1CF405E5F4F6F4F7F4F408B518B628B71
:10235000738BECCFCF93DF93EC01AB0170E060E0C7
:1023600085E0440F551F661F771F8A95D1F7CE0170
:102370000E94A306882331F060E0CE01DF91CF9167
:102380000C945B1190E080E0DF91CF9108958F92E3
:102390009F92AF92BF92CF92DF92EF92FF920F93F4
:1023A0001F93CF93DF931F92CDB7DEB78C01FC0153
:1023B000848C958CA68CB78CC08CD18CE28CF38CE1
:1023C000BE016F5F7F4F0C960E9472100197C9F497
:1023D000898190E0F801848E958EA68EB78EC08E8E
:1023E000D18EE28EF38E0F90DF91CF911F910F91DE
:1023F000FF90EF90DF90CF90BF90AF909F908F9025
:1024000008958FEF9FEFE6CFCF93DF931F92CDB765
:10241000DEB7BE016F5F7F4F0C960E94721001976E
:1024200031F4898190E00F90DF91CF9108958FEF83
:102430009FEFF9CF2F923F924F925F926F927F92D0
:102440008F929F92AF92BF92CF92DF92EF92FF92C4
:102450000F931F93CF93DF9300D000D01F921F9252
:10246000CDB7DEB798878F833B011A01DC01129646
:102470008C9181FFBCC083FDADC0A10170E060E024
:10248000EF81F88580899189A289B389809590959B
:10249000A095B09584179507A607B70708F4A7C0BD
:1024A00061013C96FE83ED83EF81F88580889188F9
:1024B000A288B388C114D10409F415C1468057809D
:1024C000D2011396FC90B501A40199E07695679529
:1024D000579547959A95D1F7F42284011170F11020
:1024E00023C044855585668577850115110509F05A
:1024F00026C1411551056105710509F490C022817D
:1025000026FF7DC0808D918DA28DB38D8816990692
:10251000AA06BB0608F073C04F5F5F4F6F4F7F4F37
:102520004487558766877787AF81B8851696ED9182
:10253000FC9117971C964D915D916D917C911F9721
:102540004250510961097109848104C0440F551F2B
:10255000661F771F8A95D2F781899289A389B489EA
:10256000840F951FA61FB71FAC01BD014F0D511D54
:10257000611D711D0115110509F0F6C0C114B2E00D
:10258000DB0608F4F1C080A491A4A2A4B3A442A0E5
:1025900053A0C11484E0D80608F064C0481559055A
:1025A0006A057B0541F411A28FEF9FEFDC0180A744
:1025B00091A7A2A7B3A7D201ED91FC910088F18960
:1025C000E02D9301C2011995882389F0E12C82E066
:1025D000F82E0DC1AF81B88558964D915D916D91E2
:1025E0007C915B97CD010E94A306811146CFEF81BC
:1025F000F885818181608183312C212C86C02D81D9
:102600003E81C2010E940F0587FDF1CF81118CCF61
:102610008F8198850E947307811186CFE8CFEF8163
:10262000F885848D958DA68DB78D0097A105B10590
:1026300081F4CF010E9473078823C9F2EF81F885E6
:1026400084859585A685B785848F958FA68FB78F4E
:102650006BCFEF81F88584879587A687B78764CF8E
:1026600021E0A9C08601012F1127069530E020E066
:1026700082818F19990B092E000CAA0BBB0B08172E
:1026800019072A073B0710F4D901C8018C019D01E5
:102690000F2EF9E0000F111F221F331FFA95D1F7FB
:1026A000F02D78018C0184169506A606B70688F0F1
:1026B000840F951FA61FB71F88169906AA06BB068A
:1026C00040F411A28FEF9FEFDC0180A791A7A2A792
:1026D000B3A7D201ED91FC910288F389E02D93011B
:1026E000C201199581C0EF81F885808D918DA28DF1
:1026F000B38D88159905AA05BB0538F4808E918E97
:10270000A28EB38E828180688283C10128960FB623
:10271000F894DEBF0FBECDBFDF91CF911F910F9117
:10272000FF90EF90DF90CF90BF90AF909F908F90F1
:102730007F906F905F904F903F902F900895F2019F
:102740004250510961097109848104C0440F551F29
:10275000661F771F8A95D2F781899289A389B489E8
:10276000480F591F6A1F7B1F80E092E0801B910B6E
:1027700076018C159D0508F47C010115110509F001
:102780006FCFAF81B88550968D909D90AD90BC90E5
:10279000539758968D919D910D90BC91A02D8816C0
:1027A0009906AA06BB0630F4AF81B88512968C91C3
:1027B00085FF56CF25E0CF0181960E9478020097D1
:1027C00009F415CFA701B301800F911F0E94C22306
:1027D0000E0D1F1D0115124051F4EF81F885868101
:1027E000978181960E942802882309F400CFEF8107
:1027F000F88580899189A289B3898E0D9F1DA11DBD
:10280000B11D808B918BA28BB38B6E0C7F1CCE186D
:10281000DF084ACE0C960C941A12CF93DF931F92C6
:10282000CDB7DEB7698341E050E0BE016F5F7F4FF7
:102830000C960E941A120F90DF91CF9108952F925B
:102840003F924F925F926F927F928F929F92AF9240
:10285000BF92CF92DF92EF92FF920F931F93CF938D
:10286000DF93CDB7DEB7A3970FB6F894DEBF0FBEE8
:10287000CDBF5C01FB01DC018C91807D11F480E017
:1028800051C18091BE058111FACF868197810C9646
:102890006DE070E00E940F216AA38185837001E0E2
:1028A00009F0060F4BA36F0140E050E0BA01C501EB
:1028B0000E94A30619A2712C612C10E04601BAE017
:1028C0008B0E911CF501208831884288538860E086
:1028D000C5010E945B11FC01892B89F22081253EF4
:1028E00009F458C1222309F449C1601608F450C004
:1028F0002E3209F44DC145E05694479437942794FD
:102900004A95D1F7710133853F3009F076C0111136
:1029100041C0822F8F71782E9AA19813D3CF26FFB2
:10292000D1CFA585A9A3192FE1E07E12CBCF80E2FC
:10293000F501DE01119601900D928A95E1F7D6011D
:102940008D919C91119713969C938E931297552479
:102950005394151508F4B6CFB701CE0101960E9425
:10296000AA11009709F414C1F60124813581FC01F4
:1029700060E06530B8F441815281D60112962D9005
:102980003C9022163306B1F4452B09F49BCF00C1CD
:10299000612CAECF7A942711FBC08585B9A18B1726
:1029A00019F2F6C06B3018F444815581E6CF4681A8
:1029B0005781E3CF4038510508F0EAC08FE9840F12
:1029C0008A3108F44052C1010196D60113969C93B6
:1029D0008E931297D1018C919FE9980F9A3108F448
:1029E00080528413D5C06F5F32966D3009F0C1CF2D
:1029F0005394B1E0EB1AF108ACCF33FDC9C01123F9
:102A000009F4A9C081E078123ACF9F01255F3F4FBA
:102A100090E090FB979597F98191980F2E173F07BB
:102A2000C1F7A9A1A9132BCFEEEBF5E080E2DF01FE
:102A30001D928A95E9F7F501A681B781B093C50586
:102A4000A093C405F092C305E092C205448D558D54
:102A5000668D778D4093C6055093C7056093C80572
:102A60007093C905FD01BC968FE0E822FF2435E094
:102A7000EE0CFF1C3A95E1F7EE0DFF1D838583FDFB
:102A800078C087738093BE059385987119F4886028
:102A90008093BE051093C1059BA181E0913009F49C
:102AA00082E08093C0058091C00581FF09C08091BC
:102AB000BE05982F917109F05CC080628093BE05BD
:102AC00098968D919D910D90BC91A02D8093D205EB
:102AD0009093D305A093D405B093D50584899589A7
:102AE000B0E0A0E0DC0199278827428D538D70E08B
:102AF00060E0842B952BA62BB72B8093DA0590935F
:102B0000DB05A093DC05B093DD05848D958DA68D46
:102B1000B78D8093D6059093D705A093D805B09331
:102B2000D90581E0A3960FB6F894DEBF0FBECDBFE6
:102B3000DF91CF911F910F91FF90EF90DF90CF9099
:102B4000BF90AF909F908F907F906F905F904F90CD
:102B50003F902F9008954BE050E0B401CF010E94C8
:102B6000B523892B09F0AECEF601818580FDAACE72
:102B70005BCF1092BE051092C00581CE601608F0A2
:102B80007ECE6394222309F47ACE253E09F0B0CE9E
:102B900010E098CE6016E0F7F4CFFC0180E2DF0190
:102BA0001D928A95E9F777836683DB0115968C91F0
:102BB000803121F0803239F08C3039F480E4808328
:102BC00081E08283089580E8FACF80E008950C9434
:102BD0002C230C942C231F920F920FB60F921124CA
:102BE0002F933F938F939F93AF93BF938091AE02A8
:102BF0009091AF02A091B002B091B1023091AD02BC
:102C000023E0230F2D3758F50196A11DB11D209308
:102C1000AD028093AE029093AF02A093B002B09346
:102C2000B1028091A9029091AA02A091AB02B09149
:102C3000AC020196A11DB11D8093A9029093AA0236
:102C4000A093AB02B093AC02BF91AF919F918F91D3
:102C50003F912F910F900FBE0F901F90189526E86F
:102C6000230F0296A11DB11DD2CF1F920F920FB656
:102C70000F9211240BB60F922F933F934F935F93B4
:102C80006F937F938F939F93AF93BF93EF93FF9334
:102C900085EB92E00E94510FFF91EF91BF91AF91B0
:102CA0009F918F917F916F915F914F913F912F9164
:102CB0000F900BBE0F900FBE0F901F9018951F9294
:102CC0000F920FB60F9211240BB60F922F938F9382
:102CD0009F93EF93FF93E091C502F091C60280812C
:102CE000E091CB02F091CC0282FD1DC090818091D9
:102CF000CE028F5F8F732091CF02821741F0E09157
:102D0000CE02F0E0EB54FD4F958F8093CE02FF9101
:102D1000EF919F918F912F910F900BBE0F900FBE4F
:102D20000F901F9018958081F2CFCF93DF93FB0116
:102D30002281DC0112962C931297238113962C93F7
:102D40001397448155816681778114964D935D93E5
:102D50006D937C9317971896EF0128969C012C5B36
:102D60003F4F49915991699179914D935D936D933D
:102D70007D93A217B307A9F7EC5BFF4F4081518108
:102D8000628173814D935D936D937C931397DF9173
:102D9000CF9108954F925F926F927F928F929F9200
:102DA000AF92BF92CF92DF92EF92FF921F93CF9399
:102DB000DF93CDB7DEB7C854D1090FB6F894DEBFA4
:102DC0000FBECDBF1092B8021092B70288EE93E00A
:102DD000A0E0B0E08093B9029093BA02A093BB0246
:102DE000B093BC028AE092E09093B6028093B50261
:102DF00085EC90E09093C2028093C10284EC90E055
:102E00009093C4028093C30280EC90E09093C6023A
:102E10008093C50281EC90E09093C8028093C70232
:102E200082EC90E09093CA028093C90286EC90E015
:102E30009093CC028093CB021092CE021092CF02DC
:102E40001092D0021092D1021092280685E3882EAB
:102E50008EE5982E8AEFA82E8EE3B82E80922A0651
:102E600090922B06A0922C06B0922D0615E010939E
:102E7000290690E5E92E92E0F92EF0922706E092DD
:102E80002606109270068092720690927306A092A7
:102E90007406B092750610937106F0926F06E09278
:102EA0006E061092B80620ED422E24E4522E28ED34
:102EB000622E2CE3722E4092BA065092BB066092AC
:102EC000BC067092BD061093B90630E5C32E32E001
:102ED000D32ED092B706C092B60680E48B838D8243
:102EE0009E82AF82B8861C83FA82E982BE016F5F40
:102EF0007F4F8EE696E00E9495168FE38B838D823E
:102F00009E82AF82B8861C83FA82E982BE016F5F1F
:102F10007F4F86E296E00E9495168EE38B834D826A
:102F20005E826F8278861C83DA82C982BE016F5FFF
:102F30007F4F86EB96E00E9495168EE28093FE0608
:102F40008FE28093FF061092250680E090E0A6E9CC
:102F5000B2E48093000790930107A0930207B09317
:102F6000030710922C0710922D0710922E07E4E011
:102F7000F7E0119211921192119287E0EC32F8076A
:102F8000C1F761E08FE20E94480810925703109247
:102F90007E0510927F051092800510929F05109279
:102FA0009E0580E58093A4051092A5051092A605C4
:102FB0008AE28093A8051092AC058EE292E090938D
:102FC000A1058093A0051092B1051092B50510924D
:102FD000B40588EE93E0A0E0B0E08093B60590934E
:102FE000B705A093B805B093B9051092BE0510922D
:102FF000BF051092C0058CE192E09093B3058093D9
:10300000B20580E196E09093FD058093FC0581E395
:103010008093010682E38093FE0581E080930006A1
:1030200085E38093FF0510920206C85BDF4F0FB661
:10303000F894DEBF0FBECDBFDF91CF911F91FF90FF
:10304000EF90DF90CF90BF90AF909F908F907F9048
:103050006F905F904F900895CF93DF93CDB7DEB719
:10306000EB970FB6F894DEBF0FBECDBF789484B552
:10307000826084BD84B5816084BD85B5826085BD74
:1030800085B5816085BD80916E00816080936E0002
:1030900010928100809181008260809381008091F4
:1030A00081008160809381008091800081608093A5
:1030B00080008091B10084608093B1008091B00065
:1030C00081608093B0008091910082608093910034
:1030D0008091910081608093910080919000816047
:1030E000809390008091A10082608093A1008091E4
:1030F000A10081608093A1008091A00081608093F5
:10310000A0008091210182608093210180912101A2
:103110008160809321018091200181608093200152
:1031200080917A00846080937A0080917A00826036
:1031300080937A0080917A00816080937A008091F8
:103140007A00806880937A001092C100E091C502F5
:10315000F091C60282E08083E091C102F091C20248
:103160001082E091C302F091C40280E1808310924A
:10317000CD02E091C902F091CA0286E08083E0911D
:10318000C702F091C802808180618083E091C7020C
:10319000F091C802808188608083E091C702F0913D
:1031A000C802808180688083E091C702F091C802E4
:1031B00080818F7D808386E296E00E94C40A8EE63D
:1031C00096E00E94C40A86EB96E00E94C40A61E081
:1031D0008091FE060E94900961E08091FF060E94A6
:1031E000900961E0809101060E949009A091FE057E
:1031F000B0E020E432E44FE050E00E944D216B014A
:103200007C01109100068091FF051092A905109293
:10321000A6051092A8051092AC058093A70561E061
:103220000E94900961E08091A7050E94480882E50C
:103230008093A4051092A5050FB7F8948091B2026F
:10324000811127C0EBE4F3E08491E1E9F3E094918C
:10325000E82FF0E0EE0FFF1FEE51FD4FA591B49166
:10326000EC91E92321F461E085E30E94480861E0E4
:1032700085E30E9490098CB580618CBD8CB580641B
:103280008CBD61E084E30E94900961E083E30E94C9
:1032900090098091B2028F5F8093B2020FBF81E0EC
:1032A0008093A6051092AA0580EA95E00E944B093A
:1032B00061E08091A7050E9448080AE08FEF0E9414
:1032C00014040150D9F760E08091A7050E944808D6
:1032D0000AE020E030E0A90160E080EA95E00E9489
:1032E0005B0BB82EAA24A3948A15D1F1015079F56D
:1032F00081E08093A80580EA95E00E94D40880EAE6
:1033000095E090939F0580939E058091A80581117B
:1033100018C061E080EA95E00E94C002882309F4A9
:10332000A8C08EE795E00E94410610927E0510929B
:10333000800562E573E08EE795E00E94CD1581116E
:10334000A0C061E0809101060E944808A3C0BB2490
:10335000BA948FEF0E941404BA94B110FACFB9CF87
:103360002AEA31E040E050E068E080EA95E00E941F
:103370005B0B82FD0EC082E08093AC0504E00E94EE
:103380001B048093AB050150D1F78A3A21F086E007
:10339000B0CFB092AC058091AC05412C512C612C82
:1033A00030E4732E823019F0412C512C32010E94EE
:1033B000FB0A5B0120E3A21A28EFB20A20E030E00A
:1033C000A90167E380EA95E00E945B0BA3019201EB
:1033D00069E280EA95E00E945B0B082F882349F0A0
:1033E0000E94FB0AC501861B970B97FFE7CF87E179
:1033F00080CF8091AC058230D1F420E030E0A9018B
:103400006AE380EA95E00E945B0B882311F082E179
:1034100070CF0E941B04807C803C19F483E0809371
:10342000AC050E941B040E941B040E941B0480EA3E
:1034300095E00E94D40880E092E1AAE7B0E0C816C7
:10344000D906EA06FB0640F4B695A79597958795A9
:103450000F5F0630A1F707E0802F806A8695809382
:10346000A405009501700093A50511701093B10596
:1034700046CF60E080EA95E00E94C002811151CF02
:1034800060CF82E593E09093A4028093A30281E051
:103490008093020662E572E083E096E00E94CB230F
:1034A000DD24D3941AE0412E512C612C712CAE01F5
:1034B0004F5F5F4F7A01BE01695C7F4F78AF6FABA2
:1034C00085EB92E00E943B0F181619060CF033C1F1
:1034D00085EB92E00E94190F8A3059F09091A20278
:1034E000E92FF0E0E856FD4F80839F5F9093A202A2
:1034F000E7CF809198028F3609F40AC1823709F428
:10350000F5C0843609F00EC189E992E00E94981E48
:103510005C01809325068C011127C090FE0661E0B6
:103520008C2D0E9490090115110529F460E08C2D65
:103530000E9448082BC00F3F110511F461E0F7CF3E
:10354000EC2DF0E0EE55FC4FE491E150E23108F053
:10355000C8C0F0E08827E055F54E8F4F0C94452108
:10356000C21ADF1AE41AEE1AF81A711B021B0A1BA0
:10357000121B1C1B261B301B3F1B491B711B531BA3
:103580005D1B671B84B5806884BDA7BCD0922C07E7
:10359000109298021092990210929A0210929B0235
:1035A00010929C0210929D0210929E0210929F0215
:1035B0001092A0021092A1021092A20281CF84B5B3
:1035C000806284BDA8BCE2CF809180008068809337
:1035D00080001093890000938800D8CF80918000EC
:1035E00080628093800010938B0000938A00CECF7E
:1035F0008091800088608093800010938D000093FC
:103600008C00C4CF8091B00080688093B000A092FD
:10361000B300BCCF8091B00080628093B000A092D4
:10362000B400B4CF80919000806880939000109394
:10363000990000939800AACF8091900080628093B7
:10364000900010939B0000939A00A0CF809190006F
:1036500088608093900010939D0000939C0096CF0B
:103660008091A00080688093A0008091A0008F7B53
:103670008093A0001093A9000093A80087CF8091A9
:10368000A00080628093A0001093AB000093AA007A
:103690007DCF8091A00088608093A0001093AD0042
:1036A0000093AC0073CF809120018068809320014B
:1036B000109329010093280169CF80912001806235
:1036C0008093200110932B0100932A015FCF8091FA
:1036D000200188608093200110932D0100932C011C
:1036E00055CF003811050CF029CF20CF8091FF066F
:1036F00090912E07992331F061E00E9448081092C2
:103700002E0746CF60E00E944808D0922E0740CF97
:1037100060E08091FE060E944808109225061092F3
:103720002C0736CF8EE592E00E94651087E892E084
:103730000E9465102DCF0E94FB0A0091A5021091F6
:10374000A6022091A7023091A802601B710B820B88
:10375000930B693E73408105910508F4D9C10E941D
:10376000FB0A6093A5027093A6028093A702909330
:10377000A80286E296E00E94DE0960916A067091D6
:103780006B0680916C0690916D0600E116E022E0D8
:1037900046E00E947A1E8EE696E00E94DE09609165
:1037A000B2067091B3068091B4069091B50607E118
:1037B00016E022E046E00E947A1E86EB96E00E9428
:1037C000DE096091FA067091FB068091FC069091EB
:1037D000FD060EE116E022E046E00E947A1E80918E
:1037E0002C078823E9F020916A0630916B064091FE
:1037F0006C0650916D0660910007709101078091F1
:103800000207909103070E94672187FF09C060E0CB
:103810008091FE060E9448081092250610922C07FF
:1038200080912C07882309F43AC1809102068823ED
:1038300009F435C1E091A302F091A402309709F494
:1038400029C119821A821B828091BE05811122C171
:10385000E45DFD4F8081807D09F41CC180910306E9
:10386000A3E0B6E08F3209F466C0CF0103E016E0B2
:103870009801F901B190B0E2BB1609F44CC13BA329
:103880002AA319A618A66EA17FA1D90150E040E095
:10389000FD011191112319F01F3209F03EC159A702
:1038A00048A77FA36EA3415051094F3F510508F02F
:1038B000F1C08D014C9111964032D9F34F32C9F3CA
:1038C000FE01BC96B0E2AB2EA192AFA9B8ADAE1787
:1038D000BF07C1F7CC24C394BEE2BB1201C0C12C08
:1038E000F9012F5F3F4F50815E32D1F39B01215090
:1038F0003109E217F30720F4D9015C915E32B9F780
:10390000B12C57E0852E19AE912CA8E03A2EE6177F
:10391000F70708F066C150815E3209F021C12E1709
:103920003F0709F025C15AE0852EA8E0A9AFA0E124
:103930003A2E3196ECCF8D018D918F32E1F3668175
:1039400077818111A2C08EEB95E00E94CD159091F8
:103950000106882309F49EC060E0892F0E94480870
:103960008091FC059091FD059C01225F3F4F3F93A4
:103970002F93275031093F932F939F938F938AE87A
:1039800092E09F938F931F928EE18F938EED95E03F
:103990009F938F930E94D2230FB6F894DEBF0FBE81
:1039A000CDBF80919E0590919F05DC01ED91FC912A
:1039B0000680F781E02D19958111F3CF4DE150E09C
:1039C0006EED75E08EEB95E00E941A128091C005B5
:1039D00081FF4EC08091DA059091DB05A091DC0556
:1039E000B091DD050097A105B10509F441C04091F2
:1039F000CA055091CB056091CC057091CD0541155C
:103A000051056105710509F430C119821A821B82C2
:103A10001C8297018091C4059091C5050E940F05F5
:103A200087FD26C0882309F42CC18091C40590919C
:103A3000C5054091CA055091CB056091CC057091A8
:103A4000CD05423051056105710590F0FC01018DF5
:103A5000128D238D348D041715072607370740F084
:103A60000FEF1FEF2FEF3FE00E942604811109C1E5
:103A70008EEB95E00E9441068EEB95E00E94410698
:103A80001092BE051092C0050AC0C7010E94CD1554
:103A90008111CDC061E0809101060E94480820910B
:103AA000250630E050E040E019A28E010F5D1F4F67
:103AB000CA01B901A30192010E942321605DD801CE
:103AC0006E938D01211531054105510589F7109738
:103AD00019F0CD010E94651086E992E00E94651000
:103AE0008EE196E00E94651086E992E00E946510E2
:103AF00087E196E00E94651086E992E00E946510D9
:103B000080E196E00E94651087E892E00E946510CF
:103B10000E94E00FD5CC9F01ACCE10320CF4BACF8E
:103B2000A12FA77FA23209F4B5CF1A3309F4B2CF7F
:103B3000A12FAF7BAC3309F4ADCFA2ECA10FA23023
:103B400008F4A8CF1C3509F4A5CFDF01A21BB30BE5
:103B50001E3221F0103211F0BF01AD01DF0198CE0D
:103B60005232A1F05C3791F0B5EAB50FB33070F086
:103B7000B6EDB50FB63010F45D3241F4B6ECB50FCA
:103B8000B63020F0BFEDB50FBE3530F0507C503868
:103B900009F0A3C0C12CCDCEB9AD8B1650F4BAE05C
:103BA000AB2E8A14E9F02E173F07D0F0F9013197B8
:103BB000F1CFBFE9B50FBA3108F095C05052B32824
:103BC00029AC2394ACE2B0E0AC0FBD1FA9ACAA0DA8
:103BD000B11D5C9356E0521508F02AA629AEA9CE75
:103BE000C12C2CA5203209F455CFCC2011F19B20FB
:103BF00011F022E0B22EBBA6442381F140E0BE01C9
:103C00006E5D7F4F0E941F14882309F443CF80E22A
:103C1000EEEBF5E0D70101900D928A95E1F78EEB7E
:103C200095E00E9441061092BE051092C005C701A2
:103C30001FCEDBA62AA530E0ECE2F0E0EC0FFD1F82
:103C4000E20FF31F5EE75083EDE2F0E0EC0FFD1FA3
:103C50002E0F3F1F51E3D9015C93CECF41E0BE014F
:103C60006E5D7F4F0E941F1472CE89839A83AB834F
:103C7000BC831092DA051092DB051092DC051092DD
:103C8000DD0549815A816B817C81411551056105B2
:103C90007105D1F48091CE059091CF05A091D0050A
:103CA000B091D1058093D6059093D705A093D80500
:103CB000B093D9058091C00580688093C0058EEBD4
:103CC00095E00E944106D4CE8091C4059091C5052F
:103CD0000E94DE058111DECFCBCEB9ADC12C5FE5F0
:103CE0008B1608F45CCFBFEBB50FBA3108F068CF84
:103CF000932866CFEF920F931F93CF93DF93E80142
:103D000034E047FD34E1042E000C550B57FF03C08F
:103D1000519541955109E32E022F242FAE010E94A7
:103D2000BE1ECE01DF91CF911F910F91EF900895AC
:103D3000FC0188279927E89421912032E9F3293062
:103D400010F02E30C8F32B3241F02D3239F4689444
:103D500004C00E94B61E820F911D219120532A306B
:103D6000C0F31EF4909581959F4F08957AE0979F38
:103D7000902D879F802D910D112408958F929F92F1
:103D8000AF92BF92CF92DF92EF92FF920F931F9369
:103D9000CF93DF9300D000D000D0CDB7DEB76A015B
:103DA000F22EB02E102FFBE3AF2EA01608F41BE36B
:103DB0001F5F012F27E0AE014F5F5F4F0E9437204A
:103DC000BC018981982F9970913009F44EC09BE213
:103DD000E1FC04C09E2D9170E0FC49C05E2D507145
:103DE000E82FE87083FF55C084E0911101C083E0A3
:103DF000EF2DE81B8F1508F0E0E0D6018E2F20E2B2
:103E00005523C9F1992329F0D6019C93C601019647
:103E10006C0196012D5F3F4FE2FE33C08EE4D60168
:103E20008C9391E411969C93119712968C93D901DF
:103E30008E2F90E281112AC0E20FF32FF11D108224
:103E40008EEF9FEF29960FB6F894DEBF0FBECDBF61
:103E5000DF91CF911F910F91FF90EF90DF90CF9066
:103E6000BF90AF909F908F9008959DE2B7CF90E262
:103E7000B5CF2D9381508111FCCFCE0ED11CE0E047
:103E8000C1CF8EE6D6018C9391E6CCCF9D93815025
:103E9000D1CF482F447082FF3DC084E0911101C012
:103EA00083E08F1510F4EF2DE81BD6018E2F20E252
:103EB000552309F1992329F0D6019C93C601019657
:103EC0006C0196012D5F3F4FE2FE1BC089E4D601D5
:103ED0008C938EE411968C93119786E412968C93B2
:103EE000D9018E2F90E2882309F4A6CF9D938150AB
:103EF000FACF2D9381508111FCCFCE0ED11CE0E082
:103F0000D9CF89E6D6018C938EE611968C931197C2
:103F100086E6E4CF9B0177FF02C030E020E0A1E01D
:103F2000B0E0911102C0B0E0A0E0F9013196AE0F0F
:103F3000BF1F8B2C912CBB2009F461C05401EFEF03
:103F4000AE1ABE0AAA0DBB1DFA161B0619F014F014
:103F50004F2D4A1B511188C0E3FC59C07601A42F94
:103F6000B0E2A1114FC0C40ED11C992309F45BC06B
:103F700040E0D6011196F60190836D01552309F4B6
:103F800048C0012F060F9A81582F507184FF03C03B
:103F9000913309F4015010160CF047C0093008F0B5
:103FA00008E0EEE2FE2E5B01A01AB10885019194B3
:103FB000819491082F3F320729F4D601FC92F60133
:103FC00031966F016217730794F1021713077CF59E
:103FD000DB01A21BB30BAA24A394B12CAC0EBD1E13
:103FE000AA0DBB1D11968C9121503109D601119655
:103FF00028153905F4F0F60180836D01DBCFB12C73
:10400000A12CA0CFF701B1937F01A150AACF9111AC
:10401000B0CFD601942F50E302C05D93915091111F
:10402000FCCFC40ED11C40E0ACCF01E0BACF80E39E
:10403000DBCF6217730731F4963388F4953311F4AC
:10404000552369F0F6018083FD01842F90E28111F0
:1040500008C0A40FB11D1C9290E080E0F3CE81E374
:10406000F1CF91938150F3CF911183CF8ACF283034
:1040700008F027E03327DA01990F311D87FD9160A1
:1040800000966105710539F432602E5F3D9330E38F
:104090002A95E1F708959F3F30F08038710561055A
:1040A00009F03C5F3C5F3D93913008F08068911DC2
:1040B000DF93CF931F930F93FF92EF92192F987F67
:1040C0009695E92F96959695E90FFF27EE5BFD4FA4
:1040D00099273327EE24FF24A701E70105900894D0
:1040E000079428F4360FE71EF81E491F511D660F6E
:1040F000771F881F991F0694A1F70590079428F44D
:10410000E70EF81E491F561FC11D770F881F991F04
:10411000661F0694A1F70590079428F4F80E491F2E
:10412000561FC71FD11D880F991F661F771F069442
:10413000A1F70590079420F4490F561FC71FD81FF9
:10414000990F661F771F881F0694A9F78491109511
:10415000177041F0D695C79557954795F794E79412
:104160001A95C1F7E8EEF1E0689415901591359134
:104170006591959105907FE27395E118F10A430BE3
:10418000560BC90BD009C0F7E10CF11E431F561F97
:10419000C91FD01D7EF4703311F48A95E6CFE894E0
:1041A000015030F0080F0AF40027021708F4202FFE
:1041B0002395022F7A3328F079E37D932A95E9F746
:1041C00010C07D932A9589F6069497956795379543
:1041D00017951794E118F10A430B560BC90BD00938
:1041E00098F023957E9173957A3308F070E37C9371
:1041F0002013B8F77E9170617D9330F0839571E361
:104200007D9370E32A95E1F71124EF90FF900F91D1
:104210001F91CF91DF91992787FD90950895AA1B53
:10422000BB1B51E107C0AA1FBB1FA617B70710F0A1
:10423000A61BB70B881F991F5A95A9F780959095D3
:10424000BC01CD010895A1E21A2EAA1BBB1BFD01E2
:104250000DC0AA1FBB1FEE1FFF1FA217B307E40765
:10426000F50720F0A21BB30BE40BF50B661F771FBD
:10427000881F991F1A9469F760957095809590959D
:104280009B01AC01BD01CF010895EE0FFF1F881FF8
:104290008BBF0790F691E02D19940E945821A59F9D
:1042A000900DB49F900DA49F800D911D1124089531
:1042B000A29FB001B39FC001A39F700D811D112467
:1042C000911DB29F700D811D1124911D08950E94B2
:1042D000A92108F481E00895E89409C097FB3EF411
:1042E00090958095709561957F4F8F4F9F4F992343
:1042F000A9F0F92F96E9BB279395F69587957795C1
:104300006795B795F111F8CFFAF4BB0F11F460FF80
:104310001BC06F5F7F4F8F4F9F4F16C0882311F0D8
:1043200096E911C0772321F09EE8872F762F05C0EC
:10433000662371F096E8862F70E060E02AF09A9587
:10434000660F771F881FDAF7880F9695879597F97C
:104350000895990F0008550FAA0BE0E8FEEF161616
:104360001706E807F907C0F012161306E407F50769
:1043700098F0621B730B840B950B39F40A2661F0DD
:10438000232B242B252B21F408950A2609F4A14080
:10439000A6958FEF811D811D08950E94A92108F423
:1043A0008FEF08950E94E5210C9456220E94482226
:1043B00038F00E944F2220F0952311F00C943F22F8
:1043C0000C94452211240C948A220E94672270F3D7
:1043D000959FC1F3950F50E0551F629FF001729FAA
:1043E000BB27F00DB11D639FAA27F00DB11DAA1FB9
:1043F000649F6627B00DA11D661F829F2227B00D06
:10440000A11D621F739FB00DA11D621F839FA00D90
:10441000611D221F749F3327A00D611D231F849FE0
:10442000600D211D822F762F6A2F11249F57504037
:104430009AF0F1F088234AF0EE0FFF1FBB1F661FB2
:10444000771F881F91505040A9F79E3F510580F07B
:104450000C943F220C948A225F3FE4F3983ED4F3FD
:10446000869577956795B795F795E7959F5FC1F71F
:10447000FE2B880F911D9695879597F9089597F9CA
:104480009F6780E870E060E008959FEF80EC0895FA
:1044900000240A9416161706180609060895002423
:1044A0000A9412161306140605060895092E03949D
:1044B000000C11F4882352F0BB0F40F4BF2B11F411
:1044C00060FF04C06F5F7F4F8F4F9F4F089557FD70
:1044D0009058440F551F59F05F3F71F04795880F72
:1044E00097FB991F61F09F3F79F087950895121609
:1044F00013061406551FF2CF4695F1DF08C01616B5
:1045000017061806991FF1CF869571056105089465
:104510000895E894BB2766277727CB0197F908957C
:104520000F931F93CF93DF938230910510F482E0B5
:1045300090E0E0913107F091320730E020E0B0E008
:10454000A0E0309799F42115310509F44AC0281BE1
:10455000390B24303105D8F58A819B8161157105AD
:1045600089F1FB0193838283FE0111C04081518157
:104570000281138148175907E0F04817590799F449
:10458000109761F012960C93129713961C93329623
:10459000CF01DF91CF911F910F91089500933107C3
:1045A00010933207F4CF2115310551F0421753070C
:1045B00038F0A901DB019A01BD01DF01F801C1CF8B
:1045C000EF01F9CF9093320780933107CDCFFE01F1
:1045D000E20FF31F8193919322503109398328838D
:1045E000D7CF20912F0730913007232B41F4209112
:1045F0000202309103023093300720932F0720915D
:104600000002309101022115310541F42DB73EB76A
:104610004091040250910502241B350BE0912F07B5
:10462000F0913007E217F307A0F42E1B3F0B281779
:10463000390778F0AC014E5F5F4F2417350748F01B
:104640004E0F5F1F5093300740932F078193919334
:104650009FCFF0E0E0E09CCFCF93DF930097E9F0AD
:10466000FC01329713821282A0913107B091320778
:10467000ED0130E020E01097A1F420813181820F1C
:10468000931F20912F07309130072817390709F021
:1046900061C0F0933007E0932F07DF91CF91089529
:1046A000EA01CE17DF07E8F54A815B819E014115DB
:1046B0005105B1F7E901FB83EA8349915991C40F90
:1046C000D51FEC17FD0761F4808191810296840F5C
:1046D000951FE90199838883828193819B838A83D3
:1046E000F0E0E0E012968D919C9113970097B9F558
:1046F0002D913C911197CD010296820F931F20912D
:104700002F07309130072817390739F6309751F5C0
:104710001092320710923107B0933007A0932F0701
:10472000BCCFD383C28340815181840F951FC817AA
:10473000D90761F44E5F5F4F88819981480F591FF7
:10474000518340838A819B81938382832115310524
:1047500009F0B0CFF0933207E09331079ECFFD010F
:10476000DC01C0CF13821282D7CFFB01DC0104C071
:104770008D910190801921F441505040C8F7881B59
:10478000990B0895FB01DC0102C001900D9241508C
:104790005040D8F70895FB01DC0101900D920020F4
:1047A000E1F708950F931F93CF93DF93CDB7DEB753
:1047B0002E970FB6F894DEBF0FBECDBF0E891F89AE
:1047C000888D998D26E02C831A83098397FF02C078
:1047D00080E090E801979E838D83AE01445E5F4F39
:1047E0006A8D7B8DCE0101960E940F244D815E81E2
:1047F00057FD0AC02F813885421753070CF49A01E0
:10480000020F131FF80110822E960FB6F894DEBF28
:104810000FBECDBFDF91CF911F910F9108952F92C1
:104820003F924F925F926F927F928F929F92AF9240
:10483000BF92CF92DF92EF92FF920F931F93CF938D
:10484000DF9300D000D000D01F921F92CDB7DEB70B
:104850007C013B018A01FC0117821682838181FF62
:10486000DDC1CE0101965C01F7019381F30193FD57
:10487000859193FF81913F01882309F453C18532CB
:1048800039F493FD859193FF81913F01853229F49D
:10489000B70190E00E942726E7CF912C212C312CE4
:1048A000FFE1F31538F08B3211F190F4803209F109
:1048B000833229F137FC3CC020ED280F2A3050F517
:1048C00036FE20C08AE0989E200D1124922E06C04C
:1048D0008D3291F0803371F7689430F8F30193FDD5
:1048E000859193FF81913F018111DACF21C06894B6
:1048F00031F8689432F8F2CF689433F8EFCF6894C7
:1049000034F8ECCFEAE02E9E200D1124222E68947C
:1049100035F8E4CF8E3229F436FC04C1689436F8B9
:10492000DDCF8C3619F4689437F8D8CF8836B1F2D9
:10493000982F9F7D95549330E0F08336A1F1833713
:10494000C1F1833509F063C02801F2E04F0E511C1C
:10495000F801C080D180692D70E036FC02C06FEF95
:104960007FEFC6010E9411264C01689437F882013E
:104970000AC00C5F1F4FFFE3F98388248394912CB6
:104980006501E89437F833FE2DC0522C8114910450
:1049900071F5552009F468CFB70180E290E00E94DC
:1049A00027265A94F6CFF801808189830E5F1F4F26
:1049B000E4CF2801F2E04F0E511CF801C080D180F5
:1049C000692D70E036FC02C06FEF7FEFC6010E94D8
:1049D0001C264C018201D5CFB70180E290E00E94F5
:1049E00027262A942814190409F0B0F7CECFF6012F
:1049F00037FC859137FE81916F01B70190E00E94ED
:104A0000272651105A94F1E08F1A9108BFCF8436AF
:104A100019F0893609F077C0F80137FE6BC0608164
:104A20007181828193810C5F1F4FF32DFF763F2EA2
:104A300097FF09C090958095709561957F4F8F4F36
:104A40009F4F689437F82AE030E0A5010E9457266E
:104A5000C82ECA188C2C432C36FE0CC0E89440F8A3
:104A6000C91440F434FE05C032FC03C0F32DFE7EB1
:104A70004F2E892C44FEAAC0FE01EC0DF11D808151
:104A8000803309F09CC0242D297E422E842D88700D
:104A9000582E43FCAAC040FEA4C09C2C821418F4DB
:104AA0002C0C922C981844FEA6C0B70180E390E02D
:104AB0000E94272642FE09C088E790E041FE02C01E
:104AC00088E590E0B7010E942726C91408F49FC02A
:104AD000CA94D12C9FEFC91AD90ACA0CDB1CF60163
:104AE00082916F01B70190E00E942726AC14BD04AB
:104AF000B1F74FCF60817181072E000C880B990BA5
:104B00000E5F1F4F92CFD32CE894D4F82AE030E008
:104B10008537E1F1232D297FD22E8F36A9F1F0F4CC
:104B2000883551F1F701868197812B960FB6F8945D
:104B3000DEBF0FBECDBFDF91CF911F910F91FF90D0
:104B4000EF90DF90CF90BF90AF909F908F907F902D
:104B50006F905F904F903F902F900895803749F06D
:104B6000883701F7D4FE02C06894D2F820E130E023
:104B70000DC06894D4F8F6CF34FE03C0822F86604F
:104B8000D82E20E132E002C028E030E0F801D7FE64
:104B90000FC060817181828193810C5F1F4FA501DD
:104BA0000E945726C82ECA183D2CE89437F852CFD9
:104BB0006081718190E080E00E5F1F4FF0CF42FC7A
:104BC00002C0839463CF8394839460CF842D8678CE
:104BD00009F45CCFF6CFB70180E290E00E9427266F
:104BE00083948214C0F3512C5ECF522C5818821437
:104BF00008F459CFF8CF842D867809F466CF8BE27C
:104C000041FE80E247FC8DE2B70190E05CCFB70146
:104C100080E390E00E9427269A9457CF8FEF9FEF72
:104C200084CFFC010590615070400110D8F7809549
:104C300090958E0F9F1F0895FC0161507040019068
:104C40000110D8F7809590958E0F9F1F08950F93B0
:104C50001F93CF93DF93182F092FEB018B8181FDD9
:104C600009C01FEF0FEF812F902FDF91CF911F9180
:104C70000F91089582FF14C02E813F818C819D8108
:104C8000281739073CF4E881F981CF01019699830F
:104C9000888310838E819F8101969F838E83E3CFCB
:104CA000E885F985812F1995892BA1F3DACFFA01CF
:104CB000AA27283051F1203181F1E8946F936E7F5B
:104CC0006E5F7F4F8F4F9F4FAF4FB1E03ED0B4E04C
:104CD0003CD0670F781F891F9A1FA11D680F791F8D
:104CE0008A1F911DA11D6A0F711D811D911DA11D9E
:104CF00020D009F468943F912AE0269F11243019AE
:104D0000305D3193DEF6CF010895462F4770405D48
:104D10004193B3E00FD0C9F7F6CF462F4F70405DF7
:104D20004A3318F0495D31FD4052419302D0A9F752
:104D3000EACFB4E0A6959795879577956795BA954C
:104D4000C9F700976105710508959B01AC010A2E12
:104D500006945795479537952795BA95C9F7620FE9
:0E4D6000731F841F951FA01D0895F894FFCFA8
:104D6E0000003307800000000000730FDD0E0A0FF5
:104D7E00C00F3B0F190F2D0F000000000D140A1469
:104D8E006210301011100412C71100000000331011
:104D9E00E7152B0970090604600DC60DE00CAF0C6B
:104DAE00CE0B5B105410481041103510000000005F
:104DBE00DE09706474363630612E62696E00436FA0
:104DCE006D6D616E6420756E7265636F676E697A64
:104DDE0065642E204E6F20616374696F6E20696E5C
:104DEE00766F6B65642E000D0A0025732C202573DB
:084DFE002C2025730A002C0093
:00000001FF
