:100000000C944E070C947F070C947F070C947F0789
:100010000C947F070C947F070C947F070C947F0748
:100020000C947F070C947F070C947F070C947F0738
:100030000C947F070C947F070C947F070C947F0728
:100040000C947F070C947F070C947F070C947F0718
:100050000C947F070C947F070C947F070C946A2004
:100060000C947F070C94DE200C94B4200C947F0732
:100070000C947F070C947F070C947F070C947F07E8
:100080000C947F070C947F070C947F070C947F07D8
:100090000C947F070C947F070C947F070C947F07C8
:1000A0000C947F070C947F070C947F070C947F07B8
:1000B0000C947F070C947F070C947F070C947F07A8
:1000C0000C947F070C947F070C947F070C947F0798
:1000D0000C947F070C947F070C947F070C947F0788
:1000E0000C947F070C94BC090C942F0F0C94FE1AEF
:1000F0000C944A0C0C94CD130C944F0F0C949B1F32
:100100000C94CE0F0C948A1D0C941F170C94011B99
:100110000C94CB0F0C94C80F0C9489180C9490215C
:100120000C942C0F0C94A5140C94B41B0C94620C1E
:100130000C945D0E0C94F40D0C941E1C0C948E0A01
:100140000C94FD1A0C94ED0A0C943A0C0C94690C66
:100150000C94FE1D0C94D61A0C94E91A0C94390CCC
:100160000C940A1B0C94091F0C94C51D0C94170EBB
:100170000C94560C0C94A50F0C94030E0C94250EA5
:100180000C94D20F0C94AA0E0C94341B0C94C70D33
:100190000C94531E11007F96290001007F962800C1
:1001A0003A0155C0021010C10141C504002280402F
:1001B000360168B00100B102B011B40102B6030209
:1001C000023BB701C63A0155F704A9512C82B70189
:1001D000C6E808408A00002919A533C0020D0DC1E8
:1001E000024300C20100C50400480048B40100B643
:1001F0000302023BE00F0F211C0B0E08499838093F
:100200001103141000E10F0F2F2B0C0E0647763749
:10021000071104231E00B00100B30402000000B463
:100220000100D003074218D103000710D2020102D7
:10023000D3020102D4020102C005123B000211C127
:1002400003101088C50103C60102C80C00323645F0
:100250000616377577540C00CC0100F60301010037
:10026000CF03008130ED0464031281E80385107828
:10027000CB05392C003402F70120EA020000B0015E
:1002800000B102001BB40100C00121C10111C5026F
:100290003F3CC701B5360148F20100260101E00FDD
:1002A0000F26240B0E0954A8460C17090F0700E16E
:1002B0000F00191B0410072A473903060630380FB0
:1002C000360100B80101C0010EB00100C1041010D8
:1002D0000202C006003500000102C50104D202017D
:1002E00004CA0100EA0180B903FF83577F967F9615
:1002F000B60125C0065050013C1E08B4070240005C
:100300002A2A0D787F01F20B161603080808081038
:10031000041616FD03110235B2050C0C003333B779
:100320000135BB012BC00104C20201FFC30111C48E
:100330000120C6010FD002A4A1E00ED000050E15C9
:100340000D3743470915121619E10ED000050D0CA3
:10035000062D44400E1C1816193A01557F0A060056
:100360000700B1020012B40102B60400202700CA3F
:100370000101CB0103C001137F14C501CCC60100EC
:10038000C70104C80103CC0106CD011CF9021515F3
:10039000F3030A020AF603011000FA00FB00E2036D
:1003A0001E0254E001017F0AE001037F0A01007F81
:1003B00064E60303FFFFB0072400031F01DF00B45E
:1003C0000803A0002E30000F00B607020D00101029
:1003D0000008BA010FB8020701F001007F012800F0
:1003E00011007F642900BE0606F001F00000D00174
:1003F0000DB00103E2013FC00122E20100B00100A3
:10040000C0010AB001000000000000000000000070
:10041000000000000000FFFF0F0000040062080061
:1004200008080003000C01030B5A0203060903032A
:1004300017100403002305030017060309630703CD
:10044000090C08030C1009033222100016001100D9
:10045000010112000000130001000001300301013E
:1004600037020301000D800200610201B0C1FFFFED
:1004700032000100000102000001030030100900F9
:1004800001000C000000900000800F00000010022E
:1004900000001102EF001202000013028F0100059C
:1004A00000000105000002055F00010401000404D2
:1004B0000000FFFF320007000001FFFF32000002D2
:1004C0000000010200000000000000000000000029
:1004D000000000000100A4000100FFFF0A0060000E
:1004E00000270800080830001402310015373200D8
:1004F00004063300160E34001122350000153600B4
:1005000007853700071438000314390020009000D5
:1005100015001000100411003702290046002A00BF
:100520004600070000001200890113000011FFFFC0
:1005300096001200B9010100000102000002030050
:100540003010090001000A0000000D0000000E003C
:100550003000610001006A0000008000000081009E
:10056000000082005F009200000193000107FFFF7E
:10057000500007000001E500F078010000010200D2
:100580000002030030100400000005000000080015
:100590000702090000000A0000000C0000000D0026
:1005A00000000F0000001000000011000700120002
:1005B00000001300000007000100FFFFC80010004A
:1005C000901611002702FFFF320012000D00FFFFFE
:1005D00032001300001229000A002B000D00FFFF5B
:1005E0003200200000002100000030000000310037
:1005F0000404320003003500050436000808370003
:10060000070438000303390007073C0004053D00D8
:10061000080860000027610001006A0000008000F7
:1006200000008100000082000000830000008400C0
:1006300000008500000090001000920000000700FC
:100640003301E5000080000001000100000102000C
:100650000007030030100400000008000202090037
:1006600000000A0000000C0000000D0000000F0058
:10067000000010000000110007001200000013002D
:100680000000FFFF32001000B01711000700FFFF4D
:100690000A0012003A01FFFF0A001300001A2900A5
:1006A0000C00FFFF0A003000000031000505320099
:1006B0000400350006003600070737000501380042
:1006C0000200390007073C0004073D0007086000EE
:1006D00000A7610001006A00000021000000200066
:1006E0000000800000008100000082000000830004
:1006F00000008400000085000000900010009200BF
:10070000000093000300950010019700000098007E
:10071000000007007301FFFF32000100000102002A
:1007200000070300301008000203090000000A005F
:100730000800100000001100050012000000130066
:100740000000FFFF64001000B012FFFF3200110034
:100750000700FFFF320012008C0013000017290071
:100760002000FFFF3200300000003100060132009F
:100770000101350006013600030237000000380091
:100780000707390004023C0006013D000301600038
:1007900000A7610001009000300007003301FFFF57
:1007A0003200150030009A001000110020001000E7
:1007B00028341200020013003810FFFF2800120036
:1007C0001200FFFF28001000203413004530FFFF07
:1007D00046003000000031000204320007033300FD
:1007E0000403340004003500010436000707370015
:1007F0000503380010063900100601000001020050
:10080000000303003010080008080A000800600018
:1008100000276100010090003E019200000193005A
:100820000001A0000030A300100007000100070035
:1008300021000700230007003300070033011100E7
:100840001A001200213113006C00140049421000FC
:100850000008FFFF0A0011001A01FFFF0A00110043
:100860001A03FFFF0A0011001A07FFFF0A00110018
:100870001A0FFFFF0A0011003A0FFFFF1E000100D0
:1008800028010200000103003010070012100800C8
:1008900003030B0000110C0000000F0001181500ED
:1008A00020005000010151000306520008045300CB
:1008B00000005400050655000604560003035700C7
:1008C0000303580010005900001007001200FFFF3A
:1008D0002800070013000700170000002100240073
:1008E00027002A002D003000330001010000040120
:1008F00007010A0100000000003E5B4F5B3E3E6BBB
:100900004F6B3E1C3E7C3E1C183C7E3C181C577DA9
:10091000571C1C5E7F5E1C00183C1800FFE7C3E7F5
:10092000FF0018241800FFE7DBE7FF30483A060E07
:100930002629792926407F050507407F05253F5A4E
:100940003CE73C5A7F3E1C1C08081C1C3E7F1422BE
:100950007F22145F5F005F5F06097F017F00668969
:10096000956A606060606094A2FFA29408047E04AF
:100970000810207E201008082A1C08081C2A0808D5
:100980001E101010100C1E0C1E0C30383E38300695
:100990000E3E0E06000000000000005F0000000791
:1009A000000700147F147F14242A7F2A12231308BF
:1009B000646236495620500008070300001C22419B
:1009C000000041221C002A1C7F1C2A08083E08083F
:1009D00000807030000808080808000060600020EF
:1009E000100804023E5149453E00427F40007249D2
:1009F0004949462141494D331814127F1027454576
:100A000045393C4A4949314121110907364949498B
:100A100036464949291E00001400000040340000F9
:100A20000008142241141414141400412214080262
:100A3000015909063E415D594E7C1211127C7F49D5
:100A40004949363E414141227F4141413E7F49492A
:100A500049417F090909013E414151737F08080856
:100A60007F00417F41002040413F017F0814224127
:100A70007F404040407F021C027F7F0408107F3E81
:100A80004141413E7F090909063E4151215E7F09EE
:100A9000192946264949493203017F01033F404055
:100AA000403F1F2040201F3F4038403F6314081440
:100AB0006303047804036159494D43007F41414178
:100AC0000204081020004141417F04020102044059
:100AD00040404040000307080020545478407F28DD
:100AE0004444383844444428384444287F385454D3
:100AF000541800087E090218A4A49C787F080404F6
:100B00007800447D40002040403D007F1028440094
:100B100000417F40007C047804787C080404783825
:100B200044444438FC1824241818242418FC7C0855
:100B3000040408485454542404043F44243C4040D2
:100B4000207C1C2040201C3C4030403C4428102885
:100B5000444C9090907C4464544C440008364100CE
:100B60000000770000004136080002010204023C48
:100B70002623263C1EA1A161123A4040207A385417
:100B80005455592155557941225454784221555490
:100B9000784020545579400C1E52721239555555E3
:100BA00059395454545939555454580000457C41CE
:100BB0000002457D420001457C407D1211127DF00E
:100BC000282528F07C545545002054547C547C0A38
:100BD000097F4932494949323A4444443A324A4801
:100BE00048303A4141217A3A42402078009DA0A005
:100BF0007D3D4242423D3D4040403D3C24FF242457
:100C0000487E4943662B2FFC2F2BFF0929F620C075
:100C1000887E090320545479410000447D413048C6
:100C2000484A32384040227A007A0A0A727D0D1909
:100C3000317D2629292F28262929292630484D406B
:100C400020380808080808080808382F10C8ACBA67
:100C50002F102834FA00007B000008142A142222E6
:100C6000142A14085500550055AA55AA55AAFF552F
:100C7000FF55FF000000FF00101010FF00141414B7
:100C8000FF001010FF00FF1010F010F0141414FCFF
:100C9000001414F700FF0000FF00FF1414F404FC1C
:100CA000141417101F10101F101F1414141F0010FD
:100CB0001010F0000000001F101010101F10101076
:100CC00010F010000000FF10101010101010101085
:100CD000FF10000000FF140000FF00FF00001F10C5
:100CE000170000FC04F414141710171414F404F47F
:100CF0000000FF00F714141414141414F700F71470
:100D00001414171410101F101F141414F4141010BE
:100D1000F010F000001F101F0000001F1400000062
:100D2000FC140000F010F01010FF10FF141414FF5A
:100D3000141010101F00000000F010FFFFFFFFFF55
:100D4000F0F0F0F0F0FFFFFF0000000000FFFF0FE9
:100D50000F0F0F0F3844443844FC4A4A4A347E028D
:100D6000020606027E027E0263554941633844440E
:100D70003C04407E201E2006027E020299A5E7A5C3
:100D8000991C2A492A1C4C7201724C304A4D4D3034
:100D90003048784830BC625A463D3E494949007E59
:100DA0000101017E2A2A2A2A2A44445F44444051F0
:100DB0004A444040444A51400000FF0103E080FFA4
:100DC000000008086B6B083612362436060F090F30
:100DD00006000018180000001010003040FF01014C
:100DE000001F01011E00191D1712003C3C3C3C0075
:100DF00000000000010210202008081020401020F0
:100E000040800201020108040201010204081020CE
:100E100040808040201008040201800402018040CC
:100E20002010080402010804020101020408102035
:100E300040800102040810204080000022002500AC
:100E400028002B002E0031003400020100000501B3
:100E500008010B0105050505070508080808020239
:100E600002020A0A08080404040401010101010144
:100E700001010303030303030303040707070C0C27
:100E80000C0C0C0C0C0C02020202060606060606EE
:100E900006060B0B0B0B0B0B0B0B902111241FBE2B
:100EA000CFEFD1E2DEBFCDBF00E00CBF13E0A0E08A
:100EB000B2E0E8E5F6E600E00BBF02C007900D9255
:100EC000A232B107D9F725E0A2E2B3E001C01D923A
:100ED000AD3DB207E1F717E0CEE4D7E000E006C091
:100EE00021970109802FFE010E94252ECD34D107C4
:100EF00080E00807A9F70E94AE230C942A330C94D3
:100F000000000895FC016370668B848195812681C1
:100F10003781613039F0633029F0918780873387DA
:100F200022870895318720879387828708952F929B
:100F30003F924F925F926F927F928F929F92AF9269
:100F4000BF92CF92DF92EF92FF920F931F93CF93B6
:100F5000DF93CDB7DEB76A970FB6F894DEBF0FBE4A
:100F6000CDBF9A8F898F7A8369834A01D22E1887E1
:100F70000F833701BC2CDC0159962D913C915A9777
:100F80002115310509F015C118968D919C9119977D
:100F9000681779070CF0D7C11A968D919C91481764
:100FA00059070CF0D0C14C2C512CB6E0CB9E600DF3
:100FB000711D11247C876B87161617060CF0C3C1B0
:100FC000EA2DF0E0FA87E98793E0EE0FFF1F9A958C
:100FD000E1F7F88BEF87CF01840F951F18161906DC
:100FE0000CF0B1C1A98DBA8D58968C91811104C0B5
:100FF000BFEABD1508F4D394A98DBA8DED91FC918B
:1010000011970284F385E02DCD011995B5E0DB9EA3
:10101000C0011124E981FA81FC83EB83312C212C5E
:101020009C012C50374F388F2F8B4A2D50E05E8B10
:101030004D8BEF89F88DE20DF31D44919E828D82D8
:10104000D12CC12C69817A81620D731D7A8B698BD9
:10105000842F90E09C8B8B8BE98DFA8DA081B181E0
:1010600040FF82C0F1E0BF126FC0AF126DC01C968E
:10107000ED91FC912F813885A4014C0D5D1D69898E
:101080007A89898D9A8D1995EB89FC89F595E79573
:101090004E2F5FEFC51AD50A6D817E818D899E899D
:1010A000680F791F7E836D8398E0C916D10481F69D
:1010B000AFEF2A1A3A0AEB81FC81E40DF51DFC839F
:1010C000EB83F5E02F16310409F0B3CF2F8138857B
:1010D00026153705B9F0A98DBA8DED91FC91B1E0D7
:1010E000BB1257C0AB1255C069817A816B5F7F4FCD
:1010F0000088F189E02D830128E030E0A401898D8A
:101100009A8D1995A98DBA8DED91FC91119706884C
:10111000F789E02DCD016A960FB6F894DEBF0FBEB9
:10112000CDBFDF91CF911F910F91FF90EF90DF9096
:10113000CF90BF90AF909F908F907F906F905F9077
:101140004F903F902F9019941E96ED91FC91EF8057
:10115000F88409851A8592014D815E816B817C81BD
:10116000898D9A8D199590CF2F8138852615370551
:1011700009F48ACF31E0B31207C0A31205C01C9650
:10118000ED91FC91930178CF1E96ED91FC91730146
:10119000E0CF6B857C85641975090684F785E02DA1
:1011A00073010F8518899201A401898D9A8D199573
:1011B000A9CFF90134969491329745915491D91A57
:1011C000B7E0DB9E400D511D1124F90125913491AA
:1011D0003C8B2B8BFA0125903490FA013296749057
:1011E00031963491398B329664903196449041E037
:1011F0004C1518F04A1508F07FC0662D062C000C1F
:10120000770B7C836B83842D042C000C990B9E83BD
:101210008D83A98DBA8DED91FC9111970284F38590
:10122000E02DCD011995512CD12CC12CEA2DF0E0E7
:10123000FA87E9872B2D30E03C872B87A401440DEA
:10124000511D47FC5A95588F4F8B69817A81660DE5
:10125000711D67FC7A957E876D877989C71608F0BE
:1012600051CF2C2D30E04D815E81420F531FA98557
:10127000BA854A9FC0014B9F900D5A9F900D112433
:10128000FC01E80DF91DF88BEF87852D612C4F8946
:10129000588D420F531F5E8B4D8B671408F050C062
:1012A00044244394480E877041F4C1010196EB89B0
:1012B000FC89E20DF31DD4901C01D7FE19C0A98D45
:1012C000BA8DED91FC91662D70E0B1E0BB1219C0B2
:1012D000AB1217C02D853E85620F731F0484F58500
:1012E000E02D2F8138854D895E89898D9A8D1995DC
:1012F000DD0C6394842DD1CF1E821D821C821B8243
:1013000088CF4B815C81640F751FAB85BC856A9F5C
:10131000C0016B9F900D7A9F900D112469817A8195
:10132000680F791F0684F785E02DEF80F884098522
:101330001A859D014F855889898D9A8D1995D8CF29
:10134000570CC3948ACF6A960FB6F894DEBF0FBECF
:10135000CDBFDF91CF911F910F91FF90EF90DF9064
:10136000CF90BF90AF909F908F907F906F905F9045
:101370004F903F902F9008958F929F92AF92CF926F
:10138000EF92FF920F931F93CF93DF93EC01262FE1
:10139000898D9A8D009709F051C06A30D1F41D866D
:1013A0001C868D8948E0849F900111248E859F853D
:1013B000820F931F9F878E8781E090E0DF91CF910E
:1013C0001F910F91FF90EF90CF90AF909F908F90D3
:1013D00008956D3089F3CC88AD888F898823C1F05A
:1013E0008C859D8536E0C39E800D911D1124488516
:1013F00059854817590764F44E855F851D861C86FC
:1014000038E0A39EC0011124840F951F9F878E870B
:10141000EA88FB88088919894E855F856C857D85FA
:10142000CE010E9497072C898C859D8546E0249FDC
:10143000800D911D11249D878C87BECF6A3069F481
:101440001D861C86FC013896E4912D898E859F852A
:10145000E29F800D911D1124ADCF6D3009F4ACCF0A
:10146000FC0134963491631708F4A6CF3296E491C8
:10147000E61708F4A1CFFC01329685909490462F90
:10148000431B342F47E0349F800C911C1124F4013E
:10149000329634913196E4913323A9F1EE2399F1F8
:1014A000CC88F4013596E491AD884F89442301F14D
:1014B0000E2E000CFF0BE30FF11DCE9EA001CF9E60
:1014C000500D11246C857D85460F571F68857985E1
:1014D000641775076CF44E855F851D861C86FC01BC
:1014E0003896E491AE9E400D511D11245F874E87C2
:1014F000EA88FB88088919894E855F856C857D851A
:10150000CE010E949707F4013496E4912C898C85D2
:101510009D85E29F800D911D11248DCF6F927F924A
:101520008F929F92AF92BF92CF92DF92EF92FF92F3
:101530000F931F93CF93DF93EC016B015A01390195
:101540004801E881F9810284F385E02D1995E8814D
:10155000F9810288F389E02D87019301A501B60185
:10156000CE011995A501480D591D41505109E88139
:10157000F9810288F389E02D9301B601CE01199516
:10158000E881F9810088F189E02D9401A501B60177
:10159000CE011995C60CD71CB60161507109E881BE
:1015A000F9810088F189E02D9401A501CE011995FA
:1015B000E881F9810688F789E02DCE01DF91CF918E
:1015C0001F910F91FF90EF90DF90CF90BF90AF9061
:1015D0009F908F907F906F9019946F927F928F92CF
:1015E0009F92AF92BF92CF92DF92EF92FF920F93B2
:1015F0001F93CF93DF935C01EB016A01490138012E
:101600008701DC01ED91FC916217730719F56416EF
:1016100075062CF0962D872D3A01C92ED82E9601ED
:10162000261937092F5F3F4F048CF58DE02DA3015C
:10163000BE01C5011995DF91CF911F910F91FF90C8
:10164000EF90DF90CF90BF90AF909F908F907F9062
:101650006F9008954615570591F42617370724F023
:10166000892D4B01C22FD82F9E01281939092F5FD0
:101670003F4F068CF78DE02DA601B401DACF02842E
:10168000F385E02D1995D501ED91FC910488F5893C
:10169000E02D83019401A601BE01C5011995D50174
:1016A000ED91FC910688F789E02DC501DF91CF917E
:1016B0001F910F91FF90EF90DF90CF90BF90AF9070
:1016C0009F908F907F906F901994EF92FF920F935D
:1016D0001F93DC011A960D911C911B9718962D9162
:1016E0003C911997ED91FC9100A0F1A1E02D7B01B7
:1016F00050E040E070E060E019951F910F91FF907D
:10170000EF9008954F925F926F927F928F929F9287
:10171000AF92BF92CF92DF92EF92FF920F931F93FF
:10172000CF93DF936C012B015A0139014801DC0191
:10173000ED91FC910284F385E02D1995E201640C92
:10174000751CD601ED91FC91C615D7055CF4008897
:10175000F189E02D87019401A501BE01C60119950B
:101760002196EFCF0688F789E02DC601DF91CF9152
:101770001F910F91FF90EF90DF90CF90BF90AF90AF
:101780009F908F907F906F905F904F9019948F9261
:101790009F92AF92BF92CF92DF92EF92FF920F9300
:1017A0001F93CF93DF93EC015B014A016901E8814C
:1017B000F9810284F385E02D199595012C0D3D1DCD
:1017C00021503109E881F9810488F589E02D7801FB
:1017D0008401A401B501CE011995E881F98106883B
:1017E000F789E02DCE01DF91CF911F910F91FF90EE
:1017F000EF90DF90CF90BF90AF909F908F90199413
:101800008F929F92AF92BF92CF92DF92EF92FF9210
:101810000F931F93CF93DF93EC015B014A016901A2
:101820007801E881F9810284F385E02D1995C80CCF
:10183000D91C860101501109E881F9810488F589D4
:10184000E02D9501A401B501CE011995E881F9813A
:101850000688F789E02DCE01DF91CF911F910F917E
:10186000FF90EF90DF90CF90BF90AF909F908F90C0
:1018700019940895EF92FF920F931F93DC01ED915D
:10188000FC9100A0F1A1E02D19951F910F91FF90FF
:10189000EF9008950F931F93DC01ED91FC91068C5E
:1018A000F78DE02D19951F910F9108950F931F93B8
:1018B000DC01ED91FC91048CF58DE02D19951F91C3
:1018C0000F910895DC01ED91FC910084F185E02DEC
:1018D00019942F923F924F925F926F927F928F92C4
:1018E0009F92AF92BF92CF92DF92EF92FF920F93AF
:1018F0001F93CF93DF9300D000D0CDB7DEB73C016C
:101900006A013E832D83FC82EB825801A41AB50A3A
:10191000B7FE03C0B194A194B1088D809E80861A51
:10192000970A97FE03C09194819491088A149B04AE
:101930005CF0902F812F0D811E819D838E839C2DC5
:101940008D2D6B01692F782F0C151D055CF09D8185
:101950008E817E836D83692F782F902F812F860152
:10196000C92ED82E1601201A310A2B012D813E8155
:10197000421A530A57FE03C0519441945108710111
:1019800037FE03C03FEFE31AF30AF594E7948D8125
:101990009E81861797075CF5A1E0B0E0BA83A98322
:1019A000C016D1064CF1D301ED91FC910484F5856C
:1019B000E02D2B813C81A8016D817E818A149B04DE
:1019C0001CF04D815E81B801C3011995E418F5083A
:1019D000F7FE0AC02D813E8189819A81280F391F27
:1019E0003E832D83E20CF31C0F5F1F4FD9CF2FEFE7
:1019F0003FEF3A832983D4CF26960FB6F894DEBF03
:101A00000FBECDBFDF91CF911F910F91FF90EF904F
:101A1000DF90CF90BF90AF909F908F907F906F900E
:101A20005F904F903F902F900895CF93DF9390E079
:101A3000FC01EC50F24F24918C5A914FFC0184919F
:101A40008823D1F090E0880F991FFC01E652F74FF0
:101A5000A591B491FC01E65CF14FC591D49161115F
:101A60000EC09FB7F8948C91E22FE0958E238C9353
:101A70002881E223E8839FBFDF91CF9108958FB73C
:101A8000F894EC91E22BEC938FBFF6CF863308F0FD
:101A9000865320917B00982F9870277F922B9093EC
:101AA0007B008770806480937C0080917A008064E2
:101AB00080937A0080917A0086FDFCCF8091780037
:101AC0009091790008953FB7F89480912A039091FE
:101AD0002B03A0912C03B0912D0326B5A89B05C024
:101AE0002F3F19F00196A11DB11D3FBFBA2FA92F9D
:101AF000982F8827BC01CD01620F711D811D911D9A
:101B000042E0660F771F881F991F4A95D1F7089505
:101B10008F929F92AF92BF92CF92DF92EF92FF92FD
:101B20006B017C010E94630D4B015C01C114D10467
:101B3000E104F104B9F00E94630D681979098A097A
:101B40009B09683E73408105910580F321E0C21A2C
:101B5000D108E108F10888EE880E83E0981EA11CE8
:101B6000B11CE4CFFF90EF90DF90CF90BF90AF908B
:101B70009F908F9008952FB7F894609126037091ED
:101B8000270380912803909129032FBF0895AF92D6
:101B9000BF92CF92DF92EF92FF920F931F93CF935A
:101BA000DF936C017B018B01040F151FEB015E01BC
:101BB000AE18BF08C017D10759F06991D601ED9151
:101BC000FC910190F081E02DC6011995892B79F7E0
:101BD000C501DF91CF911F910F91FF90EF90DF90A2
:101BE000CF90BF90AF900895FC01538D448D252F69
:101BF00030E0842F90E0821B930B541710F0CF96A7
:101C0000089501970895FC01918D828D981761F0D8
:101C1000A28DAE0FBF2FB11D5D968C91928D9F5FEF
:101C20009F73928F90E008958FEF9FEF0895FC01CE
:101C3000918D828D981731F0828DE80FF11D858D81
:101C400090E008958FEF9FEF0895FC01918D228D14
:101C5000892F90E0805C9F4F821B91098F73992799
:101C600008958FE293E00E94250E21E0892B09F46C
:101C700020E0822F0895FC01A48DA80FB92FB11D7B
:101C8000A35ABF4F2C91848D90E001968F739927B2
:101C9000848FA689B7892C93A089B1898C91837090
:101CA00080648C93938D848D981306C00288F38989
:101CB000E02D80818F7D80830895EF92FF920F93B6
:101CC0001F93CF93DF93EC0181E0888F9B8D8C8DE8
:101CD00098131AC0E889F989808185FF15C09FB7DC
:101CE000F894EE89FF896083E889F989808183709F
:101CF000806480839FBF81E090E0DF91CF911F914E
:101D00000F91FF90EF900895F62E0B8D10E00F5F6E
:101D10001F4F0F731127E02E8C8D8E110CC00FB644
:101D200007FCFACFE889F989808185FFF5CFCE01DC
:101D30000E943B0EF1CFEB8DEC0FFD2FF11DE35A0E
:101D4000FF4FF0829FB7F8940B8FEA89FB8980815F
:101D50008062CFCFCF93DF93EC01888D8823B9F0D9
:101D6000AA89BB89E889F9898C9185FD03C08081A6
:101D700086FD0DC00FB607FCF7CF8C9185FFF2CF23
:101D8000808185FFEDCFCE010E943B0EE9CFDF9130
:101D9000CF91089580E090E0892B29F00E94310EC8
:101DA00081110E94000080E090E0892B49F080E0E2
:101DB00090E0892B29F00E94000081110E94000010
:101DC00080E090E0892B49F080E090E0892B29F0B9
:101DD0000E94000081110E94000080E090E0892BA9
:101DE00049F080E090E0892B29F00E9400008111E9
:101DF0000C9400000895EF92FF921F93CF93DF930E
:101E00007C0110E0D70198968C911817F8F4C12F37
:101E1000D0E0CC0FDD1FCE0DDF1D88819981DC0164
:101E2000ED91FC910484F585E02D1995882361F0EE
:101E300088819981F70161A572A5DC01ED91FC9182
:101E40000480F581E02D19951F5FDCCFDF91CF91E4
:101E50001F91FF90EF900895FC0182850895FC0189
:101E600082858823D1F08281938186179707A0F419
:101E700026813781820F931F6817790768F4848160
:101E800095818417950740F420853185280F391FE7
:101E900081E04217530708F080E083870895CF92CE
:101EA000DF92EF92FF920F931F93CF93DF93EC019A
:101EB0006B010E8D10E00A5F1F4F2E813F812A5F5C
:101EC0003F4F4C815D81435051096A817B81635052
:101ED0007109D601ED91FC9106A0F7A1E02DF12C3E
:101EE000E12CC60119950E8D10E02E813F814C81A9
:101EF0005D816A817B81D601ED91FC9100A0F1A109
:101F0000E02DC60119952E813F81225E3F4F8C81C5
:101F10009D810B964E8D480F592F511D6A817B81F3
:101F20006A507109D601ED91FC9100A0F1A1E02D5C
:101F300000E110E0C6011995DF91CF911F910F913B
:101F4000FF90EF90DF90CF900895FC0122813381C4
:101F5000C901039786179707C8F486819781280FD0
:101F6000391F2D5F3F4F6217730780F4248135813D
:101F70002417350758F4868D820F932F911D48172B
:101F8000590720F4718F608F81E0089580E00895F3
:101F9000FC0182850895FC011286089521E0FC0170
:101FA00022870895EF92FF920F931F93FC01CB01BC
:101FB0000085118526813781448155816281738135
:101FC000DC01ED91FC9100A0F1A1E02DF12CE12CC0
:101FD00019951F910F91FF90EF9008950F931F9304
:101FE000CF93DF93EC018B01FE01849131966491D4
:101FF00022968F3799F470E090E080E00E94880D7F
:1020000060E070E06E5F7F4F061B170B1016110625
:102010005CF3DF91CF911F910F9108958B988A986F
:1020200090910201977890930201A5989EB1977CB8
:102030009EB94091020190E09C0155E0220F331FB0
:102040005A95E1F72076242B209302014EB19C0192
:10205000220F331F220F331F2073242B2EB944B3BA
:102060009C01220F331F2072242B24BB4EB19C01F4
:1020700035952795359527952870242B2EB92091D5
:102080000201A3E095958795AA95E1F78871822BC7
:10209000809302018998899A50E040E0461708F041
:1020A00045C0FE01E40FF51FE4918A9A8091020178
:1020B000877880930201A5988EB1877C8EB9709144
:1020C00002018E2F90E09C01E5E0220F331FEA957C
:1020D000E1F72076272B209302017EB19C01220F8D
:1020E000331F220F331F2073272B2EB974B39C018B
:1020F000220F331F2072272B24BB7EB19C01359504
:102100002795359527952870272B2EB9E091020148
:1021100023E0959587952A95E1F788718E2B80931A
:1021200002018998899A4F5F5F4FB8CFC60FD11DC2
:102130008B9A67CF8B988A982091020127782093F9
:102140000201A5982EB1277C2EB970910201292F8A
:1021500030E0F901A5E0EE0FFF1FAA95E1F7E07668
:10216000E72BE09302017EB1F901EE0FFF1FEE0FA6
:10217000FF1FE073E72BEEB974B3F901EE0FFF1FF9
:10218000E072E72BE4BB7EB1F901F595E795F59593
:10219000E795E870E72BEEB970910201E3E0359521
:1021A0002795EA95E1F72871272B2093020189985A
:1021B000899A20910201277820930201A5982EB1D7
:1021C000277C2EB9709102019C01F5E0880F991FC0
:1021D000FA95E1F78076872B809302017EB1C901E1
:1021E000880F991F880F991F8073872B8EB974B33E
:1021F000C901880F991F8072872B84BB7EB1C901EA
:1022000095958795959587958870872B8EB9809140
:102210000201F3E035952795FA95E1F72871282B0F
:10222000209302018998899A8A9AFA01615008F4E8
:102230003EC0819190910201977890930201A598F8
:102240009EB1977C9EB94091020190E09C0155E0BF
:10225000220F331F5A95E1F72076242B2093020199
:102260004EB19C01220F331F220F331F2073242BEA
:102270002EB944B39C01220F331F2072242B24BBA0
:102280004EB19C0135952795359527952870242BBF
:102290002EB92091020133E0959587953A95E1F7A3
:1022A0008871822B809302018998899ABFCF8B9A7B
:1022B00008958B988A98E2E0F1E0208127782083C6
:1022C000A5982EB1277C2EB9A081292F30E0A90135
:1022D000B5E0440F551FBA95E1F740764A2B40838D
:1022E000AEB1A901440F551F440F551F40734A2B2F
:1022F0004EB9A4B3A901440F551F40724A2B44BBE9
:10230000AEB1A901559547955595479548704A2B0B
:102310004EB9408153E0359527955A95E1F72871DC
:10232000242B20838998899A208127782083A59857
:102330002EB1277C2EB940819C01A5E0880F991F02
:10234000AA95E1F78076842B80834EB1C901880F6E
:10235000991F880F991F8073842B8EB944B3C901CC
:10236000880F991F8072842B84BB4EB1C90195954B
:102370008795959587958870842B8EB98081B3E079
:1023800035952795BA95E1F72871282B20838998F0
:10239000899A8A9A808187788083A5988EB1877C74
:1023A0008EB94081872F90E09C0155E0220F331FAA
:1023B0005A95E1F72076242B20834EB19C01220F01
:1023C000331F220F331F2073242B2EB944B39C01DB
:1023D000220F331F2072242B24BB4EB19C01359554
:1023E0002795359527952870242B2EB92081A3E0B9
:1023F00095958795AA95E1F78871822B80838998B6
:10240000899A808187788083A5988EB1877C8EB9E0
:102410004081CB019B01B5E0220F331FBA95E1F754
:102420002076242B20834EB19B01220F331F220FD5
:10243000331F2073242B2EB944B39B01220F331F6B
:102440002072242B24BB4EB19C01359527953595E0
:1024500027952870242B2EB92081A3E09595879588
:10246000AA95E1F78871822B80838998899A8B9A43
:10247000089581E080932E03E1E0F1E08081886798
:1024800080839D9A8DB188638DB9809A819A829A52
:10249000839A849A8B9A889A899A8C9A62E370E0DC
:1024A00080E090E00E94880D8C9864E670E080E007
:1024B00090E00E94880D8C9A64E670E080E090E0E5
:1024C0000E94880D70E060E080EB90E00C94591160
:1024D000EF92FF920F931F93CF93DF93EC01E62EC1
:1024E00080912E03811102C00E9439128B988A9824
:1024F00080910201877880930201A5988EB1877C34
:102500008EB980910201809302018EB18EB984B39D
:1025100084BB8EB18EB980910201809302018998AB
:10252000899A80910201877880930201A5988EB1E3
:10253000877C8EB920910201CE0115E0880F991F8A
:102540001A95E1F78076822B809302012EB1CE019D
:10255000880F991F880F991F8073822B8EB924B31F
:10256000CE01880F991F8072822B84BB2EB1CE01C1
:1025700095958795959587958870822B8EB98091D2
:10258000020153E0D595C7955A95E1F7C871C82B5C
:10259000C09302018998899A8A9A8091010187786B
:1025A000809301019D988DB1877C8DB961E070E0C9
:1025B00080E090E00E94880D61E070E080E090E0B3
:1025C0000E94880D889A889888988898D0910001F0
:1025D0001CB102B3CCB1F0900001889A61E070E0C8
:1025E00080E090E00E94880D889A88988898889862
:1025F000409100015CB1E2B39CB1F0910001889A76
:10260000EA946FEFE612D8CF889A8B9A80910101F5
:102610008867809301019D9A8DB188638DB984E0AC
:10262000C89F900111242072332788E0F89EB001E2
:102630001124607C7727262B602F70E075956795B5
:1026400060717727262B612F70E0759567957595DA
:1026500067956C707727262B6D2F70E0B5E0759528
:102660006795BA95E1F763707727262B64E0969F0C
:10267000C0011124807298E0F99FB0011124607CA0
:10268000862BE695E0718E2B569556955C70852BC2
:1026900050E0C5E055954795CA95E1F74370842B06
:1026A000922FDF91CF911F910F91FF90EF9008959E
:1026B0000F931F93CF93DF938C0160E00E94681209
:1026C000EC0161E0C8010E9468128C01BE0190E03B
:1026D00080E0CB017727662730E020E0602B712B6C
:1026E000822B932BDF91CF911F910F910895FF9231
:1026F0000F931F93CF93DF938C0160E00E946812C9
:10270000EC0161E0C8010E946812F82E62E0C80185
:102710000E946812AE0170E060E0742F66275527B2
:10272000442700E030E020E0402B5F29622B732B30
:10273000292F30E0C901B0E0A0E08A019B01082BFD
:10274000192B2A2B3B2BC901B801DF91CF911F9187
:102750000F91FF9008950F931F93CF93DF93EC0198
:102760008B01FE0185919491FE013296249665912C
:1027700074918F3F980771F490E080E00E94880D7B
:10278000045011091016110664F3DF91CF911F91C7
:102790000F9108950E945911F3CFFC01262F358D1A
:1027A000868D82958170982F9627692F70E072A38D
:1027B00061A330FF0CC0821307C080E290E050E0BC
:1027C00040E060E00C949A1081E290E0F8CF878DB1
:1027D00090A1833927E7920741F058F4843521E02E
:1027E000920791F080329445C1F4626081E094E0F8
:1027F00012C0863223E99207C1F3893025EB920794
:10280000A1F38532924949F4660F771F660F771F4F
:10281000636187E090E00C94591181E690E0FBCF72
:102820008F929F92AF92BF92CF92DF92EF92FF92E0
:102830000F931F93CF93DF9300D01F92CDB7DEB7D6
:102840007C014B015A016901FC01878D90A1863200
:10285000954151F4F701868980FF06C0C801841BA9
:10286000950B81F50F5F1F4FF701858D80FF31C0FC
:1028700085A599828A82DB82CC82AE014F5F5F4F51
:1028800064E090E00E949A10F70181A9B982AA82BF
:102890001B830C83AE014F5F5F4F64E090E00E94AA
:1028A0009A100F900F900F900F90DF91CF911F9182
:1028B0000F91FF90EF90DF90CF90BF90AF909F90DF
:1028C0008F9008952617370779F6C80ED91E8A010A
:1028D000CBCFB40187A190A50E945911B501F70192
:1028E00081A592A50E945911C814D90419F40A159A
:1028F0001B05B9F2F701858D85FF08C0868980FF29
:102900001EC0102F0027A02AB12A8501B401F701AB
:1029100085A596A50E945911B501F70181A992A933
:102920000E945911B601F70187A590A90E9459117B
:10293000B801F70183A994A90E945911B2CFDC2CE8
:10294000CC248C289D286401E1CF2F923F924F9296
:102950005F926F927F928F929F92AF92BF92CF922F
:10296000DF92EF92FF920F931F93CF93DF9300D0EC
:102970001F921F92CDB7DEB79D838C838091230376
:10298000882349F0C701880F991F8E739927E1ECBE
:10299000EE22E82AF92A37FF05C0620F731F31952E
:1029A00021953109260F371F77FF02C070E060E0E4
:1029B000EC81FD8180859185281739070CF4C901C8
:1029C0006C01C61AD70A17FF05C0400F511F119599
:1029D00001951109040F151F57FF02C050E040E098
:1029E000EC81FD8122853385021713070CF49801D1
:1029F0005901A41AB50A8901015011099C012150FD
:102A000031098C819D810E9410148B988A98EC81E9
:102A1000FD8153A544A5809102018778809302012E
:102A2000A5988EB1877C8EB960910201842F90E0C9
:102A30009C01A5E0220F331FAA95E1F72076262BF3
:102A4000209302016EB19C01220F331F220F331F0E
:102A50002073262B2EB964B39C01220F331F2072E2
:102A6000262B24BB6EB19C0135952795359527956E
:102A70002870262B2EB92091020133E09595879579
:102A80003A95E1F78871822B809302018998899A9F
:102A900080910201877880930201A5988EB1877C8E
:102AA0008EB960910201852F942F9C0145E0220F81
:102AB000331F4A95E1F72076262B209302014EB171
:102AC0009C01220F331F220F331F2073242B2EB99A
:102AD00044B39C01220F331F2072242B24BB4EB120
:102AE0009C0135952795359527952870242B2EB96F
:102AF00020910201E3E095958795EA95E1F78871C9
:102B0000822B809302018998899A8A9ACA14DB04DD
:102B10002CF09A2D8B2D5601C92ED82E2F2D30E05A
:102B2000890185E0000F111F8A95E1F70076C90140
:102B3000880F991F880F991F182F1073C901880FCC
:102B4000991FB82FB072C90195958795959587956E
:102B5000982F987073E0359527957A95E1F7822F35
:102B60008871A701E5E0440F551FEA95E1F740762B
:102B70009701220F331F220F331F522F5073B701BB
:102B8000660F771F607297013595279535952795C4
:102B9000722F78709701E3E035952795EA95E1F774
:102BA000A22FA8712F2D287F30E04901880C991C95
:102BB000880C991CF82DF073F9834901880C991C35
:102BC000E82DE072EA83490195948794959487945F
:102BD000F82DF870FB83E3E035952795EA95E1F74A
:102BE000E22FE8712E2E9701F3E036952795FA959E
:102BF000E1F72C7F30E04901880C991C880C991C66
:102C0000F82DF0733F2E2901440C551CE42DE07281
:102C10004E2E49019594879495948794F82DF870D9
:102C20005F2EF3E035952795FA95E1F7E22FE871ED
:102C30006E2EEE0CEE0CEE0CF12C9701220F331FD2
:102C4000220F331FF22FF0737F2E9701220F331FB5
:102C50002072F701F595E795F595E795E870F3E0B3
:102C6000F594E794FA95E1F73E2D3871E32E1C14A4
:102C70001D040CF0ABC0309124034501332309F44B
:102C800063C030910201377830930201A5983EB1BC
:102C9000377C3EB930910201309302013EB1F98197
:102CA0003F2B3EB934B3FA813F2B34BB3EB1FB819D
:102CB0003F2B3EB9309102013229309302018998AD
:102CC000899A30910201377830930201A5983EB17C
:102CD000377C3EB930910201309302013EB1332975
:102CE0003EB934B3342934BB3EB135293EB93091B5
:102CF00002013629309302018998899A30910201A4
:102D0000377830930201A5983EB1377C3EB93091B7
:102D10000201309302013EB137293EB934B3322B60
:102D200034BB3EB13E2B3EB9309102013E29309377
:102D300002018998899A31E0831A910809F0A1CF9C
:102D4000F1E0CF1AD10893CF309102013778309358
:102D50000201A5983EB1377C3EB930910201302B7B
:102D6000309302013EB1312B3EB934B33B2B34BB1F
:102D70003EB1392B3EB930910201382B309302011C
:102D80008998899A30910201377830930201A59889
:102D90003EB1377C3EB930910201342B30930201B1
:102DA0003EB1352B3EB934B3362B34BB3EB1372B55
:102DB0003EB9309102013A2B309302018998899AE9
:102DC000F1E08F1A910809F0BFCFBACF8B9AEC814E
:102DD000FD81858D80FF0AC0878D90A18632954147
:102DE000B1F4EC81FD81868980FF11C0EC81FD8109
:102DF0000285138501501109208531852150310943
:102E000050E040E070E060E0CF010E9410140F90AD
:102E10000F900F900F900F90DF91CF911F910F9116
:102E2000FF90EF90DF90CF90BF90AF909F908F90EA
:102E30007F906F905F904F903F902F900895EF920A
:102E4000FF920F931F93CF93DF937C01E90177FDEE
:102E50004DC157FD4BC1FC018085918568177907ED
:102E60000CF044C182859385481759070CF03EC188
:102E700080912303882341F0C901880F991F8E7325
:102E80009927C17CC82BD92B8A019B01C7010E94BD
:102E9000101480912403882309F42FC18B988A98F9
:102EA000F70143A554A58091020187788093020120
:102EB000A5988EB1877C8EB960910201852F90E034
:102EC0009C0175E0220F331F7A95E1F72076262BBF
:102ED000209302016EB19C01220F331F220F331F7A
:102EE0002073262B2EB964B39C01220F331F20724E
:102EF000262B24BB6EB19C013595279535952795DA
:102F00002870262B2EB920910201B3E09595879564
:102F1000BA95E1F78871822B809302018998899A8A
:102F200080910201877880930201A5988EB1877CF9
:102F30008EB960910201CA019C0115E0220F331F76
:102F40001A95E1F72076262B209302014EB19C01C1
:102F5000220F331F220F331F2073242B2EB944B3AB
:102F60009C01220F331F2072242B24BB4EB19C01E5
:102F700035952795359527952870242B2EB92091C6
:102F8000020173E0959587957A95E1F78871822B18
:102F9000809302018998899A8A9A809102018778A0
:102FA00080930201A5988EB1877C8EB92091020191
:102FB0008D2F887F90E0209302014EB19C01220F5B
:102FC000331F220F331F2073242B2EB944B39C01CF
:102FD000220F331F2072242B24BB4EB19C01359548
:102FE0002795359527952870242B2EB9209102011D
:102FF000B3E095958795BA95E1F78871822B809318
:1030000002018998899A8091020187788093020150
:10301000A5988EB1877C8EB920910201CE01D3E0B4
:1030200096958795DA95E1F78C7F90E020930201E1
:103030004EB19C01220F331F220F331F2073242B0C
:103040002EB944B39C01220F331F2072242B24BBC2
:103050004EB19C0135952795359527952870242BE1
:103060002EB92091020163E0959587956A95E1F765
:103070008871822B809302018998899A809102013C
:10308000877880930201A5988EB1877C8EB9809154
:103090000201CC0FCC0FCC0FD0E0809302012EB1F7
:1030A000CE01880F991F880F991F8073822B8EB9CC
:1030B00024B3CE01880F991F8072822B84BB2EB15E
:1030C000CE0195958795959587958870822B8EB9B9
:1030D00080910201A3E0D595C795AA95E1F7C87143
:1030E000C82BC09302018998899A8B9ADF91CF915E
:1030F0001F910F91FF90EF900895BE01F70183A5F6
:1031000094A5DF91CF911F910F91FF90EF900C94B8
:103110005911EF92FF920F931F93CF93DF9300D03B
:1031200000D000D01F92CDB7DEB77C01862F837010
:10313000F701868B962F917060FFE3C0268137815F
:10314000F70131872087992309F4DEC02481358176
:10315000F70133872287823009F4DBC0833009F41A
:10316000DAC0813009F4D3C088E48A87F701858DFD
:10317000968D90FF03C02A8520582A8791FF04C0AE
:103180002A8530E423272A8793FF04C02A8538E064
:1031900023272A87F701278D30A180FF00C1243122
:1031A000F8E63F0709F0B9C09A85892F88728A87A7
:1031B0001F82892F85958074282F2260892F90E0A7
:1031C0009595879580729927822B88878BE38987CD
:1031D000AE01495F5F4F63E086EB90E00E949A107A
:1031E0002AE230E0F70130A727A38BE290E092A714
:1031F00081A74CE250E054A743A736A725A730ABE0
:1032000027A792AB81AB94AB83ABAE01465F5F4F18
:1032100061E086E390E00E949A108A8590E0F701D1
:1032200094A383A3F701868980FF1CC0858D968DAA
:1032300092FD18C087A190A521A532A530A727A38C
:1032400092A781A785A596A521A932A936A725A76A
:1032500092AB81AB87A590A923A934A930AB27A74E
:1032600094AB83ABF70102851385015011092085CA
:1032700031852150310950E040E070E060E0C70145
:103280000E941014F70166817781878D90A120E05C
:103290008732F3E99F0709F420E2F701358D30FF0B
:1032A00039C119821A827B836C831D822E83AE0101
:1032B0004F5F5F4F66E083E390E00E949A101982AF
:1032C0001A82AE014F5F5F4F62E087E390E00E9499
:1032D0009A10F701858D80FF07C050E040E060E064
:1032E00083E190E00E949A102A960FB6F894DEBF10
:1032F0000FBECDBFDF91CF911F910F91FF90EF9047
:103300000895248135811CCF2681378121CF88E221
:103310002CCF88E92ACF88EF28CF273243E934071A
:1033200089F41F8281E388878A85859585958595AF
:10333000859588708987AE01495F5F4F63E080ECB7
:1033400090E04CCF233689E1380749F02138E4E991
:103350003E0729F02131F5E13F0709F041CF8A8589
:1033600087FF02C081608A878A8586FF02C08260EB
:103370008A878A858F73233649E1340731F02138F3
:1033800084E9380721F48A858F728A8729CF213111
:10339000354109F025CF8A858F7E806CF6CF6A850E
:1033A000862F062E000C990B2339F7E73F0751F0C3
:1033B000A8F52435E1E03E0709F45CC02032F4E5CD
:1033C0003F07A1F540E052E0F70150A747A341E0D5
:1033D00052E052A741A742E052E054A743A740E180
:1033E00052E056A745A741E152E050AB47A742E162
:1033F00052E052AB41AB43E152E054AB43AB8827C0
:1034000090782632F3E93F0721F02032344509F065
:1034100071C067FD846060E071E36EC0263243E9ED
:10342000340781F22930E5EB3E0761F220E230E01B
:10343000F70130A727A321E230E032A721A722E23B
:1034400030E034A723A720E530E036A725A721E503
:1034500030E030AB27A722E530E032AB21AB23E5EB
:1034600030E034AB23ABBC0166277078776280E62E
:1034700090E046C027E330E0F70136A725A726E312
:1034800030E030AB27A729E330E032AB21AB28E3B3
:1034900030E034AB23AB20E230E030A727A321E2B9
:1034A00030E032A721A722E230E034A723A7F4E0DE
:1034B0006F9FB0011124662771708827927088620F
:1034C000682B792B81E090E00E9459118A85682F42
:1034D00070E075956795759567956870772783FD9A
:1034E00070616063F70174A363A383E090E00E94BE
:1034F000591198CE60E072E6682B792B80E094E059
:103500000E9459116A85F4E06F9FB001112466276B
:103510007170D8CF8339F7E79F07D9F1F0F4803283
:1035200044E59407B1F18338E7E79E0731F184352C
:103530009140F1F46150710981E390E00E945911CA
:1035400070E060E082E390E00E94591170E060E07A
:1035500083E390E00E945911C7CE863223E9920797
:10356000C1F0893045EB9407A1F08532924911F3FF
:10357000F70161A172A1626003C0F70161A172A1AC
:1035800081E690E00E94591170E060E08AE690E0E8
:10359000E1CFF70161A172A1626081E094E00E9435
:1035A000591170E060E084E094E0D4CFEF92FF9294
:1035B0000F931F93DC01ED91FC9100A0F1A1E02D90
:1035C000780101E010E019951F910F91FF90EF90A5
:1035D0000895EF92FF920F931F93DC01ED91FC9100
:1035E00000A0F1A1E02D7801890121E030E01995DA
:1035F0001F910F91FF90EF900895089590E080E063
:103600000895E6EEF3E082EB95E09583848381E014
:10361000868308951F93CF93DF93C7E0D4E011E032
:103620001A871092F7032091290530912A0545E069
:10363000429FC001439F900D11249B8B8A8B0E9457
:10364000BB0D6C8B7D8B8E8B9F8BE6EEF3E08FE357
:1036500094E09583848316838091C704809322032A
:10366000DF91CF911F910895EF92FF920F931F93D7
:10367000DC011A960D911C911B9718962D913C9187
:103680001997ED91FC9100A0F1A1E02D7B0150E094
:1036900040E070E060E019951F910F91FF90EF906E
:1036A0000895FB0101900020E9F73197AF01461B17
:1036B000570BDC01ED91FC910280F381E02D199410
:1036C0008F929F92AF92BF92EF92FF920F931F93B0
:1036D000CF93DF93CDB7DEB7A1970FB6F894DEBFD7
:1036E0000FBECDBF7C01FA01CB0119A2223008F434
:1036F0002AE08E010F5D1F4F822E912CB12CA12C40
:10370000BF01A50194010E94E02DF901CA016A30B0
:103710000CF5605DD8016E938D01232B242B252B96
:1037200079F790E080E0109721F0BD01C7010E9479
:10373000511BA1960FB6F894DEBF0FBECDBFDF912F
:10374000CF911F910F91FF90EF90BF90AF909F90FE
:103750008F900895695CDECF6115710511F00C94AE
:10376000511B90E080E00895CF92DF92EF92FF929C
:103770000F931F93CF93DF93EC016B01088519859D
:103780002E813F814C815D816A817B81D601ED91E3
:10379000FC9106A0F7A1E02DEE24EA94FE2CC601D0
:1037A000199508851985025011092E813F812250F3
:1037B00031094C815D814F5F5F4F6A817B816F5F13
:1037C0007F4FD601ED91FC9106A0F7A1E02DC60137
:1037D000199508851985045011092E813F812450BF
:1037E00031094C815D814E5F5F4F6A817B816E5FE5
:1037F0007F4FD601ED91FC9106A0F7A1E02DC60107
:1038000019958C819D8105962A813B812B5F3F4FC5
:10381000F601358724879787868783E0848B858B9D
:10382000BE01645F7F4FC601DF91CF911F910F9161
:10383000FF90EF90DF90CF900C94AC1BCF92DF9273
:10384000EF92FF920F931F93CF93DF93EC016B01E5
:103850000E94BB0D0A8D1B8D2C8D3D8D601B710B45
:10386000820B930B6B3F71058105910508F489C0AC
:103870000E94BB0D6A8F7B8F8C8F9D8FEE89FF8995
:103880001995088519852E813F814C815D816A815A
:103890007B81D601ED91FC9100A0F1A1E02DF12CEE
:1038A000E12CC60119958B85088519852E813F81EC
:1038B0004C815D816A817B81D601ED91FC9106A0EE
:1038C000F7A1E02D882309F465C0E12C98EFF92ECB
:1038D000C601199508851985025011092E813F816D
:1038E000225031094C815D814F5F5F4F6A817B813E
:1038F0006F5F7F4FD601ED91FC9106A0F7A1E02DFF
:10390000C601199508851985045011092E813F813A
:10391000245031094C815D814E5F5F4F6A817B810C
:103920006E5F7F4FD601ED91FC9106A0F7A1E02DCF
:10393000C601199580E098EFF601938B828B918BED
:10394000808B8C819D8105962A813B812B5F3F4F27
:10395000F601358724879787868783E0848B858B5C
:10396000BE01645F7F4FC6010E94AC1B8FEF9FEFCB
:10397000D60153969C938E93529751969C938E9317
:103980005097DF91CF911F910F91FF90EF90DF90B3
:10399000CF900895EE24EA94FE2CC601199508856F
:1039A0001985025011092E813F81225031094C8125
:1039B0005D814F5F5F4F6A817B816F5F7F4FD60173
:1039C000ED91FC9106A0F7A1E02DC601199508859F
:1039D0001985045011092E813F81245031094C81F1
:1039E0005D814E5F5F4F6A817B816E5F7F4FD60145
:1039F000ED91FC9106A0F7A1E02DC6011995A1CF8C
:103A00000E943D30EF92FF920F931F93CF93DF936D
:103A1000462FE72FDC0152960D911C918CE3E82E86
:103A2000F12CC801B7010E94112E382FC92FCB01EC
:103A3000B7010E94112E282FF92FC80160E17EE006
:103A40000E94112E2A30B0F53A30E8F4CF933F931C
:103A5000FF932F937F936F9383E892E09F938F93CD
:103A6000EF934F930E9454308DB79EB70A960FB6CE
:103A7000F8949EBF0FBE8DBFDF91CF911F910F9124
:103A8000FF90EF900895CF933F93FF932F937F93F1
:103A90006F938FE892E09F938F93EF934F930E94E1
:103AA0005430ADB7BEB71A960FB6F894BEBF0FBE6E
:103AB000ADBFE2CF3A30B8F4CF933F93FF932F934B
:103AC0007F936F938AE992E09F938F93EF934F9345
:103AD0000E9454308DB79EB70A960FB6F8949EBFD9
:103AE0000FBE8DBFC9CFCF933F93FF932F937F938B
:103AF0006F9385EA92E09F938F93EF934F930E9489
:103B00005430ADB7BEB71A960FB6F894BEBF0FBE0D
:103B1000ADBFB2CF0F931F93CF93DF9300D000D0F0
:103B200000D01F92CDB7DEB78B01FC012481358117
:103B300042815381FB01558744873787268724E0DC
:103B4000248B258B20E038EF338B228B318B208B1D
:103B5000BE016F5F7F4F0E94021DBE016F5F7F4FEE
:103B6000C8010E94AC1B8FEF9FEFF801938B828BF3
:103B7000918B808B2A960FB6F894DEBF0FBECDBF17
:103B8000DF91CF911F910F91089580912203813091
:103B900061F18150809322031092F7036DE775E085
:103BA0008DEE93E00E94D20F2091290530912A05D5
:103BB00045E0429FC001439F900D112490931A0449
:103BC000809319040E94BB0D60931B0470931C0426
:103BD00080931D0490931E0481E0809311046DE78F
:103BE00075E087E094E00C948A1D22EB35E0309379
:103BF000EB032093EA038093EC03089510921104E1
:103C00006DE775E087E094E00E94D20F8091F804A0
:103C10009091F9040097B9F0909300048093FF030A
:103C20000E94BB0D6093010470930204809303040F
:103C30009093040481E08093F7036DE775E08DEEC7
:103C400093E00C948A1D80912203813019F18150F8
:103C5000809322032091290530912A0545E0429F57
:103C6000C001439F900D112490931A04809319046E
:103C70000E94BB0D60931B0470931C0480931D0471
:103C800090931E0481E0809311046DE775E087E056
:103C900094E0D7CF22EB35E03093EB032093EA0397
:103CA0008093EC030895AF92BF92CF92DF92EF9290
:103CB000FF920F931F93CF93DF9300D000D000D0DB
:103CC0001F92CDB7DEB76C015B010E94BB0DD60120
:103CD00054960D911D912D913C915797601B710B3E
:103CE000820B930B693E734081059105C8F00E94D9
:103CF000BB0DF601648B758B868B978B82899389BC
:103D0000009719F00197938B828BD60152968D9173
:103D10009C915397892BA9F45896ED91FC91199594
:103D20002A960FB6F894DEBF0FBECDBFDF91CF91BC
:103D30001F910F91FF90EF90DF90CF90BF90AF90C9
:103D40000895F601008511852089318944815581C6
:103D500062817381D501ED91FC9100A0F1A1E02D6C
:103D6000F12CE12CC5011995F601008511852089FA
:103D700031894481558164857585D501ED91FC912A
:103D800000A0F1A1E02DC5011995F601008511856E
:103D9000208931894481558166857785D501ED91EA
:103DA000FC9100A0F1A1E02DC5011995F6018481D7
:103DB000958122813381D5011D963C932E931C97CA
:103DC0001F969C938E931E9784E054968C935497E1
:103DD00055968C93559780E098EF53969C938E93CD
:103DE000529751969C938E935097BE016F5F7F4F71
:103DF000C6010E94021DBE016F5F7F4FC5010E9478
:103E0000AC1B8FEF9FEFF501938B828B918B808B97
:103E100087CFCF92DF92EF92FF920F931F93CF93B2
:103E2000DF93EC016B0182E0DB0154968C93549795
:103E300055968C9355970E8D10E00A5F1F4F2E817B
:103E40003F812A5F3F4F4C815D81435051096A8118
:103E50007B8163507109ED91FC9106A0F7A1E02DE3
:103E6000EE24EA94FE2CC60119952A893B894A8DD5
:103E70008A819B81841B9109F60195878487378706
:103E800026874C895D8970E060E02AE0C6010E94C7
:103E9000601B2A893B898C8D4A815B81840F952F19
:103EA000911DD6011D969C938E931C971F963C9353
:103EB0002E931E97BE01615E7F4FC6010E94AC1B10
:103EC0008A899B8928893989F601358724879787CC
:103ED00086874E855F8570E060E02AE0C6010E941B
:103EE000601BBE01645D7F4FC6010E94AC1B2A8926
:103EF0003B898A819B814E815F81840F951F4B8D09
:103F0000841B9109D6011D969C938E931C971F9636
:103F10003C932E931E974E895F8970E060E02AE003
:103F2000C601DF91CF911F910F91FF90EF90DF902D
:103F3000CF900C94601B8F929F92AF92BF92CF92C2
:103F4000DF92EF92FF920F931F93CF93DF93EC01D9
:103F50006B01488D598D8A819B819C0123503109C9
:103F6000EE81FF812417350708F098C08417950764
:103F700008F497C01D861C868C889D88B12CA12CC6
:103F80002E893F8950E040E0281939094A095B0928
:103F9000AC85BD850E94CD2D9F0150E040E00E9480
:103FA000AE2D89019A01080D191D2A1D3B1D6D8D2D
:103FB00070E0C8010E94112E081B190B1F870E8785
:103FC00082E0D60154968C93549755968C935597CE
:103FD0000E8D10E02C853D854C815D816A817B8151
:103FE000ED91FC9100A0F1A1E02DEE24EA94FE2CCD
:103FF000C60119956C857D850E8D10E02E813F815F
:10400000261B370B4C815D818A819B81680F791F4C
:10401000D601ED91FC9100A0F1A1E02DF12CE12C55
:10402000C6011995688979892A813B818E819F8192
:10403000280F391F261B370B8B8D281B31094A8906
:104040005B89D601ED91FC9100A0F1A1E02D00E18A
:1040500010E0C60119958A899B8928893989F6015A
:1040600035872487978786874E855F8570E060E077
:104070002AE0C6010E94601BBE01645D7F4FC6013D
:10408000DF91CF911F910F91FF90EF90DF90CF9034
:10409000BF90AF909F908F900C94AC1B481759071E
:1040A00058F09C012E0F3F1F2417350728F0481B9E
:1040B000590B5D874C8760CF8E0F9F1F481759079C
:1040C00008F45ACF03964817590708F055CFFD87D3
:1040D000EC8752CF1F920F920FB60F9211242F939D
:1040E0003F938F939F93AF93BF93809126039091BB
:1040F0002703A0912803B09129033091250323E0E1
:10410000230F2D3758F50196A11DB11D20932503CE
:104110008093260390932703A0932803B093290349
:1041200080912A0390912B03A0912C03B0912D0331
:104130000196A11DB11D80932A0390932B03A09398
:104140002C03B0932D03BF91AF919F918F913F911D
:104150002F910F900FBE0F901F90189526E8230FF8
:104160000296A11DB11DD2CF1F920F920FB60F92D2
:1041700011240BB60F922F933F934F935F936F933E
:104180007F938F939F93AF93BF93EF93FF938FE2B0
:1041900093E00E943B0EFF91EF91BF91AF919F91F1
:1041A0008F917F916F915F914F913F912F910F90E0
:1041B0000BBE0F900FBE0F901F9018951F920F927D
:1041C0000FB60F9211240BB60F922F938F939F93DC
:1041D000EF93FF93E0913F03F09140038081E091E2
:1041E0004503F091460382FD1DC0908180914803F4
:1041F0008F5F8F7320914903821741F0E09148034C
:10420000F0E0E15DFC4F958F80934803FF91EF91C3
:104210009F918F912F910F900BBE0F900FBE0F901B
:104220001F9018958081F2CFAF92BF92CF92DF920C
:10423000EF92FF920F931F93CF93DF93EC015901FD
:1042400081E08A871B8687E092E09983888388E2F1
:1042500090E09B838A837D836C8380EF90E09F83D3
:104260008E8389E18E8F86E390E0998788875D8BC6
:104270004C8B3F8B2E8B0D8F8EEB90E0998B888B28
:104280006C5D7F4F7B8B6A8B5F874E871D861C869C
:10429000F70101900020E9F73197EE19FF098E012F
:1042A000015E1F4FB7013C9710F067E772E0C8014D
:1042B0000E944D30F60101900020E9F73197EC198A
:1042C000FD09CE018C96B601349710F06DE772E0CF
:1042D0000E944D3061E872E0C8010E944230F8014E
:1042E00001900020E9F73197E01BF10B86EFE89F82
:1042F000E02D1124EA58EC8F88E08A8F94E6A91605
:10430000B10460F48B8FDF91CF911F910F91FF90DB
:10431000EF90DF90CF90BF90AF9008958EE0F2CFF6
:104320002F923F924F925F926F927F928F929F92C5
:10433000AF92BF92CF92DF92EF92FF920F931F93B3
:10434000CF93DF93EFE2F3E01382128288EE93E0E3
:10435000A0E0B0E084839583A683B78389E192E0EF
:104360009183808385EC90E09587848784EC90E04E
:104370009787868780EC90E0918B808B81EC90E032
:10438000938B828B82EC90E0958B848B86EC90E013
:10439000978B868B118E128E138E148E82EBA82E25
:1043A00085E0B82ECDE7D5E0F501D2A7C1A710A6CC
:1043B0009FEAC92E92E0D92E21EBE22E22E0F22EC6
:1043C00001E024E630E050E040E06CE370E08CE493
:1043D00095E00E9414213AEBC32E32E0D32E4EEB2F
:1043E000E42E42E0F42E2EE130E050E040E068E7B9
:1043F00070E08BE195E00E94142157ECC52E52E04D
:10440000D52E6BECE62E62E0F62E0AE02CE231E0CF
:1044100050E040E064EB70E08AEE94E00E941421EA
:1044200070EBC72E72E0D72EE5EDEE2EE2E0FE2E09
:1044300001E02AE030E041E050E060EF70E089EB1D
:1044400094E00E941421FEEDCF2EF2E0DF2EA1EECB
:10445000EA2EA2E0FA2E2FE030E045E050E06CE2D8
:1044600071E088E894E00E9414210AE614E0F80163
:10447000178216821186108655245394528613860D
:10448000B9E68B2EB2E09B2E918280828AE5C82EFF
:10449000D12CD382C2829CE7E92EFF24F394F582CB
:1044A000E4826BEE72E086E794E00E944D3086E78E
:1044B00094E0FC0101900020E9F7CF018757944078
:1044C00023E1422E489E9001499E300D11242B5F1E
:1044D0003F4FF801378326833FE1632E712C7186AD
:1044E00060868AE09BE1978B868B4AEF242E312CE5
:1044F000318E208EEFE3F4E0D2A7C1A710A601E22F
:1045000014E0F801178216821186108652861386EF
:1045100091828082D382C282F582E48263EF72E06C
:104520008DE294E00E944D308DE294E0FC01019018
:104530000020E9F7CF018E529440489E9001499E99
:10454000300D11242B5F3F4FF8013783268371868E
:10455000608681E09BE1978B868B318E208EE7E031
:10456000F4E05286138607E512E011830083A3E48A
:10457000B0E0B383A28380EF90E0958384836CE105
:1045800070E0718760874CEB50E0578346832CE2E4
:1045900030E0318B208B0F2EFBE8EF2EF12CF02D2D
:1045A000F586E4860F2EF3EDCF2ED12CF02DD78695
:1045B000C686138A128A0F2EFEEF8F2EFDE19F2EE4
:1045C000F02D918E808EEDEEF3E0528613861183EE
:1045D0000083B383A2839583848371876087578325
:1045E0004683318B208BF586E486D786C686138A70
:1045F000128A25EC3DE1318F208F1B821A829D8328
:104600008C8320E431E03F832E83998788873B8722
:104610002A871E8A1D861C861F861E865D8A5C8AE6
:104620008FEF9FEF9B8B8A8B998B888B5F8A188E7D
:104630001A8E198E8BE292E099838883E6EEF3E07E
:10464000B382A282B182A082158214821682A2ED68
:10465000B3E087E312968C93129788E314968C93B9
:10466000149787E013968C93139786E015968C9396
:1046700015978CE291E017969C938E931697EAE536
:10468000FEE0E491F0E0EE0FFF1FE65CF14F859154
:10469000949119969C938E931897EBE8FEE0E49121
:1046A000F0E0EE0FFF1FE65CF14F859194911B96B1
:1046B0009C938E931A97ECE8FEE0E491F0E0EE0F05
:1046C000FF1FE65CF14F859194911D969C938E930C
:1046D0001C97EBE5FEE0E491F0E0EE0FFF1FE65CD7
:1046E000F14F859194911F969C938E931E97EAEFBC
:1046F000FDE0E4915096EC935097EBE2FEE0E491FC
:104700005296EC935297ECE2FEE0E4915196EC93D2
:104710005197EBEFFDE0E4915396EC9353978AE0C9
:1047200090E08D939C93ECECF3E01582148213825D
:10473000128211821082DF91CF911F910F91FF9011
:10474000EF90DF90CF90BF90AF909F908F907F9031
:104750006F905F904F903F902F900895CF93DF938D
:1047600000D000D000D01F92CDB7DEB7789484B5CA
:10477000826084BD84B5816084BD85B5826085BD5D
:1047800085B5816085BD80916E00816080936E00EB
:1047900010928100809181008260809381008091DD
:1047A000810081608093810080918000816080938E
:1047B00080008091B10084608093B1008091B0004E
:1047C00081608093B000809191008260809391001D
:1047D0008091910081608093910080919000816030
:1047E000809390008091A10082608093A1008091CD
:1047F000A10081608093A1008091A00081608093DE
:10480000A00080912101826080932101809121018B
:10481000816080932101809120018160809320013B
:1048200080917A00846080937A0080917A0082601F
:1048300080937A0080917A00816080937A008091E1
:104840007A00806880937A001092C1000E94391229
:1048500060E090E080E00E9468127C01883024E5EE
:10486000920779F18032944561F189E8E816F806FB
:1048700009F441C160E087E690E00E94681237E4E5
:10488000E32E33E8F32E87349744D9F08FEE90E08F
:104890000E9477137B016732734999F081EA90E0B7
:1048A0000E94581323E6E22E29E1F22E6130E1E660
:1048B0007E0739F06F3F7607C9F5A6E2EA2EA5E13B
:1048C000FA2E0E9439121092990510929805F092D2
:1048D0009D05E0929C05E1E3EE16E0E8FE0609F492
:1048E000B8C708F0ECC123E5E21620E2F20611F4A5
:1048F0000C94832C08F072C181E1E81685E1F8067A
:1049000009F4CFC208F022C1A9E9EA16F10409F4BA
:10491000B0C708F004C180E091E1EA94EF2809F4FF
:104920000CC11092820510928105B8C261152FEF5B
:10493000720729F4F0E2EF2EF5E1FF2EC2CF91EAE3
:10494000E92E95E0F92E6115704F09F4BACF8FEB7F
:1049500090E00E9477137B0187E5E81683E8F8066C
:1049600009F4AFCF91E8E91694E9F90609F4A9CF63
:10497000A1E1EA16A5E1FA0609F4A3CFB0E2EB162D
:10498000B5E1FB06B9F2E6E2EE16E5E1FE0609F452
:1049900094CFF1E8EF16F5E1FF0609F492CFE114A8
:1049A00024E1F20609F4ACC084ED90E00E945813B3
:1049B0007B016031734509F484CF87ED90E00E945C
:1049C00058137B0181E3E81680E8F80609F479CFF3
:1049D0008EEF90E00E945813672F782F892F992728
:1049E0007B0193E5E91690E2F90609F46ACF84E0C9
:1049F00090E00E9458137B01833E31F4672B59F5F8
:104A0000E12CB3EEFB2E5DCF811125C061157048FE
:104A100011F58091000290910102A0910202898318
:104A20009A83AB83AE014F5F5F4F63E089EB90E009
:104A30000E949A1060E080ED90E00E94681279E98F
:104A4000E72EF12C893909F43CCF8039E1F460E993
:104A5000E62EFE2C36CFB6E2EB16B5E1FB0609F4E6
:104A60002CCFE0EFEE16E9E8FE0609F44EC0F2E5C1
:104A7000EF16F5E8FF0609F44DC021E1E2162CEA35
:104A8000F20609F41ECF83ED90E00E945813672FC1
:104A9000782F892F99277B016336714909F411CF4B
:104AA00083ED90E00E945813872FE62EF72E99E2AF
:104AB000E91692E3F90609F404CF8359823008F429
:104AC00000CF783909F4FDCE773709F4FACE763184
:104AD00009F4F7CEA3EDEA16F10409F4F2CEB3ED32
:104AE000EB16FB0609F4EDCE60E090E080E00E945A
:104AF00068127C01E6CE49E8E42E42E1F42EE1CED4
:104B000084E1E82E88E6F82EDCCEA5E3EA2EA7E7BE
:104B1000FA2ED7CEF9E8EF2EF7E7FF2ED2CEF4E546
:104B2000EF16F1E0FF0609F4ADC125E0E21625E13C
:104B3000F20609F0F6CE84E090E190939B05809315
:104B40009A0568ED70E082E496E0A6C131E8E316CC
:104B500035E1F30609F4E3C6C8F490E2E91695E1FD
:104B6000F90609F41FC6A6E2EA16A5E1FA0609F05D
:104B7000D8CE83E194E090939B0580939A050CE056
:104B800010E061EFE62E63E0F62EA3C1B2E0EB1673
:104B9000B6E1FB0609F4AAC6E3E6EE16E9E1FE0675
:104BA00009F0BFCE81E08093240383E59AE09093DF
:104BB0009B0580939A0580EE91E090938405809305
:104BC000830580E293E0909382058093810503E55D
:104BD00010E05EE9E52E53E0F52E7BC1F9E0EF161B
:104BE000F8E6FF0609F45EC638F535E3E31635E46A
:104BF000F30609F4E4C598F499E2E91692E3F9069C
:104C000009F08FCE83E096E090939B0580939A0500
:104C100000E410E04EE5E42E43E0F42E5AC1A0E19A
:104C2000EA16A3E5FA0609F4D5C5B8E0EB16B4E533
:104C3000FB0609F480CF75CEE9E8EE16E7E7FE063D
:104C400009F4FAC5B8F424E1E21628E6F20609F4FC
:104C5000DAC533E8E31637E7F30609F062CE82E0FF
:104C600091E190939B0580939A0568E870E08AE152
:104C700097E012C183E9E81687E7F80609F484C6CD
:104C800096E9E91697E7F90609F04BCE83E094E040
:104C900090939B0580939A0580EE91E09093840514
:104CA0008093830580E491E0909382058093810551
:104CB0000DE010E03EECE32E31E0F32E0AC1A8E354
:104CC000EA16A3E9FA0609F424C608F05DC0E5E295
:104CD000EE16E3E9FE0609F446C090F520E9E21677
:104CE000F20609F4C3C5F8F487E5E81683E8F80688
:104CF00009F017CE83E094E190939B0580939A0589
:104D000080EE91E0909384058093830580E491E0A8
:104D1000909382058093810502E010E0B4E0EB2ED1
:104D2000B3E0FB2ED6C092E0E91693E9F90609F448
:104D3000EDC5A0E2EA16A3E9FA0609F4FCCEF1CD2E
:104D4000B9E2EB16B3E9FB0609F4E6C578F4F7E23D
:104D5000EF16F3E9FF0609F4B0C528E2E21623E9ED
:104D6000F20609F0DECD80E091E19EC531E3E31665
:104D700033E9F30631F085E3E81683E9F80609F034
:104D8000D0CD80E090E190C599E8E91694E9F90664
:104D900008F042C0A7E8EA16A4E9FA0608F0DBC565
:104DA000B1E8EB16B4E9FB0609F4D2C5B0F4F0E4BF
:104DB000EF1AF3E9FF0A22E0E216F10408F0B1CDA0
:104DC00083E194E090939B0580939A0505E610E0BB
:104DD0006BE5E62E62E0F62E7CC036E8E31634E999
:104DE000F30609F09ECD83E094E090939B058093B9
:104DF0009A0580EE91E0909384058093830580E48A
:104E000091E090938205809381050BE310E04BEDD8
:104E1000E42E41E0F42E5DC089E0E81685EBF8064B
:104E200009F4B2C5C0F483E194E1A1E1EA16ACEA69
:104E3000FA06E9F0B5E0EB16B5EBFB0609F071CD2B
:104E400088E090E190939B0580939A0560EB70E079
:104E500086EC94E021C0E5E0EE16E5ECFE0681F379
:104E600083E19EE0E114F3EEFF0609F05ACD909342
:104E70009B0580939A0503E010E070ECE72E72E04A
:104E8000F72E27C082E090E190939B0580939A05CE
:104E90006CE970E08EE398E00E94AB13F12CE12CFA
:104EA00018C083E090E090939B0580939A0580EE74
:104EB00091E0909384058093830580E491E0909342
:104EC00082058093810503E010E0E3E0EE2EE4E04C
:104ED000FE2E20919B05822F82958F7090E081702D
:104EE000992790939F0580939E05E114F10481F02A
:104EF00069E070E08AE991E00E94EE0FB801C70115
:104F00000E94EE0F66E070E084E991E00E94EE0FEF
:104F100060E08DE795E00E94891860E08DE795E0FC
:104F20000E94CD1380919C0590919D0588389449ED
:104F300009F0DAC11092230320EE3FEF50E040E089
:104F400070E060E08DE795E00E941F17E090A805F3
:104F5000F090A90580919A0580FF03C09EE2E92E9A
:104F6000F12C80919C0590919D058230964119F419
:104F70008EE2E82EF12C10E000E030E020E050E07E
:104F800040E070E060E08DE795E00E9410148091B1
:104F90009A0580FD10C070E060E08091A4059091BA
:104FA000A5050E94591170E060E08091A6059091DE
:104FB000A7050E9459118B988A98809102018778E1
:104FC00080930201A5988EB1877C8EB94091020131
:104FD0008F2D90E09C0105E0220F331F0A95E1F729
:104FE0002076242B209302014EB19C01220F331F07
:104FF000220F331F2073242B2EB944B39C01220FA0
:10500000331F2072242B24BB4EB19C01359527956C
:10501000359527952870242B2EB920910201E3E0C5
:1050200095958795EA95E1F78871822B8093020127
:105030008998899A80910201877880930201A598C6
:105040008EB1877C8EB940910201C7019701F5E0CE
:10505000220F331FFA95E1F72076242B20930201CB
:105060004EB19701220F331F220F331F2073242BC1
:105070002EB944B39701220F331F2072242B24BB77
:105080004EB1970135952795359527952870242B96
:105090002EB92091020103E0959587950A95E1F7D5
:1050A0008871822B809302018998899A8A9A8091CB
:1050B00001018778809301019D988DB1877C8DB91E
:1050C00040919A0550919B0580919C0590919D057A
:1050D00046FD13C0889A8898889888982091000186
:1050E0002CB122B32CB120910001889A40FD05C05B
:1050F0008938A2E19A0709F05AC48131954161F4D7
:10510000889A889888988898809100018CB182B399
:105110008CB180910001889ABA0164707727889ACF
:1051200088988898889844FF64C4209100018CB1C5
:10513000F2B3ECB19091000130E055E03595279540
:105140005A95E1F72370869586958C70822B2F2FC8
:1051500026952071822BF4E0EF9F9001112420729C
:10516000822BA8E09A9F90011124207C822B889AA0
:10517000889A889888988898209100019CB1A2B359
:10518000FCB1E091000130E0B5E035952795BA9586
:10519000E1F72370969596959C70922B2A2F269571
:1051A0002071922BB4E0FB9F900111242072922B6E
:1051B000F8E0EF9F90011124207C922B889A889A26
:1051C00088988898889820910001ECB0A2B3FCB12F
:1051D000E091000130E015E0359527951A95E1F74B
:1051E0002370E694E6943E2D3C70E32EE22A2A2FAB
:1051F00026952071E22AA4E0FA9F900111242072E2
:10520000E22AB8E0EB9F90011124207C2E29889A95
:10521000E92FF0E0672B09F4D7C3E22EF12CFE2C26
:10522000EE24EE2428EFF22203E0EE0FFF1F0A9592
:10523000E1F7E07EF770EE2AFF2A8695869586953F
:10524000E82A80912303882399F0C70165E09695A9
:1052500087956A95E1F7807299279701369527958A
:105260002F713327822B932BF0ECEF22E82AF92AB7
:10527000889A8B9A809101018867809301019D9A99
:105280008DB188638DB940FD14C0009187051091E0
:10529000880501501109209185053091860521501E
:1052A000310950E040E070E060E08DE795E00E9459
:1052B00010142FE1E2162FEFF206B1F486E0898395
:1052C000AE014F5F5F4F61E08AE390E00E949A1069
:1052D00080919A0590919B058F7E90939B0580937A
:1052E0009A0581E080932303E0913F03F09140030E
:1052F00082E08083E0913B03F0913C031082E091D7
:105300003D03F0913E0380E1808310924703E091DA
:105310004303F091440386E08083E0914103F091E0
:105320004203808180618083E0914103F0914203D8
:10533000808188608083E0914103F0914203808105
:1053400080688083E0914103F091420380818F7DEA
:1053500080836AE070E080E090E00E94880D60E069
:105360008DE795E00E94891870E060E08DE795E098
:105370000E94341B68EE73E080E090E00E94880D8C
:1053800083E390E090938A058093890581ED91E015
:1053900090938C0580938B056CEF72E08DE795E020
:1053A0000E94AC1B8091DA05E82FF0E0EE0FFF1FA2
:1053B000EE54FA4F2CE435E031832083E1E0E80F2E
:1053C000F0E0EE0FFF1FEE54FA4F2BE135E0318392
:1053D0002083E2E0E80FF0E0EE0FFF1FEE54FA4FFB
:1053E0002AEE34E031832083E3E0E80FF0E0EE0FB3
:1053F000FF1FEE54FA4F29EB34E031832083E4E0C1
:10540000E80FF0E0EE0FFF1FEE54FA4F28E834E00B
:1054100031832083E5E0E80FF0E0EE0FFF1FEE544C
:10542000FA4F2AE634E0318320838A5F8093DA05DD
:1054300080916704E82FF0E0EE0FFF1FE15CFB4F67
:1054400021E234E031832083E1E0E80FF0E0EE0F69
:10545000FF1FE15CFB4F27E034E031832083E2E073
:10546000E80FF0E0EE0FFF1FE15CFB4F2DEE33E0A5
:10547000318320838D5F809367048091E80390914E
:10548000E9030E94FB0E22242A9433E0332E46EFD8
:10549000C42E4CEFD42EEE24EA94FE2C52EA852E34
:1054A0005CEF952EAA24AA94BA2C60E08091D403D4
:1054B0000E94150D60E08091D5030E94150D61E0FA
:1054C0008091D7030E94150D61E08091D6030E9460
:1054D000150D8091E203E091DA03F091DB039081F6
:1054E000892B80838091E303E091DE03F091DF0359
:1054F00090818095892380838091D4030E94460DFA
:105500008C018091D4030E94460D9801281B390B11
:105510002C5F3F4F2930310508F0DFC2800F911F0B
:105520009595879531E03C83D101A81BB90BBE83CB
:10553000AD8360E08091D7030E94150D60E08091FB
:10554000D6030E94150D61E08091D4030E94150DD1
:1055500061E08091D5030E94150D8091E503E091F3
:10556000E003F091E103908180958923808380910D
:10557000E403E091DC03F091DD039081892B8083CB
:105580008091D6030E94460D8C018091D6030E9423
:10559000460D9801281B390B2C5F3F4F29303105F0
:1055A00008F09DC2800F911F95958795F101E81B2A
:1055B000F90BFA87E98761E08091D7030E94150D06
:1055C00060E08091D4030E94150D8091E203E09188
:1055D000DA03F091DB0390818095892380838091A9
:1055E000E503E091E003F091E1039081892B808352
:1055F0008091D6030E94460D8C018091D4030E94B5
:10560000460DBC012091D8033091D90338872F83F0
:10561000232B09F466C2072E000C880B990B0E94FD
:10562000442F2B013C01B801110F880B990B0E94EC
:10563000442F9B01AC01C301B2010E949A2E20E0CD
:1056400030E040E85FE30E942D2E2B013C01AD814C
:10565000BE81BD01BB0F880B990B0E94442FA30193
:1056600092010E94D02F2B013C01EF81F885BF01F0
:1056700090E080E00E94422FA30192010E94D02F6F
:1056800020E030E040E85AE30E94D02F0E940C2F27
:105690003C81311102C070E060E08D819E81909369
:1056A000CD038093CC03A985BA85B093CF03A09393
:1056B000CE037093D1036093D00361E088E30E942E
:1056C000150D61E087E30E94150D8091D003909144
:1056D000D103895C91098F31934008F009C2209170
:1056E000CC033091CD03032E000C440B550B265AEE
:1056F000334041095109A0918505B09186050E946A
:10570000D82DA70196010E94AE2D29012091CE032C
:105710003091CF03032E000C440B550B245D334016
:1057200041095109A0918705B09188050E94D82DA3
:10573000A50194010E94AE2D39010091E60310915C
:10574000E7031C82F80180A5FC81F81708F0D5C199
:105750008F2F90E0880F991F9801280F391F3E83E3
:105760002D83D9018D919C91DC01ED91FC910190EB
:10577000F081E02DA301B2011995882379F0ED8124
:10578000FE8180819181D80199966D917C91DC0197
:10579000ED91FC910280F381E02D1995BC81BF5FF2
:1057A000BC83D0CF83E194E090939B0580939A05CE
:1057B00006E010E07DEFE72E73E0F72E8ACB80E065
:1057C00090E190939B0580939A056CE970E082EAE2
:1057D00097E062CB83E19EE090939B0580939A05CE
:1057E00080EE91E0909384058093830580E491E0BE
:1057F000909382058093810502E010E03CE5E32E62
:1058000033E0F32E66CB83E094E090939B05809386
:105810009A0580EE91E0909384058093830580E45F
:1058200091E0909382058093810503E010E029E5E3
:10583000E22E23E0F22E4DCB83E194E090939B0582
:1058400080939A0501E410E098E1E92E93E0F92EA7
:1058500040CB83E194E190939B0580939A0502E10C
:1058600010E086E0E82E83E0F82E33CB83E194E16C
:1058700043CA83E194E190939B0580939A0580EE5F
:1058800091E0909384058093830580E491E0909368
:105890008205809381050DE110E0A7EEEA2EA2E0DB
:1058A000FA2E17CB82E091E190939B0580939A05A5
:1058B0006CEC70E086E795E0EFCA83E094E09093AB
:1058C0009B0580939A0580E991E0909384058093ED
:1058D000830580EF90E090938205809381050EE12F
:1058E00010E0F9ECEF2EF2E0FF2EF3CA83E094E033
:1058F00090939B0580939A0506E010E0E3ECEE2E72
:10590000E2E0FE2EE6CA87E194E1B1CA83E094E0CA
:10591000AECA83E194E0ABCA83E096E1A8CA83E112
:1059200094E090939B0580939A0580EE91E090938C
:1059300084058093830580E491E0909382058093B1
:10594000810505E410E056E1E52E52E0F52EC1CACE
:1059500087E094E0E6CF83E194E090939B05809309
:105960009A0580EE91E0909384058093830580E40E
:1059700091E090938205809381050BE210E023EA89
:10598000E22E21E0F22EA5CA80E090E190939B05E3
:1059900080939A0560EC70E086E094E00E94AB137F
:1059A00080E991E0909384058093830577CA889A73
:1059B000889888988898209100012CB122B32CB146
:1059C00020910001889A99CBE82EF12CFE2CEE2430
:1059D000EE2438EFF322B3E0EE0FFF1FBA95E1F7A4
:1059E000E07EF770EE2AFF2A269526952695E22A74
:1059F00028CC909100010CB112B3BCB1A091000170
:105A0000889A889A88988898889820910001ECB1A3
:105A1000E2B2DCB08091000130E055E03595279589
:105A20005A95E1F723703327F0E0F595E795F59562
:105A3000E795EC70FF272E2B3F2BF12CF594E79484
:105A4000E0E1EE22FF24E22AF32AF4E0DF9E900157
:105A5000112420723327E22AF32A28E0829FF001E2
:105A60001124E07CFF27EE2AFF2A889A892F90E0F4
:105A7000F5E095958795FA95E1F78370069506957B
:105A80000C70802B16951071812B94E0B99F9001BA
:105A900011242072822BE8E0AE9FD0011124A07C5B
:105AA0008A2BF82A43FF03C0FE24EF24FE24672B31
:105AB00009F4C7CBC701807E97709701232F332746
:105AC000269526952695822B932BFE2CEE24FF0CF3
:105AD000FF0CFF0CE82AF92AB4CB1C8225CD1C82CE
