:100000000C94D4010C9405020C9405020C94050286
:100010000C9405020C9405020C9405020C94050244
:100020000C9405020C9405020C9405020C94050234
:100030000C9405020C9405020C9405020C94050224
:100040000C9405020C9405020C9405020C94050214
:100050000C9405020C9405020C9405020C94E00526
:100060000C9405020C9454060C942A060C94050278
:100070000C9405020C9405020C9405020C940502E4
:100080000C9405020C9405020C9405020C940502D4
:100090000C9405020C9405020C9405020C940502C4
:1000A0000C9405020C9405020C9405020C940502B4
:1000B0000C9405020C9405020C9405020C940502A4
:1000C0000C9405020C9405020C9405020C94050294
:1000D0000C9405020C9405020C9405020C94050284
:1000E0000C9405020C94B4080C94F1040C944E0288
:1000F0000C9437020C9409090C9460020C9444028D
:100100000C942F020C9477080C94C8080C946A0283
:100110000C945C020C944A020C94B9040C943A02BC
:100120000C94AA080C942B020C9440020C943E05EB
:100130000C9459080C94E1080C9433020C94580266
:100140000C948A060C947C080C94BE080C948804C9
:100150000C945B040C9465020C94FF080C94A208A8
:100160000C9497040C94D7080C9425020C949008D6
:100170000C9452020C94AB040C94EB080C9486087B
:100180000C94F5080C9466020C949A0800407A10BE
:10019000F35A00A0724E18090010A5D4E80000E838
:1001A0007648170000E40B54020000CA9A3B000096
:1001B00000E1F505000080969800000040420F0025
:1001C0000000A08601000000102700000000E803E6
:1001D000000000006400000000000A0000000000B1
:1001E0000100000000002C76D888DC674F0823DF70
:1001F000C1DFAE59E1B1B796E5E3E453C63AE65143
:10020000997696E8E6C28426EB898C9B62ED407C69
:100210006FFCEFBC9C9F40F2BAA56FA5F490055A05
:100220002AF75C936B6CF9676DC11BFCE0E40D472A
:10023000FEF520E6B500D0ED902E0300943577054D
:100240000080841E080000204E0A000000C80C3305
:100250003333330F986E12831141EF8D2114893B94
:10026000E65516CFFEE6DB18D1844B381BF77C1D14
:10027000901DA4BBE424203284725E228100C9F167
:1002800024ECA1E53D2700002100240027002A00DE
:100290002D003000330001010000040107010A01B4
:1002A00000002200250028002B002E003100340021
:1002B00002010000050108010B01000020002300DD
:1002C000260029002C002F0032000001000003014D
:1002D00006010901050505050705080808080202C9
:1002E00002020A0A080804040404010101010101D0
:1002F00001010303030303030303040707070C0CB3
:100300000C0C0C0C0C0C0202020206060606060679
:1003100006060B0B0B0B0B0B0B0B0102102020081E
:100320000810204010204080020102010804020150
:1003300001020408102040808040201008040201BF
:100340008004020180402010080402010804020118
:10035000010204081020408001020408102040809F
:1003600000000A0B02090C0D0E080703040100002F
:10037000000000000000000000000000000000007D
:10038000000000000000000000000000121110003A
:10039000000000000000000000000000000000005D
:1003A0000000000000008A0611241FBECFEFD1E23A
:1003B000DEBFCDBF00E00CBF12E0A0E0B2E0E6ED92
:1003C000FDE100E00BBF02C007900D92A432B1071F
:1003D000D9F723E0A4E2B2E001C01D92A53FB20725
:1003E000E1F711E0C4EDD1E000E006C0219701097A
:1003F000802FFE010E94170DC33DD10780E0080742
:10040000A9F70E9440070C94E90E0C94000081505B
:10041000823108F05AC0E82FF0E08827ED5EFD4FEA
:100420008F4F0C94170D3302370225022B022F0237
:1004300065023A02400244024A024E025202580247
:100440005C026502600266026A02809180008F771A
:10045000809380000895809180008F7DF9CF8091F6
:100460008000877FF5CF84B58F7784BD089584B5EC
:100470008F7DFBCF8091B0008F778093B00008957F
:100480008091B0008F7DF9CF809190008F7780931D
:1004900090000895809190008F7DF9CF8091900019
:1004A000877FF5CF8091A0008F778093A00008957B
:1004B0008091A0008F7DF9CF8091A000877FF5CF3C
:1004C000809120018F7780932001089580912001F1
:1004D0008F7DF9CF80912001877FF5CF1F93CF9338
:1004E000DF93282F30E0F901E05AFC4F8491F901A5
:1004F000E65EFC4FD491F901EC52FD4FC491CC2340
:10050000A9F0162F81110E940702EC2FF0E0EE0FE8
:10051000FF1FE056FD4FA591B4918FB7F894EC9171
:10052000111108C0D095DE23DC938FBFDF91CF91EE
:100530001F910895DE2BF8CFBF92CF92DF92EF92FA
:10054000FF920F931F93CF93DF93C12CC7E0D0E0AE
:1005500003E210E0EE24E394F12C60E08091D902F4
:100560000E946E02C8010197F1F72091DA0230E093
:10057000F901E05AFC4F8491F901E65EFC4FD490FA
:10058000F901EC52FD4FB490BB20A9F081110E94FB
:100590000702EB2DF0E0EE0FFF1FE654FD4FA59193
:1005A000B491EC91DE2239F0C7010C2E01C0880F06
:1005B0000A94EAF7C82A61E08091D9020E946E028B
:1005C000C8010197F1F7219708F0C7CF8C2DDF9173
:1005D000CF911F910F91FF90EF90DF90CF90BF9040
:1005E0000895CF93DF9390E0FC01E65EFC4F2491E9
:1005F0008C529D4FFC0184918823D1F090E0880FAC
:10060000991FFC01EA57FD4FA591B491FC01E056FA
:10061000FD4FC591D49161110EC09FB7F8948C9194
:10062000E22FE0958E238C932881E223E8839FBFFD
:10063000DF91CF9108958FB7F894EC91E22BEC9372
:100640008FBFF6CF863308F0865320917B00982F1A
:100650009870277F922B90937B00877080648093A3
:100660007C0080917A00806480937A0080917A0087
:1006700086FDFCCF809178009091790008952F92AB
:100680003F924F925F926F927F928F929F92AF9222
:10069000BF92CF92DF92EF92FF920F931F93CF936F
:1006A000DF93CDB7DEB7C154D1090FB6F894DEBFE2
:1006B0000FBECDBF8C01DC018C910E942203BC01D6
:1006C000990F880B990B0E94C20DF801228133818A
:1006D000448155810E94770ED8011196BC912296D3
:1006E000BFAF22972B2E312C7101E1E0EE1AF108F9
:1006F000F101EE0FFF1FEE0FFF1FE00FF11F97013B
:100700003497121613065CF42150310982809380CD
:10071000A480B58086829782A086B186F1CFD80169
:1007200016966D937D938D939C9319971696FE0163
:10073000319690E080E0821593050CF445C0AA2420
:10074000A394B12CA214B3040CF04FC0FE01319657
:100750006F01912C812C8E149F040CF03FC0D601A8
:100760008D919D910D90BC91A02D21968CAF9DAF48
:10077000AEAFBFAF2197BFEF8B1A9B0AF601448043
:10078000558066807780A301920121966CAD7DAD86
:100790008EAD9FAD21970E94720E18168CF4D60173
:1007A0004D925D926D927C92139721968CAD9DAD8A
:1007B000AEADBFAD2197F60184839583A683B78341
:1007C000F4E0CF0ED11CC7CF4D915D916D917D911D
:1007D00041935193619371930196ADCFFFEFAF1A9F
:1007E000BF0A21E0E21AF108ADCF2296EFAD2297C1
:1007F000E69584E0E89FF0011124EC0FFD1F818154
:100800009281A381B481F801EE5BFF4F80839183D5
:10081000A283B383CF5BDF4F0FB6F894DEBF0FBE6A
:10082000CDBFDF91CF911F910F91FF90EF90DF909F
:10083000CF90BF90AF909F908F907F906F905F9080
:100840004F903F902F900895EF92FF920F931F9338
:10085000CF93DF93EC0160E088810E94F1027E017A
:1008600086E0E80EF11C10E000E089818017110697
:10087000D9F0D4F088810E942203BC01990F880B23
:10088000990B0E94C20D9B01AC016A817B818C8116
:100890009D810E94770EF7016193719381939193EB
:1008A0007F010F5F1F4FE1CFDF91CF911F910F911C
:1008B000FF90EF900895AF92BF92CF92DF92EF92A8
:1008C000FF920F931F93CF93DF936C017B018B01FA
:1008D000040F151FEB015E01AE18BF08C017D1074A
:1008E00059F06991D601ED91FC910190F081E02DD4
:1008F000C6011995892B79F7C501DF91CF911F9119
:100900000F91FF90EF90DF90CF90BF90AF90089540
:10091000FC01538D448D252F30E0842F90E0821B05
:10092000930B541710F0CF96089501970895FC018A
:10093000918D828D981761F0A28DAE0FBF2FB11DE2
:100940005D968C91928D9F5F9F73928F90E008953A
:100950008FEF9FEF0895FC01918D828D981731F0F4
:10096000828DE80FF11D858D90E008958FEF9FEF48
:100970000895FC01918D228D892F90E0805C9F4F1E
:10098000821B91098F73992708958CE392E00E944E
:10099000B90421E0892B09F420E0822F0895FC019D
:1009A000A48DA80FB92FB11DA35ABF4F2C91848DD0
:1009B00090E001968F739927848FA689B7892C932D
:1009C000A089B1898C91837080648C93938D848D80
:1009D000981306C00288F389E02D80818F7D808383
:1009E0000895EF92FF920F931F93CF93DF93EC0143
:1009F00081E0888F9B8D8C8D98131AC0E889F989C6
:100A0000808185FF15C09FB7F894EE89FF896083C8
:100A1000E889F98980818370806480839FBF81E049
:100A200090E0DF91CF911F910F91FF90EF9008958B
:100A3000F62E0B8D10E00F5F1F4F0F731127E02E66
:100A40008C8D8E110CC00FB607FCFACFE889F9899E
:100A5000808185FFF5CFCE010E94CF04F1CFEB8DD1
:100A6000EC0FFD2FF11DE35AFF4FF0829FB7F89472
:100A70000B8FEA89FB8980818062CFCFCF93DF9390
:100A8000EC01888D8823B9F0AA89BB89E889F989A6
:100A90008C9185FD03C0808186FD0DC00FB607FCDB
:100AA000F7CF8C9185FFF2CF808185FFEDCFCE010E
:100AB0000E94CF04E9CFDF91CF91089580E090E0CC
:100AC000892B29F00E94C50481110E94000080E05A
:100AD00090E0892B49F080E090E0892B29F00E947A
:100AE000000081110E94000080E090E0892B49F015
:100AF00080E090E0892B29F00E94000081110E9483
:100B0000000080E090E0892B49F080E090E0892BA4
:100B100029F00E94000081110C9400000895FC014E
:100B200001900020E9F73197AF01481B590BBC0138
:100B30008CE392E00C945B048F929F92AF92BF92F1
:100B40000F931F93CF93DF93CDB7DEB7A1970FB667
:100B5000F894DEBF0FBECDBF19A2423008F44AE0C0
:100B60008E010F5D1F4F842E912CB12CA12CA5015D
:100B700094010E94F50CE62FB901CA01EA30F4F4A1
:100B8000E05DD801EE938D01232B242B252B79F7E3
:100B900090E080E0109719F0CD010E948F05A1969A
:100BA0000FB6F894DEBF0FBECDBFDF91CF911F917E
:100BB0000F91BF90AF909F908F900895E95CE1CF27
:100BC0001F920F920FB60F9211242F933F938F9382
:100BD0009F93AF93BF938091380290913902A09177
:100BE0003A02B0913B023091370223E0230F2D37B8
:100BF00058F50196A11DB11D20933702809338024C
:100C000090933902A0933A02B0933B028091330251
:100C100090913402A0913502B09136020196A11D47
:100C2000B11D8093330290933402A0933502B093A8
:100C30003602BF91AF919F918F913F912F910F906D
:100C40000FBE0F901F90189526E8230F0296A11D46
:100C5000B11DD2CF1F920F920FB60F9211240BB677
:100C60000F922F933F934F935F936F937F938F9345
:100C70009F93AF93BF93EF93FF938CE392E00E9417
:100C8000CF04FF91EF91BF91AF919F918F917F9191
:100C90006F915F914F913F912F910F900BBE0F90ED
:100CA0000FBE0F901F9018951F920F920FB60F92C4
:100CB00011240BB60F922F938F939F93EF93FF9373
:100CC000E0914C02F0914D028081E0915202F0914E
:100CD000530282FD1DC09081809155028F5F8F73FA
:100CE00020915602821741F0E0915502F0E0E45C59
:100CF000FD4F958F80935502FF91EF919F918F91BA
:100D00002F910F900BBE0F900FBE0F901F90189554
:100D10008081F2CF10923F0210923E0288EE93E063
:100D2000A0E0B0E08093400290934102A093420281
:100D3000B093430284E092E090933D0280933C02A2
:100D400085EC90E0909349028093480284EC90E017
:100D500090934B0280934A0280EC90E090934D0276
:100D600080934C0281EC90E090934F0280934E026E
:100D700082EC90E0909351028093500286EC90E0D8
:100D80009093530280935202109255021092560291
:100D9000109257021092580280E48093380385E045
:100DA0008093390345E35EE56AEF7EE340933A03BF
:100DB00050933B0360933C0370933D039FE39093F8
:100DC000F2028093F3024093F4025093F502609391
:100DD000F6027093F7029EE390937E0380937F0365
:100DE0008EE299E3AEEEBBE38093800390938103A0
:100DF000A0938203B09383038EE28093C4038FE2B7
:100E00008093C5031092F10280E090E0A6E9B2E47D
:100E10008093C6039093C703A093C803B093C903FC
:100E20001092F2031092F3031092F403EAECF3E051
:100E3000119211921192119283E0E23FF807C1F7EB
:100E400061E08FE20E946E0284E38093D90285E321
:100E50008093DB0282E38093DA0261E085E30E9403
:100E6000F10261E08091D9020E94F10260E080917C
:100E7000DA020E94F10261E08091DB020C946E02C2
:100E8000789484B5826084BD84B5816084BD85B565
:100E9000826085BD85B5816085BD80916E00816071
:100EA00080936E0010928100809181008260809317
:100EB0008100809181008160809381008091800019
:100EC0008160809380008091B10084608093B10044
:100ED0008091B00081608093B00080919100826029
:100EE0008093910080919100816080939100809126
:100EF00090008160809390008091A1008260809337
:100F0000A1008091A10081608093A1008091A00048
:100F100081608093A00080912101826080932101F3
:100F20008091210181608093210180912001816065
:100F30008093200180917A00846080937A00809170
:100F40007A00826080937A0080917A008160809339
:100F50007A0080917A00806880937A001092C100B4
:100F6000E0914C02F0914D0282E08083E0914802D2
:100F7000F09149021082E0914A02F0914B0280E127
:100F8000808310925402E0915002F091510286E069
:100F90008083E0914E02F0914F02808180618083D6
:100FA000E0914E02F0914F02808188608083E09151
:100FB0004E02F0914F02808180688083E0914E0262
:100FC000F0914F0280818F7D808382EF92E00E94BA
:100FD000240488E393E00E9424048EE793E00E94B7
:100FE000240461E08091C4030E94F10261E08091D9
:100FF000C5030E94F10223E2E22EF12C8CE392E081
:101000000E94B904181619060CF008C18CE392E08E
:101010000E9497048A3059F090912E02E92FF0E057
:10102000EC5DFD4F80839F5F90932E02E7CF809110
:101030002402843609F044C085E292E00E947E0AD0
:101040008C018093F102EC01DD27B090C40361E0D4
:101050008B2D0E94F102209729F460E08B2D0E94D5
:101060006E022BC0CF3FD10511F461E0F7CFEB2D1D
:10107000F0E0E05AFC4FE491E150E23108F0C9C0E1
:10108000F0E08827E95BF74F8F4F0C94170D590854
:1010900077087C088608900809099A08A208AA0817
:1010A000B408BE08C808D708E1080909EB08F50824
:1010B000FF0884B5806884BD07BD81E08093F2039A
:1010C00010922402109225021092260210922702FA
:1010D000109228021092290210922A0210922B02DA
:1010E00010922C0210922D0210922E0287CF84B5FE
:1010F000806284BD08BDE1CF8091800080688093CC
:101100008000D0938900C0938800D7CF8091800061
:10111000806280938000D0938B00C0938A00CDCFF3
:1011200080918000886080938000D0938D00C09370
:101130008C00C3CF8091B00080688093B000009392
:10114000B300BBCF8091B00080628093B000009369
:10115000B400B3CF80919000806880939000D093CA
:101160009900C0939800A9CF8091900080628093ED
:101170009000D0939B00C0939A009FCF80919000E5
:10118000886080939000D0939D00C0939C0095CF81
:101190008091A00080688093A0008091A0008F7B48
:1011A0008093A000D093A900C093A80086CF80911F
:1011B000A00080628093A000D093AB00C093AA00EF
:1011C0007CCF8091A00088608093A000D093AD0078
:1011D000C093AC0072CF8091200180688093200181
:1011E000D0932901C093280168CF809120018062AB
:1011F00080932001D0932B01C0932A015ECF809170
:101200002001886080932001D0932D01C0932C0190
:1012100054CFC038D1050CF028CF1FCF2FB7F8948A
:101220008091380290913902A0913A02B0913B022C
:101230002FBF40912F025091300260913102709186
:101240003202841B950BA60BB70B893E9340A10578
:10125000B10508F4B6C02FB7F89480913802909188
:101260003902A0913A02B0913B022FBF80932F0226
:1012700090933002A0933102B093320282EF92E059
:101280000E943F03609134037091350380913603CF
:10129000909137030CED12E022E046E00E94600AD4
:1012A00088E393E00E943F0360917A0370917B038F
:1012B00080917C0390917D0303EE12E022E046E0F2
:1012C0000E94600A8EE793E00E943F036091C00392
:1012D0007091C1038091C2039091C3030AEE12E0A2
:1012E00022E046E00E94600A8091F2038823E9F040
:1012F00020913403309135034091360350913703E8
:101300006091C6037091C7038091C8039091C9038F
:101310000E948C0D87FF09C060E08091C4030E9489
:101320006E021092F1021092F2036091F10270E0ED
:1013300090E080E04AE00E949C0582E192E00E94F9
:101340008F058AEE92E00E948F0582E192E00E9472
:101350008F0560E08091DB020E946E02C701019759
:10136000F1F70E949C02C82FD0E0DC2FCC270E940E
:101370009C02C82B61E08091DB020E946E02C2FDDC
:1013800018C083E0D695C7958A95E1F7BE0190E035
:1013900080E00E94C00D20E030E040E85EE30E9463
:1013A000770E4B015C01AC019B010E94E40E882387
:1013B00059F084E192E00E948F0580E292E00E9461
:1013C0008F050E945E051ACE2FEF3FEF4FE75FE7D4
:1013D000C501B4010E94E40E81110DC02FEF3FEF53
:1013E0004FE75FE7C501B4010E948C0D18161CF48D
:1013F00088E192E0E0CF2FEF3FEF4FE75FE4C501D8
:10140000B4010E94720E18161CF48CE192E0D3CF46
:101410002FEF3FEF4FE75FECC501B4010E948C0D49
:1014200087FDF3CF2AE037ED43EA5BE3C501B40162
:101430000E94200D2B013C010E94910D4B015C018B
:101440000E94C00D9B01AC01C301B2010E941F0D9F
:101450002B013C014AE0C501B4010E949C056EE2EB
:101460008CE392E00E94F10420E030E040E251E49D
:10147000C301B2010E94770E2B013C010E94910D25
:101480004B01B12CA12C4AE0C501B4010E949C057E
:10149000C501B4010E94C00D9B01AC01C301B201A2
:1014A0000E941F0D20E030E040E251E40E94770EE0
:1014B0000E94910D90E080E04AE00E949C057DCF63
:1014C000EF920F931F93CF93DF93E80134E047FD32
:1014D00034E1042E000C550B57FF03C05195419584
:1014E0005109E32E022F242FAE010E94A40ACE013F
:1014F000DF91CF911F910F91EF900895FC01882704
:101500009927E89421912032E9F3293010F02E3008
:10151000C8F32B3241F02D3239F4689404C00E9494
:101520009C0A820F911D219120532A30C0F31EF492
:10153000909581959F4F08957AE0979F902D879F72
:10154000802D910D112408958F929F92AF92BF929A
:10155000CF92DF92EF92FF920F931F93CF93DF937F
:1015600000D000D000D0CDB7DEB76A01F22EB02E89
:10157000102FFBE3AF2EA01608F41BE31F5F012F13
:1015800027E0AE014F5F5F4F0E941D0CBC018981B7
:10159000982F9970913009F44EC09BE2E1FC04C091
:1015A0009E2D9170E0FC49C05E2D5071E82FE870CF
:1015B00083FF55C084E0911101C083E0EF2DE81B4B
:1015C0008F1508F0E0E0D6018E2F20E25523C9F1F7
:1015D000992329F0D6019C93C60101966C019601CE
:1015E0002D5F3F4FE2FE33C08EE4D6018C9391E431
:1015F00011969C93119712968C93D9018E2F90E29D
:1016000081112AC0E20FF32FF11D10828EEF9FEFA0
:1016100029960FB6F894DEBF0FBECDBFDF91CF91F4
:101620001F910F91FF90EF90DF90CF90BF90AF9000
:101630009F908F9008959DE2B7CF90E2B5CF2D9304
:1016400081508111FCCFCE0ED11CE0E0C1CF8EE6DF
:10165000D6018C9391E6CCCF9D938150D1CF482F6A
:10166000447082FF3DC084E0911101C083E08F157A
:1016700010F4EF2DE81BD6018E2F20E2552309F13F
:10168000992329F0D6019C93C60101966C0196011D
:101690002D5F3F4FE2FE1BC089E4D6018C938EE4A0
:1016A00011968C93119786E412968C93D9018E2F04
:1016B00090E2882309F4A6CF9D938150FACF2D9311
:1016C00081508111FCCFCE0ED11CE0E0D9CF89E64C
:1016D000D6018C938EE611968C93119786E6E4CF13
:1016E0009B0177FF02C030E020E0A1E0B0E0911163
:1016F00002C0B0E0A0E0F9013196AE0FBF1F8B2C05
:10170000912CBB2009F461C05401EFEFAE1ABE0A60
:10171000AA0DBB1DFA161B0619F014F04F2D4A1B1B
:10172000511188C0E3FC59C07601A42FB0E2A11189
:101730004FC0C40ED11C992309F45BC040E0D60110
:101740001196F60190836D01552309F448C0012FCD
:10175000060F9A81582F507184FF03C0913309F40A
:10176000015010160CF047C0093008F008E0EEE216
:10177000FE2E5B01A01AB108850191948194910815
:101780002F3F320729F4D601FC92F60131966F0102
:101790006217730794F1021713077CF5DB01A21B94
:1017A000B30BAA24A394B12CAC0EBD1EAA0DBB1D75
:1017B00011968C9121503109D601119628153905C1
:1017C000F4F0F60180836D01DBCFB12CA12CA0CF0A
:1017D000F701B1937F01A150AACF9111B0CFD601EB
:1017E000942F50E302C05D9391509111FCCFC40E31
:1017F000D11C40E0ACCF01E0BACF80E3DBCF621771
:10180000730731F4963388F4953311F4552369F056
:10181000F6018083FD01842F90E2811108C0A40F9E
:10182000B11D1C9290E080E0F3CE81E3F1CF919363
:101830008150F3CF911183CF8ACF283008F027E071
:101840003327DA01990F311D87FD916000966105FC
:10185000710539F432602E5F3D9330E32A95E1F74C
:1018600008959F3F30F080387105610509F03C5FB5
:101870003C5F3D93913008F08068911DDF93CF93DA
:101880001F930F93FF92EF92192F987F9695E92F50
:1018900096959695E90FFF27EA51FE4F9927332732
:1018A000EE24FF24A701E70105900894079428F48B
:1018B000360FE71EF81E491F511D660F771F881F40
:1018C000991F0694A1F70590079428F4E70EF81ED7
:1018D000491F561FC11D770F881F991F661F069449
:1018E000A1F70590079428F4F80E491F561FC71F4B
:1018F000D11D880F991F661F771F0694A1F70590C9
:10190000079420F4490F561FC71FD81F990F661F51
:10191000771F881F0694A9F784911095177041F0DE
:10192000D695C79557954795F794E7941A95C1F7BB
:10193000ECE8F1E0689415901591359165919591D9
:1019400005907FE27395E118F10A430B560BC90B22
:10195000D009C0F7E10CF11E431F561FC91FD01D4F
:101960007EF4703311F48A95E6CFE894015030F09C
:10197000080F0AF40027021708F4202F2395022FDE
:101980007A3328F079E37D932A95E9F710C07D93A7
:101990002A9589F606949795679537951795179424
:1019A000E118F10A430B560BC90BD00998F02395A7
:1019B0007E9173957A3308F070E37C932013B8F727
:1019C0007E9170617D9330F0839571E37D9370E338
:1019D0002A95E1F71124EF90FF900F911F91CF917D
:1019E000DF91992787FD90950895A1E21A2EAA1BF1
:1019F000BB1BFD010DC0AA1FBB1FEE1FFF1FA217BF
:101A0000B307E407F50720F0A21BB30BE40BF50BBB
:101A1000661F771F881F991F1A9469F76095709544
:101A2000809590959B01AC01BD01CF010895EE0F0B
:101A3000FF1F881F8BBF0790F691E02D1994505817
:101A4000BB27AA270E94370D0C94380E0E942A0E3D
:101A500038F00E94310E20F039F49F3F19F426F43B
:101A60000C94270E0EF4E095E7FB0C94210EE92F61
:101A70000E94490E58F3BA17620773078407950747
:101A800020F079F4A6F50C946B0E0EF4E0950B2E75
:101A9000BA2FA02D0B01B90190010C01CA01A001C0
:101AA0001124FF27591B99F0593F50F4503E68F11B
:101AB0001A16F040A22F232F342F4427585FF3CF5C
:101AC000469537952795A795F0405395C9F77EF42D
:101AD0001F16BA0B620B730B840BBAF09150A1F076
:101AE000FF0FBB1F661F771F881FC2F70EC0BA0FFC
:101AF000621F731F841F48F4879577956795B79584
:101B0000F7959E3F08F0B0CF9395880F08F099277E
:101B1000EE0F9795879508950E94FD0D08F481E0DA
:101B200008950E94510E88F09F5798F0B92F992779
:101B3000B751B0F0E1F0660F771F881F991F1AF0B8
:101B4000BA95C9F714C0B13091F00E946B0EB1E0A4
:101B500008950C946B0E672F782F8827B85F39F0A3
:101B6000B93FCCF3869577956795B395D9F73EF451
:101B700090958095709561957F4F8F4F9F4F0895F9
:101B8000E89409C097FB3EF4909580957095619517
:101B90007F4F8F4F9F4F9923A9F0F92F96E9BB27CD
:101BA0009395F695879577956795B795F111F8CF49
:101BB000FAF4BB0F11F460FF1BC06F5F7F4F8F4FB4
:101BC0009F4F16C0882311F096E911C0772321F0AA
:101BD0009EE8872F762F05C0662371F096E8862F42
:101BE00070E060E02AF09A95660F771F881FDAF799
:101BF000880F9695879597F90895990F0008550FC6
:101C0000AA0BE0E8FEEF16161706E807F907C0F082
:101C100012161306E407F50798F0621B730B840B8A
:101C2000950B39F40A2661F0232B242B252B21F464
:101C300008950A2609F4A140A6958FEF811D811D04
:101C4000089597F99F6780E870E060E008959FEF3E
:101C500080EC089500240A94161617061806090643
:101C6000089500240A941216130614060506089512
:101C7000092E0394000C11F4882352F0BB0F40F49A
:101C8000BF2B11F460FF04C06F5F7F4F8F4F9F4FDA
:101C9000089557FD9058440F551F59F05F3F71F05C
:101CA0004795880F97FB991F61F09F3F79F08795C3
:101CB0000895121613061406551FF2CF4695F1DF4C
:101CC00008C0161617061806991FF1CF86957105DC
:101CD000610508940895E894BB2766277727CB0110
:101CE00097F908950E94FD0D08F48FEF08950E9462
:101CF0008A0E0C94380E0E942A0E38F00E94310E83
:101D000020F0952311F00C94210E0C94270E112431
:101D10000C946C0E0E94490E70F3959FC1F3950FC1
:101D200050E0551F629FF001729FBB27F00DB11D5F
:101D3000639FAA27F00DB11DAA1F649F6627B00DEF
:101D4000A11D661F829F2227B00DA11D621F739FD8
:101D5000B00DA11D621F839FA00D611D221F749FE6
:101D60003327A00D611D231F849F600D211D822F2D
:101D7000762F6A2F11249F5750409AF0F1F0882354
:101D80004AF0EE0FFF1FBB1F661F771F881F915081
:101D90005040A9F79E3F510580F00C94210E0C9401
:101DA0006C0E5F3FE4F3983ED4F386957795679584
:101DB000B795F795E7959F5FC1F7FE2B880F911DAB
:101DC0009695879597F908950E94FD0D880B990BBC
:061DD0000895F894FFCF16
:101DD60000000000F1045B0488043E05B904970482
:101DE600AB042C006E616E00696E66006F7666004D
:041DF6000D0A0000D2
:00000001FF
