:100000000C94F3010C9424020C9424020C9424020A
:100010000C9424020C9424020C9424020C942402C8
:100020000C9424020C9424020C9424020C942402B8
:100030000C9424020C9424020C9424020C942402A8
:100040000C9424020C9424020C9424020C94240298
:100050000C9424020C9424020C9424020C94941703
:100060000C9424020C9408180C94DE170C942402AF
:100070000C9424020C9424020C9424020C94240268
:100080000C9424020C9424020C9424020C94240258
:100090000C9424020C9424020C9424020C94240248
:1000A0000C9424020C9424020C9424020C94240238
:1000B0000C9424020C9424020C9424020C94240228
:1000C0000C9424020C9424020C9424020C94240218
:1000D0000C9424020C9424020C9424020C94240208
:1000E0000C9424020C94C2080C94C30D0C94231C91
:1000F0000C9499080C9429090C94BE080C9458107F
:100100000C94C4110C94700F0C942D1C0C94760854
:100110000C94CB0B0C94BF1B0C94DA0E0C945A1C51
:100120000C940A140C940E100C9432100C943E187B
:100130000C946E1C0C949C080C9451100C94DC1BB9
:100140000C94CC080C94AC0C0C94F51B0C94DD0CAA
:100150000C942A0F0C9430100C94070F0C942D1053
:100160000C94AC080C9404040C947B080C94E11BD4
:100170000C94C8080C94461C0C940F1C0C94A208F8
:100180000C94071C0C948D080C94BD0F0C94A608BD
:100190000C94B4080C945D0D0C94380F0C949508D5
:1001A0000C94FF1B0C945F100C94BA080C949017DD
:1001B0000C946E090C94191C0C94B0080C94160F36
:1001C0000C94EB1B0C9407140C94641C0C944510B9
:1001D0000C943C1C0C943E100C9401120C94501C7A
:1001E0000C94910800407A10F35A00A0724E18093E
:1001F0000010A5D4E80000E87648170000E40B548E
:10020000020000CA9A3B000000E1F505000080965C
:100210009800000040420F000000A086010000008E
:10022000102700000000E803000000006400000048
:1002300000000A00000000000100000000002C7611
:10024000D888DC674F0823DFC1DFAE59E1B1B7962C
:10025000E5E3E453C63AE651997696E8E6C2842689
:10026000EB898C9B62ED407C6FFCEFBC9C9F40F265
:10027000BAA56FA5F490055A2AF75C936B6CF967E1
:100280006DC11BFCE0E40D47FEF520E6B500D0EDA6
:10029000902E0300943577050080841E080000200E
:1002A0004E0A000000C80C333333330F986E1283AC
:1002B0001141EF8D2114893BE65516CFFEE6DB1880
:1002C000D1844B381BF77C1D901DA4BBE424203245
:1002D00084725E228100C9F124ECA1E53D27000073
:1002E0002100240027002A002D00300033000101E6
:1002F0000000040107010A01000022002500280077
:100300002B002E003100340002010000050108011D
:100310000B01050505050705080808080202020289
:100320000A0A080804040404010101010101010191
:100330000303030303030303040707070C0C0C0C5C
:100340000C0C0C0C02020202060606060606060645
:100350000B0B0B0B0B0B0B0B0102102020080810D2
:100360002040102040800201020108040201010225
:1003700004081020408080402010080402018004FE
:100380000201804020100804020108040201010259
:100390000408102040800102040810204080000062
:1003A0000A0B02090C0D0E080703040100000000EF
:1003B000000000000000000000000000000000003D
:1003C00000000000000000000000121110000000FA
:1003D000000000000000000000000000000000001D
:1003E000000000003E1811241FBECFEFD1E2DEBF97
:1003F000CDBF00E00CBF12E0A0E0B2E0E8E6FFE411
:1004000000E00BBF02C007900D92A239B107D9F7E7
:1004100027E0A2E9B2E001C01D92A732B207E1F7DE
:1004200011E0C3EFD1E000E006C021970109802F61
:10043000FE010E944222C23FD10780E00807A9F7CF
:100440000E9429190C94B2270C9400008F929F925D
:10045000AF92BF92EF92FF921F93CF93DF93DC0195
:100460002C9111E020FF17C0EC0189819A817D0158
:10047000BBE0EB0EF11C4F81588569857A85DC0164
:10048000ED91FC910088F189E02D97011995182FC5
:1004900081110CC010E0812FDF91CF911F91FF904F
:1004A000EF90BF90AF909F908F900895888181FDCD
:1004B00004C088818E7F8883EECF89819A814F81A5
:1004C000588569857A858B809C80AD80BE80480D7B
:1004D000591D6A1D7B1DDC01ED91FC910088F1899D
:1004E000E02D970119958111E4CFD4CFCF92DF92FF
:1004F000EF92FF921F93CF93DF93DC011196ED9162
:10050000FC91EF2B51F490E080E0DF91CF911F91AF
:10051000FF90EF90DF90CF900895122F6A017B013A
:10052000EC018F819885A985BA858C159D05AE054E
:10053000BF0561F0CE010E942602882321F312FF3D
:100540000CC01882CF82D886E986FA86137028817B
:10055000122B1883CE010B96D8CF89819A81DC01AA
:10056000ED91FC910084F185E02D9E01255F3F4FC8
:10057000B701A60119958111E4CFC5CF4F925F92C3
:100580006F927F928F929F92AF92BF92CF92DF92A3
:10059000EF92FF921F93CF93DF9390934D0380933D
:1005A0004C0310925103C12CD12C7601C394C092FC
:1005B0005503D0925603E0925703F092580390935C
:1005C0006F0380936E0310926D038FEF9FEFDC013A
:1005D0008093740390937503A0937603B09377038D
:1005E000662309F453C020E040E050E0BA018DE6F4
:1005F00093E00E947602009789F480E0DF91CF912A
:100600001F91FF90EF90DF90CF90BF90AF909F90A1
:100610008F907F906F905F904F900895FC01E2540F
:10062000FE4F2481222349F320812F7731F78A530B
:100630009E4FFC01C080D180E280F38020E0B701B2
:10064000A6018DE693E00E947602FC01892BA9F2B7
:1006500020898FEF820F823080F683859485811503
:10066000924059F620935203958590934E038FEF55
:10067000890F80934F0310E081E0981769F01F5FA6
:10068000193041F488E080935003B7CFC12CD12CAE
:100690007601D4CF880FF1CF1093500386899789C4
:1006A000B0E0A0E08093590390935A03A0935B03BA
:1006B000B0935C03892B8A2B8B2B61F484A195A1C9
:1006C000A6A1B7A18093590390935A03A0935B030B
:1006D000B0935C038685978526013701480E591E25
:1006E000611C711C4092610350926203609263032B
:1006F00070926403C189D289D0935403C093530389
:100700008090590390905A03A0905B03B0905C03D3
:10071000A22FB0E0A50194010E944A22460E571E66
:10072000681E791E4092690350926A0360926B03BF
:1007300070926C0385E0CC0FDD1F8A95E1F7C15004
:10074000DE4FCD2FDD27C6954C0E5D1E611C711C42
:1007500040925D0350925E0360925F03709260036B
:1007600083899489B0E0A0E00097A105B10521F448
:1007700080A191A1A2A1B3A1C418D508E608F708E9
:100780008C0D9D1DAE1DBF1D6C017D0104C0F69436
:10079000E794D794C7941A95D2F7D701C60101966A
:1007A000A11DB11D8093650390936603A093670319
:1007B000B093680385EFC8168FE0D806E104F10412
:1007C00068F48CE0809351038092700390927103DF
:1007D000A0927203B092730381E010CF80E135EFF5
:1007E000C3163FEFD306E104F10460F384A595A599
:1007F000A6A5B7A58093690390936A03A0936B03A2
:10080000B0936C0380E2DECF0F931F93DC01ED9178
:10081000FC910284F385E02D01E010E019951F9111
:100820000F9108958EBD00000DB407FEFDCF8EB56B
:1008300008958FEF0C941204FC013681323009F4D4
:10084000226081960C9476024F925F926F927F9213
:100850008F929F92AF92BF92CF92DF92EF92FF92D0
:100860000F931F93CF93DF9300D000D0CDB7DEB7A7
:100870009E838D836A017B0148015901DC01159635
:100880008C911597803209F03FC055968D919D91BE
:100890000D90BC91A02DE7E076956795579547950B
:1008A000EA95D1F7480F591F6A1F7B1F21E08D8100
:1008B0009E810E941C040097C1F480E026960FB62A
:1008C000F894DEBF0FBECDBFDF91CF911F910F9186
:1008D000FF90EF90DF90CF90BF90AF909F908F9060
:1008E0007F906F905F904F900895CC0CDD1CCC0CE6
:1008F000DD1CB1E0DB228C0D9D1DFC01808291820C
:10090000A282B38281E0DACF8031E1F4AD81BE8191
:1009100055964D915D916D917C9158974D0D511D5E
:10092000611D711D21E0CD010E941C04009729F278
:10093000CC0CDD1CB1E0DB228C0D9D1DFC01118374
:100940000083E0CF8C3009F0B8CF8A011695079567
:10095000040F151FC801892F99278695AD81BE8187
:1009600055964D905D906D907C905897480E591E0D
:10097000611C711C21E0B301A201CD010E941C0485
:10098000009709F49ACF1170282DFC01E00FF11F98
:10099000B701A601417055276627772749835A83F7
:1009A0006B837C83C0FE07C020812F7060E1869E30
:1009B000A0011124242B20830F5F1F4F011572E02B
:1009C000170781F4B301A2014F5F5F4F6F4F7F4F55
:1009D00021E08D819E810E941C04009709F46DCF57
:1009E00010E000E024E0B694A794979487942A95A9
:1009F000D1F7282DFC01E00FF11F89819A81AB818D
:100A0000BC81892B8A2B8B2B31F42081207F82940F
:100A10008FE088222829208375CF6F927F928F9252
:100A20009F92AF92BF92CF92DF92EF92FF920F937D
:100A30001F93CF93DF93423051056105710580F418
:100A40008FEFDF91CF911F910F91FF90EF90DF908B
:100A5000CF90BF90AF909F908F907F906F900895B0
:100A6000FC01C18CD28CE38CF48CC416D506E6064E
:100A7000F70630F339016A018C0185818032A1F5D6
:100A800085899689A789B08DE7E076956795579512
:100A90004795EA95D1F7480F591F6A1F7B1F20E041
:100AA000C8010E941C04009759F2CC0CDD1CCC0C30
:100AB000DD1CF1E0DF228C0D9D1DFC018081918108
:100AC000A281B381F801418D528D638D748D4817D9
:100AD00059076A077B0708F46DC0F301808391838F
:100AE000A283B38381E0ADCF8031D9F445895689A3
:100AF0006789708D4D0D511D611D711D20E0CF0165
:100B00000E941C04009709F49BCFCC0CDD1CF1E083
:100B1000DF228C0D9D1DFC0180819181B0E0A0E061
:100B2000D1CF8C3009F08CCFEA01D695C795C40F90
:100B3000D51FCE01892F9927869585889688A78805
:100B4000B08C880E991EA11CB11C20E0B501A40137
:100B5000CF010E941C04009709F472CF9E013170EE
:100B6000FC01E20FF31FC081D0E02F5F3F4F211542
:100B7000F2E03F0779F4B501A4014F5F5F4F6F4F7B
:100B80007F4F20E0C8010E941C04009709F458CF51
:100B900030E020E0820F931FFC018081D82BC0FE43
:100BA00007C084E0D695C7958A95E1F7CE01B6CF08
:100BB000DF70FCCF80E045CF9F92AF92BF92CF9283
:100BC000DF92EF92FF920F931F93CF93DF9300D0AA
:100BD0001F92CDB7DEB75C016A017B019E012F5FDA
:100BE0003F4FB701A601C5010E940D05982E87FD54
:100BF00044C082E0C816D104E104F104F0F1F5012B
:100C0000818D928DA38DB48D8C159D05AE05BF058C
:100C1000A0F100E010E09801B701A601C5010E9413
:100C20002404882351F1F50141855285638574853B
:100C3000C416D506E606F70650F4F1E0CF1AD1083F
:100C4000E108F108F501C186D286E386F486C98001
:100C5000DA80EB80FC809110C1CF0F900F900F9045
:100C60000F90DF91CF911F910F91FF90EF90DF9048
:100C7000CF90BF90AF909F90089580E0EECF0F93FC
:100C80001F93CF93DF93DC012C91211106C081E0EB
:100C9000DF91CF911F910F910895EC018A8187FF19
:100CA0003AC04C895D896E897F898E819F8121E060
:100CB00081960E947602009729F489818160898358
:100CC00080E0E6CFEC81FD81EF70FF2725E0EE0F9D
:100CD000FF1F2A95E1F7E80FF91F309771F3808124
:100CE000853E59F3888187738387888183FF08C095
:100CF000888D998DAA8DBB8D848F958FA68FB78F88
:100D00008C8D9D8DAE8DBF8D938F828FB58BA48B77
:100D10008A818F778A830E811F81C80181960E9404
:100D20002602882351F2F80180819181DC01ED9146
:100D3000FC910684F785E02D1995882309F4BDCF31
:100D4000A6CF4F925F926F927F928F929F92AF92B7
:100D5000BF92CF92DF92EF92FF920F931F93CF93A8
:100D6000DF93EC014A015B014C845D846E847F84D7
:100D70002881222309F45CC0488959896A897B89C2
:100D8000481559056A057B0581F081149104A10479
:100D9000B10469F41C861D861E861F86888A998A7E
:100DA000AA8ABB8A8A818F7D8A8381E046C023FF1D
:100DB0002CC0888D998DAA8DBB8D88159905AA05A3
:100DC000BB05B0F1EE81FF813481375F75016401AD
:100DD00081E0C81AD108E108F108032E04C0F69496
:100DE000E794D794C7940A94D2F78A8186FF36C0D5
:100DF0008C8D9D8DAE8DBF8D8C0D9D1DAE1DBF1D2F
:100E00008C879D87AE87BF87C9CF26FFDBCFEE815A
:100E1000FF818781908525E0880F991F2A95E1F74A
:100E2000B0E0A0E088159905AA05BB0508F0B6CF8B
:100E30004C865D866E867F8680E0DF91CF911F9124
:100E40000F91FF90EF90DF90CF90BF90AF909F9069
:100E50008F907F906F905F904F900895DB01CA0153
:100E60000197A109B10904C0B695A79597958795F3
:100E70003A95D2F7C816D906EA06FB0620F0452BAC
:100E8000462B472B49F527FF22C0858D968DA78DD0
:100E9000B0A18C879D87AE87BF878E01045F1F4FEF
:100EA000C114D104E104F10409F478CF4C855D85C7
:100EB0006E857F8598018E819F810E940D0591E04E
:100EC000C91AD108E108F108181654F3B1CF8C8D76
:100ED0009D8DAE8DBF8DDDCFC81AD90AEA0AFB0AF7
:100EE000DCCF3F924F925F926F927F928F929F9250
:100EF000AF92BF92CF92DF92EF92FF920F931F9328
:100F0000CF93DF9300D01F92CDB7DEB74C01FC0129
:100F10004484558466847784A680B780F501C184B3
:100F2000D284E384F484C414D504E604F704C0F442
:100F30007301620110E0FFEFCF1ADF0AEF0AFF0A28
:100F4000F501818D928DA38DB48D8C159D05AE0517
:100F5000BF0540F411112CC0C184D284E384F48411
:100F600011E0E9CF4C145D046E047F0409F19E0189
:100F70002F5F3F4FB701A601C5010E940D0587FDF8
:100F800017C08823C1F289819A81AB81BC81892BEA
:100F90008A2B8B2B81F6112329F0F501C186D2868D
:100FA000E386F486F2E0CF16D104E104F104C0F444
:100FB000312C832D0F900F900F900F90DF91CF91D8
:100FC0001F910F91FF90EF90DF90CF90BF90AF9067
:100FD0009F908F907F906F905F904F903F9008957B
:100FE000F501818D928DA38DB48D8C159D05AE0577
:100FF000BF05F0F20FEF1FEF2FEF3FE0B701A601A3
:10100000C5010E942404382E882391F24114510412
:1010100061047104B9F4F401C486D586E686F786C6
:101020008281411451046104710441F1FFEF4F1AB0
:101030005F0A6F0A7F0A4C145D046E047F0409F195
:101040008F7B1DC0F2E04F1651046104710408F457
:10105000AFCFF501818D928DA38DB48D841595054B
:10106000A605B70508F4A4CF97018601B301A20134
:10107000C5010E9424048111CECF9ACF8064F4016F
:101080008283F40182818068828393CF282F30E0AD
:10109000F901E256FC4F9491F901E85AFC4F449152
:1010A0002E5E3C4FF9012491222309F435C0992387
:1010B00011F191509231F8F4E92FF0E08827EC59C2
:1010C000F74F8F4F0C9442229508990876088D08A7
:1010D00091087B089C08A208A608AC08B008B408D0
:1010E000BA08BE087B08C208C808CC0880918000F6
:1010F0008F7780938000E22FF0E0EE0FFF1FE85023
:10110000FD4FA591B4918FB7F894EC91611148C04F
:1011100040954E234C938FBF0895809180008F7D22
:10112000E8CF80918000877FE4CF84B58F7784BD3E
:10113000E2CF84B58F7DFBCF8091B0008F77809315
:10114000B000D9CF8091B0008F7DF9CF8091900011
:101150008F7780939000CFCF809190008F7DF9CFD3
:1011600080919000877FF5CF8091A0008F7780934A
:10117000A000C1CF8091A0008F7DF9CF8091A00009
:10118000877FF5CF809120018F7780932001B3CFA7
:10119000809120018F7DF9CF80912001877FF5CF4D
:1011A0004E2BB8CFCF93DF93FC0121852223B9F0DA
:1011B000EC0161E087810E9446088FEF0E941204D3
:1011C0008091AE02882351F09FB7F8942091AE022F
:1011D0008091AD02213031F48DBB9FBF1986DF9124
:1011E000CF9108958FBFFACF0F931F93CF93DF93C3
:1011F0008C01862FEA010E941204FE0181918EBDAE
:10120000DE5FEC17FD0741F08191000000000DB496
:1012100007FEFDCF8EBDF5CF0DB407FEFDCF8FEFDE
:101220000E9412048FEF0E9412040E941904F80118
:1012300083878F71853059F081E28087C8010E94D1
:10124000D20880E0DF91CF911F910F91089581E046
:10125000F9CFCF93DF93FC0126812223B9F0EC0173
:101260000E94D2089FB7F8948091AC02882319F0AD
:1012700081508093AC028091AC02811105C08CB585
:101280008F7B8CBD1092AE029FBF1E82DF91CF91EB
:101290000895FC018185811120C024819581809170
:1012A000AE02882361F08FB7F8943091AE023130EE
:1012B00089F43DB33093AD023DB33DBB8FBF2CBD30
:1012C0009DBD81E0818760E087810E9446088FEFA5
:1012D0000C9412048093AD02F2CF08950F931F93E4
:1012E000CF93DF93FC01228510E0213089F0EC01DF
:1012F0000185011102C00E9449090E94190411E0F0
:101300008F3F09F410E0011103C0CE010E94D20802
:10131000812FDF91CF911F910F910895CF93DF938C
:1013200090E0FC01E85AFC4F24918E5E9C4FFC013A
:1013300084918823D1F090E0880F991FFC01E2523C
:10134000FD4FA591B491FC01E850FD4FC591D4919A
:1013500061110EC09FB7F8948C91E22FE0958E2317
:101360008C932881E223E8839FBFDF91CF9108957A
:101370008FB7F894EC91E22BEC938FBFF6CF8633C6
:1013800008F0865320917B00982F9870277F922B2E
:1013900090937B008770806480937C0080917A00BA
:1013A000806480937A0080917A0086FDFCCF8091E2
:1013B00078009091790008952F923F924F925F921A
:1013C0006F927F928F929F92AF92BF92CF92DF9255
:1013D000EF92FF920F931F93CF93DF93CDB7DEB7BA
:1013E000C154D1090FB6F894DEBF0FBECDBF8C013A
:1013F000DC018C910E94BF09BC01990F880B990BED
:101400000E946B22F80122813381448155810E9420
:10141000CF22D8011196BC912296BFAF22972B2ED6
:10142000312C7101E1E0EE1AF108F101EE0FFF1F1E
:10143000EE0FFF1FE00FF11F9701349712161306EE
:101440005CF42150310982809380A480B58086822B
:101450009782A086B186F1CFD80116966D937D93C1
:101460008D939C9319971696FE01319690E080E03B
:10147000821593050CF445C0AA24A394B12CA214A0
:10148000B3040CF04FC0FE0131966F01912C812CFA
:101490008E149F040CF03FC0D6018D919D910D904C
:1014A000BC91A02D21968CAF9DAFAEAFBFAF219761
:1014B000BFEF8B1A9B0AF6014480558066807780C7
:1014C000A301920121966CAD7DAD8EAD9FAD2197AC
:1014D0000E94CA2218168CF4D6014D925D926D922C
:1014E0007C92139721968CAD9DADAEADBFAD21978B
:1014F000F60184839583A683B783F4E0CF0ED11CD5
:10150000C7CF4D915D916D917D91419351936193C1
:1015100071930196ADCFFFEFAF1ABF0A21E0E21A37
:10152000F108ADCF2296EFAD2297E69584E0E89FD3
:10153000F0011124EC0FFD1F81819281A381B48100
:10154000F801EE5BFF4F80839183A283B383CF5B6F
:10155000DF4F0FB6F894DEBF0FBECDBFDF91CF9146
:101560001F910F91FF90EF90DF90CF90BF90AF90C1
:101570009F908F907F906F905F904F903F902F90B3
:101580000895EF92FF920F931F93CF93DF93EC0197
:1015900060E088810E948E097E0186E0E80EF11CE1
:1015A00010E000E0898180171106D9F0D4F088811D
:1015B0000E94BF09BC01990F880B990B0E946B22F6
:1015C0009B01AC016A817B818C819D810E94CF222D
:1015D000F70161937193819391937F010F5F1F4F87
:1015E000E1CFDF91CF911F910F91FF90EF90089580
:1015F0002FB7F8946091A8027091A9028091AA0275
:101600009091AB022FBF0895CF93DF93EC010E941E
:10161000F80AC60FD71F0E9419048F3F59F00E9485
:10162000F80ACE01861B970B97FFF5CF80E0DF917C
:10163000CF91089581E0FBCF1F93CF93DF93EC010F
:1016400088E592E00E94040B182F882361F08DEF4B
:101650000E941204CE010E94D2081A86812FDF91C7
:10166000CF911F9108958FE18887CE010E94D20803
:10167000F5CF0F931F93CF93DF93EC018B0188E598
:1016800092E00E94040B811107C085E28887CE0199
:101690000E94D20880E007C0A8016CEFCE010E9432
:1016A000F4088823A1F3DF91CF911F910F91089542
:1016B000DF92EF92FF920F931F93CF93DF93EC0192
:1016C000162F022FF32EE42ED52EE881F981068401
:1016D000F785E02D19958823D1F18985811103C003
:1016E000CE010E94490911112AC0812F80640E94F5
:1016F00012048D2D0E9412048E2D0E9412048F2D33
:101700000E941204802F0E94120487E8111101C068
:1017100085E90E9412040E9419040AE010E00E9468
:1017200019048B8787FF03C001501109C1F7DF91AE
:10173000CF911F910F91FF90EF90DF9008951C3093
:10174000A1F28CE291E00E94040B8111CECF8FEFC9
:10175000EECFCF93DF93EC018C85833039F089E0B5
:10176000440F551F661F771F8A95D1F79A01AB0169
:1017700069E1CE010E94580B882349F08EE08887EA
:10178000CE010E94D20880E0DF91CF91089582E0DF
:101790008A8781E0F9CF8F929F92AF92BF92CF92CA
:1017A000DF92EF92FF920F931F93CF93DF93EC01A1
:1017B0004A015B0169018A85823049F48D859E85E5
:1017C000AF85B88988159905AA05BB05C9F0B5018B
:1017D000A401CE010E94A90B81110EC080E0DF910F
:1017E000CF911F910F91FF90EF90DF90CF90BF901E
:1017F000AF909F908F9008958D869E86AF86B88A11
:10180000F12CE12CE016F10661F0B601CE010E9448
:10181000390B882319F38FEFE81AF80A8EEFD81ADC
:10182000F1CF8D859E85AF85B8898E0D9F1DA11D39
:10183000B11D8D879E87AF87B88B89898111CFCFE6
:10184000CE01DF91CF911F910F91FF90EF90DF902C
:10185000CF90BF90AF909F908F900C941C0BCF9225
:10186000DF92EF92FF920F931F93CF93DF93EC01E0
:1018700079010E94A90B8823E1F0D12CC12CC0165C
:10188000D10661F0B701CE010E94390B882389F09F
:101890008FEFC81AD80A8EEFF81AF1CFCE01DF9178
:1018A000CF911F910F91FF90EF90DF90CF900C940C
:1018B0001C0BCE010E94D20880E0DF91CF911F91D6
:1018C0000F91FF90EF90DF90CF9008950F931F93AB
:1018D000CF93DF93EC0189018C85833039F089E067
:1018E000440F551F661F771F8A95D1F79A01AB01E8
:1018F00068E1CE010E94580B882339F08DE088877B
:10190000CE010E94D20810E021C0A8016EEFCE01E6
:101910000E94F4088823A1F388E592E00E94040B5A
:10192000182F84E2112359F320E030E0A9016DE083
:10193000CE010E94580B882311F08AE0E0CF0E946C
:1019400019048111FACFCE010E94D208812FDF91B4
:10195000CF911F910F9108950F931F93DC01519622
:10196000EC915197EE2359F0ED91FC910288F389A7
:10197000E02D01E010E019951F910F9108951F913E
:101980000F910C94660CCF93DF93EC011A8620E044
:1019900030E0A9016CE00E94580B882349F089E0EF
:1019A0008887CE010E94D20880E0DF91CF91089510
:1019B000CE010E94D20881E0F8CFFC0122852230BE
:1019C00011F40C941C0B213011F40C94C30C81E025
:1019D0000895CF93DF93EC018C85833039F089E053
:1019E000440F551F661F771F8A95D1F79A01AB01E7
:1019F00062E1CE010E94580B882349F08CE0888771
:101A0000CE010E94D20880E0DF91CF91089581E05D
:101A10008A87FACFCF92DF92EF92FF920F931F93B4
:101A2000CF93DF93EC018B017A010E94F80A6B01DE
:101A300024EDC21A2EEFD20A0E9419048B878F3F21
:101A4000B1F40E94F80AC601861B970B97FFF4CFEA
:101A50008EE18887CE010E94D20880E0DF91CF918D
:101A60001F910F91FF90EF90DF90CF9008958E3FE0
:101A700011F089E1EECF8FEF8EBDF801C7013FEF86
:101A8000019749F0000000000DB407FEFDCF2EB510
:101A90003EBD2193F5CF81E0E81AF1080E0D1F1D20
:101AA0000DB407FEFDCF8EB5F80180831B860E9422
:101AB00019040E94190481E0D1CF8F929F92AF92B6
:101AC000BF92CF92DF92EF92FF920F931F93CF932B
:101AD000DF93EC014A015B0169018A85813049F499
:101AE0008D859E85AF85B88988159905AA05BB05A2
:101AF000C9F0B501A401CE010E94E90C81110EC00C
:101B000080E0DF91CF911F910F91FF90EF90DF90D8
:101B1000CF90BF90AF909F908F9008958D869E86B6
:101B2000AF86B88AF12CE12CE016F10671F040E0A6
:101B300052E0B601CE010E940A0D882309F38FEF0F
:101B4000E81AF80A8EEFD81AEFCF8D859E85AF85FB
:101B5000B8898E0D9F1DA11DB11D8D879E87AF87F2
:101B6000B88B89898111CDCFCE01DF91CF911F91A3
:101B70000F91FF90EF90DF90CF90BF90AF909F902C
:101B80008F900C94C30C0F931F93CF93DF93CDB71B
:101B9000DEB760970FB6F894DEBF0FBECDBF8C01E5
:101BA00020E030E0A90169E00E94580B882351F041
:101BB0008CE1F8018087C8010E94D20860E070E0E3
:101BC000CB015EC040E150E0BE016F5F7F4FC801B6
:101BD0000E940A0D882379F3C8010E94D2088981E6
:101BE000829586958695837009F055C06F8170E067
:101BF00090E080E03AE0660F771F881F991F3A95C2
:101C0000D1F766277C7088279927098510E046E080
:101C1000159507954A95E1F7012E000C220B330B21
:101C2000062B172B282B392B888590E0B0E0A0E0FD
:101C3000BC01CD0152E0660F771F881F991F5A958E
:101C4000D1F7602B712B822B932B6F5F7F4F8F4FC0
:101C50009F4F2A85220F322F36702B85221F222775
:101C6000221F232B3E813F70230F3327331F275022
:101C7000310904C0660F771F881F991F2A95D2F774
:101C800060960FB6F894DEBF0FBECDBFDF91CF9147
:101C90001F910F910895813009F090CF6885062F2C
:101CA00010E030E020E098011127002700271127DD
:101CB0002F73332789859A85982789279827B0E03D
:101CC000A0E0BC01CD01602B712B822B932B6F5FA9
:101CD0007F4F8F4F9F4F2AE0660F771F881F991FF6
:101CE0002A95D1F7CDCFCF92DF92EF92FF920F934B
:101CF0001F93CF93DF93EC0179010E94E90C8823B5
:101D0000F1F0D12CC12C0C151D0571F040E052E012
:101D1000B701CE010E940A0D882389F08FEFC81AFF
:101D2000D80A8EEFF81AEFCFCE01DF91CF911F9135
:101D30000F91FF90EF90DF90CF900C94C30C80E058
:101D4000DF91CF911F910F91FF90EF90DF90CF9097
:101D500008950F931F93CF93DF93EC0189018C8536
:101D6000833039F089E0440F551F661F771F8A952D
:101D7000D1F79A01AB0161E1CE010E94580B882393
:101D800039F08BE08887CE010E94D20810E00CC0A9
:101D900040E052E0B801CE010E940A0D182F8823BE
:101DA00091F3CE010E94D208812FDF91CF911F9134
:101DB0000F910895AF92BF92CF92DF92EF92FF9270
:101DC0000F931F93CF93DF936C017B018B01040F63
:101DD000151FEB015E01AE18BF08C017D10759F0FF
:101DE0006991D601ED91FC910190F081E02DC60141
:101DF0001995892B79F7C501DF91CF911F910F912B
:101E0000FF90EF90DF90CF90BF90AF900895FC01CE
:101E1000538D448D252F30E0842F90E0821B930B4F
:101E2000541710F0CF96089501970895FC01918DF5
:101E3000828D981761F0A28DAE0FBF2FB11D5D96F8
:101E40008C91928D9F5F9F73928F90E008958FEF9A
:101E50009FEF0895FC01918D828D981731F0828D4E
:101E6000E80FF11D858D90E008958FEF9FEF0895A5
:101E7000FC01918D228D892F90E0805C9F4F821B09
:101E800091098F73992708958FEA92E00E94380F85
:101E900021E0892B09F420E0822F0895FC01A48D14
:101EA000A80FB92FB11DA35ABF4F2C91848D90E07C
:101EB00001968F739927848FA689B7892C93A0895F
:101EC000B1898C91837080648C93938D848D9813E9
:101ED00006C00288F389E02D80818F7D808308957C
:101EE000EF92FF920F931F93CF93DF93EC0181E06A
:101EF000888F9B8D8C8D98131AC0E889F989808111
:101F000085FF15C09FB7F894EE89FF896083E88943
:101F1000F98980818370806480839FBF81E090E035
:101F2000DF91CF911F910F91FF90EF900895F62EC2
:101F30000B8D10E00F5F1F4F0F731127E02E8C8D5C
:101F40008E110CC00FB607FCFACFE889F9898081A1
:101F500085FFF5CFCE010E944E0FF1CFEB8DEC0F38
:101F6000FD2FF11DE35AFF4FF0829FB7F8940B8FBE
:101F7000EA89FB8980818062CFCFCF93DF93EC0128
:101F8000888D8823B9F0AA89BB89E889F9898C9161
:101F900085FD03C0808186FD0DC00FB607FCF7CF1D
:101FA0008C9185FFF2CF808185FFEDCFCE010E941D
:101FB0004E0FE9CFDF91CF91089580E090E0892B1B
:101FC00029F00E94440F81110E94000080E090E0FF
:101FD000892B49F080E090E0892B29F00E940000D5
:101FE00081110E94000080E090E0892B49F080E0A0
:101FF00090E0892B29F00E94000081110E940000CE
:1020000080E090E0892B49F080E090E0892B29F076
:102010000E94000081110C9400000895FC01848549
:1020200083FF17C084A195A1A6A1B7A1448D558DAA
:10203000668D778D841B950BA60BB70B811520E859
:102040009207A105B10520F08FEF9FE7A0E0B0E077
:10205000089580E090E0DC01F1CF0C960C943F06EF
:10206000089508950F931F93DC01ED91FC91028870
:10207000F389E02D19951F910F910895DC01ED91E1
:10208000FC910088F189E02D19940F931F93DC01D6
:10209000ED91FC910284F385E02D19951F910F912C
:1020A0000895DC01ED91FC910084F185E02D1994F7
:1020B000DC01ED91FC910684F785E02D199490E008
:1020C00080E00895FC0101900020E9F73197AF010D
:1020D000481B590BBC018FEA92E00C94DA0E8F92E8
:1020E0009F92AF92BF92CF92DF92EF92FF920F93A7
:1020F0001F93CF93DF93EC017B013A8130FFCAC07D
:10210000288188889988AA88BB88422F4870C42E65
:1021100023FF22C0888D998DAA8DBB8D88199909BE
:10212000AA09BB0982309105A105B10520F50097E8
:1021300011F530E020E0A901481B590BCA01DF91DD
:10214000CF911F910F91FF90EF90DF90CF90BF90B4
:10215000AF909F908F90089526FF0DC0EE81FF8174
:102160008781908545E0880F991F4A95E1F788158A
:10217000990509F495C0EE81FF8184011170B501C4
:10218000A40189E076956795579547958A95D1F78B
:1021900026FF27C0858D968DA78DB0A1480F591FAA
:1021A0006A1F7B1F8E819F8120E081960E947602AC
:1021B000009709F46FC0800F911FFC018081F70127
:1021C000808388899989AA89BB890196A11DB11D3F
:1021D000888B998BAA8BBB8B21E030E090E080E06C
:1021E000AACFD380D4220115110581F4D1100EC0DD
:1021F00089288A288B2881F527FF29C0858D968D0F
:10220000A78DB0A18C879D87AE87BF87EE81FF81A8
:102210004C855D856E857F85425051096109710944
:10222000848104C0440F551F661F771F8A95D2F71B
:1022300081899289A389B489840F951FA61FB71F2E
:10224000AC01BD014D0D511D611D711DABCF8C8DBC
:102250009D8DAE8DBF8DD6CF4C855D856E857F857E
:10226000CC2059F036FF09C04F5F5F4F6F4F7F4F53
:102270004C875D876E877F87C9CF9E01245F3F4F64
:10228000CF010E940D0587FD05C08111BFCF888158
:10229000807D49F48981826089838FEF9FEF4FCFE2
:1022A00030E020E09BCF21E030E081E090E043CFC0
:1022B000EF92FF920F931F93CF93DF931F92CDB7AF
:1022C000DEB77C01962FF7014089518962897389B5
:1022D0008A019B0185E036952795179507958A9584
:1022E000D1F70F7011F0911129C0BE016F5F7F4FC0
:1022F000C7010E946F10813051F090E080E00F9094
:10230000DF91CF911F910F91FF90EF900895F7010A
:1023100080899189A289B3894F96A11DB11D808BB7
:10232000918BA28BB38BF701868197818C96F0E21B
:102330000F9F90011124820F931FE1CF405E5F4FEA
:102340006F4F7F4F408B518B628B738BECCFCF9352
:10235000DF93EC01AB0170E060E085E0440F551FB6
:10236000661F771F8A95D1F7CE010E94A1068823A8
:1023700031F060E0CE01DF91CF910C94581190E0E4
:1023800080E0DF91CF9108958F929F92AF92BF929C
:10239000CF92DF92EF92FF920F931F93CF93DF9331
:1023A0001F92CDB7DEB78C01FC01848C958CA68C76
:1023B000B78CC08CD18CE28CF38CBE016F5F7F4FE9
:1023C0000C960E946F100197C9F4898190E0F80182
:1023D000848E958EA68EB78EC08ED18EE28EF38EB1
:1023E0000F90DF91CF911F910F91FF90EF90DF90B1
:1023F000CF90BF90AF909F908F9008958FEF9FEFF9
:10240000E6CFCF93DF931F92CDB7DEB7BE016F5FEC
:102410007F4F0C960E946F10019731F4898190E0F4
:102420000F90DF91CF9108958FEF9FEFF9CF2F920B
:102430003F924F925F926F927F928F929F92AF9254
:10244000BF92CF92DF92EF92FF920F931F93CF93A1
:10245000DF9300D000D01F921F92CDB7DEB79887D0
:102460008F833B011A01DC0112968C9181FFBCC065
:1024700083FDADC0A10170E060E0EF81F885808947
:102480009189A289B38980959095A095B09584177C
:102490009507A607B70708F4A7C061013C96FE831D
:1024A000ED83EF81F88580889188A288B388C11474
:1024B000D10409F415C146805780D2011396FC90CF
:1024C000B501A40199E076956795579547959A953A
:1024D000D1F7F42284011170F11023C04485558591
:1024E000668577850115110509F026C1411551054D
:1024F0006105710509F490C0228126FF7DC0808DA1
:10250000918DA28DB38D88169906AA06BB0608F098
:1025100073C04F5F5F4F6F4F7F4F4487558766870C
:102520007787AF81B8851696ED91FC9117971C9629
:102530004D915D916D917C911F97425051096109B8
:102540007109848104C0440F551F661F771F8A9547
:10255000D2F781899289A389B489840F951FA61F18
:10256000B71FAC01BD014F0D511D611D711D01153E
:10257000110509F0F6C0C114B2E0DB0608F4F1C0A1
:1025800080A491A4A2A4B3A442A053A0C11484E047
:10259000D80608F064C0481559056A057B0541F462
:1025A00011A28FEF9FEFDC0180A791A7A2A7B3A78D
:1025B000D201ED91FC910088F189E02D9301C201D7
:1025C0001995882389F0E12C82E0F82E0DC1AF81A6
:1025D000B88558964D915D916D917C915B97CD0139
:1025E0000E94A106811146CFEF81F885818181602B
:1025F0008183312C212C86C02D813E81C2010E9415
:102600000D0587FDF1CF81118CCF8F8198850E94B8
:102610007107811186CFE8CFEF81F885848D958D84
:10262000A68DB78D0097A105B10581F4CF010E9459
:1026300071078823C9F2EF81F88584859585A68581
:10264000B785848F958FA68FB78F6BCFEF81F88575
:1026500084879587A687B78764CF21E0A9C08601C4
:10266000012F1127069530E020E082818F19990B08
:10267000092E000CAA0BBB0B081719072A073B07EA
:1026800010F4D901C8018C019D010F2EF9E0000F53
:10269000111F221F331FFA95D1F7F02D78018C01FD
:1026A00084169506A606B70688F0840F951FA61F08
:1026B000B71F88169906AA06BB0640F411A28FEF31
:1026C0009FEFDC0180A791A7A2A7B3A7D201ED914C
:1026D000FC910288F389E02D9301C201199581C014
:1026E000EF81F885808D918DA28DB38D8815990528
:1026F000AA05BB0538F4808E918EA28EB38E82819E
:1027000080688283C10128960FB6F894DEBF0FBEA1
:10271000CDBFDF91CF911F910F91FF90EF90DF9090
:10272000CF90BF90AF909F908F907F906F905F9071
:102730004F903F902F900895F20142505109610946
:102740007109848104C0440F551F661F771F8A9545
:10275000D2F781899289A389B489480F591F6A1FCA
:102760007B1F80E092E0801B910B76018C159D050C
:1027700008F47C010115110509F06FCFAF81B88510
:1027800050968D909D90AD90BC90539758968D919A
:102790009D910D90BC91A02D88169906AA06BB06A6
:1027A00030F4AF81B88512968C9185FF56CF25E025
:1027B000CF0181960E947602009709F415CFA701F8
:1027C000B301800F911F0E94BF240E0D1F1D011524
:1027D000124051F4EF81F8858681978181960E949D
:1027E0002602882309F400CFEF81F885808991893A
:1027F000A289B3898E0D9F1DA11DB11D808B918B68
:10280000A28BB38B6E0C7F1CCE18DF084ACE0C96C1
:102810000C941712CF93DF931F92CDB7DEB7698365
:1028200041E050E0BE016F5F7F4F0C960E9417128F
:102830000F90DF91CF9108952F923F924F925F9228
:102840006F927F928F929F92AF92BF92CF92DF92C0
:10285000EF92FF920F931F93CF93DF93CDB7DEB725
:10286000A8970FB6F894DEBF0FBECDBF8C01FB0159
:10287000DC018C91807D11F480E0F2C28091B8057A
:102880008111FACF868197810C966DE070E00E94ED
:102890000C22762E81858370662463948111660EE6
:1028A0004CA37F01F8010680F781E02DFBA3EAA38A
:1028B00040E050E0BA01C8010E94A10619A21EA280
:1028C000812CC12C912CD12C1DA29701265F3F4F4A
:1028D00038A72FA3D80150962D903D904D905C9035
:1028E0005397A5E05694479437942794AA95D1F727
:1028F000510160E0C8010E945811FC01892B09F0C8
:1029000073C0F80181818111B7CFECA1E4FFB4CF8E
:10291000E03109F4B1CF992011F0A9A0BEA096141E
:1029200008F080C160E0C8010E945811892B09F0AD
:1029300057C1D80111968C91C12CF2E0DF2E811184
:102940009BCFF801808186FD97CF80899189A289EC
:10295000B38981159E4FAF41B10508F08DCFC801F5
:102960000E947107882309F487CFD8011696ED914C
:10297000FC9117971C962D903D904D905C901F9761
:10298000B2E02B1A310841085108848104C0220C9E
:10299000331C441C551C8A95D2F781899289A389DE
:1029A000B489280E391E4A1E5B1E812CD80116964A
:1029B000ED91FC918281881608F014C125E0B201E6
:1029C000A101480D511D611D711DCF0181960E940D
:1029D0007602009709F450CFFC0196011192215024
:1029E0003040E1F78394E2CF2081253E11F02111A0
:1029F0000EC0911002C029A23EA2961408F493942E
:102A0000222309F482CF253E29F4D12C63CF9614DA
:102A100008F444C02E32C9F333853F3009F071C049
:102A2000D1103EC0322F3F71C32E731253CF26FFF9
:102A300051CF8584D72C81E0C8124CCF80E2F801B9
:102A4000DE01119601900D928A95E1F7D7018D91E3
:102A50009C91119713969C938E931297552453949F
:102A6000D51408F437CFB501CE0101960E94A71105
:102A7000009759F2F70144815581FC0160E065300F
:102A8000B0F421813281D70112962D903C9024160A
:102A90003506A9F4232B09F41DCFB7CF912CBACF5B
:102AA000CA942C11B2CF8585881529F2AECF6B3030
:102AB00018F424813581E7CF26813781E4CF20388F
:102AC000310508F0A2CF8FE9820F8A3108F4205235
:102AD000C1010196D70113969C938E931297D10151
:102AE0008C919FE9980F9A3108F4805282138DCF10
:102AF0006F5F32966D3019F65394B1E0AB1AB1089E
:102B0000AFCF33FD82CFDD2009F458C021E0C212DF
:102B1000B3CE9F01255F3F4F80E080FB879587F90B
:102B20009191890F2E173F07C1F78812A5CEE8EBC8
:102B3000F5E080E2DF011D928A95E9F7F801A681B0
:102B4000B781B093BF05A093BE05B092BD05A0921A
:102B5000BC05448D558D668D778D4093C00550938F
:102B6000C1056093C2057093C305FD01BC962FE0BB
:102B7000A222BB2435E0AA0CBB1C3A95E1F7EA0D72
:102B8000FB1D838583FD15C087738093B8059385EE
:102B9000987119F488608093B805D092BB054CA158
:102BA0004370413009F477C108F418C1423009F488
:102BB00070C11092B8051092BA055ECE4BE050E09D
:102BC0006FA178A5CF010E94B224892B09F082CE93
:102BD000D70119968C9180FFAACFB1E0BDA37ACE20
:102BE00093949DCE8481960102C0220F331F8A9553
:102BF000E2F7F80180899189A289B389820F931F36
:102C0000A11DB11D808B918BA28BB38BAAA1BBA1FF
:102C100012968C91B0E18B9FC0011124980E9614EE
:102C200008F48FCEEDA1EE2309F440C0D701189629
:102C30005C9072E6472ED12CC12CEEE73E2E470168
:102C4000BAE08B0E911C0E94F80AC60ED71EE3E074
:102C5000E51510F463E0562E94E0950D8C2D8F70E1
:102C60008A3008F08BC0805DF701E90FF11D828783
:102C700054E0D694C7945A95E1F79150591670F3E1
:102C8000F701E50DF11D328640E050E0BA01C801C0
:102C90000E94A10661E0C8010E945811009709F046
:102CA0006FC0D80111968C918111E6CDDD24DA94A4
:102CB000D60CAD0CB11C80E2F801DE01119601903A
:102CC0000D928A95E1F74701FAE08F0E911CF4010D
:102CD000C7014596612C60FA679467F82191620EEE
:102CE0008E179F07C1F7D7018D919C91119713966D
:102CF0009C938E931297CC24C394512C4D2C6894A2
:102D000046F84FE0342EB501DC1408F4C6C06C1947
:102D10007109CE0101960E94A711FC01892B09F4CB
:102D2000ABCDAF81B88591968C919197816091964A
:102D30008C93842DDC108C2D8083338614866586DD
:102D4000138E128ED70114964D915C9160E0D701DD
:102D500012962D913C9113972417350731F5552084
:102D600081F153942FEF3FEF653080F5328321835B
:102D70006F5F32966D3059F7C394C5CF895C74CFBD
:102D8000FC012081222309F491CF238523FD82CFEA
:102D90004BE050E0BC01C4010E94B224892B09F031
:102DA00079CF4A9441104FCF67CDC9010196139650
:102DB0009C938E931297D9012C91022E000C330B09
:102DC000D3CF30E020E055245394CECF6B3018F4AD
:102DD00035832483CDCF37832683CACF81E0809388
:102DE000BA058091BA0581FF09C08091B805982F76
:102DF000917109F0DECE80628093B80598968D912E
:102E00009D910D90BC91A02D8093CC059093CD0504
:102E1000A093CE05B093CF0584899589B0E0A0E05A
:102E2000DC0199278827428D538D70E060E0842B68
:102E3000952BA62BB72B8093D4059093D505A09303
:102E4000D605B093D705848D958DA68DB78D8093CB
:102E5000D0059093D105A093D205B093D30581E01E
:102E6000A8960FB6F894DEBF0FBECDBFDF91CF910D
:102E70001F910F91FF90EF90DF90CF90BF90AF9098
:102E80009F908F907F906F905F904F903F902F908A
:102E9000089583E0A4CF82E0A2CFC8010E94A711C9
:102EA000009709F4E9CC20E2FC0111922A95E9F798
:102EB0002BE0F401DC0101900D922A95E1F7D70196
:102EC00019962C912871FC01248721E238E5318B79
:102ED000208B318F208F338B228BAAA1BBA191969F
:102EE0008C919197816091968C9321CEFC0180E228
:102EF000DF011D928A95E9F777836683DB011596DA
:102F00008C91803121F0803239F08C3039F480E4BA
:102F1000808381E08283089580E8FACF80E008957D
:102F20000C9429240C9429241F920F920FB60F920F
:102F300011242F933F938F939F93AF93BF938091CF
:102F4000A8029091A902A091AA02B091AB0230917F
:102F5000A70223E0230F2D3758F50196A11DB11DBF
:102F60002093A7028093A8029093A902A093AA029B
:102F7000B093AB028091A3029091A402A091A5020C
:102F8000B091A6020196A11DB11D8093A30290935A
:102F9000A402A093A502B093A602BF91AF919F9106
:102FA0008F913F912F910F900FBE0F901F9018950A
:102FB00026E8230F0296A11DB11DD2CF1F920F92BA
:102FC0000FB60F9211240BB60F922F933F934F938E
:102FD0005F936F937F938F939F93AF93BF93EF9381
:102FE000FF938FEA92E00E944E0FFF91EF91BF9105
:102FF000AF919F918F917F916F915F914F913F9191
:103000002F910F900BBE0F900FBE0F901F90189531
:103010001F920F920FB60F9211240BB60F922F939F
:103020008F939F93EF93FF93E091BF02F091C002C3
:103030008081E091C502F091C60282FD1DC09081A1
:103040008091C8028F5F8F732091C902821741F06F
:10305000E091C802F0E0E155FD4F958F8093C802E2
:10306000FF91EF919F918F912F910F900BBE0F9039
:103070000FBE0F901F9018958081F2CF1092B20270
:103080001092B10288EE93E0A0E0B0E08093B3022A
:103090009093B402A093B502B093B6028AE092E096
:1030A0009093B0028093AF0285EC90E09093BC02C5
:1030B0008093BB0284EC90E09093BE028093BD02AB
:1030C00080EC90E09093C0028093BF0281EC90E08E
:1030D0009093C2028093C10282EC90E09093C4026C
:1030E0008093C30286EC90E09093C6028093C50261
:1030F0001092C8021092C9021092CA021092CB021A
:1031000080E48093660685E08093670645E35EE58C
:103110006AEF7EE3409368065093690660936A06FF
:1031200070936B069FE39093200680932106409353
:1031300022065093230660932406709325069EE38F
:103140009093AC068093AD068EE299E3AEEEBBE3BE
:103150008093AE069093AF06A093B006B093B106ED
:103160008EE28093F2068FE28093F30610921F06A0
:1031700080E090E0A6E9B2E48093F4069093F5062F
:10318000A093F606B093F70610922007109221073D
:1031900010922207E8EFF6E011921192119211922B
:1031A00087E0E032F807C1F761E08FE20E9446084D
:1031B00010925103109278051092790510927A05B9
:1031C000109299051092980580E580939E051092C3
:1031D0009F051092A0058AE28093A2051092A60591
:1031E0008EE292E090939B0580939A051092AB0536
:1031F0001092AF051092AE0588EE93E0A0E0B0E02B
:103200008093B0059093B105A093B205B093B30538
:103210001092B8051092B9051092BA058CE192E0AF
:103220009093AD058093AC058AE096E09093F70506
:103230008093F60581E38093FB0582E38093F80594
:1032400081E08093FA0585E38093F9051092FC05EF
:103250000895CF93DF93CDB7DEB7EB970FB6F89411
:10326000DEBF0FBECDBF789484B5826084BD84B5C7
:10327000816084BD85B5826085BD85B5816085BD71
:1032800080916E00816080936E0010928100809129
:1032900081008260809381008091810081608093B1
:1032A0008100809180008160809380008091B100D6
:1032B00084608093B1008091B00081608093B00001
:1032C0008091910082608093910080919100816053
:1032D0008093910080919000816080939000809114
:1032E000A10082608093A1008091A1008160809301
:1032F000A1008091A00081608093A00080912101B5
:10330000826080932101809121018160809321015D
:103310008091200181608093200180917A008460F7
:1033200080937A0080917A00826080937A00809105
:103330007A00816080937A0080917A00806880931F
:103340007A001092C100E091BF02F091C00282E0C9
:103350008083E091BB02F091BC021082E091BD023B
:10336000F091BE0280E180831092C702E091C30217
:10337000F091C40286E08083E091C102F091C20224
:10338000808180618083E091C102F091C2028081DE
:1033900088608083E091C102F091C20280818068E0
:1033A0008083E091C102F091C20280818F7D808391
:1033B00080E296E00E94C10A86E696E00E94C10A79
:1033C0008CEA96E00E94C10A61E08091F2060E94B8
:1033D0008E0961E08091F3060E948E0961E0809180
:1033E000FB050E948E09A091F805B0E020E432E4CC
:1033F0004FE050E00E944A226B017C011091FA05D7
:103400008091F9051092A3051092A0051092A205D3
:103410001092A6058093A10561E00E948E0961E0EB
:103420008091A1050E94460882E580939E05109236
:103430009F050FB7F8948091AC02811127C0E7E493
:10344000F3E08491EDE8F3E09491E82FF0E0EE0FE3
:10345000FF1FE252FD4FA591B491EC91E92321F4B5
:1034600061E085E30E94460861E085E30E948E09E1
:103470008CB580618CBD8CB580648CBD61E084E3CB
:103480000E948E0961E083E30E948E098091AC0264
:103490008F5F8093AC020FBF81E08093A0051092F4
:1034A000A4058AE995E00E94490961E08091A1059F
:1034B0000E9446080AE08FEF0E9412040150D9F7DB
:1034C00060E08091A1050E9446080AE020E030E01B
:1034D000A90160E08AE995E00E94580BB82EAA2461
:1034E000A3948A15D1F1015079F581E08093A2056A
:1034F0008AE995E00E94D2088AE995E090939905BF
:10350000809398058091A205811118C061E08AE935
:1035100095E00E94BE02882309F4A8C088E795E0E0
:103520000E943F061092780510927A056CE473E0D1
:1035300088E795E00E9476178111A0C061E0809134
:10354000FB050E944608A3C0BB24BA948FEF0E94DB
:103550001204BA94B110FACFB9CF2AEA31E040E0B0
:1035600050E068E08AE995E00E94580B82FD0EC0A9
:1035700082E08093A60504E00E9419048093A505CB
:103580000150D1F78A3A21F086E0B0CFB092A6057B
:103590008091A605412C512C612C30E4732E823091
:1035A00019F0412C512C32010E94F80A5B0120E3F2
:1035B000A21A28EFB20A20E030E0A90167E38AE905
:1035C00095E00E94580BA301920169E28AE995E017
:1035D0000E94580B082F882349F00E94F80AC50161
:1035E000861B970B97FFE7CF87E180CF8091A605D9
:1035F0008230D1F420E030E0A9016AE38AE995E065
:103600000E94580B882311F082E170CF0E941904A8
:10361000807C803C19F483E08093A6050E94190405
:103620000E9419040E9419048AE995E00E94D208B8
:1036300080E092E1AAE7B0E0C816D906EA06FB06E8
:1036400040F4B695A795979587950F5F0630A1F73B
:1036500007E0802F806A869580939E050095017013
:1036600000939F0511701093AB0546CF60E08AE987
:1036700095E00E94BE02811151CF60CF8CE493E0AF
:1036800090939E0280939D0281E08093FC056CE400
:1036900072E08DEF95E00E94C824DD24D3941AE0F7
:1036A000412E512C612C712CAE014F5F5F4F7A017E
:1036B000BE01695C7F4F78AF6FAB8FEA92E00E94EA
:1036C000380F181619060CF033C18FEA92E00E94E9
:1036D000160F8A3059F090919C02E92FF0E0EE56D7
:1036E000FD4F80839F5F90939C02E7CF8091920271
:1036F0008F3609F40AC1823709F4F5C0843609F01F
:103700000EC183E992E00E94951F5C0180931F0621
:103710008C011127C090F20661E08C2D0E948E0969
:103720000115110529F460E08C2D0E9446082BC07C
:103730000F3F110511F461E0F7CFEC2DF0E0E256F8
:10374000FC4FE491E150E23108F0C8C0F0E0882776
:10375000E355F44E8F4F0C944222BF1BDC1BE11B40
:10376000EB1BF51B6E1CFF1B071C0F1C191C231CDD
:103770002D1C3C1C461C6E1C501C5A1C641C84B521
:10378000806884BDA7BCD09220071092920210924C
:103790009302109294021092950210929602109247
:1037A0009702109298021092990210929A02109227
:1037B0009B0210929C0281CF84B5806284BDA8BC1C
:1037C000E2CF809180008068809380001093890010
:1037D00000938800D8CF8091800080628093800021
:1037E00010938B0000938A00CECF80918000886078
:1037F0008093800010938D0000938C00C4CF809143
:10380000B00080688093B000A092B300BCCF8091DC
:10381000B00080628093B000A092B400B4CF8091D9
:103820009000806880939000109399000093980016
:10383000AACF8091900080628093900010939B00AB
:1038400000939A00A0CF80919000886080939000B0
:1038500010939D0000939C0096CF8091A0008068FB
:103860008093A0008091A0008F7B8093A000109394
:10387000A9000093A80087CF8091A0008062809368
:10388000A0001093AB000093AA007DCF8091A00010
:1038900088608093A0001093AD000093AC0073CFBC
:1038A000809120018068809320011093290100936A
:1038B000280169CF809120018062809320011093BC
:1038C0002B0100932A015FCF8091200188608093B3
:1038D000200110932D0100932C0155CF00381105C4
:1038E0000CF029CF20CF8091F306909122079923E5
:1038F00031F061E00E9446081092220746CF60E056
:103900000E944608D092220740CF60E08091F206E4
:103910000E94460810921F061092200736CF88E5B5
:1039200092E00E94621081E892E00E9462102DCF26
:103930000E94F80A00919F021091A0022091A1021A
:103940003091A202601B710B820B930B693E734096
:103950008105910508F4D9C10E94F80A60939F027D
:103960007093A0028093A1029093A20280E296E05D
:103970000E94DC0960916206709163068091640682
:10398000909165060AE016E022E046E00E94771F6B
:1039900086E696E00E94DC096091A8067091A9066F
:1039A0008091AA069091AB0601E116E022E046E084
:1039B0000E94771F8CEA96E00E94DC096091EE0677
:1039C0007091EF068091F0069091F10608E116E003
:1039D00022E046E00E94771F809120078823E9F0CB
:1039E000209162063091630640916406509165060D
:1039F0006091F4067091F5068091F6069091F706B5
:103A00000E94642287FF09C060E08091F2060E9454
:103A1000460810921F0610922007809120078823E5
:103A200009F43AC18091FC05882309F435C1E0917D
:103A30009D02F0919E02309709F429C119821A82E1
:103A40001B828091B805811122C1E45DFD4F808108
:103A5000807D09F41CC18091FD05ADEFB5E08F328A
:103A600009F466C0CF010DEF15E09801F901B1909E
:103A7000B0E2BB1609F44CC13BA32AA319A618A6B1
:103A80006EA17FA1D90150E040E0FD011191112309
:103A900019F01F3209F03EC159A748A77FA36EA3B2
:103AA000415051094F3F510508F0F1C08D014C9133
:103AB00011964032D9F34F32C9F3FE01BC96B0E201
:103AC000AB2EA192AFA9B8ADAE17BF07C1F7CC24FA
:103AD000C394BEE2BB1201C0C12CF9012F5F3F4F5E
:103AE00050815E32D1F39B0121503109E217F30777
:103AF00020F4D9015C915E32B9F7B12C57E0852EE4
:103B000019AE912CA8E03A2EE617F70708F066C127
:103B100050815E3209F021C12E173F0709F025C1FF
:103B20005AE0852EA8E0A9AFA0E13A2E3196ECCF5D
:103B30008D018D918F32E1F3668177818111A2C071
:103B400088EB95E00E9476179091FB05882309F495
:103B50009EC060E0892F0E9446088091F6059091F2
:103B6000F7059C01225F3F4F3F932F932750310968
:103B70003F932F939F938F9384E892E09F938F932B
:103B80001F928EE18F9388ED95E09F938F930E9413
:103B9000CF240FB6F894DEBF0FBECDBF809198053D
:103BA00090919905DC01ED91FC910680F781E02D63
:103BB00019958111F3CF4DE150E068ED75E088EB88
:103BC00095E00E9417128091BA0581FF4EC0809146
:103BD000D4059091D505A091D605B091D705009751
:103BE000A105B10509F441C04091C4055091C50536
:103BF0006091C6057091C7054115510561057105B4
:103C000009F430C119821A821B821C8297018091AB
:103C1000BE059091BF050E940D0587FD26C0882333
:103C200009F42CC18091BE059091BF054091C40557
:103C30005091C5056091C6057091C7054230510588
:103C40006105710590F0FC01018D128D238D348D7D
:103C5000041715072607370740F00FEF1FEF2FEF68
:103C60003FE00E942404811109C188EB95E00E9485
:103C70003F0688EB95E00E943F061092B80510922F
:103C8000BA050AC0C7010E9476178111CDC061E054
:103C90008091FB050E94460820911F0630E050E00D
:103CA00040E019A28E010F5D1F4FCA01B901A301A7
:103CB00092010E942022605DD8016E938D01211532
:103CC00031054105510589F7109719F0CD010E9482
:103CD000621080E992E00E94621088E196E00E9402
:103CE000621080E992E00E94621081E196E00E94F9
:103CF000621080E992E00E9462108AE096E00E94E1
:103D0000621081E892E00E9462100E94DD0FD5CC23
:103D10009F01ACCE10320CF4BACFA12FA77FA232F4
:103D200009F4B5CF1A3309F4B2CFA12FAF7BAC336E
:103D300009F4ADCFA2ECA10FA23008F4A8CF1C3536
:103D400009F4A5CFDF01A21BB30B1E3221F0103204
:103D500011F0BF01AD01DF0198CE5232A1F05C3706
:103D600091F0B5EAB50FB33070F0B6EDB50FB630DF
:103D700010F45D3241F4B6ECB50FB63020F0BFED73
:103D8000B50FBE3530F0507C503809F0A3C0C12CBF
:103D9000CDCEB9AD8B1650F4BAE0AB2E8A14E9F053
:103DA0002E173F07D0F0F9013197F1CFBFE9B50FDA
:103DB000BA3108F095C05052B32829AC2394ACE234
:103DC000B0E0AC0FBD1FA9ACAA0DB11D5C9356E0CD
:103DD000521508F02AA629AEA9CEC12C2CA5203256
:103DE00009F455CFCC2011F19B2011F022E0B22E26
:103DF000BBA6442381F140E0BE016E5D7F4F0E946F
:103E00001C14882309F443CF80E2E8EBF5E0D701E6
:103E100001900D928A95E1F788EB95E00E943F06AC
:103E20001092B8051092BA05C7011FCEDBA62AA5CD
:103E300030E0ECE2F0E0EC0FFD1FE20FF31F5EE775
:103E40005083EDE2F0E0EC0FFD1F2E0F3F1F51E31A
:103E5000D9015C93CECF41E1BE016E5D7F4F0E94E0
:103E60001C1472CE89839A83AB83BC831092D405D1
:103E70001092D5051092D6051092D70549815A8126
:103E80006B817C814115510561057105D1F48091EB
:103E9000C8059091C905A091CA05B091CB05809342
:103EA000D0059093D105A093D205B093D30580910E
:103EB000BA0580688093BA0588EB95E00E943F06BA
:103EC000D4CE8091BE059091BF050E94DC05811182
:103ED000DECFCBCEB9ADC12C5FE58B1608F45CCF3D
:103EE000BFEBB50FBA3108F068CF932866CFEF92D9
:103EF0000F931F93CF93DF93E80134E047FD34E144
:103F0000042E000C550B57FF03C0519541955109E4
:103F1000E32E022F242FAE010E94BB1FCE01DF91A2
:103F2000CF911F910F91EF900895FC018827992759
:103F3000E89421912032E9F3293010F02E30C8F3B3
:103F40002B3241F02D3239F4689404C00E94B31F23
:103F5000820F911D219120532A30C0F31EF49095B9
:103F600081959F4F08957AE0979F902D879F802D90
:103F7000910D112408958F929F92AF92BF92CF928C
:103F8000DF92EF92FF920F931F93CF93DF9300D0B6
:103F900000D000D0CDB7DEB76A01F22EB02E102FC0
:103FA000FBE3AF2EA01608F41BE31F5F012F27E0F1
:103FB000AE014F5F5F4F0E943421BC018981982F71
:103FC0009970913009F44EC09BE2E1FC04C09E2D33
:103FD0009170E0FC49C05E2D5071E82FE87083FFBE
:103FE00055C084E0911101C083E0EF2DE81B8F15CF
:103FF00008F0E0E0D6018E2F20E25523C9F1992385
:1040000029F0D6019C93C60101966C0196012D5FA3
:104010003F4FE2FE33C08EE4D6018C9391E41196BB
:104020009C93119712968C93D9018E2F90E2811157
:104030002AC0E20FF32FF11D10828EEF9FEF299619
:104040000FB6F894DEBF0FBECDBFDF91CF911F91A9
:104050000F91FF90EF90DF90CF90BF90AF909F9027
:104060008F9008959DE2B7CF90E2B5CF2D93815008
:104070008111FCCFCE0ED11CE0E0C1CF8EE6D6017F
:104080008C9391E6CCCF9D938150D1CF482F447033
:1040900082FF3DC084E0911101C083E08F1510F4D0
:1040A000EF2DE81BD6018E2F20E2552309F199232D
:1040B00029F0D6019C93C60101966C0196012D5FF3
:1040C0003F4FE2FE1BC089E4D6018C938EE411962B
:1040D0008C93119786E412968C93D9018E2F90E2DF
:1040E000882309F4A6CF9D938150FACF2D93815058
:1040F0008111FCCFCE0ED11CE0E0D9CF89E6D601EC
:104100008C938EE611968C93119786E6E4CF9B01F3
:1041100077FF02C030E020E0A1E0B0E0911102C0E2
:10412000B0E0A0E0F9013196AE0FBF1F8B2C912CAF
:10413000BB2009F461C05401EFEFAE1ABE0AAA0D0C
:10414000BB1DFA161B0619F014F04F2D4A1B511116
:1041500088C0E3FC59C07601A42FB0E2A1114FC082
:10416000C40ED11C992309F45BC040E0D60111961E
:10417000F60190836D01552309F448C0012F060F05
:104180009A81582F507184FF03C0913309F4015074
:1041900010160CF047C0093008F008E0EEE2FE2EE1
:1041A0005B01A01AB10885019194819491082F3F79
:1041B000320729F4D601FC92F60131966F0162179D
:1041C000730794F1021713077CF5DB01A21BB30BF5
:1041D000AA24A394B12CAC0EBD1EAA0DBB1D119632
:1041E0008C9121503109D601119628153905F4F02A
:1041F000F60180836D01DBCFB12CA12CA0CFF7019C
:10420000B1937F01A150AACF9111B0CFD601942FC5
:1042100050E302C05D9391509111FCCFC40ED11CAC
:1042200040E0ACCF01E0BACF80E3DBCF6217730789
:1042300031F4963388F4953311F4552369F0F6017F
:104240008083FD01842F90E2811108C0A40FB11D6D
:104250001C9290E080E0F3CE81E3F1CF9193815006
:10426000F3CF911183CF8ACF283008F027E033278E
:10427000DA01990F311D87FD916000966105710586
:1042800039F432602E5F3D9330E32A95E1F70895CB
:104290009F3F30F080387105610509F03C5F3C5F5D
:1042A0003D93913008F08068911DDF93CF931F9369
:1042B0000F93FF92EF92192F987F9695E92F96957D
:1042C0009695E90FFF27E25CFD4F99273327EE24EF
:1042D000FF24A701E70105900894079428F4360FFE
:1042E000E71EF81E491F511D660F771F881F991F73
:1042F0000694A1F70590079428F4E70EF81E491FCD
:10430000561FC11D770F881F991F661F0694A1F7BE
:104310000590079428F4F80E491F561FC71FD11D9A
:10432000880F991F661F771F0694A1F705900794C1
:1043300020F4490F561FC71FD81F990F661F771FFC
:10434000881F0694A9F784911095177041F0D695AF
:10435000C79557954795F794E7941A95C1F7E4EEFA
:10436000F1E06894159015913591659195910590BE
:104370007FE27395E118F10A430B560BC90BD00984
:10438000C0F7E10CF11E431F561FC91FD01D7EF45C
:10439000703311F48A95E6CFE894015030F0080F9D
:1043A0000AF40027021708F4202F2395022F7A33EE
:1043B00028F079E37D932A95E9F710C07D932A953B
:1043C00089F6069497956795379517951794E11890
:1043D000F10A430B560BC90BD00998F023957E9137
:1043E00073957A3308F070E37C932013B8F77E91CD
:1043F00070617D9330F0839571E37D9370E32A952E
:10440000E1F71124EF90FF900F911F91CF91DF9171
:10441000992787FD90950895AA1BBB1B51E107C002
:10442000AA1FBB1FA617B70710F0A61BB70B881F44
:10443000991F5A95A9F780959095BC01CD010895D3
:10444000A1E21A2EAA1BBB1BFD010DC0AA1FBB1F98
:10445000EE1FFF1FA217B307E407F50720F0A21B0A
:10446000B30BE40BF50B661F771F881F991F1A9477
:1044700069F760957095809590959B01AC01BD01A1
:10448000CF010895EE0FFF1F881F8BBF0790F69195
:10449000E02D19940E945522A59F900DB49F900D78
:1044A000A49F800D911D11240895A29FB001B39F78
:1044B000C001A39F700D811D1124911DB29F700D2D
:1044C000811D1124911D08950E94A62208F481E007
:1044D0000895E89409C097FB3EF4909580957095F7
:1044E00061957F4F8F4F9F4F9923A9F0F92F96E940
:1044F000BB279395F695879577956795B795F111B5
:10450000F8CFFAF4BB0F11F460FF1BC06F5F7F4F51
:104510008F4F9F4F16C0882311F096E911C0772363
:1045200021F09EE8872F762F05C0662371F096E86C
:10453000862F70E060E02AF09A95660F771F881F3B
:10454000DAF7880F9695879597F90895990F0008DF
:10455000550FAA0BE0E8FEEF16161706E807F90755
:10456000C0F012161306E407F50798F0621B730BF0
:10457000840B950B39F40A2661F0232B242B252B71
:1045800021F408950A2609F4A140A6958FEF811D14
:10459000811D08950E94A62208F48FEF08950E94BD
:1045A000E2220C9453230E94452338F00E944C23AE
:1045B00020F0952311F00C943C230C9442231124F9
:1045C0000C9487230E94642370F3959FC1F3950F89
:1045D00050E0551F629FF001729FBB27F00DB11D87
:1045E000639FAA27F00DB11DAA1F649F6627B00D17
:1045F000A11D661F829F2227B00DA11D621F739F00
:10460000B00DA11D621F839FA00D611D221F749F0D
:104610003327A00D611D231F849F600D211D822F54
:10462000762F6A2F11249F5750409AF0F1F088237B
:104630004AF0EE0FFF1FBB1F661F771F881F9150A8
:104640005040A9F79E3F510580F00C943C230C94F8
:1046500087235F3FE4F3983ED4F38695779567957B
:10466000B795F795E7959F5FC1F7FE2B880F911DD2
:104670009695879597F9089597F99F6780E870E078
:1046800060E008959FEF80EC089500240A941616C8
:10469000170618060906089500240A941216130630
:1046A000140605060895092E0394000C11F48823BE
:1046B00052F0BB0F40F4BF2B11F460FF04C06F5FDA
:1046C0007F4F8F4F9F4F089557FD9058440F551FB0
:1046D00059F05F3F71F04795880F97FB991F61F084
:1046E0009F3F79F087950895121613061406551FFB
:1046F000F2CF4695F1DF08C0161617061806991F67
:10470000F1CF86957105610508940895E894BB275B
:1047100066277727CB0197F908950F931F93CF93BF
:10472000DF938230910510F482E090E0E09125075C
:10473000F091260730E020E0B0E0A0E0309799F457
:104740002115310509F44AC0281B390B24303105E5
:10475000D8F58A819B816115710589F1FB019383ED
:104760008283FE0111C0408151810281138148176B
:104770005907E0F04817590799F4109761F012961D
:104780000C93129713961C933296CF01DF91CF9121
:104790001F910F9108950093250710932607F4CFDA
:1047A0002115310551F04217530738F0A901DB01FB
:1047B0009A01BD01DF01F801C1CFEF01F9CF90935C
:1047C000260780932507CDCFFE01E20FF31F8193CB
:1047D00091932250310939832883D7CF2091230721
:1047E00030912407232B41F42091020230910302DF
:1047F0003093240720932307209100023091010277
:104800002115310541F42DB73EB740910402509176
:104810000502241B350BE0912307F0912407E217D2
:10482000F307A0F42E1B3F0B2817390778F0AC01D3
:104830004E5F5F4F2417350748F04E0F5F1F5093B0
:10484000240740932307819391939FCFF0E0E0E00A
:104850009CCFCF93DF930097E9F0FC01329713824E
:104860001282A0912507B0912607ED0130E020E0EB
:104870001097A1F420813181820F931F209123078B
:10488000309124072817390709F061C0F0932407F5
:10489000E0932307DF91CF910895EA01CE17DF0758
:1048A000E8F54A815B819E0141155105B1F7E901A7
:1048B000FB83EA8349915991C40FD51FEC17FD077B
:1048C00061F4808191810296840F951FE90199839B
:1048D0008883828193819B838A83F0E0E0E0129653
:1048E0008D919C9113970097B9F52D913C9111975B
:1048F000CD010296820F931F209123073091240748
:104900002817390739F6309751F51092260710927B
:104910002507B0932407A0932307BCCFD383C2837A
:1049200040815181840F951FC817D90761F44E5FEC
:104930005F4F88819981480F591F518340838A8135
:104940009B81938382832115310509F0B0CFF093C9
:104950002607E09325079ECFFD01DC01C0CF13821F
:104960001282D7CFFB01DC0104C08D910190801928
:1049700021F441505040C8F7881B990B0895FB0162
:10498000DC0102C001900D9241505040D8F70895CB
:10499000FB01DC0101900D920020E1F708950F93D7
:1049A0001F93CF93DF93CDB7DEB72E970FB6F89452
:1049B000DEBF0FBECDBF0E891F89888D998D26E081
:1049C0002C831A83098397FF02C080E090E8019747
:1049D0009E838D83AE01445E5F4F6A8D7B8DCE01D9
:1049E00001960E940C254D815E8157FD0AC02F81E2
:1049F0003885421753070CF49A01020F131FF80170
:104A000010822E960FB6F894DEBF0FBECDBFDF9199
:104A1000CF911F910F9108952F923F924F925F92E5
:104A20006F927F928F929F92AF92BF92CF92DF92BE
:104A3000EF92FF920F931F93CF93DF9300D000D09C
:104A400000D01F921F92CDB7DEB77C013B018A01D7
:104A5000FC0117821682838181FFDDC1CE010196A0
:104A60005C01F7019381F30193FD859193FF81919F
:104A70003F01882309F453C1853239F493FD8591B0
:104A800093FF81913F01853229F4B70190E00E94A4
:104A90002427E7CF912C212C312CFFE1F31538F09E
:104AA0008B3211F190F4803209F1833229F137FC15
:104AB0003CC020ED280F2A3050F536FE20C08AE099
:104AC000989E200D1124922E06C08D3291F08033D5
:104AD00071F7689430F8F30193FD859193FF81910C
:104AE0003F018111DACF21C0689431F8689432F81F
:104AF000F2CF689433F8EFCF689434F8ECCFEAE063
:104B00002E9E200D1124222E689435F8E4CF8E328B
:104B100029F436FC04C1689436F8DDCF8C3619F4DC
:104B2000689437F8D8CF8836B1F2982F9F7D955486
:104B30009330E0F08336A1F18337C1F1833509F07A
:104B400063C02801F2E04F0E511CF801C080D180F3
:104B5000692D70E036FC02C06FEF7FEFC6010E9446
:104B60000E274C01689437F882010AC00C5F1F4F72
:104B7000FFE3F98388248394912C6501E89437F846
:104B800033FE2DC0522C8114910471F5552009F487
:104B900068CFB70180E290E00E9424275A94F6CFB4
:104BA000F801808189830E5F1F4FE4CF2801F2E076
:104BB0004F0E511CF801C080D180692D70E036FC89
:104BC00002C06FEF7FEFC6010E9419274C018201DE
:104BD000D5CFB70180E290E00E9424272A942814C0
:104BE000190409F0B0F7CECFF60137FC859137FEF6
:104BF00081916F01B70190E00E94242751105A94CF
:104C0000F1E08F1A9108BFCF843619F0893609F088
:104C100077C0F80137FE6BC060817181828193811A
:104C20000C5F1F4FF32DFF763F2E97FF09C0909525
:104C30008095709561957F4F8F4F9F4F689437F89F
:104C40002AE030E0A5010E945427C82ECA188C2CF7
:104C5000432C36FE0CC0E89440F8C91440F434FEEE
:104C600005C032FC03C0F32DFE7E4F2E892C44FE7E
:104C7000AAC0FE01EC0DF11D8081803309F09CC0BB
:104C8000242D297E422E842D8870582E43FCAAC0E4
:104C900040FEA4C09C2C821418F42C0C922C981862
:104CA00044FEA6C0B70180E390E00E94242742FEA4
:104CB00009C088E790E041FE02C088E590E0B701B6
:104CC0000E942427C91408F49FC0CA94D12C9FEFD6
:104CD000C91AD90ACA0CDB1CF60182916F01B7010F
:104CE00090E00E942427AC14BD04B1F74FCF60813F
:104CF0007181072E000C880B990B0E5F1F4F92CF0E
:104D0000D32CE894D4F82AE030E08537E1F1232D64
:104D1000297FD22E8F36A9F1F0F4883551F1F701B1
:104D2000868197812B960FB6F894DEBF0FBECDBF5C
:104D3000DF91CF911F910F91FF90EF90DF90CF9077
:104D4000BF90AF909F908F907F906F905F904F90AB
:104D50003F902F900895803749F0883701F7D4FEAF
:104D600002C06894D2F820E130E00DC06894D4F815
:104D7000F6CF34FE03C0822F8660D82E20E132E0C9
:104D800002C028E030E0F801D7FE0FC060817181D9
:104D9000828193810C5F1F4FA5010E945427C82E6A
:104DA000CA183D2CE89437F852CF6081718190E0A9
:104DB00080E00E5F1F4FF0CF42FC02C0839463CFB0
:104DC0008394839460CF842D867809F45CCFF6CFEA
:104DD000B70180E290E00E94242783948214C0F3FC
:104DE000512C5ECF522C5818821408F459CFF8CFAA
:104DF000842D867809F466CF8BE241FE80E247FC81
:104E00008DE2B70190E05CCFB70180E390E00E94B3
:104E100024279A9457CF8FEF9FEF84CFFC01059002
:104E2000615070400110D8F7809590958E0F9F1FAC
:104E30000895FC016150704001900110D8F78095F1
:104E400090958E0F9F1F08950F931F93CF93DF931D
:104E5000182F092FEB018B8181FD09C01FEF0FEF88
:104E6000812F902FDF91CF911F910F91089582FF95
:104E700014C02E813F818C819D81281739073CF415
:104E8000E881F981CF0101969983888310838E810F
:104E90009F8101969F838E83E3CFE885F985812FDB
:104EA0001995892BA1F3DACFFA01AA27283051F1FD
:104EB000203181F1E8946F936E7F6E5F7F4F8F4F4B
:104EC0009F4FAF4FB1E03ED0B4E03CD0670F781FAA
:104ED000891F9A1FA11D680F791F8A1F911DA11D8F
:104EE0006A0F711D811D911DA11D20D009F46894C8
:104EF0003F912AE0269F11243019305D3193DEF670
:104F0000CF010895462F4770405D4193B3E00FD025
:104F1000C9F7F6CF462F4F70405D4A3318F0495D10
:104F200031FD4052419302D0A9F7EACFB4E0A695F3
:104F30009795879577956795BA95C9F70097610515
:104F4000710508959B01AC010A2E0694579547956B
:104F500037952795BA95C9F7620F731F841F951F60
:084F6000A01D0895F894FFCF95
:104F680000002707800000000000700FDA0E070F0E
:104F7800BD0F380F160F2A0F000000000A1407147F
:104F88005F102D100E100112C41100000000301027
:104F9800901729096E0904045D0DC30DDD0CAC0CD6
:104FA800CB0B5810511045103E10321070647436F7
:104FB8003630612E62696E00436F6D6D616E6420DC
:104FC800756E7265636F676E697A65642E204E6FC1
:104FD80020616374696F6E20696E766F6B65642EED
:104FE800000D0A0025732C2025732C2025730A0038
:024FF8002C008B
:00000001FF
