:100000000C9482080C94B3080C94B3080C94B308B5
:100010000C94B3080C94B3080C94B3080C94B30874
:100020000C94B3080C94B3080C94B3080C94B30864
:100030000C94B3080C94B3080C94B3080C94B30854
:100040000C94B3080C94B3080C94B3080C94B30844
:100050000C94B3080C94B3080C94B3080C9499391D
:100060000C94B3080C94B3080C94B3080C94B30824
:100070000C94B3080C94B3080C94B3080C94B30814
:100080000C94B3080C94B3080C94B3080C94B30804
:100090000C94B3080C94B3080C94B3080C94B308F4
:1000A0000C94B3080C94B3080C94B3080C94B308E4
:1000B0000C94B3080C94B3080C94B3080C94B308D4
:1000C0000C94B3080C94B3080C94B3080C94B308C4
:1000D0000C94B3080C94B3080C94B3080C94B308B4
:1000E0000C94B3080C94C3150C94EB370C94C22BEE
:1000F0000C94051C0C94EB1A0C94032A0C94A7295D
:100100000C946A140C94250C0C942B100C94F5147C
:100110000C94281E0C944B1E0C94ED340C94351644
:100120000C94CB150C949A0D0C9460140C94232C05
:100130000C9478140C948C140C94851A0C941D2A2D
:100140000C94372A0C94E4150C942B160C94D015AF
:100150000C94021C0C94753B0C94FA1C0C943A14ED
:100160000C9407340C9490140C94A10D0C947E14F0
:100170000C9466140C9451140C94FD1D0C941D2CBD
:100180000C946E1E0C9476230C94901E0C94051AFD
:100190000C9489380C94DA150C94E52A0C9482148A
:1001A0000C94852B0C94CD2F0C94FE150C94D41923
:1001B0000C941C160C94292C0C9431340C94F025BE
:1001C0000C94C72D0C9459140C949E220C94121666
:1001D0000C94691C0C94F3180C942F1E0C948D36FF
:1001E0000C949B1C0C948E0D0C9457370C94D229B4
:1001F0000C94B31C0C945A270C94CE290C94CF2940
:100200000C942F2C0C945D140C94F40A0C94C134AF
:100210000C94B5080C94CC330C9474140C945D16A7
:100220000C943E1D0C9455140C944D2B0C94B43529
:100230000C943F160C94BA290C94B81E0C943A15E1
:100240000C9453160C94F6150C94E6290C948D1E00
:100250000C9470140C94921E0C94A51E0C944916C8
:100260000C9486140C94710D0C94211E0C9424395A
:100270000C94D02F0C94720D0C94251E0C942B1EF4
:100280000C9495390C943F140C948A2D0C940816F8
:100290000C949E1E0C94820D0C94CA370C94C1379A
:1002A0000C94E4290C94AE380C94C60B0C94EE1507
:1002B0000C94941D0C94B11E0C94223900407A10B9
:1002C000F35A00A0724E18090010A5D4E80000E807
:1002D0007648170000E40B54020000CA9A3B000065
:1002E00000E1F505000080969800000040420F00F4
:1002F0000000A08601000000102700000000E803B5
:10030000000000006400000000000A00000000007F
:100310000100000000002C76D888DC674F0823DF3E
:10032000C1DFAE59E1B1B796E5E3E453C63AE65111
:10033000997696E8E6C28426EB898C9B62ED407C38
:100340006FFCEFBC9C9F40F2BAA56FA5F490055AD4
:100350002AF75C936B6CF9676DC11BFCE0E40D47F9
:10036000FEF520E6B500D0ED902E0300943577051C
:100370000080841E080000204E0A000000C80C33D4
:100380003333330F986E12831141EF8D2114893B63
:10039000E65516CFFEE6DB18D1844B381BF77C1DE3
:1003A000901DA4BBE424203284725E228100C9F136
:1003B00024ECA1E53D2711007F96290001007F96DE
:1003C00028003A0155C0021010C10141C5040022A5
:1003D0008040360168B00100B102B011B40102B62C
:1003E0000302023BB701C63A0155F704A9512C821A
:1003F000B701C6E808408A00002919A533C0020DDC
:100400000DC1024300C20100C50400480048B40108
:1004100000B60302023BE00F0F211C0B0E084998A7
:1004200038091103141000E10F0F2F2B0C0E064793
:100430007637071104231E00B00100B30402000048
:1004400000B40100D003074218D103000710D20204
:100450000102D3020102D4020102C005123B0002D4
:1004600011C103101088C50103C60102C80C003277
:1004700036450616377577540C00CC0100F603019B
:100480000100CF03008130ED0464031281E803858D
:100490001078CB05392C003402F70120EA02000065
:1004A000B00100B102001BB40100C00121C1011163
:1004B000C5023F3CC701B5360148F20100260101E3
:1004C000E00F0F26240B0E0954A8460C17090F073E
:1004D00000E10F00191B0410072A473903060630F4
:1004E000380F360100B80101C0010EB00100C1048F
:1004F00010100202C006003500000102C50104D23E
:10050000020104CA0100EA0180B903FF83577F9604
:100510007F96B60125C0065050013C1E08B4070264
:1005200040002A2A0D787F01F20B161603080808EE
:100530000810041616FD03110235B2050C0C003329
:1005400033B70135BB012BC00104C20201FFC30157
:1005500011C40120C6010FD002A4A1E00ED00005F5
:100560000E150D3743470915121619E10ED0000577
:100570000D0C062D44400E1C1816193A01557F0A21
:1005800006000700B1020012B40102B604002027E1
:1005900000CA0101CB0103C001137F14C501CCC601
:1005A0000100C70104C80103CC0106CD011CF902FA
:1005B0001515F3030A020AF603011000FA00FB0006
:1005C000E2031E0254E001017F0AE001037F0A01F9
:1005D000007F64E60303FFFFB0072400031F01DF71
:1005E00000B40803A0002E30000F00B607020D0073
:1005F00010100008BA010FB8020701F001007F01D6
:10060000280011007F642900BE0606F001F00000FA
:10061000D0010DB00103E2013FC00122E20100B0B0
:100620000100C0010AB0010000000000000000004D
:100630000000000000000000FFFF0F000004006247
:10064000080008080003000C01030B5A0203060906
:1006500003031710040300230503001706030963AF
:100660000703090C08030C100903322210001600BE
:10067000110001011200000013000100000130030D
:10068000010137020301000D800200610201B0C1C7
:10069000FFFF3200010000010200000103003010E2
:1006A000090001000C000000900000800F00000015
:1006B000100200001102EF001202000013028F016D
:1006C000000500000105000002055F0001040100B3
:1006D00004040000FFFF320007000001FFFF3200AA
:1006E0000002000001020000000000000000000005
:1006F0000000000000000100A4000100FFFF0A004C
:100700006000002708000808300014023100153787
:10071000320004063300160E340011223500001595
:10072000360007853700071438000314390020000D
:100730009000150010001004110037022900460037
:100740002A00460007000000120089011300001172
:10075000FFFF96001200B901010000010200000233
:1007600003003010090001000A0000000D00000025
:100770000E003000610001006A00000080000000EF
:100780008100000082005F009200000193000107D9
:10079000FFFF500007000001E500F07801000001B4
:1007A00002000002030030100400000005000000F9
:1007B00008000702090000000A0000000C00000009
:1007C0000D0000000F0000001000000011000700E5
:1007D000120000001300000007000100FFFFC80026
:1007E0001000901611002702FFFF320012000D00CA
:1007F000FFFF32001300001229000A002B000D0039
:10080000FFFF320020000000210000003000000047
:1008100031000404320003003500050436000808E6
:100820003700070438000303390007073C000405BC
:100830003D00080860000027610001006A00000018
:1008400080000000810000008200000083000000A2
:10085000840000008500000090001000920000005D
:1008600007003301E50000800000010001000001E5
:10087000020000070300301004000000080002021C
:10088000090000000A0000000C0000000D0000003C
:100890000F0000001000000011000700120000000F
:1008A00013000000FFFF32001000B0171100070016
:1008B000FFFF0A0012003A01FFFF0A001300001AAE
:1008C00029000C00FFFF0A00300000003100050580
:1008D0003200040035000600360007073700050126
:1008E00038000200390007073C0004073D000708F4
:1008F000600000A7610001006A0000002100000004
:100900002000000080000000810000008200000044
:1009100083000000840000008500000090001000AB
:100920009200000093000300950010019700000062
:100930009800000007007301FFFF32000100000172
:100940000200000703003010080002030900000045
:100950000A0008001000000011000500120000004D
:1009600013000000FFFF64001000B012FFFF320010
:1009700011000700FFFF320012008C001300001767
:1009800029002000FFFF3200300000003100060186
:100990003200010135000601360003023700000075
:1009A00038000707390004023C0006013D0003013E
:1009B000600000A7610001009000300007003301D3
:1009C000FFFF3200150030009A00100011002000D7
:1009D000100028341200020013003810FFFF280016
:1009E00012001200FFFF28001000203413004530D1
:1009F000FFFF460030000000310002043200070310
:100A000033000403340004003500010436000707F6
:100A100037000503380010063900100601000001F8
:100A20000200000303003010080008080A00080054
:100A3000600000276100010090003E01920000016B
:100A400093000001A0000030A30010000700010087
:100A500007002100070023000700330007003301CF
:100A600011001A001200213113006C0014004942D9
:100A700010000008FFFF0A0011001A01FFFF0A0022
:100A800011001A03FFFF0A0011001A07FFFF0A00F6
:100A900011001A0FFFFF0A0011003A0FFFFF1E009E
:100AA00001002801020000010300301007001210AD
:100AB000080003030B0000110C0000000F000118D8
:100AC00015002000500001015100030652000804E7
:100AD00053000000540005065500060456000303A9
:100AE00057000303580010005900001007001200BF
:100AF000FFFF280007001300070017000000210077
:100B0000240027002A002D003000330001010000DE
:100B1000040107010A0100000A0B02090C0D0E086E
:100B200007030401000000000000000000000000B6
:100B300000000000000000000000000000000000B5
:100B40000000121110000000000000000000000072
:100B50000000000000000000000000000000000095
:100B6000003E5B4F5B3E3E6B4F6B3E1C3E7C3E1C33
:100B7000183C7E3C181C577D571C1C5E7F5E1C0079
:100B8000183C1800FFE7C3E7FF0018241800FFE730
:100B9000DBE7FF30483A060E2629792926407F05F3
:100BA0000507407F05253F5A3CE73C5A7F3E1C1C09
:100BB00008081C1C3E7F14227F22145F5F005F5FC9
:100BC00006097F017F006689956A606060606094B5
:100BD000A2FFA29408047E040810207E20100808BA
:100BE0002A1C08081C2A08081E101010100C1E0CC5
:100BF0001E0C30383E3830060E3E0E060000000057
:100C00000000005F00000007000700147F147F143D
:100C1000242A7F2A12231308646236495620500082
:100C200008070300001C2241000041221C002A1C6E
:100C30007F1C2A08083E0808008070300008080859
:100C40000808000060600020100804023E51494579
:100C50003E00427F400072494949462141494D3397
:100C60001814127F1027454545393C4A49493141FE
:100C7000211109073649494936464949291E0000CC
:100C80001400000040340000000814224114141421
:100C90001414004122140802015909063E415D590D
:100CA0004E7C1211127C7F494949363E4141412216
:100CB0007F4141413E7F494949417F090909013E40
:100CC000414151737F0808087F00417F4100204067
:100CD000413F017F081422417F404040407F021C79
:100CE000027F7F0408107F3E4141413E7F09090990
:100CF000063E4151215E7F0919294626494949325C
:100D000003017F01033F4040403F1F2040201F3F21
:100D10004038403F631408146303047804036159A6
:100D2000494D43007F4141410204081020004141E8
:100D3000417F040201020440404040400003070894
:100D40000020545478407F28444438384444442890
:100D5000384444287F385454541800087E09021837
:100D6000A4A49C787F0804047800447D40002040BF
:100D7000403D007F1028440000417F40007C047803
:100D800004787C080404783844444438FC1824244B
:100D90001818242418FC7C080404084854545424CB
:100DA00004043F44243C4040207C1C2040201C3C48
:100DB0004030403C44281028444C9090907C44643F
:100DC000544C4400083641000000770000004136D2
:100DD000080002010204023C2623263C1EA1A16158
:100DE000123A4040207A385454555921555579418A
:100DF0002254547842215554784020545579400C5F
:100E00001E52721239555555593954545459395541
:100E10005454580000457C410002457D4200014584
:100E20007C407D1211127DF0282528F07C54554518
:100E3000002054547C547C0A097F49324949493284
:100E40003A4444443A324A4848303A4141217A3A95
:100E500042402078009DA0A07D3D4242423D3D4061
:100E600040403D3C24FF2424487E4943662B2FFC10
:100E70002F2BFF0929F620C0887E090320545479BE
:100E8000410000447D413048484A32384040227A8F
:100E9000007A0A0A727D0D19317D2629292F28260C
:100EA0002929292630484D40203808080808080814
:100EB0000808382F10C8ACBA2F102834FA00007B6D
:100EC000000008142A142222142A14085500550080
:100ED00055AA55AA55AAFF55FF55FF000000FF006F
:100EE000101010FF00141414FF001010FF00FF106A
:100EF00010F010F0141414FC001414F700FF00009C
:100F0000FF00FF1414F404FC141417101F10101F1A
:100F1000101F1414141F00101010F0000000001F08
:100F2000101010101F10101010F010000000FF1013
:100F30001010101010101010FF10000000FF14000F
:100F400000FF00FF00001F10170000FC04F4141441
:100F50001710171414F404F40000FF00F71414140D
:100F600014141414F700F7141414171410101F108D
:100F70001F141414F4141010F010F000001F101FB0
:100F80000000001F14000000FC140000F010F0101E
:100F900010FF10FF141414FF141010101F00000095
:100FA00000F010FFFFFFFFFFF0F0F0F0F0FFFFFF99
:100FB0000000000000FFFF0F0F0F0F0F38444438F0
:100FC00044FC4A4A4A347E02020606027E027E023F
:100FD00063554941633844443C04407E201E20064A
:100FE000027E020299A5E7A5991C2A492A1C4C7287
:100FF00001724C304A4D4D303048784830BC625A0E
:10100000463D3E494949007E0101017E2A2A2A2A9D
:101010002A44445F444440514A444040444A514079
:101020000000FF0103E080FF000008086B6B08363A
:1010300012362436060F090F0600001818000000AB
:101040001010003040FF0101001F01011E00191D9A
:101050001712003C3C3C3C00000000000102102044
:1010600020080810204010204080020102010804DE
:101070000201010204081020408080402010080472
:1010800002018004020180402010080402010804CB
:10109000020101020408102040800102040810200F
:1010A000408000002200250028002B002E00310087
:1010B000340002010000050108010B0105050505CA
:1010C000070508080808020202020A0A08080404C0
:1010D00004040101010101010101030303030303EE
:1010E0000303040707070C0C0C0C0C0C0C0C02027D
:1010F000020206060606060606060B0B0B0B0B0B7A
:101100000B0B753B11241FBECFEFD1E2DEBFCDBF6D
:1011100000E00CBF14E0A0E0B2E0EEE0FEEA00E088
:101120000BBF02C007900D92A039B107D9F72EE08E
:10113000A0E9B4E001C01D92A335B207E1F718E0C1
:10114000C2E8D8E000E006C021970109802FFE0127
:101150000E948150C138D10780E00807A9F70E949A
:101160003E3F0C9405570C940000FC01808591854E
:1011700008950895FC016370668B848195812681B2
:101180003781613039F0633029F091878087338768
:1011900022870895318720879387828708952F9229
:1011A0003F924F925F926F927F928F929F92AF92F7
:1011B000BF92CF92DF92EF92FF920F931F93CF9344
:1011C000DF93CDB7DEB76A970FB6F894DEBF0FBED8
:1011D000CDBF9A8F898F7A8369834A01D22E18876F
:1011E0000F833701BC2CDC0159962D913C915A9705
:1011F0002115310509F015C118968D919C9119970B
:10120000681779070CF0D7C11A968D919C914817F1
:1012100059070CF0D0C14C2C512CB6E0CB9E600D80
:10122000711D11247C876B87161617060CF0C3C13D
:10123000EA2DF0E0FA87E98793E0EE0FFF1F9A9519
:10124000E1F7F88BEF87CF01840F951F1816190669
:101250000CF0B1C1A98DBA8D58968C91811104C042
:10126000BFEABD1508F4D394A98DBA8DED91FC9118
:1012700011970284F385E02DCD011995B5E0DB9E31
:10128000C0011124E981FA81FC83EB83312C212CEC
:101290009C01245A344F388F2F8B4A2D50E05E8B9F
:1012A0004D8BEF89F88DE20DF31D44919E828D8266
:1012B000D12CC12C69817A81620D731D7A8B698B67
:1012C000842F90E09C8B8B8BE98DFA8DA081B1816E
:1012D00040FF82C0F1E0BF126FC0AF126DC01C961C
:1012E000ED91FC912F813885A4014C0D5D1D69891C
:1012F0007A89898D9A8D1995EB89FC89F595E79501
:101300004E2F5FEFC51AD50A6D817E818D899E892A
:10131000680F791F7E836D8398E0C916D10481F62A
:10132000AFEF2A1A3A0AEB81FC81E40DF51DFC832C
:10133000EB83F5E02F16310409F0B3CF2F81388508
:1013400026153705B9F0A98DBA8DED91FC91B1E064
:10135000BB1257C0AB1255C069817A816B5F7F4F5A
:101360000088F189E02D830128E030E0A401898D17
:101370009A8D1995A98DBA8DED91FC9111970688DA
:10138000F789E02DCD016A960FB6F894DEBF0FBE47
:10139000CDBFDF91CF911F910F91FF90EF90DF9024
:1013A000CF90BF90AF909F908F907F906F905F9005
:1013B0004F903F902F9019941E96ED91FC91EF80E5
:1013C000F88409851A8592014D815E816B817C814B
:1013D000898D9A8D199590CF2F81388526153705DF
:1013E00009F48ACF31E0B31207C0A31205C01C96DE
:1013F000ED91FC91930178CF1E96ED91FC917301D4
:10140000E0CF6B857C85641975090684F785E02D2E
:1014100073010F8518899201A401898D9A8D199500
:10142000A9CFF90134969491329745915491D91AE4
:10143000B7E0DB9E400D511D1124F9012591349137
:101440003C8B2B8BFA0125903490FA0132967490E4
:1014500031963491398B329664903196449041E0C4
:101460004C1518F04A1508F07FC0662D062C000CAC
:10147000770B7C836B83842D042C000C990B9E834B
:101480008D83A98DBA8DED91FC9111970284F3851E
:10149000E02DCD011995512CD12CC12CEA2DF0E075
:1014A000FA87E9872B2D30E03C872B87A401440D78
:1014B000511D47FC5A95588F4F8B69817A81660D73
:1014C000711D67FC7A957E876D877989C71608F04C
:1014D00051CF2C2D30E04D815E81420F531FA985E5
:1014E000BA854A9FC0014B9F900D5A9F900D1124C1
:1014F000FC01E80DF91DF88BEF87852D612C4F89D4
:10150000588D420F531F5E8B4D8B671408F050C0EF
:1015100044244394480E877041F4C1010196EB893D
:10152000FC89E20DF31DD4901C01D7FE19C0A98DD2
:10153000BA8DED91FC91662D70E0B1E0BB1219C03F
:10154000AB1217C02D853E85620F731F0484F5858D
:10155000E02D2F8138854D895E89898D9A8D199569
:10156000DD0C6394842DD1CF1E821D821C821B82D0
:1015700088CF4B815C81640F751FAB85BC856A9FEA
:10158000C0016B9F900D7A9F900D112469817A8123
:10159000680F791F0684F785E02DEF80F8840985B0
:1015A0001A859D014F855889898D9A8D1995D8CFB7
:1015B000570CC3948ACF6A960FB6F894DEBF0FBE5D
:1015C000CDBFDF91CF911F910F91FF90EF90DF90F2
:1015D000CF90BF90AF909F908F907F906F905F90D3
:1015E0004F903F902F9008958F929F92AF92CF92FD
:1015F000EF92FF920F931F93CF93DF93EC01262F6F
:10160000898D9A8D009709F051C06A30D1F41D86FA
:101610001C868D8948E0849F900111248E859F85CA
:10162000820F931F9F878E8781E090E0DF91CF919B
:101630001F910F91FF90EF90CF90AF909F908F9060
:1016400008956D3089F3CC88AD888F898823C1F0E7
:101650008C859D8536E0C39E800D911D11244885A3
:1016600059854817590764F44E855F851D861C8689
:1016700038E0A39EC0011124840F951F9F878E8799
:10168000EA88FB88088919894E855F856C857D8588
:10169000CE010E94CF082C898C859D8546E0249F31
:1016A000800D911D11249D878C87BECF6A3069F40F
:1016B0001D861C86FC013896E4912D898E859F85B8
:1016C000E29F800D911D1124ADCF6D3009F4ACCF98
:1016D000FC0134963491631708F4A6CF3296E49156
:1016E000E61708F4A1CFFC01329685909490462F1E
:1016F000431B342F47E0349F800C911C1124F401CC
:10170000329634913196E4913323A9F1EE2399F185
:10171000CC88F4013596E491AD884F89442301F1DA
:101720000E2E000CFF0BE30FF11DCE9EA001CF9EED
:10173000500D11246C857D85460F571F688579856E
:10174000641775076CF44E855F851D861C86FC0149
:101750003896E491AE9E400D511D11245F874E874F
:10176000EA88FB88088919894E855F856C857D85A7
:10177000CE010E94CF08F4013496E4912C898C8527
:101780009D85E29F800D911D11248DCF6F927F92D8
:101790008F929F92AF92BF92CF92DF92EF92FF9281
:1017A0000F931F93CF93DF93EC016B015A01390123
:1017B0004801E881F9810284F385E02D1995E881DB
:1017C000F9810288F389E02D87019301A501B60113
:1017D000CE011995A501480D591D41505109E881C7
:1017E000F9810288F389E02D9301B601CE011995A4
:1017F000E881F9810088F189E02D9401A501B60105
:10180000CE011995C60CD71CB60161507109E8814B
:10181000F9810088F189E02D9401A501CE01199587
:10182000E881F9810688F789E02DCE01DF91CF911B
:101830001F910F91FF90EF90DF90CF90BF90AF90EE
:101840009F908F907F906F9019946F927F928F925C
:101850009F92AF92BF92CF92DF92EF92FF920F933F
:101860001F93CF93DF935C01EB016A0149013801BB
:101870008701DC01ED91FC916217730719F564167D
:1018800075062CF0962D872D3A01C92ED82E96017B
:10189000261937092F5F3F4F048CF58DE02DA301EA
:1018A000BE01C5011995DF91CF911F910F91FF9056
:1018B000EF90DF90CF90BF90AF909F908F907F90F0
:1018C0006F9008954615570591F42617370724F0B1
:1018D000892D4B01C22FD82F9E01281939092F5F5E
:1018E0003F4F068CF78DE02DA601B401DACF0284BC
:1018F000F385E02D1995D501ED91FC910488F589CA
:10190000E02D83019401A601BE01C5011995D50101
:10191000ED91FC910688F789E02DC501DF91CF910B
:101920001F910F91FF90EF90DF90CF90BF90AF90FD
:101930009F908F907F906F901994EF92FF920F93EA
:101940001F93DC011A960D911C911B9718962D91EF
:101950003C911997ED91FC9100A0F1A1E02D7B0144
:1019600050E040E070E060E019951F910F91FF900A
:10197000EF9008954F925F926F927F928F929F9215
:10198000AF92BF92CF92DF92EF92FF920F931F938D
:10199000CF93DF936C012B015A0139014801DC011F
:1019A000ED91FC910284F385E02D1995E201640C20
:1019B000751CD601ED91FC91C615D7055CF4008825
:1019C000F189E02D87019401A501BE01C601199599
:1019D0002196EFCF0688F789E02DC601DF91CF91E0
:1019E0001F910F91FF90EF90DF90CF90BF90AF903D
:1019F0009F908F907F906F905F904F9019948F92EF
:101A00009F92AF92BF92CF92DF92EF92FF920F938D
:101A10001F93CF93DF93EC015B014A016901E881D9
:101A2000F9810284F385E02D199595012C0D3D1D5A
:101A300021503109E881F9810488F589E02D780188
:101A40008401A401B501CE011995E881F9810688C8
:101A5000F789E02DCE01DF91CF911F910F91FF907B
:101A6000EF90DF90CF90BF90AF909F908F901994A0
:101A70008F929F92AF92BF92CF92DF92EF92FF929E
:101A80000F931F93CF93DF93EC015B014A01690130
:101A90007801E881F9810284F385E02D1995C80C5D
:101AA000D91C860101501109E881F9810488F58962
:101AB000E02D9501A401B501CE011995E881F981C8
:101AC0000688F789E02DCE01DF91CF911F910F910C
:101AD000FF90EF90DF90CF90BF90AF909F908F904E
:101AE00019940895EF92FF920F931F93DC01ED91EB
:101AF000FC9100A0F1A1E02D19951F910F91FF908D
:101B0000EF9008950F931F93DC01ED91FC91068CEB
:101B1000F78DE02D19951F910F9108950F931F9345
:101B2000DC01ED91FC91048CF58DE02D19951F9150
:101B30000F910895DC01ED91FC910084F185E02D79
:101B400019942F923F924F925F926F927F928F9251
:101B50009F92AF92BF92CF92DF92EF92FF920F933C
:101B60001F93CF93DF9300D000D0CDB7DEB73C01F9
:101B70006A013E832D83FC82EB825801A41AB50AC8
:101B8000B7FE03C0B194A194B1088D809E80861ADF
:101B9000970A97FE03C09194819491088A149B043C
:101BA0005CF0902F812F0D811E819D838E839C2D53
:101BB0008D2D6B01692F782F0C151D055CF09D8113
:101BC0008E817E836D83692F782F902F812F8601E0
:101BD000C92ED82E1601201A310A2B012D813E81E3
:101BE000421A530A57FE03C051944194510871019F
:101BF00037FE03C03FEFE31AF30AF594E7948D81B3
:101C00009E81861797075CF5A1E0B0E0BA83A983AF
:101C1000C016D1064CF1D301ED91FC910484F585F9
:101C2000E02D2B813C81A8016D817E818A149B046B
:101C30001CF04D815E81B801C3011995E418F508C7
:101C4000F7FE0AC02D813E8189819A81280F391FB4
:101C50003E832D83E20CF31C0F5F1F4FD9CF2FEF74
:101C60003FEF3A832983D4CF26960FB6F894DEBF90
:101C70000FBECDBFDF91CF911F910F91FF90EF90DD
:101C8000DF90CF90BF90AF909F908F907F906F909C
:101C90005F904F903F902F9008958F929F92AF92B8
:101CA000BF92EF92FF921F93CF93DF93DC012C91B1
:101CB00011E020FF17C0EC0189819A817D01BBE012
:101CC000EB0EF11C4F81588569857A85DC01ED9119
:101CD000FC910088F189E02D97011995182F811149
:101CE0000CC010E0812FDF91CF911F91FF90EF90FA
:101CF000BF90AF909F908F900895888181FD04C020
:101D000088818E7F8883EECF89819A814F81588523
:101D100069857A858B809C80AD80BE80480D591D79
:101D20006A1D7B1DDC01ED91FC910088F189E02D9D
:101D3000970119958111E4CFD4CFCF92DF92EF9222
:101D4000FF921F93CF93DF93DC011196ED91FC91ED
:101D5000EF2B51F490E080E0DF91CF911F91FF9045
:101D6000EF90DF90CF900895122F6A017B01EC0174
:101D70008F819885A985BA858C159D05AE05BF050F
:101D800061F0CE010E944D0E882321F312FF0CC09A
:101D90001882CF82D886E986FA8613702881122BA2
:101DA0001883CE010B96D8CF89819A81DC01ED9101
:101DB000FC910084F185E02D9E01255F3F4FB70126
:101DC000A60119958111E4CFC5CF4F925F926F9212
:101DD0007F928F929F92AF92BF92CF92DF92EF92BB
:101DE000FF921F93CF93DF939093AF048093AE0441
:101DF0001092B304C12CD12C7601C394C092B704C5
:101E0000D092B804E092B904F092BA049093D1044D
:101E10008093D0041092CF048FEF9FEFDC0180936A
:101E2000D6049093D704A093D804B093D904662322
:101E300009F453C020E040E050E0BA018FEC94E098
:101E40000E949D0E009789F480E0DF91CF911F9151
:101E5000FF90EF90DF90CF90BF90AF909F908F90CA
:101E60007F906F905F904F900895FC01E254FE4F79
:101E70002481222349F320812F7731F78A539E4F03
:101E8000FC01C080D180E280F38020E0B701A60190
:101E90008FEC94E00E949D0EFC01892BA9F2208911
:101EA0008FEF820F823080F6838594858115924072
:101EB00059F62093B40495859093B0048FEF890F61
:101EC0008093B10410E081E0981769F01F5F19302A
:101ED00041F488E08093B204B7CFC12CD12C7601B5
:101EE000D4CF880FF1CF1093B20486899789B0E0E0
:101EF000A0E08093BB049093BC04A093BD04B09376
:101F0000BE04892B8A2B8B2B61F484A195A1A6A1F9
:101F1000B7A18093BB049093BC04A093BD04B0937D
:101F2000BE048685978526013701480E591E611C1F
:101F3000711C4092C3045092C4046092C504709214
:101F4000C604C189D289D093B604C093B5048090E9
:101F5000BB049090BC04A090BD04B090BE04A22F1E
:101F6000B0E0A50194010E942950460E571E681E3C
:101F7000791E4092CB045092CC046092CD047092B2
:101F8000CE0485E0CC0FDD1F8A95E1F7C150DE4F0E
:101F9000CD2FDD27C6954C0E5D1E611C711C409235
:101FA000BF045092C0046092C1047092C20483893D
:101FB0009489B0E0A0E00097A105B10521F480A1CB
:101FC00091A1A2A1B3A1C418D508E608F7088C0D09
:101FD0009D1DAE1DBF1D6C017D0104C0F694E794EC
:101FE000D794C7941A95D2F7D701C6010196A11DBF
:101FF000B11D8093C7049093C804A093C904B09303
:10200000CA0485EFC8168FE0D806E104F10468F42D
:102010008CE08093B3048092D2049092D304A09277
:10202000D404B092D50481E010CF80E135EFC3161F
:102030003FEFD306E104F10460F384A595A5A6A5BE
:10204000B7A58093CB049093CC04A093CD04B09318
:10205000CE0480E2DECF0F931F93DC01ED91FC9163
:102060000284F385E02D01E010E019951F910F9196
:1020700008958EBD00000DB407FEFDCF8EB5089506
:102080008FEF0C943910FC013681323009F4226054
:1020900081960C949D0E4F925F926F927F928F92D9
:1020A0009F92AF92BF92CF92DF92EF92FF920F93E7
:1020B0001F93CF93DF9300D000D0CDB7DEB79E83C0
:1020C0008D836A017B0148015901DC0115968C91D1
:1020D0001597803209F03FC055968D919D910D90D6
:1020E000BC91A02DE7E07695679557954795EA95C1
:1020F000D1F7480F591F6A1F7B1F21E08D819E81F8
:102100000E9443100097C1F480E026960FB6F89421
:10211000DEBF0FBECDBFDF91CF911F910F91FF901A
:10212000EF90DF90CF90BF90AF909F908F907F9077
:102130006F905F904F900895CC0CDD1CCC0CDD1C93
:10214000B1E0DB228C0D9D1DFC0180829182A28278
:10215000B38281E0DACF8031E1F4AD81BE81559662
:102160004D915D916D917C9158974D0D511D611D63
:10217000711D21E0CD010E944310009729F2CC0C83
:10218000DD1CB1E0DB228C0D9D1DFC011183008361
:10219000E0CF8C3009F0B8CF8A0116950795040F6F
:1021A000151FC801892F99278695AD81BE81559647
:1021B0004D905D906D907C905897480E591E611C13
:1021C000711C21E0B301A201CD010E9443100097D0
:1021D00009F49ACF1170282DFC01E00FF11FB7010F
:1021E000A601417055276627772749835A836B8359
:1021F0007C83C0FE07C020812F7060E1869EA00115
:102200001124242B20830F5F1F4F011572E0170745
:1022100081F4B301A2014F5F5F4F6F4F7F4F21E009
:102220008D819E810E944310009709F46DCF10E0CC
:1022300000E024E0B694A794979487942A95D1F768
:10224000282DFC01E00FF11F89819A81AB81BC81AF
:10225000892B8A2B8B2B31F42081207F82948FE075
:1022600088222829208375CF6F927F928F929F9228
:10227000AF92BF92CF92DF92EF92FF920F931F9394
:10228000CF93DF93423051056105710580F48FEFE4
:10229000DF91CF911F910F91FF90EF90DF90CF9042
:1022A000BF90AF909F908F907F906F900895FC01AA
:1022B000C18CD28CE38CF48CC416D506E606F706E6
:1022C00030F339016A018C0185818032A1F585895D
:1022D0009689A789B08DE7E07695679557954795DC
:1022E000EA95D1F7480F591F6A1F7B1F20E0C801EC
:1022F0000E944310009759F2CC0CDD1CCC0CDD1C65
:10230000F1E0DF228C0D9D1DFC0180819181A28175
:10231000B381F801418D528D638D748D4817590733
:102320006A077B0708F46DC0F30180839183A28361
:10233000B38381E0ADCF8031D9F44589568967896F
:10234000708D4D0D511D611D711D20E0CF010E944A
:102350004310009709F49BCFCC0CDD1CF1E0DF2289
:102360008C0D9D1DFC0180819181B0E0A0E0D1CF5A
:102370008C3009F08CCFEA01D695C795C40FD51FD4
:10238000CE01892F9927869585889688A788B08C55
:10239000880E991EA11CB11C20E0B501A401CF013B
:1023A0000E944310009709F472CF9E013170FC0126
:1023B000E20FF31FC081D0E02F5F3F4F2115F2E005
:1023C0003F0779F4B501A4014F5F5F4F6F4F7F4F17
:1023D00020E0C8010E944310009709F458CF30E074
:1023E00020E0820F931FFC018081D82BC0FE07C024
:1023F00084E0D695C7958A95E1F7CE01B6CFDF7018
:10240000FCCF80E045CF0F931F93CF93DF93DC0188
:102410002C91211106C081E0DF91CF911F910F9186
:102420000895EC018A8187FF3AC04C895D896E89E5
:102430007F898E819F8121E081960E949D0E009769
:1024400029F489818160898380E0E6CFEC81FD8178
:10245000EF70FF2725E0EE0FFF1F2A95E1F7E80F49
:10246000F91F309771F38081853E59F38881877316
:102470008387888183FF08C0888D998DAA8DBB8D45
:10248000848F958FA68FB78F8C8D9D8DAE8DBF8DD0
:10249000938F828FB58BA48B8A818F778A830E81ED
:1024A0001F81C80181960E944D0E882351F2F801C8
:1024B00080819181DC01ED91FC910684F785E02D0E
:1024C0001995882309F4BDCFA6CF4F925F926F92E2
:1024D0007F928F929F92AF92BF92CF92DF92EF92B4
:1024E000FF920F931F93CF93DF93EC014A015B019F
:1024F0004C845D846E847F842881222309F45CC02F
:10250000488959896A897B89481559056A057B0577
:1025100081F081149104A104B10469F41C861D8624
:102520001E861F86888A998AAA8ABB8A8A818F7D9D
:102530008A8381E046C023FF2CC0888D998DAA8DA7
:10254000BB8D88159905AA05BB05B0F1EE81FF8109
:102550003481375F7501640181E0C81AD108E10850
:10256000F108032E04C0F694E794D794C7940A9414
:10257000D2F78A8186FF36C08C8D9D8DAE8DBF8D42
:102580008C0D9D1DAE1DBF1D8C879D87AE87BF879F
:10259000C9CF26FFDBCFEE81FF818781908525E0C3
:1025A000880F991F2A95E1F7B0E0A0E088159905FA
:1025B000AA05BB0508F0B6CF4C865D866E867F8681
:1025C00080E0DF91CF911F910F91FF90EF90DF900E
:1025D000CF90BF90AF909F908F907F906F905F90C3
:1025E0004F900895DB01CA010197A109B10904C008
:1025F000B695A795979587953A95D2F7C816D906B7
:10260000EA06FB0620F0452B462B472B49F527FF12
:1026100022C0858D968DA78DB0A18C879D87AE87B2
:10262000BF878E01045F1F4FC114D104E104F10480
:1026300009F478CF4C855D856E857F8598018E8104
:102640009F810E94341191E0C91AD108E108F10874
:10265000181654F3B1CF8C8D9D8DAE8DBF8DDDCF0F
:10266000C81AD90AEA0AFB0ADCCF3F924F925F925E
:102670006F927F928F929F92AF92BF92CF92DF9292
:10268000EF92FF920F931F93CF93DF9300D01F928F
:10269000CDB7DEB74C01FC01448455846684778451
:1026A000A680B780F501C184D284E384F484C41485
:1026B000D504E604F704C0F47301620110E0FFEFF3
:1026C000CF1ADF0AEF0AFF0AF501818D928DA38DE3
:1026D000B48D8C159D05AE05BF0540F411112CC0BD
:1026E000C184D284E384F48411E0E9CF4C145D0406
:1026F0006E047F0409F19E012F5F3F4FB701A601D1
:10270000C5010E94341187FD17C08823C1F2898159
:102710009A81AB81BC81892B8A2B8B2B81F611236B
:1027200029F0F501C186D286E386F486F2E0CF1661
:10273000D104E104F104C0F4312C832D0F900F90EB
:102740000F900F90DF91CF911F910F91FF90EF901D
:10275000DF90CF90BF90AF909F908F907F906F90C1
:102760005F904F903F900895F501818D928DA38DDC
:10277000B48D8C159D05AE05BF05F0F20FEF1FEF70
:102780002FEF3FE0B701A601C5010E944B10382E84
:10279000882391F24114510461047104B9F4F401E5
:1027A000C486D586E686F786828141145104610489
:1027B000710441F1FFEF4F1A5F0A6F0A7F0A4C1450
:1027C0005D046E047F0409F18F7B1DC0F2E04F169B
:1027D00051046104710408F4AFCFF501818D928D2D
:1027E000A38DB48D84159505A605B70508F4A4CF6F
:1027F00097018601B301A201C5010E944B1081110E
:10280000CECF9ACF8064F4018283F4018281806804
:10281000828393CF282F30E0F901EA5EF44F949140
:10282000F901E45AFF4E449124543F4EF90124919A
:10283000222309F435C0992311F191509231F8F413
:10284000E92FF0E08827E85DFB4E8F4F0C94815014
:1028500059145D143A14511455143F14601466143D
:102860006A147014741478147E1482143F1486143D
:102870008C149014809180008F7780938000E22FD9
:10288000F0E0EE0FFF1FEE55FF4EA591B4918FB70C
:10289000F894EC91611148C040954E234C938FBF42
:1028A0000895809180008F7DE8CF80918000877FA0
:1028B000E4CF84B58F7784BDE2CF84B58F7DFBCF25
:1028C0008091B0008F778093B000D9CF8091B00015
:1028D0008F7DF9CF809190008F7780939000CFCF3C
:1028E000809190008F7DF9CF80919000877FF5CF08
:1028F0008091A0008F778093A000C1CF8091A0002D
:102900008F7DF9CF8091A000877FF5CF8091200146
:102910008F7780932001B3CF809120018F7DF9CFF5
:1029200080912001877FF5CF4E2BB8CF60E080915A
:1029300069080E940A14109298080895CF93DF93B3
:10294000FC0121852223B9F0EC0161E087810E941E
:102950000A148FEF0E9439108091A004882351F04F
:102960009FB7F8942091A00480919F04213031F406
:102970008DBB9FBF1986DF91CF9108958FBFFACF8E
:102980000F931F93CF93DF938C01862FEA010E9450
:102990003910FE0181918EBDDE5FEC17FD0741F01D
:1029A0008191000000000DB407FEFDCF8EBDF5CF74
:1029B0000DB407FEFDCF8FEF0E9439108FEF0E94FC
:1029C00039100E944010F80183878F71853059F0CB
:1029D00081E28087C8010E949E1480E0DF91CF9140
:1029E0001F910F91089581E0F9CFCF93DF93FC0100
:1029F00026812223B9F0EC010E949E149FB7F8941F
:102A000080919E04882319F0815080939E048091C8
:102A10009E04811105C08CB58F7B8CBD1092A004E3
:102A20009FBF1E82DF91CF910895FC0181858111A6
:102A300020C0248195818091A004882361F08FB704
:102A4000F8943091A004313089F43DB330939F0461
:102A50003DB33DBB8FBF2CBD9DBD81E0818760E054
:102A600087810E940A148FEF0C94391080939F0481
:102A7000F2CF08950F931F93CF93DF93FC0122852C
:102A800010E0213089F0EC010185011102C00E94A3
:102A900015150E94401011E08F3F09F410E001115C
:102AA00003C0CE010E949E14812FDF91CF911F9110
:102AB0000F910895CF93DF9390E0FC01E45AFF4E0D
:102AC000249184549F4EFC0184918823D1F090E09E
:102AD000880F991FFC01E450F54FA591B491FC01BA
:102AE000EE55FF4EC591D49161110EC09FB7F89479
:102AF0008C91E22FE0958E238C932881E223E8834A
:102B00009FBFDF91CF9108958FB7F894EC91E22B9E
:102B1000EC938FBFF6CF1F93CF93DF93182FEB016A
:102B200061E00E945A15209739F460E0812FDF910F
:102B3000CF911F910C940A14CF3FD10511F461E09D
:102B4000F5CFE12FF0E0EA5EF44FE491E150E2319D
:102B500008F0B3C0F0E08827EF54FA4E8F4F0C9482
:102B60008150C315CB15D015DA15E4155D16EE1599
:102B7000F615FE15081612161C162B1635165D16C0
:102B80003F164916531684B5806884BDC7BDDF91D2
:102B9000CF911F91089584B5806284BDC8BDF7CFE1
:102BA00080918000806880938000D0938900C093DA
:102BB0008800EDCF80918000806280938000D09368
:102BC0008B00C0938A00E3CF80918000886080935F
:102BD0008000D0938D00C0938C00D9CF8091B0003D
:102BE00080688093B000C093B300D1CF8091B000D3
:102BF00080628093B000C093B400C9CF80919000F0
:102C0000806880939000D0939900C0939800BFCFC4
:102C100080919000806280939000D0939B00C0933D
:102C20009A00B5CF80919000886080939000D093F7
:102C30009D00C0939C00ABCF8091A00080688093E2
:102C4000A0008091A0008F7B8093A000D093A9006A
:102C5000C093A8009CCF8091A00080628093A000C8
:102C6000D093AB00C093AA0092CF8091A00088605F
:102C70008093A000D093AD00C093AC0088CF80912A
:102C80002001806880932001D0932901C0932801FE
:102C90007ECF80912001806280932001D0932B0110
:102CA000C0932A0174CF8091200188608093200115
:102CB000D0932D01C0932C016ACFC038D1050CF000
:102CC0003ECF33CF863308F0865320917B00982F78
:102CD0009870277F922B90937B00877080648093FD
:102CE0007C0080917A00806480937A0080917A00E1
:102CF00086FDFCCF809178009091790008952F9205
:102D00003F924F925F926F927F928F929F92AF927B
:102D1000BF92CF92DF92EF92FF920F931F93CF93C8
:102D2000DF93CDB7DEB7C154D1090FB6F894DEBF3B
:102D30000FBECDBF8C01DC018C910E946216BC01DC
:102D4000990F880B990B0E94A551F80122813381BC
:102D5000448155810E945A52D8011196BC91229605
:102D6000BFAF22972B2E312C7101E1E0EE1AF10852
:102D7000F101EE0FFF1FEE0FFF1FE00FF11F970194
:102D80003497121613065CF4215031098280938027
:102D9000A480B58086829782A086B186F1CFD801C3
:102DA00016966D937D938D939C9319971696FE01BD
:102DB000319690E080E0821593050CF445C0AA247A
:102DC000A394B12CA214B3040CF04FC0FE013196B1
:102DD0006F01912C812C8E149F040CF03FC0D60102
:102DE0008D919D910D90BC91A02D21968CAF9DAFA2
:102DF000AEAFBFAF2197BFEF8B1A9B0AF60144809D
:102E0000558066807780A301920121966CAD7DADDF
:102E10008EAD9FAD21970E94555218168CF4D601A5
:102E20004D925D926D927C92139721968CAD9DADE3
:102E3000AEADBFAD2197F60184839583A683B7839A
:102E4000F4E0CF0ED11CC7CF4D915D916D917D9176
:102E500041935193619371930196ADCFFFEFAF1AF8
:102E6000BF0A21E0E21AF108ADCF2296EFAD22971A
:102E7000E69584E0E89FF0011124EC0FFD1F8181AD
:102E80009281A381B481F801EE5BFF4F808391832F
:102E9000A283B383CF5BDF4F0FB6F894DEBF0FBEC4
:102EA000CDBFDF91CF911F910F91FF90EF90DF90F9
:102EB000CF90BF90AF909F908F907F906F905F90DA
:102EC0004F903F902F900895EF92FF920F931F9392
:102ED000CF93DF93EC0160E088810E945A157E0158
:102EE00086E0E80EF11C10E000E0898180171106F1
:102EF000D9F0D4F088810E946216BC01990F880B2A
:102F0000990B0E94A5519B01AC016A817B818C8148
:102F10009D810E945A52F70161937193819391931D
:102F20007F010F5F1F4FE1CFDF91CF911F910F9175
:102F3000FF90EF9008953FB7F89480919A04909194
:102F40009B04A0919C04B0919D0426B5A89B05C04C
:102F50002F3F19F00196A11DB11D3FBFBA2FA92F18
:102F6000982F8827BC01CD01620F711D811D911D15
:102F700042E0660F771F881F991F4A95D1F7089581
:102F80008F929F92AF92BF92CF92DF92EF92FF9279
:102F90006B017C010E949B174B015C01C114D104A1
:102FA000E104F104B9F00E949B17681979098A09B4
:102FB0009B09683E73408105910580F321E0C21AA8
:102FC000D108E108F10888EE880E83E0981EA11C64
:102FD000B11CE4CFFF90EF90DF90CF90BF90AF9007
:102FE0009F908F9008950E94961461E070E080E0B9
:102FF00090E00E94C01780919A088823C1F061E098
:1030000080916A080E940A1410929A0863E270E0A4
:1030100080E090E00E94C01760916B0870E08091A2
:1030200069080E948B1581E080939808089560E0FC
:1030300080916A080E940A1481E080939A08E6CF82
:103040002FB7F8946091960470919704809198043A
:10305000909199042FBF0895CF93DF93EC010E94C4
:103060002018C60FD71F0E9440108F3F59F00E94B2
:103070002018CE01861B970B97FFF5CF80E0DF91DC
:10308000CF91089581E0FBCF1F93CF93DF93EC01A5
:1030900088E592E00E942C18182F882361F08DEFAC
:1030A0000E943910CE010E949E141A86812FDF9152
:1030B000CF911F9108958FE18887CE010E949E14C1
:1030C000F5CF0F931F93CF93DF93EC018B0188E52E
:1030D00092E00E942C18811107C085E28887CE01FA
:1030E0000E949E1480E007C0A8016CEFCE010E94F0
:1030F000C0148823A1F3DF91CF911F910F91089500
:10310000DF92EF92FF920F931F93CF93DF93EC0127
:10311000162F022FF32EE42ED52EE881F981068496
:10312000F785E02D19958823D1F18985811103C098
:10313000CE010E94151511112AC0812F80640E94B2
:1031400039108D2D0E9439108E2D0E9439108F2D2F
:103150000E943910802F0E94391087E8111101C098
:1031600085E90E9439100E9440100AE010E00E9498
:1031700040108B8787FF03C001501109C1F7DF9111
:10318000CF911F910F91FF90EF90DF9008951C3029
:10319000A1F28CE291E00E942C188111CECF8FEF2A
:1031A000EECFCF93DF93EC018C85833039F089E04B
:1031B000440F551F661F771F8A95D1F79A01AB01FF
:1031C00069E1CE010E948018882349F08EE088874B
:1031D000CE010E949E1480E0DF91CF91089582E09D
:1031E0008A8781E0F9CF8F929F92AF92BF92CF9260
:1031F000DF92EF92FF920F931F93CF93DF93EC0137
:103200004A015B0169018A85823049F48D859E857A
:10321000AF85B88988159905AA05BB05C9F0B50120
:10322000A401CE010E94D11881110EC080E0DF916F
:10323000CF911F910F91FF90EF90DF90CF90BF90B3
:10324000AF909F908F9008958D869E86AF86B88AA6
:10325000F12CE12CE016F10661F0B601CE010E94DE
:103260006118882319F38FEFE81AF80A8EEFD81A3D
:10327000F1CF8D859E85AF85B8898E0D9F1DA11DCF
:10328000B11D8D879E87AF87B88B89898111CFCF7C
:10329000CE01DF91CF911F910F91FF90EF90DF90C2
:1032A000CF90BF90AF909F908F900C944418CF9286
:1032B000DF92EF92FF920F931F93CF93DF93EC0176
:1032C00079010E94D1188823E1F0D12CC12CC016BD
:1032D000D10661F0B701CE010E946118882389F000
:1032E0008FEFC81AD80A8EEFF81AF1CFCE01DF910E
:1032F000CF911F910F91FF90EF90DF90CF900C94A2
:103300004418CE010E949E1480E0DF91CF911F915E
:103310000F91FF90EF90DF90CF9008950F931F9340
:10332000CF93DF93EC0189018C85833039F089E0FC
:10333000440F551F661F771F8A95D1F79A01AB017D
:1033400068E1CE010E948018882339F08DE08887DB
:10335000CE010E949E1410E021C0A8016EEFCE01A4
:103360000E94C0148823A1F388E592E00E942C18E3
:10337000182F84E2112359F320E030E0A9016DE019
:10338000CE010E948018882311F08AE0E0CF0E94CD
:1033900040108111FACFCE010E949E14812FDF913F
:1033A000CF911F910F9108950F931F93DC015196B8
:1033B000EC915197EE2359F0ED91FC910288F3893D
:1033C000E02D01E010E019951F910F9108951F91D4
:1033D0000F910C948E19CF93DF93EC011A8620E0A5
:1033E00030E0A9016CE00E948018882349F089E050
:1033F0008887CE010E949E1480E0DF91CF910895CE
:10340000CE010E949E1481E0F8CFFC01228522307B
:1034100011F40C944418213011F40C94EB1981E050
:103420000895CF93DF93EC018C85833039F089E0E8
:10343000440F551F661F771F8A95D1F79A01AB017C
:1034400062E1CE010E948018882349F08CE08887D1
:10345000CE010E949E1480E0DF91CF91089581E01B
:103460008A87FACFCF92DF92EF92FF920F931F934A
:10347000CF93DF93EC018B017A010E9420186B013E
:1034800024EDC21A2EEFD20A0E9440108B878F3F84
:10349000B1F40E942018C601861B970B97FFF4CF4A
:1034A0008EE18887CE010E949E1480E0DF91CF914B
:1034B0001F910F91FF90EF90DF90CF9008958E3F76
:1034C00011F089E1EECF8FEF8EBDF801C7013FEF1C
:1034D000019749F0000000000DB407FEFDCF2EB5A6
:1034E0003EBD2193F5CF81E0E81AF1080E0D1F1DB6
:1034F0000DB407FEFDCF8EB5F80180831B860E94B8
:1035000040100E94401081E0D1CF8F929F92AF92E5
:10351000BF92CF92DF92EF92FF920F931F93CF93C0
:10352000DF93EC014A015B0169018A85813049F42E
:103530008D859E85AF85B88988159905AA05BB0537
:10354000C9F0B501A401CE010E94111A81110EC06B
:1035500080E0DF91CF911F910F91FF90EF90DF906E
:10356000CF90BF90AF909F908F9008958D869E864C
:10357000AF86B88AF12CE12CE016F10671F040E03C
:1035800052E0B601CE010E94321A882309F38FEF70
:10359000E81AF80A8EEFD81AEFCF8D859E85AF8591
:1035A000B8898E0D9F1DA11DB11D8D879E87AF8788
:1035B000B88B89898111CDCFCE01DF91CF911F9139
:1035C0000F91FF90EF90DF90CF90BF90AF909F90C2
:1035D0008F900C94EB190F931F93CF93DF93CDB77C
:1035E000DEB760970FB6F894DEBF0FBECDBF8C017B
:1035F00020E030E0A90169E00E948018882351F0A2
:103600008CE1F8018087C8010E949E1460E070E0A0
:10361000CB015EC040E150E0BE016F5F7F4FC8014B
:103620000E94321A882379F3C8010E949E1489816E
:10363000829586958695837009F055C06F8170E0FC
:1036400090E080E03AE0660F771F881F991F3A9557
:10365000D1F766277C7088279927098510E046E016
:10366000159507954A95E1F7012E000C220B330BB7
:10367000062B172B282B392B888590E0B0E0A0E093
:10368000BC01CD0152E0660F771F881F991F5A9524
:10369000D1F7602B712B822B932B6F5F7F4F8F4F56
:1036A0009F4F2A85220F322F36702B85221F22270B
:1036B000221F232B3E813F70230F3327331F2750B8
:1036C000310904C0660F771F881F991F2A95D2F70A
:1036D00060960FB6F894DEBF0FBECDBFDF91CF91DD
:1036E0001F910F910895813009F090CF6885062FC2
:1036F00010E030E020E09801112700270027112773
:103700002F73332789859A85982789279827B0E0D2
:10371000A0E0BC01CD01602B712B822B932B6F5F3E
:103720007F4F8F4F9F4F2AE0660F771F881F991F8B
:103730002A95D1F7CDCFCF92DF92EF92FF920F93E0
:103740001F93CF93DF93EC0179010E94111A882314
:10375000F1F0D12CC12C0C151D0571F040E052E0A8
:10376000B701CE010E94321A882389F08FEFC81A60
:10377000D80A8EEFF81AEFCFCE01DF91CF911F91CB
:103780000F91FF90EF90DF90CF900C94EB1980E0B9
:10379000DF91CF911F910F91FF90EF90DF90CF902D
:1037A00008950F931F93CF93DF93EC0189018C85CC
:1037B000833039F089E0440F551F661F771F8A95C3
:1037C000D1F79A01AB0161E1CE010E9480188823F4
:1037D00039F08BE08887CE010E949E1410E00CC067
:1037E00040E052E0B801CE010E94321A182F88231F
:1037F00091F3CE010E949E14812FDF91CF911F91F2
:103800000F910895FC0117860895AF92BF92CF9251
:10381000DF92EF92FF920F931F93CF93DF936C0190
:103820007B018B01040F151FEB015E01AE18BF0871
:10383000C017D10759F06991D601ED91FC91019023
:10384000F081E02DC6011995892B79F7C501DF912B
:10385000CF911F910F91FF90EF90DF90CF90BF908D
:10386000AF900895EF92FF921F93CF93DF937C0167
:10387000DC019B96ED91FC91309709F0199510E0D1
:10388000F70180A51817F8F4C12FD0E0CC0FDD1F89
:10389000CE0DDF1D88819981DC01ED91FC910484BE
:1038A000F585E02D1995882361F088819981F701CC
:1038B00061A572A5DC01ED91FC910480F581E02DFC
:1038C00019951F5FDDCFDF91CF911F91FF90EF9092
:1038D00008950F931F93CF93DF93DC015196ED91E1
:1038E000FC912781222311F18B01EC01898D9A8DA6
:1038F0008230910590F001979A8F898FE881F98144
:103900008F85882379F00488F589E02DB801CE01F0
:10391000DF91CF911F910F911994EB8DFC8D19952B
:103920001F86ECCF0680F781E02DF0CFDF91CF919D
:103930001F910F9108950F931F93CF93DF93EC0185
:103940008B01E881F9810680F781E02D1995E881E6
:10395000F9810480F581E02DB801CE01DF91CF918E
:103960001F910F911994CF92DF92EF92FF920F93D4
:103970001F93CF93DF93EC018B010E942018C9A005
:10398000DAA0EBA0FCA0AB01BC014C195D096E09EB
:103990007F098F8D98A1B0E0A0E084179507A60756
:1039A000B707F8F40E94201869A37AA38BA39CA3FD
:1039B0008DA191E089278DA3ED8DFE8D309709F0C3
:1039C0001995E881F9810488F589E02DB801CE01C7
:1039D000DF91CF911F910F91FF90EF90DF90CF90EB
:1039E0001994DF91CF911F910F91FF90EF90DF908D
:1039F000CF900895CF92DF92EF92FF920F931F9393
:103A0000CF93DF93EC018B010E942018C9A0DAA0AC
:103A1000EBA0FCA0AB01BC014C195D096E097F094C
:103A20008F8D98A1B0E0A0E084179507A607B7078F
:103A3000E0F40E94201869A37AA38BA39CA3ED8DC8
:103A4000FE8D19958F85882381F0E881F98104889E
:103A5000F589E02DB801CE01DF91CF911F910F9133
:103A6000FF90EF90DF90CF901994DF91CF911F914D
:103A70000F91FF90EF90DF90CF900895CF92DF925B
:103A8000EF92FF920F931F93CF93DF93EC016B01A3
:103A90000BA110E00A5F1F4F2E813F812A5F3F4F2D
:103AA0004C815D81435051096A817B81635071096A
:103AB000D601ED91FC9106A0F7A1E02DF12CE12CAF
:103AC000C60119950BA110E02E813F814C815D81CB
:103AD0006A817B81D601ED91FC9100A0F1A1E02DDE
:103AE000C60119952E813F81225E3F4F8C819D81B9
:103AF0000B964BA1480F592F511D6A817B816A504B
:103B00007109D601ED91FC9100A0F1A1E02D00E139
:103B100010E0C6011995DF91CF911F910F91FF9091
:103B2000EF90DF90CF900895CF92DF92EF92FF92C7
:103B30000F931F93CF93DF93EC018B014A855B8535
:103B40008A819B819C0123503109EE81FF812417DA
:103B50003507B8F584179507B8F11C8A1B8ACB8CFA
:103B6000DC8CF12CE12C2D8D3E8D50E040E02C19A9
:103B70003D094E095F09AB89BC890E9429509F010C
:103B800050E040E00E940A50C20ED31EE41EF51E13
:103B90006AA170E0C6010E946D50C81AD90ADE8A77
:103BA000CD8AE881F9810488F589E02DB801CE013C
:103BB000DF91CF911F910F91FF90EF90DF90CF9009
:103BC00019944817590758F09C012E0F3F1F2417CE
:103BD000350728F0481B590B5C8B4B8BC0CF8E0FE1
:103BE0009F1F4817590708F4BACF0396481759077B
:103BF00008F0B5CFFC8BEB8BB2CFFC0182819381B7
:103C000086179707D8F426813781820F931F039672
:103C10006817790798F4248135812417350770F4E3
:103C200083A1820F932F911D4817590738F481E023
:103C3000808B73876287558744870895108A80E058
:103C40000895FC01868197810895FC018685089579
:103C5000FC018785089521E0FC0127870895EF92F4
:103C6000FF920F931F93FC01CB01008511852681E4
:103C700037814481558162817381DC01ED91FC9132
:103C800000A0F1A1E02DF12CE12C19951F910F91CD
:103C9000FF90EF900895FC0182819381861797072A
:103CA000D0F426813781820F931F6817790798F423
:103CB000848195818417950770F420853185820F62
:103CC000931F4817590738F481E0808B7387628708
:103CD000558744870895108A80E00895FC01848503
:103CE00083FF17C084A195A1A6A1B7A1448D558DCE
:103CF000668D778D841B950BA60BB70B811520E87D
:103D00009207A105B10520F08FEF9FE7A0E0B0E09A
:103D1000089580E090E0DC01F1CF0C960C94031242
:103D2000089508950F931F93DC01ED91FC91028893
:103D3000F389E02D19951F910F910895DC01ED9104
:103D4000FC910088F189E02D19940F931F93DC01F9
:103D5000ED91FC910284F385E02D19951F910F914F
:103D60000895DC01ED91FC910084F185E02D19941A
:103D7000DC01ED91FC910684F785E02D19940F93F9
:103D80001F93CF93DF93EC018B01FE018491319659
:103D9000649122968F3799F470E090E080E00E9461
:103DA000C01760E070E06E5F7F4F061B170B1016A8
:103DB00011065CF3DF91CF911F910F9108958B98BD
:103DC0008A9890910201977890930201A5989EB1EC
:103DD000977C9EB94091020190E09C0155E0220F32
:103DE000331F5A95E1F72076242B209302014EB120
:103DF0009C01220F331F220F331F2073242B2EB957
:103E000044B39C01220F331F2072242B24BB4EB1DC
:103E10009C0135952795359527952870242B2EB92B
:103E200020910201A3E095958795AA95E1F7887105
:103E3000822B809302018998899A50E040E04617CE
:103E400008F045C0FE01E40FF51FE4918A9A8091C5
:103E50000201877880930201A5988EB1877C8EB984
:103E6000709102018E2F90E09C01E5E0220F331F3C
:103E7000EA95E1F72076272B209302017EB19C0181
:103E8000220F331F220F331F2073272B2EB974B339
:103E90009C01220F331F2072272B24BB7EB19C0173
:103EA00035952795359527952870272B2EB9E091C4
:103EB000020123E0959587952A95E1F788718E2B6D
:103EC000809302018998899A4F5F5F4FB8CFC60FE0
:103ED000D11D8B9A67CF8B988A9820910201277801
:103EE00020930201A5982EB1277C2EB97091020172
:103EF000292F30E0F901A5E0EE0FFF1FAA95E1F7A9
:103F0000E076E72BE09302017EB1F901EE0FFF1F8F
:103F1000EE0FFF1FE073E72BEEB974B3F901EE0F5C
:103F2000FF1FE072E72BE4BB7EB1F901F595E79541
:103F3000F595E795E870E72BEEB970910201E3E0A3
:103F400035952795EA95E1F72871272B20930201F3
:103F50008998899A20910201277820930201A598D7
:103F60002EB1277C2EB9709102019C01F5E0880FDB
:103F7000991FFA95E1F78076872B809302017EB135
:103F8000C901880F991F880F991F8073872B8EB9DD
:103F900074B3C901880F991F8072872B84BB7EB1CF
:103FA000C90195958795959587958870872B8EB9CA
:103FB00080910201F3E035952795FA95E1F7287194
:103FC000282B209302018998899A8A9AFA016150D4
:103FD00008F43EC08191909102019778909302017C
:103FE000A5989EB1977C9EB94091020190E09C01FA
:103FF00055E0220F331F5A95E1F72076242B2093AA
:1040000002014EB19C01220F331F220F331F207378
:10401000242B2EB944B39C01220F331F2072242B72
:1040200024BB4EB19C013595279535952795287071
:10403000242B2EB92091020133E0959587953A956E
:10404000E1F78871822B809302018998899ABFCF0A
:104050008B9A08958B988A98E2E0F1E02081277886
:104060002083A5982EB1277C2EB9A081292F30E07E
:10407000A901B5E0440F551FBA95E1F740764A2BE8
:104080004083AEB1A901440F551F440F551F407323
:104090004A2B4EB9A4B3A901440F551F40724A2BB5
:1040A00044BBAEB1A90155954795559547954870C4
:1040B0004A2B4EB9408153E0359527955A95E1F743
:1040C0002871242B20838998899A2081277820833E
:1040D000A5982EB1277C2EB940819C01A5E0880FC0
:1040E000991FAA95E1F78076842B80834EB1C90190
:1040F000880F991F880F991F8073842B8EB944B342
:10410000C901880F991F8072842B84BB4EB1C901ED
:1041100095958795959587958870842B8EB9808124
:10412000B3E035952795BA95E1F72871282B2083C0
:104130008998899A8A9A808187788083A5988EB198
:10414000877C8EB94081872F90E09C0155E0220F3B
:10415000331F5A95E1F72076242B20834EB19C0122
:10416000220F331F220F331F2073242B2EB944B389
:104170009C01220F331F2072242B24BB4EB19C01C3
:1041800035952795359527952870242B2EB92081B4
:10419000A3E095958795AA95E1F78871822B808396
:1041A0008998899A808187788083A5988EB1877C49
:1041B0008EB94081CB019B01B5E0220F331FBA9528
:1041C000E1F72076242B20834EB19B01220F331F71
:1041D000220F331F2073242B2EB944B39B01220FCF
:1041E000331F2072242B24BB4EB19C01359527959B
:1041F000359527952870242B2EB92081A3E095951D
:104200008795AA95E1F78871822B80838998899A8E
:104210008B9A089581E08093A104E1E0F1E0808130
:10422000886780839D9A8DB188638DB9809A819AC1
:10423000829A839A849A8B9A889A899A8C9A62E352
:1042400070E080E090E00E94C0178C9864E670E017
:1042500080E090E00E94C0178C9A64E670E080E0F5
:1042600090E00E94C01770E060E080EB90E00C945A
:104270002A20EF92FF920F931F93CF93DF93EC01CD
:10428000E62E8091A104811102C00E940A218B9820
:104290008A9880910201877880930201A5988EB157
:1042A000877C8EB980910201809302018EB18EB914
:1042B00084B384BB8EB18EB98091020180930201D8
:1042C0008998899A80910201877880930201A59844
:1042D0008EB1877C8EB920910201CE0115E0880F46
:1042E000991F1A95E1F78076822B809302012EB1F7
:1042F000CE01880F991F880F991F8073822B8EB96A
:1043000024B3CE01880F991F8072822B84BB2EB1FB
:10431000CE0195958795959587958870822B8EB956
:104320008091020153E0D595C7955A95E1F7C87180
:10433000C82BC09302018998899A8A9A80910101B9
:104340008778809301019D988DB1877C8DB961E05C
:1043500070E080E090E00E94C01761E070E080E0D3
:1043600090E00E94C017889A889888988898D09181
:1043700000011CB102B3CCB1F0900001889A61E059
:1043800070E080E090E00E94C017889A8898889832
:104390008898409100015CB1E2B39CB1F0910001BA
:1043A000889AEA946FEFE612D8CF889A8B9A809118
:1043B00001018867809301019D9A8DB188638DB951
:1043C00084E0C89F900111242072332788E0F89E72
:1043D000B0011124607C7727262B602F70E0759543
:1043E000679560717727262B612F70E0759567952B
:1043F000759567956C707727262B6D2F70E0B5E06B
:1044000075956795BA95E1F763707727262B64E079
:10441000969FC0011124807298E0F99FB001112489
:10442000607C862BE695E0718E2B569556955C70D8
:10443000852B50E0C5E055954795CA95E1F7437047
:10444000842B922FDF91CF911F910F91FF90EF90CE
:1044500008950F931F93CF93DF938C0160E00E9428
:104460003921EC0161E0C8010E9439218C01BE01B3
:1044700090E080E0CB017727662730E020E0602BDA
:10448000712B822B932BDF91CF911F910F91089568
:10449000FF920F931F93CF93DF938C0160E00E94F4
:1044A0003921EC0161E0C8010E943921F82E62E057
:1044B000C8010E943921AE0170E060E0742F6627C8
:1044C0005527442700E030E020E0402B5F29622B95
:1044D000732B292F30E0C901B0E0A0E08A019B01D5
:1044E000082B192B2A2B3B2BC901B801DF91CF9147
:1044F0001F910F91FF9008950F931F93CF93DF9318
:10450000EC018B01FE0185919491FE013296249677
:10451000659174918F3F980771F490E080E00E945C
:10452000C017045011091016110664F3DF91CF91E2
:104530001F910F9108950E942A20F3CFFC01262F8E
:10454000358D868D82958170982F9627692F70E022
:1045500072A361A330FF0CC0821307C080E290E019
:1045600050E040E060E00C946B1F81E290E0F8CFF7
:10457000878D90A1833927E7920741F058F484355D
:1045800021E0920791F080329445C1F4626081E0AD
:1045900094E012C0863223E99207C1F3893025EBFB
:1045A0009207A1F38532924949F4660F771F660F8F
:1045B000771F636187E090E00C942A2081E690E009
:1045C000FBCF8F929F92AF92BF92CF92DF92EF92EA
:1045D000FF920F931F93CF93DF9300D01F92CDB71D
:1045E000DEB77C014B015A016901FC01878D90A166
:1045F0008632954151F4F701868980FF06C0C801D3
:10460000841B950B81F50F5F1F4FF701858D80FF90
:1046100031C085A599828A82DB82CC82AE014F5F50
:104620005F4F64E090E00E946B1FF70181A9B9829F
:10463000AA821B830C83AE014F5F5F4F64E090E062
:104640000E946B1F0F900F900F900F90DF91CF91F2
:104650001F910F91FF90EF90DF90CF90BF90AF90A0
:104660009F908F9008952617370779F6C80ED91EA8
:104670008A01CBCFB40187A190A50E942A20B50161
:10468000F70181A592A50E942A20C814D90419F423
:104690000A151B05B9F2F701858D85FF08C08689CB
:1046A00080FF1EC0102F0027A02AB12A8501B40167
:1046B000F70185A596A50E942A20B501F70181A9D9
:1046C00092A90E942A20B601F70187A590A90E940D
:1046D0002A20B801F70183A994A90E942A20B2CF09
:1046E000DC2CCC248C289D286401E1CF2F923F92B2
:1046F0004F925F926F927F928F929F92AF92BF92F2
:10470000CF92DF92EF92FF920F931F93CF93DF939D
:1047100000D01F921F92CDB7DEB79D838C8380910E
:104720009104882349F0C701880F991F8E73992738
:10473000E1ECEE22E82AF92A37FF05C0620F731F69
:10474000319521953109260F371F77FF02C070E0A0
:1047500060E0EC81FD8180859185281739070CF494
:10476000C9016C01C61AD70A17FF05C0400F511FB7
:10477000119501951109040F151F57FF02C050E054
:1047800040E0EC81FD8122853385021713070CF48C
:1047900098015901A41AB50A8901015011099C0117
:1047A000215031098C819D810E94E1228B988A9849
:1047B000EC81FD8153A544A5809102018778809307
:1047C0000201A5988EB1877C8EB960910201842F79
:1047D00090E09C01A5E0220F331FAA95E1F7207617
:1047E000262B209302016EB19C01220F331F220F52
:1047F000331F2073262B2EB964B39C01220F331F65
:104800002072262B24BB6EB19C01359527953595DA
:1048100027952870262B2EB92091020133E095951B
:1048200087953A95E1F78871822B809302018998E8
:10483000899A80910201877880930201A5988EB1B0
:10484000877C8EB960910201852F942F9C0145E0F1
:10485000220F331F4A95E1F72076262B2093020181
:104860004EB19C01220F331F220F331F2073242BC4
:104870002EB944B39C01220F331F2072242B24BB7A
:104880004EB19C0135952795359527952870242B99
:104890002EB920910201E3E095958795EA95E1F71D
:1048A0008871822B809302018998899A8A9ACA1406
:1048B000DB042CF09A2D8B2D5601C92ED82E2F2DCE
:1048C00030E0890185E0000F111F8A95E1F700763D
:1048D000C901880F991F880F991F182F1073C901DC
:1048E000880F991FB82FB072C90195958795959536
:1048F0008795982F987073E0359527957A95E1F70D
:10490000822F8871A701E5E0440F551FEA95E1F772
:1049100040769701220F331F220F331F522F5073FF
:10492000B701660F771F607297013595279535950A
:104930002795722F78709701E3E035952795EA95D2
:10494000E1F7A22FA8712F2D287F30E04901880CB4
:10495000991C880C991CF82DF073F9834901880C77
:10496000991CE82DE072EA83490195948794959407
:104970008794F82DF870FB83E3E035952795EA9549
:10498000E1F7E22FE8712E2E9701F3E03695279597
:10499000FA95E1F72C7F30E04901880C991C880CCE
:1049A000991CF82DF0733F2E2901440C551CE42D61
:1049B000E0724E2E49019594879495948794F82D32
:1049C000F8705F2EF3E035952795FA95E1F7E22F21
:1049D000E8716E2EEE0CEE0CEE0CF12C9701220F0E
:1049E000331F220F331FF22FF0737F2E9701220FF8
:1049F000331F2072F701F595E795F595E795E87077
:104A0000F3E0F594E794FA95E1F73E2D3871E32E43
:104A10001C141D040CF0ABC03091920445013323EB
:104A200009F463C030910201377830930201A598F0
:104A30003EB1377C3EB930910201309302013EB164
:104A4000F9813F2B3EB934B3FA813F2B34BB3EB1E1
:104A5000FB813F2B3EB93091020132293093020194
:104A60008998899A30910201377830930201A5988C
:104A70003EB1377C3EB930910201309302013EB124
:104A800033293EB934B3342934BB3EB135293EB95C
:104A9000309102013629309302018998899A309128
:104AA0000201377830930201A5983EB1377C3EB9B8
:104AB00030910201309302013EB137293EB934B33F
:104AC000322B34BB3EB13E2B3EB9309102013E2920
:104AD000309302018998899A31E0831A910809F08C
:104AE000A1CFF1E0CF1AD10893CF309102013778EE
:104AF00030930201A5983EB1377C3EB93091020156
:104B0000302B309302013EB1312B3EB934B33B2BF5
:104B100034BB3EB1392B3EB930910201382B309372
:104B200002018998899A3091020137783093020105
:104B3000A5983EB1377C3EB930910201342B3093B9
:104B400002013EB1352B3EB934B3362B34BB3EB1F6
:104B5000372B3EB9309102013A2B309302018998EC
:104B6000899AF1E08F1A910809F0BFCFBACF8B9ADA
:104B7000EC81FD81858D80FF0AC0878D90A18632F2
:104B80009541B1F4EC81FD81868980FF11C0EC81F3
:104B9000FD81028513850150110920853185215041
:104BA000310950E040E070E060E0CF010E94E12276
:104BB0000F900F900F900F900F90DF91CF911F915A
:104BC0000F91FF90EF90DF90CF90BF90AF909F90AC
:104BD0008F907F906F905F904F903F902F900895AF
:104BE000EF92FF920F931F93CF93DF937C01E90124
:104BF00077FD4DC157FD4BC1FC018085918568173C
:104C000079070CF044C182859385481759070CF049
:104C10003EC180919104882341F0C901880F991FFA
:104C20008E739927C17CC82BD92B8A019B01C701A0
:104C30000E94E12280919204882309F42FC18B986D
:104C40008A98F70143A554A5809102018778809343
:104C50000201A5988EB1877C8EB960910201852FE3
:104C600090E09C0175E0220F331F7A95E1F72076E2
:104C7000262B209302016EB19C01220F331F220FBD
:104C8000331F2073262B2EB964B39C01220F331FD0
:104C90002072262B24BB6EB19C0135952795359546
:104CA00027952870262B2EB920910201B3E0959507
:104CB0008795BA95E1F78871822B809302018998D4
:104CC000899A80910201877880930201A5988EB11C
:104CD000877C8EB960910201CA019C0115E0220F08
:104CE000331F1A95E1F72076262B209302014EB14F
:104CF0009C01220F331F220F331F2073242B2EB948
:104D000044B39C01220F331F2072242B24BB4EB1CD
:104D10009C0135952795359527952870242B2EB91C
:104D20002091020173E0959587957A95E1F7887156
:104D3000822B809302018998899A8A9A8091020134
:104D4000877880930201A5988EB1877C8EB92091D7
:104D500002018D2F887F90E0209302014EB19C01CB
:104D6000220F331F220F331F2073242B2EB944B37D
:104D70009C01220F331F2072242B24BB4EB19C01B7
:104D800035952795359527952870242B2EB9209198
:104D90000201B3E095958795BA95E1F78871822B6A
:104DA000809302018998899A809102018778809383
:104DB0000201A5988EB1877C8EB920910201CE01A7
:104DC000D3E096958795DA95E1F78C7F90E0209374
:104DD00002014EB19C01220F331F220F331F20739B
:104DE000242B2EB944B39C01220F331F2072242B95
:104DF00024BB4EB19C013595279535952795287094
:104E0000242B2EB92091020163E0959587956A9530
:104E1000E1F78871822B809302018998899A8091A9
:104E20000201877880930201A5988EB1877C8EB9A4
:104E300080910201CC0FCC0FCC0FD0E08093020107
:104E40002EB1CE01880F991F880F991F8073822B76
:104E50008EB924B3CE01880F991F8072822B84BB38
:104E60002EB1CE0195958795959587958870822B63
:104E70008EB980910201A3E0D595C795AA95E1F777
:104E8000C871C82BC09302018998899A8B9ADF91C7
:104E9000CF911F910F91FF90EF900895BE01F70100
:104EA00083A594A5DF91CF911F910F91FF90EF9073
:104EB0000C942A20EF92FF920F931F93CF93DF93CE
:104EC00000D000D000D01F92CDB7DEB77C01862F76
:104ED0008370F701868B962F917060FFE3C0268167
:104EE0003781F70131872087992309F4DEC02481B7
:104EF0003581F70133872287823009F4DBC08330A4
:104F000009F4DAC0813009F4D3C088E48A87F70154
:104F1000858D968D90FF03C02A8520582A8791FFA2
:104F200004C02A8530E423272A8793FF04C02A85FA
:104F300038E023272A87F701278D30A180FF00C1A1
:104F40002431F8E63F0709F0B9C09A85892F8872A5
:104F50008A871F82892F85958074282F2260892F48
:104F600090E09595879580729927822B88878BE3AF
:104F70008987AE01495F5F4F63E086EB90E00E9456
:104F80006B1F2AE230E0F70130A727A38BE290E005
:104F900092A781A74CE250E054A743A736A725A7C4
:104FA00030AB27A792AB81AB94AB83ABAE01465F2E
:104FB0005F4F61E086E390E00E946B1F8A8590E07E
:104FC000F70194A383A3F701868980FF1CC0858D18
:104FD000968D92FD18C087A190A521A532A530A776
:104FE00027A392A781A785A596A521A932A936A7AF
:104FF00025A792AB81AB87A590A923A934A930AB93
:1050000027A794AB83ABF7010285138501501109E3
:10501000208531852150310950E040E070E060E0AA
:10502000C7010E94E122F70166817781878D90A1F7
:1050300020E08732F3E99F0709F420E2F701358D7C
:1050400030FF39C119821A827B836C831D822E83C3
:10505000AE014F5F5F4F66E083E390E00E946B1FFD
:1050600019821A82AE014F5F5F4F62E087E390E0E2
:105070000E946B1FF701858D80FF07C050E040E064
:1050800060E083E190E00E946B1F2A960FB6F894CF
:10509000DEBF0FBECDBFDF91CF911F910F91FF906B
:1050A000EF900895248135811CCF2681378121CF4F
:1050B00088E22CCF88E92ACF88EF28CF273243E92E
:1050C000340789F41F8281E388878A8585958595D1
:1050D0008595859588708987AE01495F5F4F63E04C
:1050E00080EC90E04CCF233689E1380749F0213835
:1050F000E4E93E0729F02131F5E13F0709F041CF0E
:105100008A8587FF02C081608A878A8586FF02C000
:1051100082608A878A858F73233649E1340731F0AC
:10512000213884E9380721F48A858F728A8729CF4C
:105130002131354109F025CF8A858F7E806CF6CFED
:105140006A85862F062E000C990B2339F7E73F0757
:1051500051F0A8F52435E1E03E0709F45CC02032A7
:10516000F4E53F07A1F540E052E0F70150A747A35F
:1051700041E052E052A741A742E052E054A743A7C2
:1051800040E152E056A745A741E152E050AB47A7A6
:1051900042E152E052AB41AB43E152E054AB43AB8E
:1051A000882790782632F3E93F0721F020323445F2
:1051B00009F071C067FD846060E071E36EC0263263
:1051C00043E9340781F22930E5EB3E0761F220E242
:1051D00030E0F70130A727A321E230E032A721A772
:1051E00022E230E034A723A720E530E036A725A748
:1051F00021E530E030AB27A722E530E032AB21AB30
:1052000023E530E034AB23ABBC01662770787762CE
:1052100080E690E046C027E330E0F70136A725A7F7
:1052200026E330E030AB27A729E330E032AB21ABF7
:1052300028E330E034AB23AB20E230E030A727A3F3
:1052400021E230E032A721A722E230E034A723A7F1
:10525000F4E06F9FB0011124662771708827927067
:105260008862682B792B81E090E00E942A208A8551
:10527000682F70E0759567957595679568707727C5
:1052800083FD70616063F70174A363A383E090E022
:105290000E942A2098CE60E072E6682B792B80E08D
:1052A00094E00E942A206A85F4E06F9FB0011124E7
:1052B00066277170D8CF8339F7E79F07D9F1F0F4EB
:1052C000803244E59407B1F18338E7E79E0731F176
:1052D00084359140F1F46150710981E390E00E94BE
:1052E0002A2070E060E082E390E00E942A2070E0D3
:1052F00060E083E390E00E942A20C7CE863223E953
:105300009207C1F0893045EB9407A1F085329249AC
:1053100011F3F70161A172A1626003C0F70161A1FD
:1053200072A181E690E00E942A2070E060E08AE6A7
:1053300090E0E1CFF70161A172A1626081E094E0A9
:105340000E942A2070E060E084E094E0D4CFEF92E5
:10535000FF920F931F93DC01ED91FC9100A0F1A14E
:10536000E02D780101E010E019951F910F91FF9059
:10537000EF900895EF92FF920F931F93DC01ED9150
:10538000FC9100A0F1A1E02D7801890121E030E03D
:1053900019951F910F91FF90EF900895089590E057
:1053A00080E008958091A2049091A30482529E40CF
:1053B00049F082E29EE09093A7048093A60481E0E6
:1053C0008093A8040C9496140C94D229EF92FF9227
:1053D0000F931F93DC011A960D911C911B97189641
:1053E0002D913C911997ED91FC9100A0F1A1E02D38
:1053F0007B0150E040E070E060E019951F910F9153
:10540000FF90EF90089582E897E09F938F9385E057
:1054100093E09F938F931F9289E18F9385E49BE0A4
:105420009F938F930E9422548DB79EB708960FB614
:10543000F8949EBF0FBE8DBF089580E997E09F93BB
:105440008F9384E193E09F938F931F9289E18F93D1
:105450008BEF9AE09F938F930E9422548DB79EB753
:1054600008960FB6F8949EBF0FBE8DBF089582E8D0
:1054700097E09F938F9385E093E09F938F931F9284
:1054800089E18F938CE599E09F938F930E9422543A
:105490008DB79EB708960FB6F8949EBF0FBE8DBF0E
:1054A0000895EF92FF920F931F93CF93DF93462FB0
:1054B000E72FDC0159960D911C918CE3E82EF12C1D
:1054C000C801B7010E946D50382FC92FCB01B70119
:1054D0000E946D50282FF92FC80160E17EE00E94E4
:1054E0006D502A30E0F53A3000F5CF933F93FF93AB
:1054F0002F937F936F9383E293E09F938F931F92F9
:1055000089E08F93EF934F930E9422548DB79EB7FB
:105510000C960FB6F8949EBF0FBE8DBFDF91CF9152
:105520001F910F91FF90EF900895CF933F93FF93BA
:105530002F937F936F938FE293E09F938F931F92AC
:1055400089E08F93EF934F930E942254ADB7BEB77B
:105550001C960FB6F894BEBF0FBEADBFDFCF3A307A
:10556000D0F4CF933F93FF932F937F936F938AE36E
:1055700093E09F938F931F9289E08F93EF934F93C4
:105580000E9422548DB79EB70C960FB6F8949EBF1A
:105590000FBE8DBFC3CFCF933F93FF932F937F93C6
:1055A0006F9385E493E09F938F931F9289E08F938D
:1055B000EF934F930E942254ADB7BEB71C960FB61F
:1055C000F894BEBF0FBEADBFA9CFCF93DF9380913C
:1055D0004A0D90914B0D892B29F48091EC0D882375
:1055E00009F458C08091DE0C9091DF0C892B21F4D6
:1055F0008091EC0D81114EC061E080916A080E949B
:105600000A1410929A0863E270E080E090E00E9431
:10561000C0172091800D3091810DAFEFB0E00E9456
:105620005E5024E630E040E050E00E940A50C22F75
:105630002093900481E080930E092CE231E03093B6
:105640001909209318091092C4082091A2043091DE
:10565000A3042C51394041F02CE139E03093A704E8
:105660002093A6048093A8046FE473E08AE397E094
:105670000E941B548FE080937207D1E0D09374078F
:10568000C0936B086C2F70E0809169080E948B15A5
:10569000D0939808DF91CF9108958091A2049091C2
:1056A000A304835E9B4049F083EE9BE09093A704A4
:1056B0008093A60481E08093A8046FE573E08AE3F9
:1056C00097E00E941B548BE08093720781E08093E7
:1056D00074071092A80B9091EC0D2091DE0C309184
:1056E000DF0C91110AC040914A0D50914B0D9CE383
:1056F000949F9001959F300D112480938B0B3093D4
:10570000960B2093950B0C94F3170F931F93CF9345
:10571000DF9300D000D01F92CDB7DEB76091800D2F
:105720007091810D90E080E00E94A3512AE939E94F
:1057300049E95FE30E945A528E010F5F1F4F22E03A
:1057400046E00E949B4D9F938F938BE693E09F933F
:105750008F931F9289E18F9382E99CE09F938F93AF
:105760000E9422540FB6F894DEBF0FBECDBF27961D
:105770000FB6F894DEBF0FBECDBFDF91CF911F9162
:105780000F910895CF92DF92EF92FF920F931F93A4
:10579000CF93DF9300D000D000D0CDB7DEB76091BB
:1057A000800D7091810D90E080E00E94A3512AE964
:1057B00039E949E95FE30E945A526B017C0160912B
:1057C0004A0D70914B0D90E080E00E94A3519B0127
:1057D000AC01C701B6010E945A522FE832EC45E7EE
:1057E0005DE30E945A528E010F5F1F4F22E047E097
:1057F0000E949B4D9F938F938DE793E09F938F9390
:105800001F9289E18F9388E49CE09F938F930E947D
:1058100022540FB6F894DEBF0FBECDBF29960FB647
:10582000F894DEBF0FBECDBFDF91CF911F910F91D6
:10583000FF90EF90DF90CF90089560E973E084E8E7
:105840009AE00C941B5469EA73E08AE39AE00C94A2
:105850001B546DEB73E080EF99E00C941B5463EDE7
:1058600073E086EA99E00C941B548F929F92AF925A
:10587000BF92CF92DF92EF92FF920F931F93CF933D
:10588000DF93EC017B013A8130FFCAC02881888810
:105890009988AA88BB88422F4870C42E23FF22C053
:1058A000888D998DAA8DBB8D88199909AA09BB0984
:1058B00082309105A105B10520F5009711F530E082
:1058C00020E0A901481B590BCA01DF91CF911F911C
:1058D0000F91FF90EF90DF90CF90BF90AF909F908F
:1058E0008F90089526FF0DC0EE81FF8187819085FE
:1058F00045E0880F991F4A95E1F78815990509F445
:1059000095C0EE81FF8184011170B501A40189E089
:1059100076956795579547958A95D1F726FF27C0C5
:10592000858D968DA78DB0A1480F591F6A1F7B1FCB
:105930008E819F8120E081960E949D0E009709F440
:105940006FC0800F911FFC018081F70180838889DF
:105950009989AA89BB890196A11DB11D888B998B54
:10596000AA8BBB8B21E030E090E080E0AACFD3800F
:10597000D4220115110581F4D1100EC089288A287E
:105980008B2881F527FF29C0858D968DA78DB0A125
:105990008C879D87AE87BF87EE81FF814C855D85B3
:1059A0006E857F854250510961097109848104C067
:1059B000440F551F661F771F8A95D2F781899289F8
:1059C000A389B489840F951FA61FB71FAC01BD0121
:1059D0004D0D511D611D711DABCF8C8D9D8DAE8DFB
:1059E000BF8DD6CF4C855D856E857F85CC2059F0E7
:1059F00036FF09C04F5F5F4F6F4F7F4F4C875D870A
:105A00006E877F87C9CF9E01245F3F4FCF010E94E1
:105A1000341187FD05C08111BFCF8881807D49F495
:105A20008981826089838FEF9FEF4FCF30E020E044
:105A30009BCF21E030E081E090E043CFEF92FF92F6
:105A40000F931F93CF93DF931F92CDB7DEB77C01E7
:105A5000962FF70140895189628973898A019B01D8
:105A600085E036952795179507958A95D1F70F709C
:105A700011F0911129C0BE016F5F7F4FC7010E94D5
:105A8000352C813051F090E080E00F90DF91CF9184
:105A90001F910F91FF90EF900895F70180899189F0
:105AA000A289B3894F96A11DB11D808B918BA28BCA
:105AB000B38BF701868197818C96F0E20F9F90015E
:105AC0001124820F931FE1CF405E5F4F6F4F7F4FD6
:105AD000408B518B628B738BECCFCF93DF93EC01B8
