:100000000C948B080C94BC080C94BC080C94BC0891
:100010000C94BC080C94BC080C94BC080C94BC0850
:100020000C94BC080C94BC080C94BC080C94BC0840
:100030000C94BC080C94BC080C94BC080C94BC0830
:100040000C94BC080C94BC080C94BC080C94BC0820
:100050000C94BC080C94BC080C94BC080C94272687
:100060000C94BC080C94BC080C94BC080C94BC0800
:100070000C94BC080C94BC080C94BC080C94BC08F0
:100080000C94BC080C94BC080C94BC080C94BC08E0
:100090000C94BC080C94BC080C94BC080C94BC08D0
:1000A0000C94BC080C94BC080C94BC080C94BC08C0
:1000B0000C94BC080C94BC080C94BC080C94BC08B0
:1000C0000C94BC080C94BC080C94BC080C94BC08A0
:1000D0000C94BC080C94BC080C94BC080C94BC0890
:1000E0000C94BC0807634236B79BD8A71A396856E8
:1000F00018AEBAAB558C1D3CB7CC5763BD6DEDFD4A
:10010000753EF6177231BF000000803F0800000006
:10011000BE922449123EABAAAA2ABECDCCCC4C3EFC
:1001200000000080BEABAAAAAA3E00000000BF00EB
:100130000000803F0000000000084178D3BB4387E7
:10014000D1133D190E3CC3BD4282AD2B3E68EC82FB
:1001500076BED98FE1A93E4C80EFFFBE01C4FF7F80
:100160003F00000000000C94B60F0C9476100C9425
:10017000A0120C947D210C94A4090C94FA1D0C94EB
:1001800058250C94C50F0C9475120C94E5100C9422
:10019000E80C0C94D1100C94C7120C94940E0C948F
:1001A0001B1A0C94D21D0C940F1E0C94FD1D0C9464
:1001B000DD0F0C94BE0F0C94C7200C94DB100C9434
:1001C00071100C94B00E0C94EF100C94160C0C944F
:1001D0008E1E0C948A100C9414280C94F9100C9414
:1001E000BE080C94470D0C9441240C94A4100C945C
:1001F00021220C94CA1E0C94CB0F0C94CF0F0C949C
:1002000080100C94E30F0C94A1170C9446110C94DD
:10021000BA240C94930E0C94AE100C949D120C9472
:10022000EB0F0C94C2100C94C30E0C94D3210C94BD
:10023000F91D0C94C1220C94C20F0C94BA0F0C94AB
:1002400025110C9457230C94711E0C94D50F0C940B
:10025000C1110C949C100C94D9200C94ED220C9498
:100260006D090C94C9160C9499120C94A40E0C945C
:10027000B8100C9413200C94A6120C94CD200C945E
:10028000E51D0C9403110C94E41E0C94BC0E0C940C
:10029000F10F0C9469100C94E70F0C94AA120C94B3
:1002A000B01E0C949F0F0C94851B0C9442210C944F
:1002B000F50F0C94D90F0C9494100C94A3120C9479
:1002C000A40F0C94921F0C94D3200C941F12004086
:1002D0007A10F35A00A0724E18090010A5D4E80055
:1002E00000E87648170000E40B54020000CA9A3B6D
:1002F000000000E1F50500008096980000004042F3
:100300000F000000A0860100000010270000000080
:10031000E803000000006400000000000A00000084
:1003200000000100000000002C76D888DC674F0830
:1003300023DFC1DFAE59E1B1B796E5E3E453C63A36
:10034000E651997696E8E6C28426EB898C9B62EDAD
:10035000407C6FFCEFBC9C9F40F2BAA56FA5F49067
:10036000055A2AF75C936B6CF9676DC11BFCE0E4DE
:100370000D47FEF520E6B500D0ED902E0300943534
:1003800077050080841E080000204E0A000000C887
:100390000C333333330F986E12831141EF8D2114D8
:1003A000893BE65516CFFEE6DB18D1844B381BF7A8
:1003B0007C1D901DA4BBE424203284725E22810047
:1003C000C9F124ECA1E53D2711007F962900010029
:1003D0007F9628003A0155C0021010C10141C504A2
:1003E00000228040360168B00100B102B011B401B2
:1003F00002B60302023BB701C63A0155F704A95100
:100400002C82B701C6E808408A00002919A533C02C
:10041000020D0DC1024300C20100C504004800489E
:10042000B40100B60302023BE00F0F211C0B0E08C3
:10043000499838091103141000E10F0F2F2B0C0EEF
:1004400006477637071104231E00B00100B30402EB
:10045000000000B40100D003074218D103000710C8
:10046000D2020102D3020102D4020102C005123BF2
:10047000000211C103101088C50103C60102C80C97
:10048000003236450616377577540C00CC0100F65D
:1004900003010100CF03008130ED0464031281E801
:1004A00003851078CB05392C003402F70120EA02CD
:1004B0000000B00100B102001BB40100C00121C165
:1004C0000111C5023F3CC701B5360148F2010026C3
:1004D0000101E00F0F26240B0E0954A8460C170942
:1004E0000F0700E10F00191B0410072A4739030604
:1004F0000630380F360100B80101C0010EB001000E
:10050000C10410100202C006003500000102C5013E
:1005100004D2020104CA0100EA0180B903FF835733
:100520007F967F96B60125C0065050013C1E08B448
:10053000070240002A2A0D787F01F20B16160308E5
:1005400008080810041616FD03110235B2050C0C3C
:10055000003333B70135BB012BC00104C20201FFD8
:10056000C30111C40120C6010FD002A4A1E00ED026
:1005700000050E150D3743470915121619E10ED067
:1005800000050D0C062D44400E1C1816193A015595
:100590007F0A06000700B1020012B40102B604008F
:1005A000202700CA0101CB0103C001137F14C5013C
:1005B000CCC60100C70104C80103CC0106CD011C53
:1005C000F9021515F3030A020AF603011000FA00F6
:1005D000FB00E2031E0254E001017F0AE001037FF9
:1005E0000A01007F64E60303FFFFB0072400031F36
:1005F00001DF00B40803A0002E30000F00B6070290
:100600000D0010100008BA010FB8020701F0010038
:100610007F01280011007F642900BE0606F001F06A
:100620000000D0010DB00103E2013FC00122E20150
:1006300000B00100C0010AB001000000000000008D
:1006400000000000000000000000FFFF0F00000499
:100650000062080008080003000C01030B5A0203A3
:1006600006090303171004030023050300170603FC
:1006700009630703090C08030C1009033222100058
:10068000160011000101120000001300010000011A
:100690003003010137020301000D800200610201F5
:1006A000B0C1FFFF320001000001020000010300A1
:1006B0003010090001000C000000900000800F00C5
:1006C0000000100200001102EF00120200001302ED
:1006D0008F01000500000105000002055F00010414
:1006E000010004040000FFFF320007000001FFFFCB
:1006F00032000002000001020000000000000000C3
:1007000000000000000000000100A4000100FFFF45
:100710000A006000002708000808300014023100B9
:100720001537320004063300160E3400112235004E
:100730000015360007853700071438000314390008
:10074000200090001500100010041100370229004D
:1007500046002A004600070000001200890113002D
:100760000011FFFF96001200B90101000001020014
:10077000000203003010090001000A0000000D0013
:1007800000000E003000610001006A0000008000DF
:1007900000008100000082005F00920000019300D1
:1007A0000107FFFF500007000001E500F07801009D
:1007B00000010200000203003010040000000500E8
:1007C000000008000702090000000A0000000C00F9
:1007D00000000D0000000F000000100000001100DC
:1007E0000700120000001300000007000100FFFFD7
:1007F000C8001000901611002702FFFF32001200FF
:100800000D00FFFF32001300001229000A002B0028
:100810000D00FFFF3200200000002100000030002A
:1008200000003100040432000300350005043600E6
:1008300008083700070438000303390007073C00A5
:1008400004053D00080860000027610001006A00FF
:100850000000800000008100000082000000830092
:10086000000084000000850000009000100092004D
:10087000000007003301E5000080000001000100D6
:10088000000102000007030030100400000008000F
:100890000202090000000A0000000C0000000D0028
:1008A00000000F00000010000000110007001200FF
:1008B000000013000000FFFF32001000B01711000D
:1008C0000700FFFF0A0012003A01FFFF0A001300B1
:1008D000001A29000C00FFFF0A0030000000310060
:1008E0000505320004003500060036000707370012
:1008F000050138000200390007073C0004073D00ED
:100900000708600000A7610001006A0000002100E4
:100910000000200000008000000081000000820034
:1009200000008300000084000000850000009000AB
:100930001000920000009300030095001001970042
:1009400000009800000007007301FFFF3200010063
:100950000001020000070300301008000203090034
:1009600000000A000800100000001100050012003D
:10097000000013000000FFFF64001000B012FFFF32
:10098000320011000700FFFF320012008C0013003C
:10099000001729002000FFFF320030000000310066
:1009A000060132000101350006013600030237005E
:1009B000000038000707390004023C0006013D0032
:1009C0000301600000A761000100900030000700F3
:1009D0003301FFFF3200150030009A0010001100B3
:1009E0002000100028341200020013003810FFFF0E
:1009F000280012001200FFFF28001000203413000E
:100A00004530FFFF46003000000031000204320094
:100A100007033300040334000400350001043600EA
:100A200007073700050338001006390010060100DB
:100A300000010200000303003010080008080A004B
:100A40000800600000276100010090003E01920054
:100A5000000193000001A0000030A3001000070077
:100A600001000700210007002300070033000700F2
:100A7000330111001A001200213113006C00140020
:100A8000494210000008FFFF0A0011001A01FFFF91
:100A90000A0011001A03FFFF0A0011001A07FFFFE6
:100AA0000A0011001A0FFFFF0A0011003A0FFFFFA2
:100AB0001E000100280102000001030030100700A1
:100AC0001210080003030B0000110C0000000F00BF
:100AD00001181500200050000101510003065200CA
:100AE0000804530000005400050655000604560093
:100AF00003035700030358001000590000100700BB
:100B00001200FFFF28000700130007001700000075
:100B10002100240027002A002D00300033000101AD
:100B20000000040107010A0100000A0B02090C0D74
:100B30000E08070304010000000000000000000090
:100B400000000000000000000000000000000000A5
:100B50000000000012111000000000000000000062
:100B60000000000000000000000000000000000085
:100B70000000003E5B4F5B3E3E6B4F6B3E1C3E7C7D
:100B80003E1C183C7E3C181C577D571C1C5E7F5E2B
:100B90001C00183C1800FFE7C3E7FF0018241800EA
:100BA000FFE7DBE7FF30483A060E26297929264081
:100BB0007F050507407F05253F5A3CE73C5A7F3EAD
:100BC0001C1C08081C1C3E7F14227F22145F5F003F
:100BD0005F5F06097F017F006689956A60606060DB
:100BE0006094A2FFA29408047E040810207E2010C6
:100BF00008082A1C08081C2A08081E101010100CCF
:100C00001E0C1E0C30383E3830060E3E0E0600001C
:100C100000000000005F00000007000700147F14C0
:100C20007F14242A7F2A122313086462364956202F
:100C3000500008070300001C2241000041221C0054
:100C40002A1C7F1C2A08083E080800807030000813
:100C500008080808000060600020100804023E51E7
:100C600049453E00427F4000724949494621414979
:100C70004D331814127F1027454545393C4A4949E0
:100C80003141211109073649494936464949291E4A
:100C90000000140000004034000000081422411439
:100CA00014141414004122140802015909063E418B
:100CB0005D594E7C1211127C7F494949363E4141B3
:100CC00041227F4141413E7F494949417F0909090C
:100CD000013E414151737F0808087F00417F410078
:100CE0002040413F017F081422417F404040407F27
:100CF000021C027F7F0408107F3E4141413E7F0974
:100D00000909063E4151215E7F09192946264949B4
:100D1000493203017F01033F4040403F1F204020F4
:100D20001F3F4038403F63140814630304780403F2
:100D30006159494D43007F414141020408102000A0
:100D40004141417F04020102044040404040000311
:100D500007080020545478407F28444438384444DD
:100D60004428384444287F385454541800087E09D5
:100D70000218A4A49C787F0804047800447D4000F5
:100D80002040403D007F1028440000417F40007C0F
:100D9000047804787C080404783844444438FC1807
:100DA00024241818242418FC7C08040408485454EB
:100DB000542404043F44243C4040207C1C20402018
:100DC0001C3C4030403C44281028444C9090907C7F
:100DD0004464544C44000836410000007700000091
:100DE0004136080002010204023C2623263C1EA1D3
:100DF000A161123A4040207A385454555921555532
:100E000079412254547842215554784020545579E0
:100E1000400C1E5272123955555559395454545973
:100E200039555454580000457C410002457D42002C
:100E300001457C407D1211127DF0282528F07C545C
:100E40005545002054547C547C0A097F4932494955
:100E500049323A4444443A324A4848303A414121BE
:100E60007A3A42402078009DA0A07D3D4242423D1A
:100E70003D4040403D3C24FF2424487E4943662BAE
:100E80002FFC2F2BFF0929F620C0887E0903205450
:100E90005479410000447D413048484A323840404E
:100EA000227A007A0A0A727D0D19317D2629292FAE
:100EB00028262929292630484D40203808080808C6
:100EC00008080808382F10C8ACBA2F102834FA00C8
:100ED000007B000008142A142222142A140855004A
:100EE000550055AA55AA55AAFF55FF55FF00000009
:100EF000FF00101010FF00141414FF001010FF006A
:100F0000FF1010F010F0141414FC001414F700FF7C
:100F10000000FF00FF1414F404FC141417101F1039
:100F2000101F101F1414141F00101010F0000000E8
:100F3000001F101010101F10101010F010000000F3
:100F4000FF101010101010101010FF10000000FF04
:100F5000140000FF00FF00001F10170000FC04F445
:100F600014141710171414F404F40000FF00F714FD
:100F7000141414141414F700F71414141714101084
:100F80001F101F141414F4141010F010F000001FA0
:100F9000101F0000001F14000000FC140000F010DF
:100FA000F01010FF10FF141414FF141010101F0085
:100FB000000000F010FFFFFFFFFFF0F0F0F0F0FF87
:100FC000FFFF0000000000FFFF0F0F0F0F0F38445E
:100FD000443844FC4A4A4A347E02020606027E0233
:100FE0007E0263554941633844443C04407E201EE0
:100FF0002006027E020299A5E7A5991C2A492A1C0F
:101000004C7201724C304A4D4D303048784830BCFB
:10101000625A463D3E494949007E0101017E2A2A25
:101020002A2A2A44445F444440514A444040444AA6
:1010300051400000FF0103E080FF000008086B6BD7
:10104000083612362436060F090F0600001818005D
:1010500000001010003040FF0101001F01011E00C0
:10106000191D1712003C3C3C3C000000000001022E
:1010700010202008081020401020408002010201AA
:101080000804020101020408102040808040201062
:1010900008040201800402018040201008040201BB
:1010A0000804020101020408102040800102040823
:1010B0001020408000002200250028002B002E0078
:1010C0003100340002010000050108010B01050593
:1010D0000505070508080808020202020A0A0808AE
:1010E00004040404010101010101010103030303DC
:1010F00003030303040707070C0C0C0C0C0C0C0C6B
:101100000202020206060606060606060B0B0B0B7B
:101110000B0B0B0B142811241FBECFEFD1E2DEBF47
:10112000CDBF00E00CBF14E0A0E0B2E0E6EAFFE7CC
:1011300000E00BBF02C007900D92A030B107D9F7B5
:101140002AE0A0E0B4E001C01D92A830B207E1F7A8
:1011500018E0CBE8D8E000E006C021970109802F15
:10116000FE010E940839CA38D10780E00807A9F7B4
:101170000E94472B0C94D13F0C940000FC01808509
:10118000918508953F924F925F926F927F928F92D6
:101190009F92AF92BF92CF92DF92EF92FF920F9306
:1011A0001F93CF93DF93CDB7DEB7C054D1090FB6ED
:1011B000F894DEBF0FBECDBFDC0113963C90832CAC
:1011C000912CFC013496DE01119690E080E08815A8
:1011D00099050CF448C07401B1E0EB1AF108CC2475
:1011E000C394D12CC814D9040CF04EC08E010F5FEB
:1011F0001F4FB12CA12CAE14BF040CF03EC0D8017F
:101200008D919D910D90BC91A02D21968CAF9DAF9D
:10121000AEAFBFAF2197BFEFAB1ABB0AF801448056
:10122000558066807780A301920121966CAD7DADDB
:101230008EAD9FAD21970E94B33A18168CF4D80159
:101240004D925D926D927C92139721968CAD9DADDF
:10125000AEADBFAD2197F80184839583A683B78394
:101260000C5F1F4FC8CF41915191619171914D9386
:101270005D936D937D930196AACFFFEFCF1ADF0A9E
:1012800021E0E21AF108AECF369434E0339EC0017B
:101290001124A1E0B0E0AC0FBD1F8A0F9B1FFC0121
:1012A0006081718182819381C05CDF4F0FB6F894B9
:1012B000DEBF0FBECDBFDF91CF911F910F91FF9089
:1012C000EF90DF90CF90BF90AF909F908F907F90E6
:1012D0006F905F904F903F9008950F931F93CF931F
:1012E000DF93EC01E881F9810280F381E02D19950B
:1012F000EB81F0E0AF0141505109EE0FFF1FEE0FFF
:10130000FF1FEC0FFD1F3497141615065CF44150B7
:101310005109008111812281338104831583268341
:101320003783F1CF6C837D838E839F83CE010E94B0
:10133000C208C05CDF4F688379838A839B83DF9117
:10134000CF911F910F9108950F931F93CF93DF9328
:10135000EC01E881F9810280F381E02D1995EB81A0
:10136000F0E0AF0141505109EE0FFF1FEE0FFF1FDC
:10137000EC0FFD1F3497141615065CF4415051090B
:101380000081118122813381048315832683378371
:10139000F1CF6C837D838E839F83CE010E94C20830
:1013A000C05CDF4F688379838A839B83DF91CF9111
:1013B0001F910F9108950895FC016370668B8481DD
:1013C000958126813781613039F0633029F091872A
:1013D0008087338722870895318720879387828784
:1013E00008952F923F924F925F926F927F928F92C9
:1013F0009F92AF92BF92CF92DF92EF92FF920F93A4
:101400001F93CF93DF93CDB7DEB76A970FB6F894EB
:10141000DEBF0FBECDBF9A8F898F7A8369834A0161
:10142000D22E18870F833701BC2CDC0159962D91E1
:101430003C915A972115310509F015C118968D91E7
:101440009C911997681779070CF0D7C11A968D915E
:101450009C91481759070CF0D0C14C2C512CB6E088
:10146000CB9E600D711D11247C876B8716161706A5
:101470000CF0C3C1EA2DF0E0FA87E98793E0EE0FA4
:10148000FF1F9A95E1F7F88BEF87CF01840F951F27
:10149000181619060CF0B1C1A98DBA8D58968C9109
:1014A000811104C0BFEABD1508F4D394A98DBA8D8B
:1014B000ED91FC9111970284F385E02DCD011995F2
:1014C000B5E0DB9EC0011124E981FA81FC83EB8346
:1014D000312C212C9C012259344F388F2F8B4A2DCF
:1014E00050E05E8B4D8BEF89F88DE20DF31D44913A
:1014F0009E828D82D12CC12C69817A81620D731DEF
:101500007A8B698B842F90E09C8B8B8BE98DFA8D85
:10151000A081B18140FF82C0F1E0BF126FC0AF1265
:101520006DC01C96ED91FC912F813885A4014C0D66
:101530005D1D69897A89898D9A8D1995EB89FC8958
:10154000F595E7954E2F5FEFC51AD50A6D817E811F
:101550008D899E89680F791F7E836D8398E0C916F7
:10156000D10481F6AFEF2A1A3A0AEB81FC81E40D2F
:10157000F51DFC83EB83F5E02F16310409F0B3CFA2
:101580002F81388526153705B9F0A98DBA8DED91D3
:10159000FC91B1E0BB1257C0AB1255C069817A8192
:1015A0006B5F7F4F0088F189E02D830128E030E0F8
:1015B000A401898D9A8D1995A98DBA8DED91FC9113
:1015C00011970688F789E02DCD016A960FB6F89439
:1015D000DEBF0FBECDBFDF91CF911F910F91FF9066
:1015E000EF90DF90CF90BF90AF909F908F907F90C3
:1015F0006F905F904F903F902F9019941E96ED91B1
:10160000FC91EF80F88409851A8592014D815E81F5
:101610006B817C81898D9A8D199590CF2F8138852A
:101620002615370509F48ACF31E0B31207C0A3129B
:1016300005C01C96ED91FC91930178CF1E96ED911B
:10164000FC917301E0CF6B857C8564197509068474
:10165000F785E02D73010F8518899201A401898D0A
:101660009A8D1995A9CFF9013496949132974591A5
:101670005491D91AB7E0DB9E400D511D1124F90198
:10168000259134913C8B2B8BFA0125903490FA01F3
:101690003296749031963491398B329664903196AB
:1016A000449041E04C1518F04A1508F07FC0662DB3
:1016B000062C000C770B7C836B83842D042C000C90
:1016C000990B9E838D83A98DBA8DED91FC91119715
:1016D0000284F385E02DCD011995512CD12CC12C1C
:1016E000EA2DF0E0FA87E9872B2D30E03C872B8745
:1016F000A401440D511D47FC5A95588F4F8B6981A9
:101700007A81660D711D67FC7A957E876D87798970
:10171000C71608F051CF2C2D30E04D815E81420F6D
:10172000531FA985BA854A9FC0014B9F900D5A9FB0
:10173000900D1124FC01E80DF91DF88BEF87852D24
:10174000612C4F89588D420F531F5E8B4D8B671450
:1017500008F050C044244394480E877041F4C101FE
:101760000196EB89FC89E20DF31DD4901C01D7FE94
:1017700019C0A98DBA8DED91FC91662D70E0B1E094
:10178000BB1219C0AB1217C02D853E85620F731FA7
:101790000484F585E02D2F8138854D895E89898DFA
:1017A0009A8D1995DD0C6394842DD1CF1E821D82F4
:1017B0001C821B8288CF4B815C81640F751FAB85B7
:1017C000BC856A9FC0016B9F900D7A9F900D11247C
:1017D00069817A81680F791F0684F785E02DEF8093
:1017E000F88409851A859D014F855889898D9A8DC0
:1017F0001995D8CF570CC3948ACF6A960FB6F89430
:10180000DEBF0FBECDBFDF91CF911F910F91FF9033
:10181000EF90DF90CF90BF90AF909F908F907F9090
:101820006F905F904F903F902F9008958F929F926E
:10183000AF92CF92EF92FF920F931F93CF93DF93CC
:10184000EC01262F898D9A8D009709F051C06A30DE
:10185000D1F41D861C868D8948E0849F9001112457
:101860008E859F85820F931F9F878E8781E090E0F2
:10187000DF91CF911F910F91FF90EF90CF90AF909C
:101880009F908F9008956D3089F3CC88AD888F89B3
:101890008823C1F08C859D8536E0C39E800D911D07
:1018A0001124488559854817590764F44E855F858A
:1018B0001D861C8638E0A39EC0011124840F951F4D
:1018C0009F878E87EA88FB88088919894E855F85FE
:1018D0006C857D85CE010E94F1092C898C859D85C2
:1018E00046E0249F800D911D11249D878C87BECFDB
:1018F0006A3069F41D861C86FC013896E4912D89B6
:101900008E859F85E29F800D911D1124ADCF6D3096
:1019100009F4ACCFFC0134963491631708F4A6CFD8
:101920003296E491E61708F4A1CFFC013296859037
:101930009490462F431B342F47E0349F800C911C1A
:101940001124F401329634913196E4913323A9F1B4
:10195000EE2399F1CC88F4013596E491AD884F8956
:10196000442301F10E2E000CFF0BE30FF11DCE9E60
:10197000A001CF9E500D11246C857D85460F571F09
:1019800068857985641775076CF44E855F851D86BB
:101990001C86FC013896E491AE9E400D511D112429
:1019A0005F874E87EA88FB88088919894E855F859D
:1019B0006C857D85CE010E94F109F4013496E49195
:1019C0002C898C859D85E29F800D911D11248DCFE2
:1019D0006F927F928F929F92AF92BF92CF92DF923F
:1019E000EF92FF920F931F93CF93DF93EC016B0164
:1019F0005A0139014801E881F9810284F385E02D1B
:101A00001995E881F9810288F389E02D8701930116
:101A1000A501B601CE011995A501480D591D4150EA
:101A20005109E881F9810288F389E02D9301B6011B
:101A3000CE011995E881F9810088F189E02D9401A2
:101A4000A501B601CE011995C60CD71CB60161508F
:101A50007109E881F9810088F189E02D9401A501DF
:101A6000CE011995E881F9810688F789E02DCE012C
:101A7000DF91CF911F910F91FF90EF90DF90CF906A
:101A8000BF90AF909F908F907F906F9019946F92BE
:101A90007F928F929F92AF92BF92CF92DF92EF92FE
:101AA000FF920F931F93CF93DF935C01EB016A01C9
:101AB000490138018701DC01ED91FC916217730740
:101AC00019F5641675062CF0962D872D3A01C92E4E
:101AD000D82E9601261937092F5F3F4F048CF58DBC
:101AE000E02DA301BE01C5011995DF91CF911F9192
:101AF0000F91FF90EF90DF90CF90BF90AF909F90AD
:101B00008F907F906F9008954615570591F4261792
:101B1000370724F0892D4B01C22FD82F9E01281999
:101B200039092F5F3F4F068CF78DE02DA601B401D8
:101B3000DACF0284F385E02D1995D501ED91FC9162
:101B40000488F589E02D83019401A601BE01C50139
:101B50001995D501ED91FC910688F789E02DC50115
:101B6000DF91CF911F910F91FF90EF90DF90CF9079
:101B7000BF90AF909F908F907F906F901994EF924D
:101B8000FF920F931F93DC011A960D911C911B97E6
:101B900018962D913C911997ED91FC9100A0F1A11F
:101BA000E02D7B0150E040E070E060E019951F916E
:101BB0000F91FF90EF9008954F925F926F927F92F6
:101BC0008F929F92AF92BF92CF92DF92EF92FF924D
:101BD0000F931F93CF93DF936C012B015A013901AF
:101BE0004801DC01ED91FC910284F385E02D19950B
:101BF000E201640C751CD601ED91FC91C615D70568
:101C00005CF40088F189E02D87019401A501BE01F3
:101C1000C60119952196EFCF0688F789E02DC601F8
:101C2000DF91CF911F910F91FF90EF90DF90CF90B8
:101C3000BF90AF909F908F907F906F905F904F90EC
:101C400019948F929F92AF92BF92CF92DF92EF92B0
:101C5000FF920F931F93CF93DF93EC015B014A0137
:101C60006901E881F9810284F385E02D19959501D8
:101C70002C0D3D1D21503109E881F9810488F58939
:101C8000E02D78018401A401B501CE011995E88108
:101C9000F9810688F789E02DCE01DF91CF911F9160
:101CA0000F91FF90EF90DF90CF90BF90AF909F90FB
:101CB0008F9019948F929F92AF92BF92CF92DF92A2
:101CC000EF92FF920F931F93CF93DF93EC015B0191
:101CD0004A0169017801E881F9810284F385E02DE8
:101CE0001995C80CD91C860101501109E881F981A8
:101CF0000488F589E02D9501A401B501CE0119955F
:101D0000E881F9810688F789E02DCE01DF91CF9136
:101D10001F910F91FF90EF90DF90CF90BF90AF9009
:101D20009F908F9019940895EF92FF920F931F93B5
:101D3000DC01ED91FC9100A0F1A1E02D19951F911E
:101D40000F91FF90EF9008950F931F93DC01ED9199
:101D5000FC91068CF78DE02D19951F910F91089538
:101D60000F931F93DC01ED91FC91048CF58DE02D18
:101D700019951F910F910895DC01ED91FC9100845C
:101D8000F185E02D19942F923F924F925F926F92BE
:101D90007F928F929F92AF92BF92CF92DF92EF92FB
:101DA000FF920F931F93CF93DF9300D000D0CDB756
:101DB000DEB73C016A013E832D83FC82EB82580131
:101DC000A41AB50AB7FE03C0B194A194B1088D80DE
:101DD0009E80861A970A97FE03C091948194910879
:101DE0008A149B045CF0902F812F0D811E819D83AE
:101DF0008E839C2D8D2D6B01692F782F0C151D0561
:101E00005CF09D818E817E836D83692F782F902F6A
:101E1000812F8601C92ED82E1601201A310A2B01D6
:101E20002D813E81421A530A57FE03C051944194BA
:101E30005108710137FE03C03FEFE31AF30AF5942E
:101E4000E7948D819E81861797075CF5A1E0B0E04D
:101E5000BA83A983C016D1064CF1D301ED91FC9150
:101E60000484F585E02D2B813C81A8016D817E8164
:101E70008A149B041CF04D815E81B801C301199541
:101E8000E418F508F7FE0AC02D813E8189819A8108
:101E9000280F391F3E832D83E20CF31C0F5F1F4F69
:101EA000D9CF2FEF3FEF3A832983D4CF26960FB6B1
:101EB000F894DEBF0FBECDBFDF91CF911F910F9180
:101EC000FF90EF90DF90CF90BF90AF909F908F905A
:101ED0007F906F905F904F903F902F900895282FA4
:101EE00030E0F901E85DF44F9491F901E259FF4EB9
:101EF000449122533F4EF9012491222309F435C025
:101F0000992311F191509231F8F4E92FF0E08827EC
:101F1000E357F04F8F4F0C940839BE0FC20F9F0F3D
:101F2000B60FBA0FA40FC50FCB0FCF0FD50FD90F18
:101F3000DD0FE30FE70FA40FEB0FF10FF50F80910B
:101F400080008F7780938000E22FF0E0EE0FFF1F7C
:101F5000EC54FF4EA591B4918FB7F894EC916111B8
:101F600048C040954E234C938FBF089580918000C8
:101F70008F7DE8CF80918000877FE4CF84B58F7715
:101F800084BDE2CF84B58F7DFBCF8091B0008F7789
:101F90008093B000D9CF8091B0008F7DF9CF809130
:101FA00090008F7780939000CFCF809190008F7DAD
:101FB000F9CF80919000877FF5CF8091A0008F7737
:101FC0008093A000C1CF8091A0008F7DF9CF809138
:101FD000A000877FF5CF809120018F77809320012B
:101FE000B3CF809120018F7DF9CF80912001877F31
:101FF000F5CF4E2BB8CF60E08091BD040C946F0FED
:10200000CF93DF9390E0FC01E259FF4E249182537D
:102010009F4EFC0184918823D1F090E0880F991F96
:10202000FC01E25FF44FA591B491FC01EC54FF4E2A
:10203000C591D49161110EC09FB7F8948C91E22F95
:10204000E0958E238C932881E223E8839FBFDF9164
:10205000CF9108958FB7F894EC91E22BEC938FBF5A
:10206000F6CF1F93CF93DF93182FEB0161E00E940F
:102070000010209739F460E0812FDF91CF911F91FC
:102080000C946F0FCF3FD10511F461E0F5CFE12F34
:10209000F0E0E85DF44FE491E150E23108F0B3C0C4
:1020A000F0E08827E95AFF4E8F4F0C9408396910E9
:1020B0007110761080108A10031194109C10A410D7
:1020C000AE10B810C210D110DB100311E510EF10E4
:1020D000F91084B5806884BDC7BDDF91CF911F9191
:1020E000089584B5806284BDC8BDF7CF809180001B
:1020F000806880938000D0938900C0938800EDCFE2
:1021000080918000806280938000D0938B00C09388
:102110008A00E3CF80918000886080938000D09314
:102120008D00C0938C00D9CF8091B00080688093DF
:10213000B000C093B300D1CF8091B0008062809393
:10214000B000C093B400C9CF8091900080688093A4
:102150009000D0939900C0939800BFCF80919000D9
:10216000806280939000D0939B00C0939A00B5CF7B
:1021700080919000886080939000D0939D00C093E0
:102180009C00ABCF8091A00080688093A0008091DC
:10219000A0008F7B8093A000D093A900C093A800DB
:1021A0009CCF8091A00080628093A000D093AB0070
:1021B000C093AA0092CF8091A00088608093A00075
:1021C000D093AD00C093AC0088CF8091200180688F
:1021D00080932001D0932901C09328017ECF809164
:1021E0002001806280932001D0932B01C0932A01AB
:1021F00074CF80912001886080932001D0932D01BD
:10220000C0932C016ACFC038D1050CF03ECF33CF3C
:10221000863308F0865320917B00982F9870277F93
:10222000922B90937B008770806480937C008091D8
:102230007A00806480937A0080917A0086FDFCCFDA
:10224000809178009091790008950F931F93CF9318
:10225000DF93EC01FC01EC5BFF4F008111818A816F
:102260000E940811081B190BB80190E080E00E9441
:10227000253ACA5BDF4F288139814A815B810E9400
:10228000B83ADF91CF911F910F910895CF93DF93CB
:10229000EC018A810E940811CC5BDF4FBC01990FD1
:1022A000880B990B0E94273A288139814A815B81EA
:1022B0000E94B83ADF91CF9108953FB7F89480918A
:1022C0000A0490910B04A0910C04B0910D0426B562
:1022D000A89B05C02F3F19F00196A11DB11D3FBF5E
:1022E000BA2FA92F982F8827BC01CD01620F711D2D
:1022F000811D911D42E0660F771F881F991F4A9527
:10230000D1F708958F929F92AF92BF92CF92DF92B2
:10231000EF92FF926B017C010E945D114B015C0109
:10232000C114D104E104F104B9F00E945D116819EF
:1023300079098A099B09683E73408105910580F3FC
:1023400021E0C21AD108E108F10888EE880E83E086
:10235000981EA11CB11CE4CFFF90EF90DF90CF90AE
:10236000BF90AF909F908F9008952FB7F894609191
:1023700006047091070480910804909109042FBF0E
:102380000895AF92BF92CF92DF92EF92FF920F9398
:102390001F93CF93DF936C017B018B01040F151FFB
:1023A000EB015E01AE18BF08C017D10759F0699163
:1023B000D601ED91FC910190F081E02DC6011995B7
:1023C000892B79F7C501DF91CF911F910F91FF9074
:1023D000EF90DF90CF90BF90AF900895EF92FF9273
:1023E0001F93CF93DF937C0110E0D70198968C91D7
:1023F0001817F8F4C12FD0E0CC0FDD1FCE0DDF1D74
:1024000088819981DC01ED91FC910484F585E02DB2
:102410001995882361F088819981F70161A572A5DA
:10242000DC01ED91FC910480F581E02D19951F5F91
:10243000DCCFDF91CF911F91FF90EF900895CF9265
:10244000DF92EF92FF920F931F93CF93DF93EC01F4
:102450006B010BA110E00A5F1F4F2E813F812A5FA5
:102460003F4F4C815D81435051096A817B816350AC
:102470007109D601ED91FC9106A0F7A1E02DF12C98
:10248000E12CC60119950BA110E02E813F814C81F2
:102490005D816A817B81D601ED91FC9100A0F1A163
:1024A000E02DC60119952E813F81225E3F4F8C8120
:1024B0009D810B964BA1480F592F511D6A817B813D
:1024C0006A507109D601ED91FC9100A0F1A1E02DB7
:1024D00000E110E0C6011995DF91CF911F910F9196
:1024E000FF90EF90DF90CF900895FC01828193815F
:1024F00086179707D8F426813781820F931F03969A
:102500006817790798F4848195818417950770F48A
:1025100020853185820F931F4817590738F481E0D1
:10252000808B73876287558744870895108A80E07F
:102530000895FC01868197810895FC0186850895A0
:10254000FC0187850895FC011786089521E0FC01B0
:1025500027870895EF92FF920F931F93FC01CB0101
:10256000008511852681378144815581628173817F
:10257000DC01ED91FC9100A0F1A1E02DF12CE12C0A
:1025800019951F910F91FF90EF9008950895FC0108
:102590008281938186179707D0F426813781820F35
:1025A000931F6817790798F484819581841795079C
:1025B00070F420853185820F931F4817590738F42E
:1025C00081E0808B73876287558744870895108ADE
:1025D00080E008950F931F93CF93DF93EC018B015D
:1025E000FE0184913196649122968F3799F470E0C0
:1025F00090E080E00E94821160E070E06E5F7F4FAB
:10260000061B170B101611065CF3DF91CF911F917B
:102610000F9108958B988A989091020197789093E2
:102620000201A5989EB1977C9EB94091020190E06D
:102630009C0155E0220F331F5A95E1F72076242B99
:10264000209302014EB19C01220F331F220F331F32
:102650002073242B2EB944B39C01220F331F207208
:10266000242B24BB4EB19C01359527953595279594
:102670002870242B2EB920910201A3E0959587950F
:10268000AA95E1F78871822B809302018998899A33
:1026900050E040E0461708F045C0FE01E40FF51F8A
:1026A000E4918A9A80910201877880930201A5982B
:1026B0008EB1877C8EB9709102018E2F90E09C01C3
:1026C000E5E0220F331FEA95E1F72076272B2093D0
:1026D00002017EB19C01220F331F220F331F207392
:1026E000272B2EB974B39C01220F331F2072272B86
:1026F00024BB7EB19C01359527953595279528708B
:10270000272B2EB9E091020123E0959587952A9514
:10271000E1F788718E2B809302018998899A4F5F27
:102720005F4FB8CFC60FD11D8B9A67CF8B988A9811
:1027300020910201277820930201A5982EB1277CD1
:102740002EB970910201292F30E0F901A5E0EE0FBA
:10275000FF1FAA95E1F7E076E72BE09302017EB137
:10276000F901EE0FFF1FEE0FFF1FE073E72BEEB92D
:1027700074B3F901EE0FFF1FE072E72BE4BB7EB1EB
:10278000F901F595E795F595E795E870E72BEEB932
:1027900070910201E3E035952795EA95E1F72871FC
:1027A000272B209302018998899A2091020127788A
:1027B00020930201A5982EB1277C2EB970910201B9
:1027C0009C01F5E0880F991FFA95E1F78076872B39
:1027D000809302017EB1C901880F991F880F991F4C
:1027E0008073872B8EB974B3C901880F991F8072CB
:1027F000872B84BB7EB1C901959587959595879563
:102800008870872B8EB980910201F3E0359527956A
:10281000FA95E1F72871282B209302018998899A6B
:102820008A9AFA01615008F43EC0819190910201A8
:10283000977890930201A5989EB1977C9EB940919C
:10284000020190E09C0155E0220F331F5A95E1F7F9
:102850002076242B209302014EB19C01220F331FBE
:10286000220F331F2073242B2EB944B39C01220F57
:10287000331F2072242B24BB4EB19C013595279524
:10288000359527952870242B2EB92091020133E02D
:10289000959587953A95E1F78871822B809302018F
:1028A0008998899ABFCF8B9A08958B988A98E2E08D
:1028B000F1E0208127782083A5982EB1277C2EB9BE
:1028C000A081292F30E0A901B5E0440F551FBA952A
:1028D000E1F740764A2B4083AEB1A901440F551F62
:1028E000440F551F40734A2B4EB9A4B3A901440F9E
:1028F000551F40724A2B44BBAEB1A901559547956F
:102900005595479548704A2B4EB9408153E035950F
:1029100027955A95E1F72871242B20838998899A65
:10292000208127782083A5982EB1277C2EB940815D
:102930009C01A5E0880F991FAA95E1F78076842B6A
:1029400080834EB1C901880F991F880F991F80732A
:10295000842B8EB944B3C901880F991F8072842BD0
:1029600084BB4EB1C90195958795959587958870DB
:10297000842B8EB98081B3E035952795BA95E1F720
:102980002871282B20838998899A8A9A8081877850
:102990008083A5988EB1877C8EB94081872F90E087
:1029A0009C0155E0220F331F5A95E1F72076242B26
:1029B00020834EB19C01220F331F220F331F20733F
:1029C000242B2EB944B39C01220F331F2072242BD9
:1029D00024BB4EB19C0135952795359527952870D8
:1029E000242B2EB92081A3E095958795AA95E1F730
:1029F0008871822B80838998899A808187788083E7
:102A0000A5988EB1877C8EB94081CB019B01B5E042
:102A1000220F331FBA95E1F72076242B20834EB185
:102A20009B01220F331F220F331F2073242B2EB93B
:102A300044B39B01220F331F2072242B24BB4EB1C1
:102A40009C0135952795359527952870242B2EB90F
:102A50002081A3E095958795AA95E1F78871822B4F
:102A600080838998899A8B9A089581E080930E04D7
:102A7000E1E0F1E08081886780839D9A8DB1886371
:102A80008DB9809A819A829A839A849A8B9A889A2D
:102A9000899A8C9A62E370E080E090E00E94821153
:102AA0008C9864E670E080E090E00E9482118C9A3D
:102AB00064E670E080E090E00E94821170E060E0E7
:102AC00080EB90E00C945514EF92FF920F931F93BC
:102AD000CF93DF93EC01E62E80910E04811102C0AA
:102AE0000E9435158B988A9880910201877880938F
:102AF0000201A5988EB1877C8EB9809102018093E6
:102B000002018EB18EB984B384BB8EB18EB980912F
:102B10000201809302018998899A80910201877845
:102B200080930201A5988EB1877C8EB92091020115
:102B3000CE0115E0880F991F1A95E1F78076822B58
:102B4000809302012EB1CE01880F991F880F991F23
:102B50008073822B8EB924B3CE01880F991F8072A7
:102B6000822B84BB2EB1CE0195958795959587953F
:102B70008870822B8EB98091020153E0D595C7955C
:102B80005A95E1F7C871C82BC09302018998899AB8
:102B90008A9A809101018778809301019D988DB177
:102BA000877C8DB961E070E080E090E00E94821146
:102BB00061E070E080E090E00E948211889A88983D
:102BC00088988898D09100011CB102B3CCB1F090E4
:102BD0000001889A61E070E080E090E00E9482113C
:102BE000889A889888988898409100015CB1E2B3EF
:102BF0009CB1F0910001889AEA946FEFE612D8CF69
:102C0000889A8B9A809101018867809301019D9A2F
:102C10008DB188638DB984E0C89F90011124207222
:102C2000332788E0F89EB0011124607C7727262B9B
:102C3000602F70E07595679560717727262B612F5F
:102C400070E075956795759567956C707727262B5D
:102C50006D2F70E0B5E075956795BA95E1F76370F3
:102C60007727262B64E0969FC0011124807298E09C
:102C7000F99FB0011124607C862BE695E0718E2BC4
:102C8000569556955C70852B50E0C5E05595479557
:102C9000CA95E1F74370842B922FDF91CF911F915A
:102CA0000F91FF90EF9008950F931F93CF93DF93B1
:102CB0008C0160E00E946415EC0161E0C8010E9493
:102CC00064158C01BE0190E080E0CB017727662778
:102CD00030E020E0602B712B822B932BDF91CF9182
:102CE0001F910F910895FF920F931F93CF93DF933E
:102CF0008C0160E00E946415EC0161E0C8010E9453
:102D00006415F82E62E0C8010E946415AE0170E0FF
:102D100060E0742F66275527442700E030E020E06C
:102D2000402B5F29622B732B292F30E0C901B0E0C3
:102D3000A0E08A019B01082B192B2A2B3B2BC901F0
:102D4000B801DF91CF911F910F91FF9008950F93DC
:102D50001F93CF93DF93EC018B01FE01859194913A
:102D6000FE0132962496659174918F3F980771F415
:102D700090E080E00E9482110450110910161106A3
:102D800064F3DF91CF911F910F9108950E94551424
:102D9000F3CFFC01262F358D868D82958170982F7B
:102DA0009627692F70E072A361A330FF0CC08213D5
:102DB00007C080E290E050E040E060E00C949613A1
:102DC00081E290E0F8CF878D90A1833927E79207C1
:102DD00041F058F4843521E0920791F08032944517
:102DE000C1F4626081E094E012C0863223E9920768
:102DF000C1F3893025EB9207A1F38532924949F45A
:102E0000660F771F660F771F636187E090E00C9471
:102E1000551481E690E0FBCF8F929F92AF92BF92C4
:102E2000CF92DF92EF92FF920F931F93CF93DF9396
:102E300000D01F92CDB7DEB77C014B015A0169016A
:102E4000FC01878D90A18632954151F4F701868966
:102E500080FF06C0C801841B950B81F50F5F1F4FD3
:102E6000F701858D80FF31C085A599828A82DB823A
:102E7000CC82AE014F5F5F4F64E090E00E949613FA
:102E8000F70181A9B982AA821B830C83AE014F5F2F
:102E90005F4F64E090E00E9496130F900F900F90A8
:102EA0000F90DF91CF911F910F91FF90EF90DF90E6
:102EB000CF90BF90AF909F908F90089526173707BF
:102EC00079F6C80ED91E8A01CBCFB40187A190A58F
:102ED0000E945514B501F70181A592A50E945514D1
:102EE000C814D90419F40A151B05B9F2F701858D28
:102EF00085FF08C0868980FF1EC0102F0027A02AEA
:102F0000B12A8501B401F70185A596A50E94551443
:102F1000B501F70181A992A90E945514B601F701E4
:102F200087A590A90E945514B801F70183A994A917
:102F30000E945514B2CFDC2CCC248C289D2864012F
:102F4000E1CF2F923F924F925F926F927F928F923A
:102F50009F92AF92BF92CF92DF92EF92FF920F9328
:102F60001F93CF93DF9300D01F921F92CDB7DEB790
:102F70009D838C8380910304882349F0C701880FC7
:102F8000991F8E739927E1ECEE22E82AF92A37FF80
:102F900005C0620F731F319521953109260F371F28
:102FA00077FF02C070E060E0EC81FD818085918553
:102FB000281739070CF4C9016C01C61AD70A17FF84
:102FC00005C0400F511F119501951109040F151FE0
:102FD00057FF02C050E040E0EC81FD81228533853F
:102FE000021713070CF498015901A41AB50A8901B4
:102FF000015011099C01215031098C819D810E9451
:103000000C178B988A98EC81FD8153A544A580917B
:103010000201877880930201A5988EB1877C8EB9D2
:1030200060910201842F90E09C01A5E0220F331FE4
:10303000AA95E1F72076262B209302016EB19C0120
:10304000220F331F220F331F2073262B2EB964B398
:103050009C01220F331F2072262B24BB6EB19C01D2
:1030600035952795359527952870262B2EB92091D3
:10307000020133E0959587953A95E1F78871822BA7
:10308000809302018998899A8091020187788093C0
:103090000201A5988EB1877C8EB960910201852FBF
:1030A000942F9C0145E0220F331F4A95E1F72076CB
:1030B000262B209302014EB19C01220F331F220FB9
:1030C000331F2073242B2EB944B39C01220F331FCE
:1030D0002072242B24BB4EB19C0135952795359544
:1030E00027952870242B2EB920910201E3E09595B5
:1030F0008795EA95E1F78871822B80930201899880
:10310000899A8A9ACA14DB042CF09A2D8B2D5601C9
:10311000C92ED82E2F2D30E0890185E0000F111F18
:103120008A95E1F70076C901880F991F880F991FCA
:10313000182F1073C901880F991FB82FB072C901D9
:103140009595879595958795982F987073E0359507
:1031500027957A95E1F7822F8871A701E5E0440F62
:10316000551FEA95E1F740769701220F331F220F92
:10317000331F522F5073B701660F771F607297018C
:103180003595279535952795722F78709701E3E04F
:1031900035952795EA95E1F7A22FA8712F2D287F65
:1031A00030E04901880C991C880C991CF82DF073AB
:1031B000F9834901880C991CE82DE072EA834901E2
:1031C0009594879495948794F82DF870FB83E3E0A9
:1031D00035952795EA95E1F7E22FE8712E2E9701B4
:1031E000F3E036952795FA95E1F72C7F30E0490119
:1031F000880C991C880C991CF82DF0733F2E29011E
:10320000440C551CE42DE0724E2E49019594879490
:1032100095948794F82DF8705F2EF3E035952795F7
:10322000FA95E1F7E22FE8716E2EEE0CEE0CEE0C43
:10323000F12C9701220F331F220F331FF22FF0734F
:103240007F2E9701220F331F2072F701F595E79526
:10325000F595E795E870F3E0F594E794FA95E1F7D2
:103260003E2D3871E32E1C141D040CF0ABC03091C0
:1032700004044501332309F463C030910201377817
:1032800030930201A5983EB1377C3EB930910201DE
:10329000309302013EB1F9813F2B3EB934B3FA813C
:1032A0003F2B34BB3EB1FB813F2B3EB93091020135
:1032B0003229309302018998899A30910201377836
:1032C00030930201A5983EB1377C3EB9309102019E
:1032D000309302013EB133293EB934B3342934BBB3
:1032E0003EB135293EB930910201362930930201B1
:1032F0008998899A30910201377830930201A59814
:103300003EB1377C3EB930910201309302013EB1AB
:1033100037293EB934B3322B34BB3EB13E2B3EB9D4
:10332000309102013E29309302018998899A31E057
:10333000831A910809F0A1CFF1E0CF1AD10893CFF9
:1033400030910201377830930201A5983EB1377C65
:103350003EB930910201302B309302013EB1312B46
:103360003EB934B33B2B34BB3EB1392B3EB930911F
:103370000201382B309302018998899A3091020119
:10338000377830930201A5983EB1377C3EB9309131
:103390000201342B309302013EB1352B3EB934B3D8
:1033A000362B34BB3EB1372B3EB9309102013A2B5C
:1033B000309302018998899AF1E08F1A910809F0F7
:1033C000BFCFBACF8B9AEC81FD81858D80FF0AC07B
:1033D000878D90A186329541B1F4EC81FD8186897B
:1033E00080FF11C0EC81FD81028513850150110918
:1033F000208531852150310950E040E070E060E0E7
:10340000CF010E940C170F900F900F900F900F900C
:10341000DF91CF911F910F91FF90EF90DF90CF90B0
:10342000BF90AF909F908F907F906F905F904F90E4
:103430003F902F900895EF92FF920F931F93CF9399
:10344000DF937C01E90177FD4DC157FD4BC1FC01C4
:1034500080859185681779070CF044C18285938532
:10346000481759070CF03EC180910304882341F0AE
:10347000C901880F991F8E739927C17CC82BD92B3E
:103480008A019B01C7010E940C17809104048823C4
:1034900009F42FC18B988A98F70143A554A5809110
:1034A0000201877880930201A5988EB1877C8EB93E
:1034B00060910201852F90E09C0175E0220F331F7F
:1034C0007A95E1F72076262B209302016EB19C01BC
:1034D000220F331F220F331F2073262B2EB964B304
:1034E0009C01220F331F2072262B24BB6EB19C013E
:1034F00035952795359527952870262B2EB920913F
:103500000201B3E095958795BA95E1F78871822B12
:10351000809302018998899A80910201877880932B
:103520000201A5988EB1877C8EB960910201CA0113
:103530009C0115E0220F331F1A95E1F72076262B08
:10354000209302014EB19C01220F331F220F331F23
:103550002073242B2EB944B39C01220F331F2072F9
:10356000242B24BB4EB19C01359527953595279585
:103570002870242B2EB92091020173E09595879530
:103580007A95E1F78871822B809302018998899A54
:103590008A9A80910201877880930201A5988EB162
:1035A000877C8EB9209102018D2F887F90E0209337
:1035B00002014EB19C01220F331F220F331F2073D3
:1035C000242B2EB944B39C01220F331F2072242BCD
:1035D00024BB4EB19C0135952795359527952870CC
:1035E000242B2EB920910201B3E095958795BA95C9
:1035F000E1F78871822B809302018998899A8091E2
:103600000201877880930201A5988EB1877C8EB9DC
:1036100020910201CE01D3E096958795DA95E1F7E6
:103620008C7F90E0209302014EB19C01220F331F4A
:10363000220F331F2073242B2EB944B39C01220F79
:10364000331F2072242B24BB4EB19C013595279546
:10365000359527952870242B2EB92091020163E01F
:10366000959587956A95E1F78871822B8093020181
:103670008998899A80910201877880930201A598A0
:103680008EB1877C8EB980910201CC0FCC0FCC0F0C
:10369000D0E0809302012EB1CE01880F991F880FD0
:1036A000991F8073822B8EB924B3CE01880F991F86
:1036B0008072822B84BB2EB1CE019595879595950E
:1036C00087958870822B8EB980910201A3E0D595F1
:1036D000C795AA95E1F7C871C82BC09302018998D4
:1036E000899A8B9ADF91CF911F910F91FF90EF9064
:1036F0000895BE01F70183A594A5DF91CF911F9195
:103700000F91FF90EF900C945514EF92FF920F934E
:103710001F93CF93DF9300D000D000D01F92CDB77E
:10372000DEB77C01862F8370F701868B962F917010
:1037300060FFE3C026813781F70131872087992315
:1037400009F4DEC024813581F70133872287823076
:1037500009F4DBC0833009F4DAC0813009F4D3C046
:1037600088E48A87F701858D968D90FF03C02A85AE
:1037700020582A8791FF04C02A8530E423272A870E
:1037800093FF04C02A8538E023272A87F701278D75
:1037900030A180FF00C12431F8E63F0709F0B9C02D
:1037A0009A85892F88728A871F82892F85958074D0
:1037B000282F2260892F90E0959587958072992710
:1037C000822B88878BE38987AE01495F5F4F63E077
:1037D00086EB90E00E9496132AE230E0F70130A7D2
:1037E00027A38BE290E092A781A74CE250E054A778
:1037F00043A736A725A730AB27A792AB81AB94ABE5
:1038000083ABAE01465F5F4F61E086E390E00E94CC
:1038100096138A8590E0F70194A383A3F701868924
:1038200080FF1CC0858D968D92FD18C087A190A544
:1038300021A532A530A727A392A781A785A596A584
:1038400021A932A936A725A792AB81AB87A590A95C
:1038500023A934A930AB27A794AB83ABF70102852A
:10386000138501501109208531852150310950E01F
:1038700040E070E060E0C7010E940C17F70166812C
:103880007781878D90A120E08732F3E99F0709F4C3
:1038900020E2F701358D30FF39C119821A827B830E
:1038A0006C831D822E83AE014F5F5F4F66E083E322
:1038B00090E00E94961319821A82AE014F5F5F4F0B
:1038C00062E087E390E00E949613F701858D80FF08
:1038D00007C050E040E060E083E190E00E94961372
:1038E0002A960FB6F894DEBF0FBECDBFDF91CF9101
:1038F0001F910F91FF90EF900895248135811CCF87
:103900002681378121CF88E22CCF88E92ACF88EF22
:1039100028CF273243E9340789F41F8281E388875F
:103920008A85859585958595859588708987AE0169
:10393000495F5F4F63E080EC90E04CCF233689E134
:10394000380749F02138E4E93E0729F02131F5E153
:103950003F0709F041CF8A8587FF02C081608A87CF
:103960008A8586FF02C082608A878A858F732336A4
:1039700049E1340731F0213884E9380721F48A8598
:103980008F728A8729CF2131354109F025CF8A8569
:103990008F7E806CF6CF6A85862F062E000C990BE1
:1039A0002339F7E73F0751F0A8F52435E1E03E075A
:1039B00009F45CC02032F4E53F07A1F540E052E095
:1039C000F70150A747A341E052E052A741A742E0C8
:1039D00052E054A743A740E152E056A745A741E172
:1039E00052E050AB47A742E152E052AB41AB43E15A
:1039F00052E054AB43AB882790782632F3E93F0777
:103A000021F02032344509F071C067FD846060E028
:103A100071E36EC0263243E9340781F22930E5EBC9
:103A20003E0761F220E230E0F70130A727A321E250
:103A300030E032A721A722E230E034A723A720E517
:103A400030E036A725A721E530E030AB27A722E5F7
:103A500030E032AB21AB23E530E034AB23ABBC012B
:103A600066277078776280E690E046C027E330E012
:103A7000F70136A725A726E330E030AB27A729E3D7
:103A800030E032AB21AB28E330E034AB23AB20E2B3
:103A900030E030A727A321E230E032A721A722E2BD
:103AA00030E034A723A7F4E06F9FB001112466270C
:103AB0007170882792708862682B792B81E090E082
:103AC0000E9455148A85682F70E0759567957595E5
:103AD00067956870772783FD70616063F70174A351
:103AE00063A383E090E00E94551498CE60E072E6F4
:103AF000682B792B80E094E00E9455146A85F4E0ED
:103B00006F9FB001112466277170D8CF8339F7E712
:103B10009F07D9F1F0F4803244E59407B1F183387E
:103B2000E7E79E0731F184359140F1F46150710966
:103B300081E390E00E94551470E060E082E390E041
:103B40000E94551470E060E083E390E00E945514F9
:103B5000C7CE863223E99207C1F0893045EB94073E
:103B6000A1F08532924911F3F70161A172A162605F
:103B700003C0F70161A172A181E690E00E94551493
:103B800070E060E08AE690E0E1CFF70161A172A108
:103B9000626081E094E00E94551470E060E084E08F
:103BA00094E0D4CFEF92FF920F931F93DC01ED913D
:103BB000FC9100A0F1A1E02D780101E010E0199541
:103BC0001F910F91FF90EF900895EF92FF920F9346
:103BD0001F93DC01ED91FC9100A0F1A1E02D780193
:103BE000890121E030E019951F910F91FF90EF902E
:103BF0000895089590E080E0089580910F049091D9
:103C000010048D5D994049F08DED99E09093140476
:103C10008093130481E0809315040C94FB0F0F93A1
:103C20001F93CF930091510910915209011511056D
:103C300009F453C02091870930918809AFEFB0E0B3
:103C40000E94E53824E630E040E050E00E949138E0
:103C5000C22F2093000491E0909383078CE3809F10
:103C60009001819F300D112430938E0720938D0792
:103C7000109266078091E5088150809302041092AB
:103C8000010420910F0430911004265B374041F06D
:103C900026EB37E03093140420931304909315041B
:103CA00020916B0430916C0440916D0450916E042E
:103CB0006091BE047091BF048091C0049091C104D2
:103CC0000E94B33A18164CF46C2F70E08091BD043A
:103CD000CF911F910F910C943110CF911F910F91A3
:103CE0000895EF92FF920F931F93DC011A960D91A6
:103CF0001C911B9718962D913C911997ED91FC9171
:103D000000A0F1A1E02D7B0150E040E070E060E018
:103D100019951F910F91FF90EF90089580910204E3
:103D200090E001969F938F938091010490E001961B
:103D30009F938F938FE992E09F938F931F9289E1D6
:103D40008F9380E297E09F938F930E94EE3C8DB714
:103D50009EB70A960FB6F8949EBF0FBE8DBF08950A
:103D60008BE194E09F938F938EEA92E09F938F93E1
:103D70001F9289E18F9386ED96E09F938F930E9427
:103D8000EE3C8DB79EB708960FB6F8949EBF0FBE57
:103D90008DBF089581E294E09F938F938DEB92E025
:103DA0009F938F931F9289E18F938CE896E09F9366
:103DB0008F930E94EE3C8DB79EB708960FB6F8948D
:103DC0009EBF0FBE8DBF08958BE194E09F938F93AC
:103DD0008EEA92E09F938F931F9289E18F938FEEEB
:103DE00094E09F938F930E94EE3C8DB79EB7089608
:103DF0000FB6F8949EBF0FBE8DBF0895EF92FF924D
:103E00000F931F93CF93DF93462FE72FDC01599633
:103E10000D911C918CE3E82EF12CC801B7010E9492
:103E2000F438382FC92FCB01B7010E94F438282F5E
:103E3000F92FC80160E17EE00E94F4382A30E0F5F5
:103E40003A3000F5CF933F93FF932F937F936F9377
:103E50008CEC92E09F938F931F928AE08F93EF9365
:103E60004F930E94EE3C8DB79EB70C960FB6F89418
:103E70009EBF0FBE8DBFDF91CF911F910F91FF901D
:103E8000EF900895CF933F93FF932F937F936F937A
:103E900088ED92E09F938F931F928AE08F93EF9328
:103EA0004F930E94EE3CADB7BEB71C960FB6F89488
:103EB000BEBF0FBEADBFDFCF3A30D0F4CF933F933C
:103EC000FF932F937F936F9383EE92E09F938F9353
:103ED0001F928AE08F93EF934F930E94EE3C8DB731
:103EE0009EB70C960FB6F8949EBF0FBE8DBFC3CF82
:103EF000CF933F93FF932F937F936F938EEE92E038
:103F00009F938F931F928AE08F93EF934F930E941A
:103F1000EE3CADB7BEB71C960FB6F894BEBF0FBE51
:103F2000ADBFA9CFCF92DF92EF92FF920F931F9375
:103F3000CF93DF9300D000D01F92CDB7DEB7609152
:103F4000AF087091B00890E080E00E94253A28E226
:103F50003EE74CEF5FE30E947D3924E735EB45E017
:103F600050E40E94253B20E030E040E85FE30E94FF
:103F700011399B01AC0166E676E38DEE94E40E9474
:103F80007D3920EE3EEB4EE05EE30E9411392AEDD2
:103F900039EC47E752E40E947D3923E333E343E9F8
:103FA00052E40E94B83A6B017C01609187097091DC
:103FB000880990E080E00E94253A9B01AC01C7018E
:103FC000B6010E94B83A20E030E048EC52E40E948A
:103FD0007D398E010F5F1F4F22E046E00E9422369E
:103FE0009F938F9388EF92E09F938F931F9289E125
:103FF0008F9383E698E09F938F930E94EE3C0FB6D9
:10400000F894DEBF0FBECDBF27960FB6F894DEBF83
:104010000FBECDBFDF91CF911F910F91FF90EF9019
:10402000DF90CF9008958F929F92AF92BF92CF92E0
:10403000DF92EF92FF920F931F93CF93DF9300D005
:1040400000D000D0CDB7DEB76091AF087091B00856
:1040500090E080E00E94253A28E23EE74CEF5FE3E3
:104060000E947D3924E735EB45E050E40E94253B72
:1040700020E030E040E85FE30E9411399B01AC0191
:1040800066E676E38DEE94E40E947D3920EE3EEB09
:104090004EE05EE30E9411392AED39EC47E752E425
:1040A0000E947D3923E333E343E952E40E94B83AA6
:1040B0006B017C01609187097091880990E080E034
:1040C0000E94253A9B01AC01C701B6010E94B83A93
:1040D0004B015C014091E5085091E608209151099F
:1040E00030915209429FC001439F900D529F900D05
:1040F00011242CE3289FB001299F700D112490E01A
:1041000080E00E94253A6B017C0120E030E048EC21
:1041100052E4C501B4010E947D399B01AC01C70185
:10412000B6010E94B83A20E030E04AE754E40E9429
:104130007D398E010F5F1F4F22E048E00E9422363A
:104140009F938F938CE093E09F938F931F9289E1CD
:104150008F9389E198E09F938F930E94EE3C0FB676
:10416000F894DEBF0FBECDBF29960FB6F894DEBF20
:104170000FBECDBFDF91CF911F910F91FF90EF90B8
:10418000DF90CF90BF90AF909F908F9008956DE19A
:1041900073E087E196E00C94E73C66E373E08DEC16
:1041A00095E00C94E73C6AE473E083E895E00C94B6
:1041B000E73C60E673E089E395E00C94E73CFB01A3
:1041C00001900020E9F73197AF01461B570BDC0146
:1041D000ED91FC910280F381E02D19948F929F92D2
:1041E000AF92BF92EF92FF920F931F93CF93DF9303
:1041F000CDB7DEB7A1970FB6F894DEBF0FBECDBF27
:104200007C01FA01CB0119A2223008F42AE08E01C8
:104210000F5D1F4F822E912CB12CA12CBF01A50147
:1042200094010E94C338F901CA016A300CF5605D3F
:10423000D8016E938D01232B242B252B79F790E049
:1042400080E0109721F0BD01C7010E94DF20A196F8
:104250000FB6F894DEBF0FBECDBFDF91CF911F9197
:104260000F91FF90EF90BF90AF909F908F90089527
:10427000695CDECF6115710511F00C94DF2090E0D0
:1042800080E008950F931F93CF93DF9300D000D069
:1042900000D01F92CDB7DEB78B01FC0124813581A0
:1042A00042815381FB01558744873787268724E065
:1042B000248B258B20E038EF338B228B318B208BA6
:1042C000BE016F5F7F4F0E94FE1EBE016F5F7F4F7A
:1042D000C8010E943A218FEF9FEFF801938B828BE8
:1042E000918B808B2A960FB6F894DEBF0FBECDBFA0
:1042F000DF91CF911F910F910895809101049091CA
:1043000002048917E8F58F5F809301041092660715
:1043100068EA79E087E597E00E94AA1220915109A6
:10432000309152094CE3429FC001439F900D1124EC
:1043300021E02093830790938E0780938D0768EA8E
:1043400079E084E797E00E94422120916B0430914C
:104350006C0440916D0450916E046091BE047091A4
:10436000BF048091C0049091C1040E94B33A181612
:10437000CCF46091000470E08091BD040C94311085
:1043800080910F04909110048D5D994049F08DED5E
:1043900099E0909314048093130481E080931504B2
:1043A0000C94FB0F08951092830768EA79E084E784
:1043B00097E00E94AA1280911B0990911C09009716
:1043C00079F021E02093660790937107809370073E
:1043D00068EA79E087E597E00E9442210C94FB0FA0
:1043E00080910104909102048917D0F48F5F80932B
:1043F000010420915109309152094CE3429FC001C0
:10440000439F900D112421E02093830790938E0702
:1044100080938D0768EA79E084E797E00C94422165
:1044200080910F04909110048D5D9940B9F28DED4B
:1044300099E0909314048093130481E08093150411
:10444000CDCFAF92BF92CF92DF92EF92FF920F93B8
:104450001F93CF93DF9300D000D000D01F92CDB731
:10446000DEB7FC01A189B28917968C91882389F067
:10447000818D928D009719F00197928F818F5B014A
:104480006F01818D928D892BA9F4038CF48DE02D21
:1044900019952A960FB6F894DEBF0FBECDBFDF91F7
:1044A000CF911F910F91FF90EF90DF90CF90BF9031
:1044B000AF900895008511852789308D44815581FD
:1044C00062817381D501ED91FC9100A0F1A1E02DF5
:1044D000F12CE12CC5011995F6010085118527897C
:1044E000308D4481558163897489D501ED91FC91AA
:1044F00000A0F1A1E02DC5011995F60100851185F7
:104500002789308D4481558165897689D501ED9162
:10451000FC9100A0F1A1E02DC5011995F60184815F
:10452000958122813381D5011D963C932E931C9752
:104530001F969C938E931E9784E054968C93549769
:1045400055968C93559780E098EF53969C938E9355
:10455000529751969C938E935097BE016F5F7F4FF9
:10456000C6010E94FE1EBE016F5F7F4FC5010E9403
:104570003A218FEF9FEFF501938B828B918B808B8C
:1045800088CFCF93DF93EB01FC01248135814281F9
:1045900053815D874C873F872E87E95BFF4F2081E2
:1045A000211101C021E02C8B2D8BFC01EB5BFF4F17
:1045B000208131813B8B2A8B398B288BBC016D5E2E
:1045C0007F4FCE010E943A218FEF9FEF9B8B8A8B0A
:1045D000998B888BDF91CF910895CF92DF92EF92E4
:1045E000FF920F931F93CF93DF93EC016B0108852C
:1045F00019852E813F814C815D816A817B81D60145
:10460000ED91FC9106A0F7A1E02DEE24EA94FE2C9A
:10461000C601199508851985025011092E813F811F
:10462000225031094C815D814F5F5F4F6A817B81F0
:104630006F5F7F4FD601ED91FC9106A0F7A1E02DB1
:10464000C601199508851985045011092E813F81ED
:10465000245031094C815D814E5F5F4F6A817B81BF
:104660006E5F7F4FD601ED91FC9106A0F7A1E02D82
:10467000C60119958C819D8105962A813B812B5F0E
:104680003F4FF601358724879787868783E0848BA1
:10469000858BBE016D5E7F4FC601DF91CF911F916B
:1046A0000F91FF90EF90DF90CF900C943A21CF9232
:1046B000DF92EF92FF920F931F93CF93DF93EC0162
:1046C0006B010E94B51109A11AA12BA13CA1AB015C
:1046D000BC01401B510B620B730B8F8D98A1B0E096
:1046E000A0E084179507A607B70708F089C00E94C5
:1046F000B51169A37AA38BA39CA3ED8DFE8D1995AB
:10470000088519852E813F814C815D816A817B817D
:10471000D601ED91FC9100A0F1A1E02DF12CE12C4E
:10472000C60119958889088519852E813F814C819C
:104730005D816A817B81D601ED91FC9106A0F7A194
:10474000E02D882309F465C0E12C98EFF92EC6010D
:10475000199508851985025011092E813F81225033
:1047600031094C815D814F5F5F4F6A817B816F5F53
:104770007F4FD601ED91FC9106A0F7A1E02DC60177
:10478000199508851985045011092E813F812450FF
:1047900031094C815D814E5F5F4F6A817B816E5F25
:1047A0007F4FD601ED91FC9106A0F7A1E02DC60147
:1047B000199580E098EFF601938B828B918B808B1B
:1047C0008C819D8105962A813B812B5F3F4FF601AD
:1047D000358724879787868783E0848B858BBE0106
:1047E0006D5E7F4FC6010E943A218FEF9FEFD60189
:1047F00053969C938E93529751969C938E93509779
:10480000DF91CF911F910F91FF90EF90DF90CF90AC
:104810000895EE24EA94FE2CC601199508851985A1
:10482000025011092E813F81225031094C815D8156
:104830004F5F5F4F6A817B816F5F7F4FD601ED9144
:10484000FC9106A0F7A1E02DC601199508851985F0
:10485000045011092E813F81245031094C815D8122
:104860004E5F5F4F6A817B816E5F7F4FD601ED9116
:10487000FC9106A0F7A1E02DC6011995A1CF0E94D9
:10488000CE3CCF92DF92EF92FF920F931F93CF9384
:10489000DF93DC015196ED91FC912781222309F4ED
:1048A00060C07B01EC01FC01E85BFF4F0190F081EF
:1048B000E02D309709F019958E010D5E1F4F6E01A6
:1048C000BCE2CB0ED11CB801C6010E94DE3C892B94
:1048D00009F447C01F930F938EE793E09F938F9344
:1048E0001F9289E18F93DF92CF920E94EE3CFE01EE
:1048F000E95BFF4F2081F80101900020E9F7319733
:10490000E01BF10B86E0289FA00111244E9FC001FF
:104910004F9F900D5E9F900D1124821B91099F83E4
:104920008E83E881F9810680F781E02DB701CE0101
:104930001995ADB7BEB718960FB6F894BEBF0FBEA7
:10494000ADBFE881F9810480F581E02DB701CE018A
:10495000DF91CF911F910F91FF90EF90DF90CF905B
:104960001994DF91CF911F910F91FF90EF90DF90FD
:10497000CF900895CF92DF92EF92FF920F931F9303
:10498000CF93DF93EC016B010BA110E00A5F1F4F87
:104990002E813F812A5F3F4F4C815D8143505109F9
:1049A0006A817B8163507109D601ED91FC9106A06B
:1049B000F7A1E02DEE24EA94FE2CC60119950BA177
:1049C00010E02B893C894C815D816A817B81D60115
:1049D000ED91FC9100A0F1A1E02DC601199582E0B6
:1049E000F601848B858B298D3A8D4F8D8A819B8131
:1049F000841B910995878487378726874B8D5C8D2B
:104A000070E060E02AE0C6010E94EE20298D3A8D18
:104A100089A14A815B81840F952F911DD6011D9636
:104A20009C938E931C971F963C932E931E97BE01CA
:104A30006C5D7F4FC6010E943A21898D9A8D2F8926
:104A4000388DF60135872487978786874D895E895B
:104A500070E060E02AE0C6010E94EE20BE016F5CBB
:104A60007F4FC6010E943A21298D3A8D8A819B8110
:104A70004E815F81840F951F48A1841B9109D60147
:104A80001D969C938E931C971F963C932E931E9776
:104A90004D8D5E8D70E060E02AE0C601DF91CF9120
:104AA0001F910F91FF90EF90DF90CF900C94EE202C
:104AB0008F929F92AF92BF92CF92DF92EF92FF922E
:104AC0000F931F93CF93DF93EC016B014A855B85B6
:104AD0008A819B819C0123503109EE81FF8124173B
:104AE000350708F098C08417950708F497C01C8A0A
:104AF0001B8A8B8C9C8CB12CA12C2D8D3E8D50E073
:104B000040E0281939094A095B09AB89BC890E9430
:104B1000B0389F0150E040E00E94913889019A012D
:104B2000080D191D2A1D3B1D6AA170E0C8010E94D5
:104B3000F438081B190B1E8B0D8B82E0D60154969E
:104B40008C93549755968C9355970BA110E02B8915
:104B50003C894C815D816A817B81ED91FC9100A053
:104B6000F1A1E02DEE24EA94FE2CC60119956B8983
:104B70007C890BA110E02E813F81261B370B4C81D5
:104B80005D818A819B81680F791FD601ED91FC912F
:104B900000A0F1A1E02DF12CE12CC60119956F893F
:104BA000788D2A813B818E819F81280F391F261B9A
:104BB000370B88A1281B3109498D5A8DD601ED91FB
:104BC000FC9100A0F1A1E02D00E110E0C6011995D3
:104BD000898D9A8D2F89388DF6013587248797879F
:104BE00086874D895E8970E060E02AE0C6010E94F8
:104BF000EE20BE016F5C7F4FC601DF91CF911F9108
:104C00000F91FF90EF90DF90CF90BF90AF909F906B
:104C10008F900C943A214817590758F09C012E0F99
:104C20003F1F2417350728F0481B590B5C8B4B8B13
:104C300060CF8E0F9F1F4817590708F45ACF03966D
:104C40004817590708F055CFFC8BEB8B52CF1F92BA
:104C50000F920FB60F9211242F933F938F939F9330
:104C6000AF93BF938091060490910704A09108042C
:104C7000B09109043091050423E0230F2D3758F536
:104C80000196A11DB11D2093050480930604909305
:104C90000704A0930804B093090480910A0490913A
:104CA0000B04A0910C04B0910D040196A11DB11D3F
:104CB00080930A0490930B04A0930C04B0930D040A
:104CC000BF91AF919F918F913F912F910F900FBE08
:104CD0000F901F90189526E8230F0296A11DB11D75
:104CE000D2CFCF92DF92EF92FF920F931F93CF9389
:104CF000DF93EC01F8017B836A835D834C831F8221
:104D00001E82198618861B861A861D861C868FE0D1
:104D100094E09A8B898B81E08F87188A87E392E0F1
:104D2000998388837E0187E4E80EF11C12E0D701A5
:104D30001C9312972D933C936E01B8E4CB0ED11CBB
:104D4000D601ED93FC931E861995CE014396FC0186
:104D500001900020E9F79F0121503109281B390BF0
:104D6000D7014C914230C9F0433011F1413059F52F
:104D7000B6E02B9F90011124215031093F832E83EF
:104D800088E090E099878887DF91CF911F910F91FC
:104D9000FF90EF90DF90CF900895ECE02E9F900170
:104DA0001124225031093F832E8380E190E0EACF25
:104DB000F2E12F9F90011124235031093F832E836C
:104DC00088E190E0DFCF68E773E00E94E73CD6011E
:104DD0001D921C92F70110838AE390E09F838E83DB
:104DE0008EE090E0CFCFEF92FF920F931F93CF937F
:104DF000DF93EC017B836A835D834C831F821E8279
:104E0000198618861B861A861D861C868FE094E0FC
:104E10009A8B898B81E08F87188A8E878FE192E049
:104E200099838883F90101900020E9F73197E21B0B
:104E3000F30B7E0183E1E80EF11C3A97B0F53F9346
:104E40002F938EE793E09F938F931F928AE08F9327
:104E5000FF92EF920E94EE3C8DB79EB708960FB678
:104E6000F8949EBF0FBE8DBFF70101900020E9F7B7
:104E70003197EE19FF0922E12E9FC0012F9F900D5F
:104E8000112407969F838E8382E290E0998788871A
:104E90001E8F0D8F18A21F8E81E08E87DF91CF911C
:104EA0001F910F91FF90EF90089561E873E0C701A3
:104EB0000E94E73CD9CFCF92DF92EF92FF920F93FF
:104EC0001F93CF93DF93EC0188E290E09B838A836A
:104ED0007D836C831B861A861D861C868FE094E07A
:104EE0009A8B898B81E08F87188AE7E0F2E0F9835B
:104EF000E883E0EFF0E0FF83EE8394E19BA3E1E33E
:104F0000F0E0F987E8875C8F4B8F3E8F2D8F0AA3E7
:104F10002EEB30E0388F2F8B615E7F4F7A8F698F59
:104F20005E8B4D8B1C8A1B8A8E87F70101900020B7
:104F3000E9F73197EE19FF098E010C5D1F4F3C9781
:104F400008F05EC0FF92EF928EE793E09F938F93FD
:104F50001F928CE08F931F930F930E94EE3C8DB7AE
:104F60009EB708960FB6F8949EBF0FBE8DBFF60190
:104F700001900020E9F73197EC19FD09CE01C196A7
:104F8000349708F043C0DF92CF922EE733E03F938F
:104F90002F931F9224E02F939F938F930E94EE3CB8
:104FA0008DB79EB708960FB6F8949EBF0FBE8DBF03
:104FB0006BE873E0C8010E94D33CF8010190002027
:104FC000E9F73197E01BF10B86EFE89FE02D112404
:104FD000EA58E9A38B8D9C8D0A97E8F488E08F8FBF
:104FE0008D8D9E8D8A309105C0F482E088A3DF917B
:104FF000CF911F910F91FF90EF90DF90CF90089588
:1050000061E873E0C8010E94E73CB1CF67E873E054
:105010000E94E73CCDCF82E0E2CF8436910510F4C8
:1050200088E0E4CF8EE0E2CF6F927F928F929F92E2
:10503000AF92BF92CF92DF92EF92FF920F931F93A6
:10504000CF93DF93CDB7DEB7CA54D1090FB6F8942A
:10505000DEBF0FBECDBF8FE0882E84E0982E109269
:105060001204109211041092100410920F04109266
:105070001404109213041092150410921704109245
:1050800018041092190410921A0498EAA92E99E0B3
:10509000B92EB092070AA092060A1092050A2DE8CE
:1050A000C22E23E0D22E3FE8E32E33E0F32E01E0C0
:1050B00024E630E050E040E068E270E082E799E00A
:1050C0000E945B2748E9C42E43E0D42E5CE9E52E1C
:1050D00053E0F52E2CE330E050E040E064E670E071
:1050E0008CE399E00E945B2765EAC62E63E0D62E2A
:1050F00079EAE72E73E0F72E0AE02CE231E050E087
:1051000040E060EA70E086E099E00E945B27EEE80C
:10511000CE2EE3E0DE2EF3EBEF2EF3E0FF2E01E0E8
:105120002AE030E041E050E06CED70E080ED98E086
:105130000E945B27ACEBCA2EA3E0DA2EBFEBEB2E6E
:10514000B3E0FB2E2FE030E045E050E068E171E095
:105150008AE998E00E945B2702E91FE120EE3FEF19
:105160004AE551E06AE170E080E598E00E9471262E
:1051700003E110E220EE3FEF4DE651E060E270E027
:1051800086E098E00E9471260FE01EE129EC33E0F2
:105190004AE951E06AE570E081EE97E00E94F3266B
:1051A000B092E007A092DF071092DE070DEF1DE13D
:1051B00021ED33E04CE751E060E570E081E997E0F4
:1051C0000E94F32603E410E010937707009376071C
:1051D00080EFE82EF12CF0927907E0927807109298
:1051E0007F0710927E07109281071092800790929D
:1051F000860780928507DD24D394D092830710928E
:105200008407ABE8B2E0B0937507A0937407ECE1B4
:10521000F0E0F0937D07E0937C076CEB70E0709317
:105220007B0760937A074CE250E050938C074093E1
:105230008B072BE830E0309388072093870783EDB6
:1052400090E090938A07809389070F2EF3ED6F2EDD
:10525000F1E27F2EF02D7092900760928F071092EE
:10526000820710935A0700935907F0925C07E09267
:105270005B07109262071092610710926407109208
:1052800063079092690780926807D0926607109230
:105290006707B0935807A0935707F0936007E09310
:1052A0005F0770935E0760935D0750936F074093AD
:1052B0006E0730936B0720936A0790936D07809376
:1052C0006C078DE791E290937307809372071092B9
:1052D00065070EE81EE12FEF3FEF4EE150E06EE173
:1052E00070E08DE097E00E94712600EB1EE12FEF49
:1052F0003FEF4CE350E06EE170E083EC96E00E94FB
:1053000071260AEC1EE12FEF3FEF4AE550E06EE117
:1053100070E089E796E00E947126B0927806A0922C
:1053200077061092760607EC10E22FEF3FEF49E187
:1053300050E064E170E084E096E00E9471264091C4
:105340000C0650910D06425E5F4F0DEC10E22FEF00
:105350003FEF62E370E08AEB95E00E947126409196
:105360000C0650910D06440F551F4D5D5F4F03ED28
:1053700010E22FEF3FEF65E270E080E795E00E94DA
:10538000712680910C0690910D06AC01440F551FBB
:10539000480F591F485D5F4F09ED10E22FEF3FEFB7
:1053A00065E170E086E295E00E94712640910C066E
:1053B00050910D06440F551F440F551F435D5F4F1D
:1053C00004EE1EE12FEF3FEF60E470E08CED94E01F
:1053D0000E9471261092AB091092AA09F092AD09B1
:1053E000E092AC0980E491E09093AF098093AE091C
:1053F000F092B109E092B0099093B3098093B20999
:105400001092BE091092B5091092B4091092B70912
:105410001092B609D092BD09D092BC098FEF9FEFD0
:105420009093BB098093BA099093B9098093B80906
:10543000D092BF091092C0091092C2091092C109FE
:105440008FE592E09093A9098093A80987E3809360
:10545000CA0488E38093CC0487E08093CB0486E081
:105460008093CD048CE291E09093CF048093CE049E
:10547000E4EDF0E1E491F0E0EE0FFF1FEC54FF4E9D
:10548000859194919093D1048093D004E5E0F1E16B
:10549000E491F0E0EE0FFF1FEC54FF4E85919491E4
:1054A0009093D3048093D204E6E0F1E1E491F0E03C
:1054B000EE0FFF1FEC54FF4E859194919093D5040D
:1054C0008093D404E5EDF0E1E491F0E0EE0FFF1FEE
:1054D000EC54FF4E859194919093D7048093D60419
:1054E000E4E7F0E1E491E093D804E5EAF0E1E49147
:1054F000E093DA04E6EAF0E1E491E093D904E5E729
:10550000F0E1E491E093DB048AE090E09093C90439
:105510008093C8041092C7041092C6041092C50468
:105520001092C4041092C3041092C20487E592E062
:1055300090932C0480932B048FE492E09093740456
:10554000809373049FE39B8385E08C8345E35EE552
:105550006AEF7EE329964CAF5DAF6EAF7FAF2997C0
:1055600090932D0480932E04FE013596AFE2B4E0B3
:105570003E2F2F2F41915191619171914D935D93E8
:105580006D937D9384E0AB36B807A1F725968CAD7B
:105590009DADAEADBFAD259780936B0490936C0429
:1055A000A0936D04B0936E0485E39EE5AAEFBEE37D
:1055B00080936F0490937004A0937104B09372046D
:1055C0009EE39B8385E08C8340ED54E468ED7CE3AF
:1055D0002B964CAF5DAF6EAF7FAF2B97909375045A
:1055E00080937604E32FF22FA7E7B4E04191519125
:1055F000619171914D935D936D937D9384E0A33B95
:10560000B807A1F725968CAD9DADAEADBFAD259782
:105610008093B3049093B404A093B504B093B604FC
:1056200086E391E09093B8048093B70480ED94E40E
:10563000A8EDBCE38093B9049093BA04A093BB0493
:10564000B093BC048EE28093BD0480E090E0A2E8B9
:10565000B2E48093BE049093BF04A093C004B093BF
:10566000C104C65BDF4F0FB6F894DEBF0FBECDBFDF
:10567000DF91CF911F910F91FF90EF90DF90CF902E
:10568000BF90AF909F908F907F906F900895CF9331
:10569000DF9300D0CDB7DEB7789484B5826084BD47
:1056A00084B5816084BD85B5826085BD85B5816026
:1056B00085BD80916E00816080936E0010928100A4
:1056C000809181008260809381008091810081605F
:1056D0008093810080918000816080938000809120
:1056E000B10084608093B1008091B00081608093AC
:1056F000B000809191008260809391008091910030
:1057000081608093910080919000816080939000EF
:105710008091A10082608093A1008091A1008160AE
:105720008093A1008091A00081608093A00080916F
:105730002101826080932101809121018160809309
:1057400021018091200181608093200180917A0065
:10575000846080937A0080917A00826080937A00DE
:1057600080917A00816080937A0080917A008068CD
:1057700080937A001092C10060E080912D040E9415
:105780000010BFE2AB2EB4E0BB2EF12CE12C8091D7
:105790002E048E151F0479F074F08BE294E00E94C1
:1057A0004611D5016D937D938D939D935D01BFEF60
:1057B000EB1AFB0AECCF61E08091BD040E9400105F
:1057C0008DED99E0909312048093110464E670E0EB
:1057D00080E090E00E9482110E94351560E090E028
:1057E00080E00E9464157C018830E4E59E0789F121
:1057F0008032F4E59F0769F18938994809F439C185
:1058000060E087E690E00E94641537E4E32E33E819
:10581000F32E87349744E9F08FEE90E00E947316E0
:105820007B0187E2E81683E9F80699F081EA90E0C7
:105830000E94541623E6E22E29E1F22E613091E611
:10584000790739F06F3F7607B9F5A6E2EA2EA5E1B0
:10585000FA2E0E9435151092C4091092C309F092D5
:10586000C809E092C70981E3E81680E8F80609F460
:10587000F0C708F0DAC1A3E5EA16A0E2FA0611F4CF
:105880000C948E3408F060C1E1E1EE16E5E1FE060D
:1058900009F4BFC208F010C129E9E216F10409F4C5
:1058A000E8C708F0FAC0EA94EF2809F4FBC71092A1
:1058B000AD091092AC09AAC26115BFEF7B0729F4AC
:1058C000F0E2EF2EF5E1FF2EC4CF91EAE92E95E04C
:1058D000F92E6115704F09F4BCCF8FEB90E00E9458
:1058E00073167B016735F3E87F0709F4B2CF61389F
:1058F00024E9720709F4ADCF6131754109F4A9CFEC
:1059000080E2E81685E1F806D9F296E2E91695E11B
:10591000F90609F49ACFA1E8EA16A5E1FA0609F416
:1059200098CFE114B4E1FB0609F4A8C084ED90E03F
:105930000E9454167B016031734509F48ACF87EDCC
:1059400090E00E9454167B016133704809F481CFC6
:105950008EEF90E00E945416672F782F892F992799
:105960007B016335704209F474CF84E090E00E94BB
:1059700054167B01833E31F4672B59F5E12CB3EECD
:10598000FB2E67CF811125C06115704811F58091FC
:10599000000290910102A091020289839A83AB8355
:1059A000AE014F5F5F4F63E089EB90E00E9496137A
:1059B00060E080ED90E00E94641579E9E72EF12C1B
:1059C000893909F446CF8039E1F460E9E62EFE2CEE
:1059D00040CF86E2E81685E1F80609F436CF90EF6D
:1059E000E91699E8F90609F44EC0A2E5EA16A5E819
:1059F000FA0609F44DC0B1E1EB16BCEAFB0609F466
:105A000028CF83ED90E00E945416672F782F892FBE
:105A100099277B016336714909F41BCF83ED90E030
:105A20000E945416872FE62EF72EF9E2EF16F2E3C6
:105A3000FF0609F40ECF8359823008F40ACF783973
:105A400009F407CF773709F404CF763109F401CF91
:105A500023EDE216F10409F4FCCE33EDE316F30670
:105A600009F4F7CE60E090E080E00E9464157C01CC
:105A7000F0CE49E8E42E42E1F42EEBCE84E1E82EAC
:105A800088E6F82EE6CEA5E3EA2EA7E7FA2EE1CEC9
:105A9000F9E8EF2EF7E7FF2EDCCE94E5E91691E06A
:105AA000F90609F4A7C1A5E0EA16A5E1FA0609F08E
:105AB000FECE84E090E1F8C6B1E8EB16B5E1FB0656
:105AC00009F435C7C8F4F0E2EF16F5E1FF0609F472
:105AD00069C626E2E21625E1F20609F0E8CE83E186
