:100000000C942A070C945B070C945B070C945B0719
:100010000C945B070C945B070C945B070C945B07D8
:100020000C945B070C945B070C945B070C945B07C8
:100030000C945B070C945B070C945B070C945B07B8
:100040000C945B070C945B070C945B070C945B07A8
:100050000C945B070C945B070C945B070C94E71CF7
:100060000C945B070C945B1D0C94311D0C945B0786
:100070000C945B070C945B070C945B070C945B0778
:100080000C945B070C945B070C945B070C945B0768
:100090000C945B070C945B070C945B070C945B0758
:1000A0000C945B070C945B070C945B070C945B0748
:1000B0000C945B070C945B070C945B070C945B0738
:1000C0000C945B070C945B070C945B070C945B0728
:1000D0000C945B070C945B070C945B070C945B0718
:1000E0000C945B070C9499080C94A71A0C9427198C
:1000F0000C9453080C9430080C94AB170C94BC1A55
:100100000C9488100C943F080C944C170C94F8181D
:100110000C9403080C94360D0C94F7180C94610899
:100120000C940E0E0C94941A0C94F2110C94E60894
:100130000C947A160C9414190C94911D0C9420199B
:100140000C94771A0C9408190C94BB1A0000000048
:10015000003E5B4F5B3E3E6B4F6B3E1C3E7C3E1C4D
:10016000183C7E3C181C577D571C1C5E7F5E1C0093
:10017000183C1800FFE7C3E7FF0018241800FFE74A
:10018000DBE7FF30483A060E2629792926407F050D
:100190000507407F05253F5A3CE73C5A7F3E1C1C23
:1001A00008081C1C3E7F14227F22145F5F005F5FE3
:1001B00006097F017F006689956A606060606094CF
:1001C000A2FFA29408047E040810207E20100808D4
:1001D0002A1C08081C2A08081E101010100C1E0CDF
:1001E0001E0C30383E3830060E3E0E060000000071
:1001F0000000005F00000007000700147F147F1458
:10020000242A7F2A1223130864623649562050009C
:1002100008070300001C2241000041221C002A1C88
:100220007F1C2A08083E0808008070300008080873
:100230000808000060600020100804023E51494593
:100240003E00427F400072494949462141494D33B1
:100250001814127F1027454545393C4A4949314118
:10026000211109073649494936464949291E0000E6
:10027000140000004034000000081422411414143B
:100280001414004122140802015909063E415D5927
:100290004E7C1211127C7F494949363E4141412230
:1002A0007F4141413E7F494949417F090909013E5A
:1002B000414151737F0808087F00417F4100204081
:1002C000413F017F081422417F404040407F021C93
:1002D000027F7F0408107F3E4141413E7F090909AA
:1002E000063E4151215E7F09192946264949493276
:1002F00003017F01033F4040403F1F2040201F3F3C
:100300004038403F631408146303047804036159C0
:10031000494D43007F414141020408102000414102
:10032000417F0402010204404040404000030708AE
:100330000020545478407F284444383844444428AA
:10034000384444287F385454541800087E09021851
:10035000A4A49C787F0804047800447D40002040D9
:10036000403D007F1028440000417F40007C04781D
:1003700004787C080404783844444438FC18242465
:100380001818242418FC7C080404084854545424E5
:1003900004043F44243C4040207C1C2040201C3C62
:1003A0004030403C44281028444C9090907C446459
:1003B000544C4400083641000000770000004136EC
:1003C000080002010204023C2623263C1EA1A16172
:1003D000123A4040207A38545455592155557941A4
:1003E0002254547842215554784020545579400C79
:1003F0001E5272123955555559395454545939555C
:100400005454580000457C410002457D420001459E
:100410007C407D1211127DF0282528F07C54554532
:10042000002054547C547C0A097F4932494949329E
:100430003A4444443A324A4848303A4141217A3AAF
:1004400042402078009DA0A07D3D4242423D3D407B
:1004500040403D3C24FF2424487E4943662B2FFC2A
:100460002F2BFF0929F620C0887E090320545479D8
:10047000410000447D413048484A32384040227AA9
:10048000007A0A0A727D0D19317D2629292F282626
:100490002929292630484D4020380808080808082E
:1004A0000808382F10C8ACBA2F102834FA00007B87
:1004B000000008142A142222142A1408550055009A
:1004C00055AA55AA55AAFF55FF55FF000000FF0089
:1004D000101010FF00141414FF001010FF00FF1084
:1004E00010F010F0141414FC001414F700FF0000B6
:1004F000FF00FF1414F404FC141417101F10101F35
:10050000101F1414141F00101010F0000000001F22
:10051000101010101F10101010F010000000FF102D
:100520001010101010101010FF10000000FF140029
:1005300000FF00FF00001F10170000FC04F414145B
:100540001710171414F404F40000FF00F714141427
:1005500014141414F700F7141414171410101F10A7
:100560001F141414F4141010F010F000001F101FCA
:100570000000001F14000000FC140000F010F01038
:1005800010FF10FF141414FF141010101F000000AF
:1005900000F010FFFFFFFFFFF0F0F0F0F0FFFFFFB3
:1005A0000000000000FFFF0F0F0F0F0F384444380A
:1005B00044FC4A4A4A347E02020606027E027E0259
:1005C00063554941633844443C04407E201E200664
:1005D000027E020299A5E7A5991C2A492A1C4C72A1
:1005E00001724C304A4D4D303048784830BC625A28
:1005F000463D3E494949007E0101017E2A2A2A2AB8
:100600002A44445F444440514A444040444A514093
:100610000000FF0103E080FF000008086B6B083654
:1006200012362436060F090F0600001818000000C5
:100630001010003040FF0101001F01011E00191DB4
:100640001712003C3C3C3C000000000011007F966B
:10065000290001007F9628003A0155C0021010C100
:100660000141C50400228040360168B00100B1029A
:10067000B011B40102B60302023BB701C63A0155FC
:10068000F704A9512C82B701C6E808408A00002966
:1006900019A533C0020D0DC1024300C20100C504FB
:1006A00000480048B40100B60302023BE00F0F21EE
:1006B0001C0B0E08499838091103141000E10F0FA4
:1006C0002F2B0C0E06477637071104231E00B001AE
:1006D00000B30402000000B40100D003074218D1A7
:1006E00003000710D2020102D3020102D402010268
:1006F000C005123B000211C103101088C50103C6DA
:100700000102C80C003236450616377577540C00C6
:10071000CC0100F603010100CF03008130ED046439
:10072000031281E803851078CB05392C003402F7D9
:100730000120EA020000B00100B102001BB4010078
:10074000C00121C10111C5023F3CC701B5360148B6
:10075000F20100260101E00F0F26240B0E0954A818
:10076000460C17090F0700E10F00191B0410072A98
:10077000473903060630380F360100B80101C001C1
:100780000EB00100C10410100202C00600350000C6
:100790000102C50104D2020104CA0100EA0180B9C4
:1007A00003FF83577F967F96B60125C00650500100
:1007B0003C1E08B4070240002A2A0D787F01F20B84
:1007C0001616030808080810041616FD0311023552
:1007D000B2050C0C003333B70135BB012BC001044B
:1007E000C20201FFC30111C40120C6010FD002A43F
:1007F000A1E00ED000050E150D374347091512165E
:1008000019E10ED000050D0C062D44400E1C1816E3
:10081000193A01557F0A06000700B1020012B4011F
:1008200002B60400202700CA0101CB0103C0011356
:100830007F14C501CCC60100C70104C80103CC0167
:1008400006CD011CF9021515F3030A020AF603018D
:100850001000FA00FB00E2031E0254E001017F0ACF
:10086000E001037F0A01007F64E60303FFFFB00796
:100870002400031F01DF00B40803A0002E30000F86
:1008800000B607020D0010100008BA010FB80207E9
:1008900001F001007F01280011007F642900BE06DD
:1008A00006F001F00000D0010DB00103E2013FC0ED
:1008B0000122E20100B00100C0010AB00100000005
:1008C0000000000000000000000000000000FFFF2A
:1008D0000F0000040062080008080003000C010378
:1008E0000B5A020306090303171004030023050330
:1008F0000017060309630703090C08030C1009031A
:100900003222100016001100010112000000130035
:10091000010000013003010137020301000D8002D4
:1009200000610201B0C1FFFF3200010000010200BE
:10093000000103003010090001000C0000009000CD
:1009400000800F000000100200001102EF001202F0
:10095000000013028F0100050000010500000205E0
:100960005F000104010004040000FFFF32000700E3
:100970000001FFFF32000002000001020000000041
:100980000000000000000000000000000100A400C2
:100990000100FFFF0A00600000270800080830007F
:1009A000140231001537320004063300160E3400ED
:1009B000112235000015360007853700071438006E
:1009C00003143900200090001500100010041100DD
:1009D0003702290046002A004600070000001200E6
:1009E000890113000011FFFF96001200B9010100F8
:1009F00000010200000203003010090001000A009B
:100A000000000D0000000E003000610001006A00CF
:100A10000000800000008100000082005F00920062
:100A2000000193000107FFFF500007000001E500EF
:100A3000F078010000010200000203003010040001
:100A400000000500000008000702090000000A007D
:100A500000000C0000000D0000000F00000010005E
:100A60000000110007001200000013000000070042
:100A70000100FFFFC8001000901611002702FFFFC1
:100A8000320012000D00FFFF320013000012290097
:100A90000A002B000D00FFFF3200200000002100A3
:100AA0000000300000003100040432000300350073
:100AB000050436000808370007043800030339002E
:100AC00007073C0004053D0008086000002761009E
:100AD00001006A0000008000000081000000820028
:100AE00000008300000084000000850000009000EA
:100AF00010009200000007003301E50000800000B4
:100B00000100010000010200000703003010040092
:100B1000000008000202090000000A0000000C00AA
:100B200000000D0000000F00000010000000110088
:100B300007001200000013000000FFFF3200100049
:100B4000B01711000700FFFF0A0012003A01FFFF73
:100B50000A001300001A29000C00FFFF0A003000F1
:100B600000003100050532000400350006003600A3
:100B700007073700050138000200390007073C006D
:100B800004073D000708600000A7610001006A003B
:100B90000000210000002000000080000000810013
:100BA0000000820000008300000084000000850037
:100BB00000009000100092000000930003009500D8
:100BC0001001970000009800000007007301FFFF6C
:100BD000320001000001020000070300301008008D
:100BE0000203090000000A000800100000001100C4
:100BF00005001200000013000000FFFF6400100059
:100C0000B012FFFF320011000700FFFF3200120098
:100C10008C001300001729002000FFFF3200300075
:100C200000003100060132000101350006013600E6
:100C300003023700000038000707390004023C00B7
:100C400006013D000301600000A761000100900063
:100C5000300007003301FFFF3200150030009A001A
:100C600010001100200010002834120002001300B0
:100C70003810FFFF280012001200FFFF28001000AC
:100C8000203413004530FFFF4600300000003100E3
:100C9000020432000703330004033400040035006B
:100CA0000104360007073700050338001006390035
:100CB00010060100000102000003030030100800CC
:100CC00008080A0008006000002761000100900089
:100CD0003E019200000193000001A0000030A3003B
:100CE0001000070001000700210007002300070093
:100CF00033000700330111001A00120021311300E4
:100D00006C001400494210000008FFFF0A001100A7
:100D10001A01FFFF0A0011001A03FFFF0A00110069
:100D20001A07FFFF0A0011001A0FFFFF0A00110047
:100D30003A0FFFFF1E00010028010200000103001E
:100D4000301007001210080003030B0000110C0004
:100D500000000F0001181500200050000101510093
:100D60000306520008045300000054000506550015
:100D700006045600030357000303580010005900EF
:100D8000001007001200FFFF2800070013000700F3
:100D9000170000002100240027002A002D00300049
:100DA000330001010000040107010A0101021020C3
:100DB0002008081020401020408002010201080491
:100DC0000201010204081020408080402010080425
:100DD000020180040201804020100804020108047E
:100DE00002010102040810204080010204081020C2
:100DF000408000002200250028002B002E0031003A
:100E0000340002010000050108010B01050505057C
:100E1000070508080808020202020A0A0808040472
:100E200004040101010101010101030303030303A0
:100E30000303040707070C0C0C0C0C0C0C0C02022F
:100E4000020206060606060606060B0B0B0B0B0B2C
:100E50000B0B911D11241FBECFEFD1E2DEBFCDBF22
:100E600000E00CBF12E0A0E0B2E0E8E9F5E500E048
:100E70000BBF02C007900D92A237B107D9F723E04C
:100E8000A2E7B2E001C01D92A23EB207E1F717E06F
:100E9000CAE2D7E000E006C021970109802FFE01D9
:100EA0000E949B28C932D10780E00807A9F70E9459
:100EB000AC1E0C94CA2A0C940000CF93DF9390E0F0
:100EC000FC01E455F24F2491845F914FFC01849121
:100ED0008823D1F090E0880F991FFC01EE56F24F65
:100EE000A591B491FC01EE50F24FC591D4916111DE
:100EF0000EC09FB7F8948C91E22FE0958E238C93CF
:100F00002881E223E8839FBFDF91CF9108958FB7B7
:100F1000F894EC91E22BEC938FBFF6CF863308F078
:100F2000865320917B00982F9870277F922B909367
:100F30007B008770806480937C0080917A0080645D
:100F400080937A0080917A0086FDFCCF80917800B2
:100F50009091790008953FB7F8948091790290912B
:100F60007A02A0917B02B0917C0226B5A89B05C0B5
:100F70002F3F19F00196A11DB11D3FBFBA2FA92F18
:100F8000982F8827BC01CD01620F711D811D911D15
:100F900042E0660F771F881F991F4A95D1F7089581
:100FA0008F929F92AF92BF92CF92DF92EF92FF9279
:100FB0006B017C010E94AB074B015C01C114D104A1
:100FC000E104F104B9F00E94AB07681979098A09B4
:100FD0009B09683E73408105910580F321E0C21AA8
:100FE000D108E108F10888EE880E83E0981EA11C64
:100FF000B11CE4CFFF90EF90DF90CF90BF90AF9007
:101000009F908F900895AF92BF92CF92DF92EF9210
:10101000FF920F931F93CF93DF936C017B018B01A2
:10102000040F151FEB015E01AE18BF08C017D107F2
:1010300059F06991D601ED91FC910190F081E02D7C
:10104000C6011995892B79F7C501DF91CF911F91C1
:101050000F91FF90EF90DF90CF90BF90AF900895E9
:10106000FC01538D448D252F30E0842F90E0821BAE
:10107000930B541710F0CF96089501970895FC0133
:10108000918D828D981761F0A28DAE0FBF2FB11D8B
:101090005D968C91928D9F5F9F73928F90E00895E3
:1010A0008FEF9FEF0895FC01918D828D981731F09D
:1010B000828DE80FF11D858D90E008958FEF9FEFF1
:1010C0000895FC01918D228D892F90E0805C9F4FC7
:1010D000821B91098F73992708958EE792E00E94F1
:1010E000610821E0892B09F420E0822F0895FC019A
:1010F000A48DA80FB92FB11DA35ABF4F2C91848D79
:1011000090E001968F739927848FA689B7892C93D5
:10111000A089B1898C91837080648C93938D848D28
:10112000981306C00288F389E02D80818F7D80832B
:101130000895EF92FF920F931F93CF93DF93EC01EB
:1011400081E0888F9B8D8C8D98131AC0E889F9896E
:10115000808185FF15C09FB7F894EE89FF89608371
:10116000E889F98980818370806480839FBF81E0F2
:1011700090E0DF91CF911F910F91FF90EF90089534
:10118000F62E0B8D10E00F5F1F4F0F731127E02E0F
:101190008C8D8E110CC00FB607FCFACFE889F98947
:1011A000808185FFF5CFCE010E947708F1CFEB8DCE
:1011B000EC0FFD2FF11DE35AFF4FF0829FB7F8941B
:1011C0000B8FEA89FB8980818062CFCFCF93DF9339
:1011D000EC01888D8823B9F0AA89BB89E889F9894F
:1011E0008C9185FD03C0808186FD0DC00FB607FC84
:1011F000F7CF8C9185FFF2CF808185FFEDCFCE01B7
:101200000E947708E9CFDF91CF91089580E090E0C8
:10121000892B29F00E946D0881110E94000080E056
:1012200090E0892B49F080E090E0892B29F00E9422
:10123000000081110E94000080E090E0892B49F0BD
:1012400080E090E0892B29F00E94000081110E942B
:10125000000080E090E0892B49F080E090E0892B4D
:1012600029F00E94000081110C9400000895FC01F7
:1012700021813281C901059786179707B0F48781CC
:101280009085280F391F2B5F3F4F6217730768F453
:10129000238134812417350740F481859285280FF6
:1012A000391F81E04217530708F080E008950F933B
:1012B0001F93CF93DF93EC018B01FE018491319654
:1012C000649122968F3799F470E090E080E00E945C
:1012D000D00760E070E06E5F7F4F061B170B1016A3
:1012E00011065CF3DF91CF911F910F9108958B98B8
:1012F0008A9890910201977890930201A5989EB1E7
:10130000977C9EB94091020190E09C0155E0220F2C
:10131000331F5A95E1F72076242B209302014EB11A
:101320009C01220F331F220F331F2073242B2EB951
:1013300044B39C01220F331F2072242B24BB4EB1D7
:101340009C0135952795359527952870242B2EB926
:1013500020910201A3E095958795AA95E1F7887100
:10136000822B809302018998899A50E040E04617C9
:1013700008F045C0FE01E40FF51FE4918A9A8091C0
:101380000201877880930201A5988EB1877C8EB97F
:10139000709102018E2F90E09C01E5E0220F331F37
:1013A000EA95E1F72076272B209302017EB19C017C
:1013B000220F331F220F331F2073272B2EB974B334
:1013C0009C01220F331F2072272B24BB7EB19C016E
:1013D00035952795359527952870272B2EB9E091BF
:1013E000020123E0959587952A95E1F788718E2B68
:1013F000809302018998899A4F5F5F4FB8CFC60FDB
:10140000D11D8B9A67CF8B988A98209102012778FB
:1014100020930201A5982EB1277C2EB9709102016C
:10142000292F30E0F901A5E0EE0FFF1FAA95E1F7A3
:10143000E076E72BE09302017EB1F901EE0FFF1F8A
:10144000EE0FFF1FE073E72BEEB974B3F901EE0F57
:10145000FF1FE072E72BE4BB7EB1F901F595E7953C
:10146000F595E795E870E72BEEB970910201E3E09E
:1014700035952795EA95E1F72871272B20930201EE
:101480008998899A20910201277820930201A598D2
:101490002EB1277C2EB9709102019C01F5E0880FD6
:1014A000991FFA95E1F78076872B809302017EB130
:1014B000C901880F991F880F991F8073872B8EB9D8
:1014C00074B3C901880F991F8072872B84BB7EB1CA
:1014D000C90195958795959587958870872B8EB9C5
:1014E00080910201F3E035952795FA95E1F728718F
:1014F000282B209302018998899A8A9AFA016150CF
:1015000008F43EC081919091020197789093020176
:10151000A5989EB1977C9EB94091020190E09C01F4
:1015200055E0220F331F5A95E1F72076242B2093A4
:1015300002014EB19C01220F331F220F331F207373
:10154000242B2EB944B39C01220F331F2072242B6D
:1015500024BB4EB19C01359527953595279528706C
:10156000242B2EB92091020133E0959587953A9569
:10157000E1F78871822B809302018998899ABFCF05
:101580008B9A08958B988A98E2E0F1E02081277881
:101590002083A5982EB1277C2EB9A081292F30E079
:1015A000A901B5E0440F551FBA95E1F740764A2BE3
:1015B0004083AEB1A901440F551F440F551F40731E
:1015C0004A2B4EB9A4B3A901440F551F40724A2BB0
:1015D00044BBAEB1A90155954795559547954870BF
:1015E0004A2B4EB9408153E0359527955A95E1F73E
:1015F0002871242B20838998899A20812778208339
:10160000A5982EB1277C2EB940819C01A5E0880FBA
:10161000991FAA95E1F78076842B80834EB1C9018A
:10162000880F991F880F991F8073842B8EB944B33C
:10163000C901880F991F8072842B84BB4EB1C901E8
:1016400095958795959587958870842B8EB980811F
:10165000B3E035952795BA95E1F72871282B2083BB
:101660008998899A8A9A808187788083A5988EB193
:10167000877C8EB94081872F90E09C0155E0220F36
:10168000331F5A95E1F72076242B20834EB19C011D
:10169000220F331F220F331F2073242B2EB944B384
:1016A0009C01220F331F2072242B24BB4EB19C01BE
:1016B00035952795359527952870242B2EB92081AF
:1016C000A3E095958795AA95E1F78871822B808391
:1016D0008998899A808187788083A5988EB1877C44
:1016E0008EB94081CB019B01B5E0220F331FBA9523
:1016F000E1F72076242B20834EB19B01220F331F6C
:10170000220F331F2073242B2EB944B39B01220FC9
:10171000331F2072242B24BB4EB19C013595279595
:10172000359527952870242B2EB92081A3E0959517
:101730008795AA95E1F78871822B80838998899A89
:101740008B9A089581E080937D02E1E0F1E0808151
:10175000886780839D9A8DB188638DB9809A819ABC
:10176000829A839A849A8B9A889A899A8C9A62E34D
:1017700070E080E090E00E94D0078C9864E670E012
:1017800080E090E00E94D0078C9A64E670E080E0F0
:1017900090E00E94D00770E060E080EB90E00C9455
:1017A000C20AEF92FF920F931F93CF93DF93EC0146
:1017B000E62E80917D02811102C00E94A20B8B98BF
:1017C0008A9880910201877880930201A5988EB152
:1017D000877C8EB980910201809302018EB18EB90F
:1017E00084B384BB8EB18EB98091020180930201D3
:1017F0008998899A80910201877880930201A5983F
:101800008EB1877C8EB920910201CE0115E0880F40
:10181000991F1A95E1F78076822B809302012EB1F1
:10182000CE01880F991F880F991F8073822B8EB964
:1018300024B3CE01880F991F8072822B84BB2EB1F6
:10184000CE0195958795959587958870822B8EB951
:101850008091020153E0D595C7955A95E1F7C8717B
:10186000C82BC09302018998899A8A9A80910101B4
:101870008778809301019D988DB1877C8DB961E057
:1018800070E080E090E00E94D00761E070E080E0CE
:1018900090E00E94D007889A889888988898D0917C
:1018A00000011CB102B3CCB1F0900001889A61E054
:1018B00070E080E090E00E94D007889A889888982D
:1018C0008898409100015CB1E2B39CB1F0910001B5
:1018D000889AEA946FEFE612D8CF889A8B9A809113
:1018E00001018867809301019D9A8DB188638DB94C
:1018F00084E0C89F900111242072332788E0F89E6D
:10190000B0011124607C7727262B602F70E075953D
:10191000679560717727262B612F70E07595679525
:10192000759567956C707727262B6D2F70E0B5E065
:1019300075956795BA95E1F763707727262B64E074
:10194000969FC0011124807298E0F99FB001112484
:10195000607C862BE695E0718E2B569556955C70D3
:10196000852B50E0C5E055954795CA95E1F7437042
:10197000842B922FDF91CF911F910F91FF90EF90C9
:1019800008950F931F93CF93DF938C0160E00E9423
:10199000D10BEC0161E0C8010E94D10B8C01BE01AA
:1019A00090E080E0CB017727662730E020E0602BD5
:1019B000712B822B932BDF91CF911F910F91089563
:1019C000FF920F931F93CF93DF938C0160E00E94EF
:1019D000D10BEC0161E0C8010E94D10BF82E62E04E
:1019E000C8010E94D10BAE0170E060E0742F662741
:1019F0005527442700E030E020E0402B5F29622B90
:101A0000732B292F30E0C901B0E0A0E08A019B01CF
:101A1000082B192B2A2B3B2BC901B801DF91CF9141
:101A20001F910F91FF9008950F931F93CF93DF9312
:101A3000EC018B01FE0185919491FE013296249672
:101A4000659174918F3F980771F490E080E00E9457
:101A5000D007045011091016110664F3DF91CF91DD
:101A60001F910F9108950E94C20AF3CFFC01262F07
:101A7000358D868D82958170982F9627692F70E01D
:101A800072A361A330FF0CC0821307C080E290E014
:101A900050E040E060E00C94030A81E290E0F8CF6F
:101AA000878D90A1833927E7920741F058F4843558
:101AB00021E0920791F080329445C1F4626081E0A8
:101AC00094E012C0863223E99207C1F3893025EBF6
:101AD0009207A1F38532924949F4660F771F660F8A
:101AE000771F636187E090E00C94C20A81E690E082
:101AF000FBCF8F929F92AF92BF92CF92DF92EF92E5
:101B0000FF920F931F93CF93DF9300D01F92CDB717
:101B1000DEB77C014B015A016901FC01878D90A160
:101B20008632954151F4F701868980FF06C0C801CD
:101B3000841B950B81F50F5F1F4FF701858D80FF8B
:101B400031C085A599828A82DB82CC82AE014F5F4B
:101B50005F4F64E090E00E94030AF70181A9B98217
:101B6000AA821B830C83AE014F5F5F4F64E090E05D
:101B70000E94030A0F900F900F900F90DF91CF916A
:101B80001F910F91FF90EF90DF90CF90BF90AF909B
:101B90009F908F9008952617370779F6C80ED91EA3
:101BA0008A01CBCFB40187A190A50E94C20AB501DA
:101BB000F70181A592A50E94C20AC814D90419F49C
:101BC0000A151B05B9F2F701858D85FF08C08689C6
:101BD00080FF1EC0102F0027A02AB12A8501B40162
:101BE000F70185A596A50E94C20AB501F70181A952
:101BF00092A90E94C20AB601F70187A590A90E9486
:101C0000C20AB801F70183A994A90E94C20AB2CFFF
:101C1000DC2CCC248C289D286401E1CF2F923F92AC
:101C20004F925F926F927F928F929F92AF92BF92EC
:101C3000CF92DF92EF92FF920F931F93CF93DF9398
:101C400000D01F921F92CDB7DEB79D838C83809109
:101C50007202882349F0C701880F991F8E73992754
:101C6000E1ECEE22E82AF92A37FF05C0620F731F64
:101C7000319521953109260F371F77FF02C070E09B
:101C800060E0EC81FD8180859185281739070CF48F
:101C9000C9016C01C61AD70A17FF05C0400F511FB2
:101CA000119501951109040F151F57FF02C050E04F
:101CB00040E0EC81FD8122853385021713070CF487
:101CC00098015901A41AB50A8901015011099C0112
:101CD000215031098C819D810E94790D8B988A98C1
:101CE000EC81FD8153A544A5809102018778809302
:101CF0000201A5988EB1877C8EB960910201842F74
:101D000090E09C01A5E0220F331FAA95E1F7207611
:101D1000262B209302016EB19C01220F331F220F4C
:101D2000331F2073262B2EB964B39C01220F331F5F
:101D30002072262B24BB6EB19C01359527953595D5
:101D400027952870262B2EB92091020133E0959516
:101D500087953A95E1F78871822B809302018998E3
:101D6000899A80910201877880930201A5988EB1AB
:101D7000877C8EB960910201852F942F9C0145E0EC
:101D8000220F331F4A95E1F72076262B209302017C
:101D90004EB19C01220F331F220F331F2073242BBF
:101DA0002EB944B39C01220F331F2072242B24BB75
:101DB0004EB19C0135952795359527952870242B94
:101DC0002EB920910201E3E095958795EA95E1F718
:101DD0008871822B809302018998899A8A9ACA1401
:101DE000DB042CF09A2D8B2D5601C92ED82E2F2DC9
:101DF00030E0890185E0000F111F8A95E1F7007638
:101E0000C901880F991F880F991F182F1073C901D6
:101E1000880F991FB82FB072C90195958795959530
:101E20008795982F987073E0359527957A95E1F707
:101E3000822F8871A701E5E0440F551FEA95E1F76D
:101E400040769701220F331F220F331F522F5073FA
:101E5000B701660F771F6072970135952795359505
:101E60002795722F78709701E3E035952795EA95CD
:101E7000E1F7A22FA8712F2D287F30E04901880CAF
:101E8000991C880C991CF82DF073F9834901880C72
:101E9000991CE82DE072EA83490195948794959402
:101EA0008794F82DF870FB83E3E035952795EA9544
:101EB000E1F7E22FE8712E2E9701F3E03695279592
:101EC000FA95E1F72C7F30E04901880C991C880CC9
:101ED000991CF82DF0733F2E2901440C551CE42D5C
:101EE000E0724E2E49019594879495948794F82D2D
:101EF000F8705F2EF3E035952795FA95E1F7E22F1C
:101F0000E8716E2EEE0CEE0CEE0CF12C9701220F08
:101F1000331F220F331FF22FF0737F2E9701220FF2
:101F2000331F2072F701F595E795F595E795E87071
:101F3000F3E0F594E794FA95E1F73E2D3871E32E3E
:101F40001C141D040CF0ABC0309173024501332307
:101F500009F463C030910201377830930201A598EB
:101F60003EB1377C3EB930910201309302013EB15F
:101F7000F9813F2B3EB934B3FA813F2B34BB3EB1DC
:101F8000FB813F2B3EB9309102013229309302018F
:101F90008998899A30910201377830930201A59887
:101FA0003EB1377C3EB930910201309302013EB11F
:101FB00033293EB934B3342934BB3EB135293EB957
:101FC000309102013629309302018998899A309123
:101FD0000201377830930201A5983EB1377C3EB9B3
:101FE00030910201309302013EB137293EB934B33A
:101FF000322B34BB3EB13E2B3EB9309102013E291B
:10200000309302018998899A31E0831A910809F086
:10201000A1CFF1E0CF1AD10893CF309102013778E8
:1020200030930201A5983EB1377C3EB93091020150
:10203000302B309302013EB1312B3EB934B33B2BF0
:1020400034BB3EB1392B3EB930910201382B30936D
:1020500002018998899A3091020137783093020100
:10206000A5983EB1377C3EB930910201342B3093B4
:1020700002013EB1352B3EB934B3362B34BB3EB1F1
:10208000372B3EB9309102013A2B309302018998E7
:10209000899AF1E08F1A910809F0BFCFBACF8B9AD5
:1020A000EC81FD81858D80FF0AC0878D90A18632ED
:1020B0009541B1F4EC81FD81868980FF11C0EC81EE
:1020C000FD8102851385015011092085318521503C
:1020D000310950E040E070E060E0CF010E94790DEE
:1020E0000F900F900F900F900F90DF91CF911F9155
:1020F0000F91FF90EF90DF90CF90BF90AF909F90A7
:102100008F907F906F905F904F903F902F900895A9
:10211000EF92FF920F931F93CF93DF937C01E9011E
:1021200077FD4DC157FD4BC1FC0180859185681736
:1021300079070CF044C182859385481759070CF044
:102140003EC180917202882341F0C901880F991F16
:102150008E739927C17CC82BD92B8A019B01C7019B
:102160000E94790D80917302882309F42FC18B9806
:102170008A98F70143A554A580910201877880933E
:102180000201A5988EB1877C8EB960910201852FDE
:1021900090E09C0175E0220F331F7A95E1F72076DD
:1021A000262B209302016EB19C01220F331F220FB8
:1021B000331F2073262B2EB964B39C01220F331FCB
:1021C0002072262B24BB6EB19C0135952795359541
:1021D00027952870262B2EB920910201B3E0959502
:1021E0008795BA95E1F78871822B809302018998CF
:1021F000899A80910201877880930201A5988EB117
:10220000877C8EB960910201CA019C0115E0220F02
:10221000331F1A95E1F72076262B209302014EB149
:102220009C01220F331F220F331F2073242B2EB942
:1022300044B39C01220F331F2072242B24BB4EB1C8
:102240009C0135952795359527952870242B2EB917
:102250002091020173E0959587957A95E1F7887151
:10226000822B809302018998899A8A9A809102012F
:10227000877880930201A5988EB1877C8EB92091D2
:1022800002018D2F887F90E0209302014EB19C01C6
:10229000220F331F220F331F2073242B2EB944B378
:1022A0009C01220F331F2072242B24BB4EB19C01B2
:1022B00035952795359527952870242B2EB9209193
:1022C0000201B3E095958795BA95E1F78871822B65
:1022D000809302018998899A80910201877880937E
:1022E0000201A5988EB1877C8EB920910201CE01A2
:1022F000D3E096958795DA95E1F78C7F90E020936F
:1023000002014EB19C01220F331F220F331F207395
:10231000242B2EB944B39C01220F331F2072242B8F
:1023200024BB4EB19C01359527953595279528708E
:10233000242B2EB92091020163E0959587956A952B
:10234000E1F78871822B809302018998899A8091A4
:102350000201877880930201A5988EB1877C8EB99F
:1023600080910201CC0FCC0FCC0FD0E08093020102
:102370002EB1CE01880F991F880F991F8073822B71
:102380008EB924B3CE01880F991F8072822B84BB33
:102390002EB1CE0195958795959587958870822B5E
:1023A0008EB980910201A3E0D595C795AA95E1F772
:1023B000C871C82BC09302018998899A8B9ADF91C2
:1023C000CF911F910F91FF90EF900895BE01F701FB
:1023D00083A594A5DF91CF911F910F91FF90EF906E
:1023E0000C94C20AEF92FF920F931F93CF93DF9347
:1023F00000D000D000D01F92CDB7DEB77C01862F71
:102400008370F701868B962F917060FFE3C0268161
:102410003781F70131872087992309F4DEC02481B1
:102420003581F70133872287823009F4DBC083309E
:1024300009F4DAC0813009F4D3C088E48A87F7014F
:10244000858D968D90FF03C02A8520582A8791FF9D
:1024500004C02A8530E423272A8793FF04C02A85F5
:1024600038E023272A87F701278D30A180FF00C19C
:102470002431F8E63F0709F0B9C09A85892F8872A0
:102480008A871F82892F85958074282F2260892F43
:1024900090E09595879580729927822B88878BE3AA
:1024A0008987AE01495F5F4F63E086EB90E00E9451
:1024B000030A2AE230E0F70130A727A38BE290E07D
:1024C00092A781A74CE250E054A743A736A725A7BF
:1024D00030AB27A792AB81AB94AB83ABAE01465F29
:1024E0005F4F61E086E390E00E94030A8A8590E0F6
:1024F000F70194A383A3F701868980FF1CC0858D13
:10250000968D92FD18C087A190A521A532A530A770
:1025100027A392A781A785A596A521A932A936A7A9
:1025200025A792AB81AB87A590A923A934A930AB8D
:1025300027A794AB83ABF7010285138501501109DE
:10254000208531852150310950E040E070E060E0A5
:10255000C7010E94790DF70166817781878D90A16F
:1025600020E08732F3E99F0709F420E2F701358D77
:1025700030FF39C119821A827B836C831D822E83BE
:10258000AE014F5F5F4F66E083E390E00E94030A75
:1025900019821A82AE014F5F5F4F62E087E390E0DD
:1025A0000E94030AF701858D80FF07C050E040E0DC
:1025B00060E083E190E00E94030A2A960FB6F89447
:1025C000DEBF0FBECDBFDF91CF911F910F91FF9066
:1025D000EF900895248135811CCF2681378121CF4A
:1025E00088E22CCF88E92ACF88EF28CF273243E929
:1025F000340789F41F8281E388878A8585958595CC
:102600008595859588708987AE01495F5F4F63E046
:1026100080EC90E04CCF233689E1380749F021382F
:10262000E4E93E0729F02131F5E13F0709F041CF08
:102630008A8587FF02C081608A878A8586FF02C0FB
:1026400082608A878A858F73233649E1340731F0A7
:10265000213884E9380721F48A858F728A8729CF47
:102660002131354109F025CF8A858F7E806CF6CFE8
:102670006A85862F062E000C990B2339F7E73F0752
:1026800051F0A8F52435E1E03E0709F45CC02032A2
:10269000F4E53F07A1F540E052E0F70150A747A35A
:1026A00041E052E052A741A742E052E054A743A7BD
:1026B00040E152E056A745A741E152E050AB47A7A1
:1026C00042E152E052AB41AB43E152E054AB43AB89
:1026D000882790782632F3E93F0721F020323445ED
:1026E00009F071C067FD846060E071E36EC026325E
:1026F00043E9340781F22930E5EB3E0761F220E23D
:1027000030E0F70130A727A321E230E032A721A76C
:1027100022E230E034A723A720E530E036A725A742
:1027200021E530E030AB27A722E530E032AB21AB2A
:1027300023E530E034AB23ABBC01662770787762C9
:1027400080E690E046C027E330E0F70136A725A7F2
:1027500026E330E030AB27A729E330E032AB21ABF2
:1027600028E330E034AB23AB20E230E030A727A3EE
:1027700021E230E032A721A722E230E034A723A7EC
:10278000F4E06F9FB0011124662771708827927062
:102790008862682B792B81E090E00E94C20A8A85CA
:1027A000682F70E0759567957595679568707727C0
:1027B00083FD70616063F70174A363A383E090E01D
:1027C0000E94C20A98CE60E072E6682B792B80E006
:1027D00094E00E94C20A6A85F4E06F9FB001112460
:1027E00066277170D8CF8339F7E79F07D9F1F0F4E6
:1027F000803244E59407B1F18338E7E79E0731F171
:1028000084359140F1F46150710981E390E00E94B8
:10281000C20A70E060E082E390E00E94C20A70E0C9
:1028200060E083E390E00E94C20AC7CE863223E9CB
:102830009207C1F0893045EB9407A1F085329249A7
:1028400011F3F70161A172A1626003C0F70161A1F8
:1028500072A181E690E00E94C20A70E060E08AE620
:1028600090E0E1CFF70161A172A1626081E094E0A4
:102870000E94C20A70E060E084E094E0D4CF089542
:10288000FC016370668B848195812681378161307C
:1028900039F0633029F09187808733872287089544
:1028A000318720879387828708952F923F924F9296
:1028B0005F926F927F928F929F92AF92BF92CF92D0
:1028C000DF92EF92FF920F931F93CF93DF93CDB7D9
:1028D000DEB76A970FB6F894DEBF0FBECDBF9A8FF2
:1028E000898F7A8369834A01D22E18870F83370133
:1028F000BC2CDC0159962D913C915A97211531053C
:1029000009F015C118968D919C9119976817790750
:102910000CF0D7C11A968D919C91481759070CF06D
:10292000D0C14C2C512CB6E0CB9E600D711D1124F2
:102930007C876B87161617060CF0C3C1EA2DF0E0F2
:10294000FA87E98793E0EE0FFF1F9A95E1F7F88B7E
:10295000EF87CF01840F951F181619060CF0B1C12F
:10296000A98DBA8D58968C91811104C0BFEABD150E
:1029700008F4D394A98DBA8DED91FC91119702843E
:10298000F385E02DCD011995B5E0DB9EC001112442
:10299000E981FA81FC83EB83312C212C9C01245B9F
:1029A0003E4F388F2F8B4A2D50E05E8B4D8BEF8939
:1029B000F88DE20DF31D44919E828D82D12CC12CA5
:1029C00069817A81620D731D7A8B698B842F90E007
:1029D0009C8B8B8BE98DFA8DA081B18140FF82C0E9
:1029E000F1E0BF126FC0AF126DC01C96ED91FC916B
:1029F0002F813885A4014C0D5D1D69897A89898DE7
:102A00009A8D1995EB89FC89F595E7954E2F5FEF27
:102A1000C51AD50A6D817E818D899E89680F791FBF
:102A20007E836D8398E0C916D10481F6AFEF2A1A30
:102A30003A0AEB81FC81E40DF51DFC83EB83F5E0A4
:102A40002F16310409F0B3CF2F81388526153705AD
:102A5000B9F0A98DBA8DED91FC91B1E0BB1257C0D0
:102A6000AB1255C069817A816B5F7F4F0088F18915
:102A7000E02D830128E030E0A401898D9A8D19951D
:102A8000A98DBA8DED91FC9111970688F789E02DFB
:102A9000CD016A960FB6F894DEBF0FBECDBFDF91B1
:102AA000CF911F910F91FF90EF90DF90CF90BF904B
:102AB000AF909F908F907F906F905F904F903F90DE
:102AC0002F9019941E96ED91FC91EF80F884098562
:102AD0001A8592014D815E816B817C81898D9A8DF1
:102AE000199590CF2F8138852615370509F48ACF9F
:102AF00031E0B31207C0A31205C01C96ED91FC9102
:102B0000930178CF1E96ED91FC917301E0CF6B8518
:102B10007C85641975090684F785E02D73010F859E
:102B200018899201A401898D9A8D1995A9CFF9016F
:102B300034969491329745915491D91AB7E0DB9E1F
:102B4000400D511D1124F901259134913C8B2B8BA3
:102B5000FA0125903490FA013296749031963491AE
:102B6000398B329664903196449041E04C1518F0C0
:102B70004A1508F07FC0662D062C000C770B7C836D
:102B80006B83842D042C000C990B9E838D83A98D5F
:102B9000BA8DED91FC9111970284F385E02DCD0162
:102BA0001995512CD12CC12CEA2DF0E0FA87E98738
:102BB0002B2D30E03C872B87A401440D511D47FC91
:102BC0005A95588F4F8B69817A81660D711D67FC0C
:102BD0007A957E876D877989C71608F051CF2C2D9D
:102BE00030E04D815E81420F531FA985BA854A9F0F
:102BF000C0014B9F900D5A9F900D1124FC01E80DD0
:102C0000F91DF88BEF87852D612C4F89588D420F68
:102C1000531F5E8B4D8B671408F050C044244394BF
:102C2000480E877041F4C1010196EB89FC89E20DE1
:102C3000F31DD4901C01D7FE19C0A98DBA8DED915A
:102C4000FC91662D70E0B1E0BB1219C0AB1217C049
:102C50002D853E85620F731F0484F585E02D2F813D
:102C600038854D895E89898D9A8D1995DD0C63941F
:102C7000842DD1CF1E821D821C821B8288CF4B8166
:102C80005C81640F751FAB85BC856A9FC0016B9F1B
:102C9000900D7A9F900D112469817A81680F791FB8
:102CA0000684F785E02DEF80F88409851A859D015B
:102CB0004F855889898D9A8D1995D8CF570CC39413
:102CC0008ACF6A960FB6F894DEBF0FBECDBFDF91F4
:102CD000CF911F910F91FF90EF90DF90CF90BF9019
:102CE000AF909F908F907F906F905F904F903F90AC
:102CF0002F9008958F929F92AF92CF92EF92FF9272
:102D00000F931F93CF93DF93EC01262F898D9A8D1C
:102D1000009709F051C06A30D1F41D861C868D8958
:102D200048E0849F900111248E859F85820F931F18
:102D30009F878E8781E090E0DF91CF911F910F9167
:102D4000FF90EF90CF90AF909F908F9008956D304F
:102D500089F3CC88AD888F898823C1F08C859D85C7
:102D600036E0C39E800D911D112448855985481772
:102D7000590764F44E855F851D861C8638E0A39E46
:102D8000C0011124840F951F9F878E87EA88FB88D6
:102D9000088919894E855F856C857D85CE010E94E5
:102DA00055142C898C859D8546E0249F800D911DAE
:102DB00011249D878C87BECF6A3069F41D861C86DE
:102DC000FC013896E4912D898E859F85E29F800DC8
:102DD000911D1124ADCF6D3009F4ACCFFC013496B8
:102DE0003491631708F4A6CF3296E491E61708F4FD
:102DF000A1CFFC01329685909490462F431B342F2F
:102E000047E0349F800C911C1124F40132963491D8
:102E10003196E4913323A9F1EE2399F1CC88F401A2
:102E20003596E491AD884F89442301F10E2E000CB4
:102E3000FF0BE30FF11DCE9EA001CF9E500D11247C
:102E40006C857D85460F571F6885798564177507E2
:102E50006CF44E855F851D861C86FC013896E491D6
:102E6000AE9E400D511D11245F874E87EA88FB8876
:102E7000088919894E855F856C857D85CE010E9404
:102E80005514F4013496E4912C898C859D85E29F3C
:102E9000800D911D11248DCF6F927F928F929F9202
:102EA000AF92BF92CF92DF92EF92FF920F931F9358
:102EB000CF93DF93EC016B015A0139014801E8819E
:102EC000F9810284F385E02D1995E881F981028862
:102ED000F389E02D87019301A501B601CE01199573
:102EE000A501480D591D41505109E881F981028819
:102EF000F389E02D9301B601CE011995E881F9819E
:102F00000088F189E02D9401A501B601CE01199543
:102F1000C60CD71CB60161507109E881F98100889F
:102F2000F189E02D9401A501CE011995E881F9817F
:102F30000688F789E02DCE01DF91CF911F910F9187
:102F4000FF90EF90DF90CF90BF90AF909F908F90C9
:102F50007F906F9019946F927F928F929F92AF9211
:102F6000BF92CF92DF92EF92FF920F931F93CF9376
:102F7000DF935C01EB016A01490138018701DC0143
:102F8000ED91FC916217730719F5641675062CF024
:102F9000962D872D3A01C92ED82E9601261937096C
:102FA0002F5F3F4F048CF58DE02DA301BE01C501BD
:102FB0001995DF91CF911F910F91FF90EF90DF90C6
:102FC000CF90BF90AF909F908F907F906F9008951B
:102FD0004615570591F42617370724F0892D4B0124
:102FE000C22FD82F9E01281939092F5F3F4F068C19
:102FF000F78DE02DA601B401DACF0284F385E02D30
:103000001995D501ED91FC910488F589E02D830196
:103010009401A601BE01C5011995D501ED91FC9160
:103020000688F789E02DC501DF91CF911F910F919F
:10303000FF90EF90DF90CF90BF90AF909F908F90D8
:103040007F906F901994EF92FF920F931F93DC0182
:103050001A960D911C911B9718962D913C911997DA
:10306000ED91FC9100A0F1A1E02D7B0150E040E04A
:1030700070E060E019951F910F91FF90EF90089517
:103080004F925F926F927F928F929F92AF92BF9278
:10309000CF92DF92EF92FF920F931F93CF93DF9324
:1030A0006C012B015A0139014801DC01ED91FC91C1
:1030B0000284F385E02D1995E201640C751CD6019C
:1030C000ED91FC91C615D7055CF40088F189E02DDF
:1030D00087019401A501BE01C60119952196EFCF84
:1030E0000688F789E02DC601DF91CF911F910F91DE
:1030F000FF90EF90DF90CF90BF90AF909F908F9018
:103100007F906F905F904F9019948F929F92AF92A3
:10311000BF92CF92DF92EF92FF920F931F93CF93C4
:10312000DF93EC015B014A016901E881F9810284C6
:10313000F385E02D199595012C0D3D1D2150310988
:10314000E881F9810488F589E02D78018401A401E2
:10315000B501CE011995E881F9810688F789E02D3E
:10316000CE01DF91CF911F910F91FF90EF90DF90F3
:10317000CF90BF90AF909F908F9019948F929F9215
:10318000AF92BF92CF92DF92EF92FF920F931F9375
:10319000CF93DF93EC015B014A0169017801E8817B
:1031A000F9810284F385E02D1995C80CD91C86019C
:1031B00001501109E881F9810488F589E02D950114
:1031C000A401B501CE011995E881F9810688F78936
:1031D000E02DCE01DF91CF911F910F91FF90EF90E5
:1031E000DF90CF90BF90AF909F908F9019940895EB
:1031F000EF92FF920F931F93DC01ED91FC9100A0E1
:10320000F1A1E02D19951F910F91FF90EF90089576
:103210000F931F93DC01ED91FC91068CF78DE02D4F
:1032200019951F910F9108950F931F93DC01ED9154
:10323000FC91048CF58DE02D19951F910F91089547
:10324000DC01ED91FC910084F185E02D19942F9221
:103250003F924F925F926F927F928F929F92AF9226
:10326000BF92CF92DF92EF92FF920F931F93CF9373
:10327000DF9300D000D0CDB7DEB73C016A013E83BA
:103280002D83FC82EB825801A41AB50AB7FE03C055
:10329000B194A194B1088D809E80861A970A97FEFA
:1032A00003C09194819491088A149B045CF0902F40
:1032B000812F0D811E819D838E839C2D8D2D6B0111
:1032C000692F782F0C151D055CF09D818E817E8302
:1032D0006D83692F782F902F812F8601C92ED82ECC
:1032E0001601201A310A2B012D813E81421A530A00
:1032F00057FE03C0519441945108710137FE03C039
:103300003FEFE31AF30AF594E7948D819E818617C7
:1033100097075CF5A1E0B0E0BA83A983C016D10697
:103320004CF1D301ED91FC910484F585E02D2B81C6
:103330003C81A8016D817E818A149B041CF04D8123
:103340005E81B801C3011995E418F508F7FE0AC0BB
:103350002D813E8189819A81280F391F3E832D83DB
:10336000E20CF31C0F5F1F4FD9CF2FEF3FEF3A83D3
:103370002983D4CF26960FB6F894DEBF0FBECDBFFB
:10338000DF91CF911F910F91FF90EF90DF90CF9041
:10339000BF90AF909F908F907F906F905F904F9075
:1033A0003F902F900895FC01DB0112968D919C9126
:1033B00013979383828314968D919C91159795838F
:1033C000848316968D919C91179797838683189680
:1033D0008D919C911997918780871A968D919C91D8
:1033E0001B97938782871C968D919C911D9795873B
:1033F00084871E968D919C911F97978786875096FC
:103400008D919C915197918B808B52968D919C912F
:103410005397938B828B54968C915497848B5596AB
:103420008C915597858B56968C915697868B57968F
:103430008C915797878B58968C915897808F599677
:103440008D919C915A97928F818F89E192E091831F
:1034500080835B968D919C915C97948F838F5D9612
:103460008D919C915E97968F858F5F968D919C91A3
:10347000909790A3878F91968D919C91929792A30C
:1034800081A393968D919C91949794A383A39596F1
:103490008D919C91969796A385A397968D919C91DB
:1034A000989790A787A399968D919C919A9792A7A8
:1034B00081A79B968D919C919C9794A783A79D969D
:1034C0008D919C919E9796A785A79F968D919C9193
:1034D000D09790AB87A7D1968D919C91D29792ABC4
:1034E00081ABD3968D919C9194AB83AB0895EF9271
:1034F000FF920F931F93DC011A960D911C911B975D
:1035000018962D913C911997ED91FC9100A0F1A195
:10351000E02D7B0150E040E070E060E019951F91E4
:103520000F91FF90EF900895EF92FF920F931F93EA
:10353000DC01ED91FC9100A0F1A1E02D780101E00A
:1035400010E019951F910F91FF90EF900895EF9261
:10355000FF920F931F93DC01ED91FC9100A0F1A16C
:10356000E02D7801890121E030E019951F910F913C
:10357000FF90EF900895089590E080E008950E94F4
:10358000B32A8F929F92AF92BF92EF92FF920F93C6
:103590001F93CF93DF93CDB7DEB7A1970FB6F89403
:1035A000DEBF0FBECDBF7C01FA01CB0119A22230D4
:1035B00008F42AE08E010F5D1F4F822E912CB12C52
:1035C000A12CBF01A50194010E946A28F901CA013A
:1035D0006A304CF5605DD8016E938D01232B242B4E
:1035E000252B79F790E080E0109761F0FD010190C4
:1035F0000020E9F73197AF014A1B5B0BBD01C70102
:103600000E940308A1960FB6F894DEBF0FBECDBF8F
:10361000DF91CF911F910F91FF90EF90BF90AF90EE
:103620009F908F900895695CD6CF6115710551F018
:10363000FB0101900020E9F73197AF01461B570BC2
:103640000C94030890E080E00895EF92FF920F93AE
:103650001F93CF93DF93EC017A01FB0101900020CF
:10366000E9F73197E61BF70B8C010A5E1F4F3C9779
:10367000B0F5C8010E94C32AF70101900020E9F7C4
:103680003197EE19FF09CE018396B701349710F0F8
:1036900067E472E00E94C32A6BE472E0C8010E94F2
:1036A000B82AF80101900020E9F73197E01BF10BEF
:1036B00086EFE89FE02D1124EA58ED8B89898A3046
:1036C00088F488E08B8B8A898A3070F482E08C8B56
:1036D000DF91CF911F910F91FF90EF90089561E4DA
:1036E00072E0C7CF82E0EECF843610F488E0EFCFEF
:1036F0008EE0EDCFCF92DF92EF92FF920F931F9368
:10370000CF93DF93EC016B0181E0888382E0FB01C2
:10371000848B858B09851A850A5F1F4F2F81388519
:103720002A5F3F4F4B815C814350510969817A8107
:1037300063507109EE24EA94FE2CC6010E944C17D6
:103740002F8538894B8989819A81841B9109F601DB
:103750009587848737872687498950E070E060E045
:103760002AE0C6010E94C11A2F8538898D894981B6
:103770005A81840F952F911DF6019587848737878D
:103780002687BE016A5E7F4FC6010E94151B8F858A
:1037900098892D853E85F60135872487978786870A
:1037A0004B855C8570E060E02AE0C6010E94C11A8A
:1037B000BE016D5D7F4FC6010E94151B2F853889A4
:1037C00089819A814F815885840F951F4C89841B6C
:1037D0009109F60195878487378726874A8950E0C3
:1037E00070E060E02AE0C601DF91CF911F910F9158
:1037F000FF90EF90DF90CF900C94C11A8F929F9220
:10380000AF92BF92CF92DF92EF92FF920F931F93EE
:10381000CF93DF93CDB7DEB7E5970FB6F894DEBF51
:103820000FBECDBF6C018A01DC0111968D919C9178
:1038300012979C01255031091796ED91FC9118972C
:103840002617370708F0A1C06817790708F0A0C04D
:1038500016961C921E921597D60151968C905197F0
:10386000912CB12CA12C52962C91529730E050E023
:1038700040E0281939094A095B0915968D919C91F8
:10388000DC010E9457289F0150E040E00E94382848
:10389000820E931EA41EB51EF60194868386B8017F
:1038A000CE0101960E94D31982E08D8B8E8BD601BA
:1038B00019960D911C911A9715962D913C9116977A
:1038C00013964D915C91149711966D917C91EE2415
:1038D000EA94FE2CCE0101960E940E0EF60165813F
:1038E00076810185128527813085261B370B438120
:1038F000548181819281680F791FF12CE12CCE01D6
:1039000001960E940E0ED60117962D913C911897A4
:1039100036952795369527951F964D915C91509732
:103920001D966D917C910FE010E0CE0101960E94F2
:103930000E0EF60187859089258536853E872D8771
:10394000988B8F874385548570E060E02AE0CE0134
:1039500001960E94C11AB6016D5D7F4FCE0101969E
:103960000E94151BE5960FB6F894DEBF0FBECDBFC3
:10397000DF91CF911F910F91FF90EF90DF90CF904B
:10398000BF90AF909F908F9008956817790770F05F
:103990009C012E0F3F1F2617370740F0681B790B3D
:1039A000D60116967C936E93159756CF8E0F9F1F58
:1039B0008617970708F050CF05966817790708F023
:1039C0004BCFD6011696FC93EE93159745CF1F92D9
:1039D0000F920FB60F9211242F933F938F939F93C3
:1039E000AF93BF938091750290917602A091770278
:1039F000B09178023091740223E0230F2D3758F5EF
:103A00000196A11DB11D20937402809375029093BD
:103A10007602A0937702B093780280917902909118
:103A20007A02A0917B02B0917C020196A11DB11D8A
:103A30008093790290937A02A0937B02B0937C02E8
:103A4000BF91AF919F918F913F912F910F900FBE9A
:103A50000F901F90189526E8230F0296A11DB11D07
:103A6000D2CF1F920F920FB60F9211240BB60F9266
:103A70002F933F934F935F936F937F938F939F9376
:103A8000AF93BF93EF93FF938EE792E00E94770886
:103A9000FF91EF91BF91AF919F918F917F916F9126
:103AA0005F914F913F912F910F900BBE0F900FBEE2
:103AB0000F901F9018951F920F920FB60F9211241E
:103AC0000BB60F922F938F939F93EF93FF93E091F9
:103AD0008E02F0918F028081E0919402F091950224
:103AE00082FD1DC09081809197028F5F8F7320911E
:103AF0009802821741F0E0919702F0E0E258FD4F02
:103B0000958F80939702FF91EF919F918F912F91C5
:103B10000F900BBE0F900FBE0F901F9018958081D5
:103B2000F2CFEEE7F2E01382128288EE93E0A0E09B
:103B3000B0E084839583A683B78387E092E0918386
:103B4000808385EC90E09587848784EC90E097876C
:103B5000868780EC90E0918B808B81EC90E0938B5A
:103B6000828B82EC90E0958B848B86EC90E0978B37
:103B7000868B118E128E138E148EEDEAF3E0138273
:103B8000128280EF90E09583848320E431E03783D4
:103B900026839187808733872287168A1586148625
:103BA0001786168621E0258B248B4FEF5FEF538B12
:103BB000428B518B408B278B108E128E118E29E1F8
:103BC00032E031832083A9E9B3E027E312962C93F6
:103BD000129728E314962C93149727E013962C93AE
:103BE000139726E015962C9315972CE231E0179643
:103BF0003C932E931697E2E1FEE0E491F0E0EE0FA5
:103C0000FF1FEE50F24F2591349119963C932E935D
:103C10001897E3E4FEE0E491F0E0EE0FFF1FEE50B2
:103C2000F24F259134911B963C932E931A97E4E41E
:103C3000FEE0E491F0E0EE0FFF1FEE50F24F259111
:103C400034911D963C932E931C97E3E1FEE0E491A2
:103C5000F0E0EE0FFF1FEE50F24F259134911F96CA
:103C60003C932E931E97E2EBFDE0E4915096EC938B
:103C70005097E3EEFDE0E4915296EC935297E4EE18
:103C8000FDE0E4915196EC935197E3EBFDE0E49174
:103C90005396EC9353972AE030E02D933C93E3E95D
:103CA000F3E0158214821382128211821082EBE6F5
:103CB000F3E09087878369E170E07287618748E26B
:103CC00050E0528341832CE330E034832383118A14
:103CD00024E6228B2EEB30E036872587A0E6B0E085
:103CE000B08BA7871486138616821582E3E4F3E06F
:103CF000908787837287618752834183A8E7B0E00A
:103D0000B483A383118AAEE1A28B36872587ACE901
:103D1000B0E0B08BA7871486138616821582EBE17C
:103D2000F3E090878783728761875283418384EBB6
:103D300090E09483838385E0818B8FE0828B36874C
:103D4000258788ED90E0908B878785E090E09487C9
:103D50008387168215820895CF93DF93CDB7DEB7A0
:103D6000EA970FB6F894DEBF0FBECDBF789484B546
:103D7000826084BD84B5816084BD85B5826085BD67
:103D800085B5816085BD80916E00816080936E00F5
:103D900010928100809181008260809381008091E7
:103DA0008100816080938100809180008160809398
:103DB00080008091B10084608093B1008091B00058
:103DC00081608093B0008091910082608093910027
:103DD000809191008160809391008091900081603A
:103DE000809390008091A10082608093A1008091D7
:103DF000A10081608093A1008091A00081608093E8
:103E0000A000809121018260809321018091210195
:103E10008160809321018091200181608093200145
:103E200080917A00846080937A0080917A00826029
:103E300080937A0080917A00816080937A008091EB
:103E40007A00806880937A001092C1000E94A20BD1
:103E500060E090E080E00E94D10B7C01883024E596
:103E6000920779F18032944561F189E8E816F80605
:103E700009F43CC160E087E690E00E94D10B37E492
:103E8000E32E33E8F32E87349744D9F08FEE90E099
:103E90000E94E00C7B016732734999F081EA90E05F
:103EA0000E94C10C23E6E22E29E1F22E6130F1E6F8
:103EB0007F0739F06F3F7607B1F5A6E2EA2EA5E15C
:103EC000FA2E0E94A20B1092C9031092C803F0921E
:103ED000CD03E092CC0331E3E31630E8F30609F4B6
:103EE0006DC708F0DFC193E5E91690E2F90609F421
:103EF000CAC708F066C1E1E1EE16E5E1FE0609F485
:103F0000C3C208F016C129E9E216F10409F466C734
:103F100008F000C1EA94EF2809F479C71092B203BF
:103F20001092B103AEC261153FEF730729F4F0E2BE
:103F3000EF2EF5E1FF2EC5CF91EAE92E95E0F92E9F
:103F40006115704F09F4BDCF8FEB90E00E94E00C3B
:103F50007B0197E5E91693E8F90609F4B2CFA1E8E9
:103F6000EA16A4E9FA0609F4ACCFE1E1EE16E5E1C0
:103F7000FE0609F4A6CFF0E2EF16F5E1FF06B9F26E
:103F800026E2E21625E1F20609F497CF31E8E316BE
:103F900035E1F30609F495CFE11484E1F80609F45C
:103FA000AAC084ED90E00E94C10C7B0190E1E9166B
:103FB00093E5F90609F485CF87ED90E00E94C10CE6
:103FC0007B016133704809F47CCF8EEF90E00E9452
:103FD000C10C672F782F892F99277B016335704299
:103FE00009F46FCF84E090E00E94C10C7B01833E16
:103FF00031F4672B59F5E12CB3EEFB2E62CF811122
:1040000025C06115704811F5809100029091010260
:10401000A091020289839A83AB83AE014F5F5F4F09
:1040200063E089EB90E00E94030A60E080ED90E09D
:104030000E94D10B79E9E72EF12C893909F441CF9F
:104040008039E1F460E9E62EFE2C3BCF26E2E21651
:1040500025E1F20609F431CF30EFE31639E8F30633
:1040600009F44EC082E5E81685E8F80609F44DC06B
:1040700091E1E9169CEAF90609F423CF83ED90E07B
:104080000E94C10C672F782F892F99277B016336F7
:10409000714909F416CF83ED90E00E94C10C872F7F
:1040A000E62EF72EE9E2EE16E2E3FE0609F409CF6A
:1040B0008359823008F405CF783909F402CF773775
:1040C00009F4FFCE763109F4FCCEF3EDEF16F104DE
:1040D00009F4F7CE23EDE216F20609F4F2CE60E021
:1040E00090E080E00E94D10B7C01EBCE49E8E42E09
:1040F00042E1F42EE6CE84E1E82E88E6F82EE1CE09
:10410000A5E3EA2EA7E7FA2EDCCEF9E8EF2EF7E7D3
:10411000FF2ED7CE94E5E91691E0F90609F4A5C182
:10412000A5E0EA16A5E1FA0609F0F8CE84E090E1F0
:1041300070C6E1E8EE16E5E1FE0609F4B0C6C8F483
:1041400020E2E21625E1F20609F4E1C536E2E316C3
:1041500035E1F30609F0E2CE83E194E09093CB03DE
:104160008093CA030CE010E069EAE62E68E0F62EC0
:10417000A3C182E0E81686E1F80609F477C693E663
:10418000E91699E1F90609F0C9CE81E0809373023E
:1041900083E59AE09093CB038093CA0380EE91E08D
:1041A0009093B4038093B30380E293E09093B203BF
:1041B0008093B10303E510E056E5E52E58E0F52EB7
:1041C0007BC1A9E0EA16A8E6FA0609F42BC638F581
:1041D000F5E3EF16F5E4FF0609F4A6C598F439E215
:1041E000E31632E3F30609F099CE83E096E090936C
:1041F000CB038093CA0300E410E046E1E42E48E0DC
:10420000F42E5AC180E1E81683E5F80609F497C553
:1042100098E0E91694E5F90609F488CF7FCEA9E87D
:10422000EA16A7E7FA0609F4BCC5B8F4F4E1EF16FC
:10423000F8E6FF0609F49CC523E8E21627E7F20634
:1042400009F06CCE82E091E19093CB038093CA0396
:1042500068E870E082ED9BE012C133E9E31637E7CE
:10426000F30609F451C686E9E81687E7F80609F06F
:1042700055CE83E094E09093CB038093CA0380EE05
:1042800091E09093B4038093B30380E491E0909322
:10429000B2038093B1030DE010E036E8E32E36E080
:1042A000F32E0AC198E3E91693E9F90609F4F1C57A
:1042B00008F05DC0E5E2EE16E3E9FE0609F446C04B
:1042C00090F520E9E216F20609F485C5F8F487E5D1
:1042D000E81683E8F80609F021CE83E094E1909394
:1042E000CB038093CA0380EE91E09093B403809354
:1042F000B30380E491E09093B2038093B10302E0B2
:1043000010E0BCEBEB2EB7E0FB2ED6C092E0E91636
:1043100093E9F90609F4BAC5A0E2EA16A3E9FA0698
:1043200009F404CFFBCDE9E2EE16E3E9FE0609F459
:10433000B3C578F427E2E21623E9F20609F47DC555
:1043400038E2E31633E9F30609F0E8CD80E091E1C5
:104350006BC581E3E81683E9F80631F095E3E916C9
:1043600093E9F90609F0DACD80E090E15DC5A9E8AE
:10437000EA16A4E9FA0608F042C0E7E8EE16E4E916
:10438000FE0608F0A8C5F1E8EF16F4E9FF0609F407
:104390009FC5B0F430E4E31A33E9F30A82E0E8168B
:1043A000F10408F0BBCD83E194E09093CB038093BC
:1043B000CA0305E610E063E1E62E67E0F62E7CC056
:1043C00096E8E91694E9F90609F0A8CD83E094E0AF
:1043D0009093CB038093CA0380EE91E09093B40353
:1043E0008093B30380E491E09093B2038093B10390
:1043F0000BE310E043E9E42E46E0F42E5DC0A9E0B3
:10440000EA16A5EBFA0609F47FC5C0F483E194E14E
:10441000F1E1EF16FCEAFF06E9F025E0E21625EBF4
:10442000F20609F07BCD88E090E19093CB03809376
:10443000CA0360EB70E08EE799E021C035E0E31637
:1044400035ECF30681F3E11483EEF80609F066CD4E
:1044500083E19EE09093CB038093CA0303E010E0D6
:1044600078E7E72E77E0F72E27C082E090E190937F
:10447000CB038093CA036CE970E086EF9CE00E9456
:10448000140DF12CE12C18C083E090E09093CB0345
:104490008093CA0380EE91E09093B4038093B303BA
:1044A00080E491E09093B2038093B10303E010E0C5
:1044B000EBEBEE2EE8E0FE2E2091CB03822F8295CF
:1044C0008F7090E0817099279093CF038093CE03F3
:1044D000E114F10481F069E070E082E596E00E9469
:1044E0005709B801C7010E94570966E070E08CE4E3
:1044F00096E00E94570960E08DEA93E00E94F21175
:1045000060E08DEA93E00E94360D8091CC0390919B
:10451000CD038838944909F0DAC11092720220EE76
:104520003FEF50E040E070E060E08DEA93E00E94F1
:104530008810E090D803F090D9038091CA0380FFDF
:1045400003C09EE2E92EF12C8091CC039091CD0323
:104550008230964119F48EE2E82EF12C10E000E052
:1045600030E020E050E040E070E060E08DEA93E071
:104570000E94790D8091CA0380FD10C070E060E058
:104580008091D4039091D5030E94C20A70E060E04C
:104590008091D6039091D7030E94C20A8B988A9883
:1045A00080910201877880930201A5988EB1877C63
:1045B0008EB9409102018F2D90E09C0105E0220F01
:1045C000331F0A95E1F72076242B209302014EB188
:1045D0009C01220F331F220F331F2073242B2EB96F
:1045E00044B39C01220F331F2072242B24BB4EB1F5
:1045F0009C0135952795359527952870242B2EB944
:1046000020910201E3E095958795EA95E1F788719D
:10461000822B809302018998899A80910201877880
:1046200080930201A5988EB1877C8EB940910201DA
:10463000C7019701F5E0220F331FFA95E1F72076C5
:10464000242B209302014EB19701220F331F220F1A
:10465000331F2073242B2EB944B39701220F331F2D
:104660002072242B24BB4EB19701359527953595A3
:1046700027952870242B2EB92091020103E09595EF
:1046800087950A95E1F78871822B809302018998BA
:10469000899A8A9A809101018778809301019D9877
:1046A0008DB1877C8DB94091CA035091CB03809125
:1046B000CC039091CD0346FD13C0889A88988898C2
:1046C0008898209100012CB122B32CB120910001D7
:1046D000889A40FD05C08938F2E19F0709F027C498
:1046E0008131954161F4889A88988898889880915A
:1046F00000018CB182B38CB180910001889ABA011B
:1047000064707727889A88988898889844FF31C47D
:10471000209100018CB1F2B3ECB19091000130E036
:1047200055E0359527955A95E1F72370869586953E
:104730008C70822B2F2F26952071822BA4E0EA9F6C
:10474000900111242072822BE8E09E9F9001112499
:10475000207C822B889A889A8898889888982091BB
:1047600000019CB1A2B3FCB1E091000130E0B5E0E2
:1047700035952795BA95E1F72370969596959C7097
:10478000922B2A2F26952071922BA4E0FA9F90015C
:1047900011242072922BF8E0EF9F90011124207CCD
:1047A000922B889A889A88988898889820910001F6
:1047B000ECB0A2B3FCB1E091000130E015E035951A
:1047C00027951A95E1F72370E694E6943E2D3C7008
:1047D000E32EE22A2A2F26952071E22AA4E0FA9FEE
:1047E000900111242072E22AF8E0EF9F9001112439
:1047F000207C2E29889AE92FF0E0672B09F4A4C3C6
:10480000E22EF12CFE2CEE24EE2428EFF22203E01F
:10481000EE0FFF1F0A95E1F7E07EF770EE2AFF2A00
:10482000869586958695E82A80917202882399F06C
:10483000C70155E0969587955A95E1F780729927BB
:104840009701369527952F713327822B932BF0EC08
:10485000EF22E82AF92A889A8B9A809101018867C9
:10486000809301019D9A8DB188638DB940FD14C07C
:104870000091B7031091B803015011092091B503BD
:104880003091B6032150310950E040E070E060E023
:104890008DEA93E00E94790D2FE1E2162FEFF206E8
:1048A000B1F486E08983AE014F5F5F4F61E08AE338
:1048B00090E00E94030A8091CA039091CB038F7EFF
:1048C0009093CB038093CA0381E080937202E091BE
:1048D0008E02F0918F0282E08083E0918A02F09153
:1048E0008B021082E0918C02F0918D0280E1808336
:1048F00010929602E0919202F091930286E08083FA
:10490000E0919002F0919102808180618083E0913A
:104910009002F0919102808188608083E091900202
:10492000F0919102808180688083E0919002F09103
:10493000910280818F7D80836AE070E080E090E06A
:104940000E94D00760E08DEA93E00E94F21170E0CF
:1049500060E08DEA93E00E94771A68EE73E080E0F1
:1049600090E00E94D0074DE452E06FE472E08BE6E5
:1049700093E00E94251B48E552E06CE572E083E479
:1049800093E00E94251B44E652E067E672E08BE16B
:1049900093E00E94251B6DEA73E0CE0101960E9410
:1049A000D319BE016F5F7F4F8BE693E00E947A1BA5
:1049B0006DEA73E0CE0101960E94D319BE016F5FCC
:1049C0007F4F83E493E00E947A1B6DEA73E0CE018F
:1049D00001960E94D319BE016F5F7F4F8BE193E078
:1049E0000E947A1B0FEF13E042EA442E4CEF542E44
:1049F00066246A94762C60E080919B030E945D0798
:104A000060E080919C030E945D0761E080919E03BD
:104A10000E945D0761E080919D030E945D07809187
:104A2000A903E091A103F091A2039081892B8083D7
:104A30008091AA03E091A503F091A603908180954F
:104A40008923808380919B030E948E077C01809143
:104A50009B030E948E079701281B390B2C5F3F4F49
:104A60002930310508F0F9C28E0D9F1D9595879567
:104A700031E03EABF801E81BF90BF8AFEFAB60E0BB
:104A800080919E030E945D0760E080919D030E94DB
:104A90005D0761E080919B030E945D0761E080916A
:104AA0009C030E945D078091AC03E091A703F09105
:104AB000A80390818095892380838091AB03E09146
:104AC000A303F091A4039081892B808380919D039F
:104AD0000E948E077C0180919D030E948E079701A2
:104AE000281B390B2C5F3F4F2930310508F0B7C226
:104AF0008E0D9F1D959587959801281B390B3AAF10
:104B000029AF61E080919E030E945D0760E0809183
:104B10009B030E945D078091A903E091A103F0919E
:104B2000A20390818095892380838091AC03E091DA
:104B3000A703F091A8039081892B808380919D0326
:104B40000E948E077C0180919B030E948E07BC010E
:104B500020909F033090A0032114310409F481C2F6
:104B6000072E000C880B990B0E94BA294B015C019F
:104B7000B701FF0C880B990B0E94BA299B01AC016D
:104B8000C501B4010E94102920E030E040E85FE355
:104B90000E94A3286B017C01EFA9F8ADBF01FF0FB4
:104BA000880B990B0E94BA29A70196010E94462AF8
:104BB0006B017C01B10190E080E00E94B829A7015F
:104BC00096010E94462A20E030E040E85AE30E9425
:104BD000462A0E9482293EA9311102C070E060E09D
:104BE0008FA998AD9093940380939303E9ADFAADA8
:104BF000F0939603E0939503709398036093970363
:104C000061E088E30E945D0761E087E30E945D0741
:104C10008091970390919803895C91098F3193401B
:104C200008F072C02091930330919403032E000C7E
:104C3000440B550B265A334041095109A091B50345
:104C4000B091B6030E94622826EF3CEF4FEF5FEF72
:104C50000E94382869012091950330919603032E14
:104C6000000C440B550B245D334041095109A091C0
:104C7000B703B091B8030E946228A30192010E9479
:104C800038284901A901B6018BE693E00E94370953
:104C9000882371F06DEA73E0CE0101960E94D3196A
:104CA000AE014F5F5F4FB6018BE693E00E94FE1BA3
:104CB000A401B60183E493E00E943709882371F0D0
:104CC0006DEA73E0CE0101960E94D319AE014F5FE9
:104CD0005F4FB60183E493E00E94FE1BA401B6017E
:104CE0008BE193E00E943709882371F06DEA73E04D
:104CF000CE0101960E94D319AE014F5F5F4FB601FE
:104D00008BE193E00E94FE1B0E94060974CE83E1B2
:104D100094E09093CB038093CA0306E010E075EB18
:104D2000E72E78E0F72EC8CB80E090E19093CB039C
:104D30008093CA036CE970E08AE59CE0A0CB83E134
:104D40009EE09093CB038093CA0380EE91E0909312
:104D5000B4038093B30380E491E09093B203809313
:104D6000B10302E010E034E1E32E38E0F32EA4CBEF
:104D700083E094E09093CB038093CA0380EE91E0AC
:104D80009093B4038093B30380E491E09093B203D3
:104D90008093B10303E010E021E1E22E28E0F22E3F
:104DA0008BCB83E194E09093CB038093CA0301E41F
:104DB00010E090EDE92E97E0F92E7ECB83E194E1AF
:104DC0009093CB038093CA0302E110E08EEBE82EB0
:104DD00087E0F82E71CB83E194E181CA83E194E10D
:104DE0009093CB038093CA0380EE91E09093B40339
:104DF0008093B30380E491E09093B2038093B10376
:104E00000DE110E0AFE9EA2EA7E0FA2E55CB80E0E5
:104E100091E19093CB038093CA0368ED70E08AEF31
:104E20009AE02DCB82E091E19093CB038093CA036B
:104E30006CEC70E08EE29AE022CB83E094E09093F9
:104E4000CB038093CA0380E991E09093B4038093ED
:104E5000B30380EF90E09093B2038093B1030EE12F
:104E600010E0F1E8EF2EF7E0FF2E26CB83E094E090
:104E70009093CB038093CA0306E010E0EBE7EE2E9D
:104E8000E7E0FE2E19CB87E194E1E4CA83E094E0E9
:104E9000E1CA83E194E0DECA83E096E1DBCA83E104
:104EA00094E09093CB038093CA0380EE91E09093BB
:104EB000B4038093B30380E491E09093B2038093B2
:104EC000B10305E410E05EECE52E56E0F52EF4CAE1
:104ED00087E094E0E6CF83E194E09093CB03809366
:104EE000CA0380EE91E09093B4038093B30380E40F
:104EF00091E09093B2038093B1030BE210E02BE5B5
:104F0000E22E26E0F22ED8CA80E090E19093CB0307
:104F10008093CA0360EC70E08EEB98E00E94140D61
:104F200080E991E09093B4038093B303AACA889A6E
:104F3000889888988898209100012CB122B32CB1D0
:104F400020910001889ACCCBE82EF12CFE2CEE2487
:104F5000EE2438EFF322B3E0EE0FFF1FBA95E1F72E
:104F6000E07EF770EE2AFF2A269526952695E22AFE
:104F70005BCC909100010CB112B3BCB1A0910001C7
:104F8000889A889A88988898889820910001ECB12E
:104F9000E2B2DCB08091000130E0F5E03595279574
:104FA000FA95E1F723703327F0E0F595E795F5954D
:104FB000E795EC70FF272E2B3F2BF12CF594E7940F
:104FC000E0E1EE22FF24E22AF32AF4E0DF9E9001E2
:104FD000112420723327E22AF32A28E0829FF0016D
:104FE0001124E07CFF27EE2AFF2A889A892F90E07F
:104FF000F5E095958795FA95E1F783700695069506
:105000000C70802B16951071812B94E0B99F900144
:1050100011242072822BE8E0AE9FD0011124A07CE5
:105020008A2BF82A43FF03C0FE24EF24FE24672BBB
:1050300009F4FACBC701807E97709701232F33279D
:10504000269526952695822B932BFE2CEE24FF0C7D
:10505000FF0CFF0CE82AF92AE7CB1EAA0BCD1EAAEB
:105060004BCD6E197F099801261B370BB901B3CDC3
:10507000052E97FB1EF400940E944F2857FD07D081
:105080000E946A2807FC03D04EF40C944F285095D8
:105090004095309521953F4F4F4F5F4F0895909524
:1050A0008095709561957F4F8F4F9F4F08950E9417
:1050B0008C28A59F900DB49F900DA49F800D911DED
:1050C00011240895B7FF0C9457280E945728821B7B
:1050D000930B0895A1E21A2EAA1BBB1BFD010DC064
:1050E000AA1FBB1FEE1FFF1FA217B307E407F50798
:1050F00020F0A21BB30BE40BF50B661F771F881F74
:10510000991F1A9469F760957095809590959B0109
:10511000AC01BD01CF010895A29FB001B39FC001B2
:10512000A39F700D811D1124911DB29F700D811DD3
:105130001124911D0895EE0FFF1F881F8BBF07904C
:10514000F691E02D19945058BB27AA270E94BB283E
:105150000C940C2A0E94FE2938F00E94052A20F0A7
:1051600039F49F3F19F426F40C94FB290EF4E095D2
:10517000E7FB0C94F529E92F0E941D2A58F3BA1772
:10518000620773078407950720F079F4A6F50C945D
:105190003F2A0EF4E0950B2EBA2FA02D0B01B9017A
:1051A00090010C01CA01A0011124FF27591B99F09D
:1051B000593F50F4503E68F11A16F040A22F232FA9
:1051C000342F4427585FF3CF469537952795A795F9
:1051D000F0405395C9F77EF41F16BA0B620B730BA0
:1051E000840BBAF09150A1F0FF0FBB1F661F771F11
:1051F000881FC2F70EC0BA0F621F731F841F48F4C6
:10520000879577956795B795F7959E3F08F0B0CF4E
:105210009395880F08F09927EE0F97958795089535
:105220000E9424290C940C2A0E94052A58F00E94FE
:10523000FE2940F029F45F3F29F00C94F529511123
:105240000C94402A0C94FB290E941D2A68F3992390
:10525000B1F3552391F3951B550BBB27AA27621772
:105260007307840738F09F5F5F4F220F331F441F7F
:10527000AA1FA9F335D00E2E3AF0E0E832D09150B3
:105280005040E695001CCAF72BD0FE2F29D0660FA0
:10529000771F881FBB1F261737074807AB07B0E8E3
:1052A00009F0BB0B802DBF01FF2793585F4F3AF0E9
:1052B0009E3F510578F00C94F5290C94402A5F3FED
:1052C000E4F3983ED4F3869577956795B795F7956F
:1052D0009F5FC9F7880F911D9695879597F9089557
:1052E000E1E0660F771F881FBB1F621773078407F3
:1052F000BA0720F0621B730B840BBA0BEE1F88F702
:10530000E09508950E9489296894B1110C94402A6F
:1053100008950E94252A88F09F5798F0B92F992761
:10532000B751B0F0E1F0660F771F881F991F1AF090
:10533000BA95C9F714C0B13091F00E943F2AB1E08C
:1053400008950C943F2A672F782F8827B85F39F08B
:10535000B93FCCF3869577956795B395D9F73EF429
:1053600090958095709561957F4F8F4F9F4F0895D1
:10537000E89409C097FB3EF49095809570956195EF
:105380007F4F8F4F9F4F9923A9F0F92F96E9BB27A5
:105390009395F695879577956795B795F111F8CF21
:1053A000FAF4BB0F11F460FF1BC06F5F7F4F8F4F8C
:1053B0009F4F16C0882311F096E911C0772321F082
:1053C0009EE8872F762F05C0662371F096E8862F1A
:1053D00070E060E02AF09A95660F771F881FDAF771
:1053E000880F9695879597F9089597F99F6780E8B4
:1053F00070E060E008959FEF80EC089500240A9427
:105400001616170618060906089500240A9412169F
:105410001306140605060895092E0394000C11F4D2
:10542000882352F0BB0F40F4BF2B11F460FF04C07F
:105430006F5F7F4F8F4F9F4F089557FD9058440FD8
:10544000551F59F05F3F71F04795880F97FB991FE3
:1054500061F09F3F79F087950895121613061406A0
:10546000551FF2CF4695F1DF08C01616170618062D
:10547000991FF1CF86957105610508940895E89408
:10548000BB2766277727CB0197F908950E94592AF1
:105490000C940C2A0E94FE2938F00E94052A20F064
:1054A000952311F00C94F5290C94FB2911240C94EC
:1054B000402A0E941D2A70F3959FC1F3950F50E07A
:1054C000551F629FF001729FBB27F00DB11D639FB6
:1054D000AA27F00DB11DAA1F649F6627B00DA11D5C
:1054E000661F829F2227B00DA11D621F739FB00D02
:1054F000A11D621F839FA00D611D221F749F332772
:10550000A00D611D231F849F600D211D822F762F0A
:105510006A2F11249F5750409AF0F1F088234AF0E7
:10552000EE0FFF1FBB1F661F771F881F9150504053
:10553000A9F79E3F510580F00C94F5290C94402A60
:105540005F3FE4F3983ED4F3869577956795B795DA
:10555000F795E7959F5FC1F7FE2B880F911D9695F4
:10556000879597F9089581E090E0F8940C94CA2A01
:10557000FB01DC010D900020E9F7119701900D92DD
:105580000020E1F70895FB01DC0101900D9200205D
:08559000E1F70895F894FFCF44
:10559800FF835700000000990803083008E60861F7
:1055A800083F085308000000007A160308BC1ABB1D
:1055B8001A8810F7182019F818141908192719F754
:1055C80018F211360DA71A941A0E0E771AAB174C4B
:1055D800176572726F7200657272003D0025005087
:1055E8006F74656E636961006D696E004475726100
:1055F80063616F00636D0044697374616E63696110
:025608000000A0
:00000001FF
